:020000040800F2
:1000000078070020D5010008C10F0008ED0800089E
:10001000BD0F00088D040008031700080000000051
:100020000000000000000000000000005F12000857
:100030009104000800000000351000087D1400083D
:10004000EF010008EF010008EF010008EF010008D0
:10005000EF010008EF010008EF010008EF010008C0
:10006000EF010008EF010008EF010008EF010008B0
:10007000EF010008EF010008EF010008EF010008A0
:10008000EF010008EF010008EF010008EF01000890
:10009000EF010008EF010008EF010008EF01000880
:1000A000EF010008EF010008EF010008EF01000870
:1000B000EF010008EF010008EF010008EF01000860
:1000C000EF010008EF010008EF010008EF01000850
:1000D000EF010008E1140008EF010008EF0100083B
:1000E000EF010008EF010008EF010008EF01000830
:1000F000EF010008EF010008EF010008EF01000820
:10010000EF010008EF010008EF010008EF0100080F
:10011000EF010008EF010008EF010008EF010008FF
:10012000EF010008EF010008EF010008EF010008EF
:1001300000F002F800F03FF80AA090E8000C8244BA
:100140008344AAF10107DA4501D100F034F8AFF297
:10015000090EBAE80F0013F0010F18BFFB1A43F0A5
:100160000103184780370000A0370000103A24BF71
:1001700078C878C1FAD8520724BF30C830C144BF0C
:1001800004680C607047000000230024002500264E
:10019000103A28BF78C1FBD8520728BF30C148BFEA
:1001A0000B607047642900F07780002070471FB50E
:1001B0001FBD10B510BD00F03BF91146FFF7F7FF6A
:1001C00001F020FB00F059F903B4FFF7F2FF03BC84
:1001D00001F099FA0948804709480047FEE7FEE721
:1001E000FEE7FEE7FEE7FEE7FEE7FEE7FEE7FEE7E7
:1001F00004480549054A064B704700008114000871
:1002000031010008780100207807002078030020E1
:1002100078030020704700000FB4044910B503AA0A
:10022000029800F0D3F810BC5DF814FB2000002009
:100230002DE9F0410E460446002020622046E16888
:10024000884730B3252805D0D4E901219047206A9A
:10025000401CF2E7E168204600278847050018D0D7
:10026000A5F14100192802D820354FF40067324625
:10027000294620462760FFF795FF40B1012804D0AA
:10028000F61D26F007060836D8E7361DD6E72846BD
:10029000DAE7206ABDE8F0812DE9F0410646002446
:1002A00010687529314616A510D0AFF300800028DC
:1002B00002DA404213A507E031688A0701D512A58A
:1002C00002E0490704D511A5012401E0AFF3008045
:1002D00000210A2206F1240709E0B0FBF2FCB0FB82
:1002E000F2F302FB1C00303078541846491C0028F9
:1002F000F3D123462A463046BDE8F04100F00CB861
:10030000000000002D0000002B0000002000000075
:1003100070477047704770472DE9F0470D46994682
:100320009246044600F124080168880604D5E06975
:1003300021F01001216000E00120A84201DD471BEF
:1003400000E00027A1697A1902EB0900081AA061F0
:100350002078C00602D42046AFF30080002608E0D3
:10036000D4E901211AF806009047206A401C761C47
:1003700020624E45F4DB2078C0060AD52046AFF354
:10038000008006E0D4E9012130209047206A401C1B
:100390002062381EA7F10107F4DC07E0D4E901214F
:1003A00018F805009047206A401C2062281EA5F11D
:1003B0000105F3DC2046AFF300802078000602D56B
:1003C0000220BDE8F0870120FBE70000074B70B575
:1003D0000D467B4400F011F80446284600F020F852
:1003E00010B14FF0FF3070BD204670BD13140000F7
:1003F00001694A1C02610878704700B58FB0CDE9E9
:1004000001310021059105497944CDE903101146D8
:100410006846FFF70DFF0FB000BD0000E5FFFFFFCE
:10042000007B00F0800070470048704714010020F6
:100430007546FFF7F9FFAE4605006946534620F0C2
:100440000700854618B020B5FFF7D2FEBDE8204072
:100450004FF000064FF000074FF000084FF0000B80
:1004600021F00701AC46ACE8C009ACE8C009ACE833
:10047000C009ACE8C0098D46704710B50446AFF31B
:1004800000802046BDE81040FFF79EBE00BFFEE79B
:1004900070472DE9F0410246002500260020002388
:1004A0000024002791F803C00CF00F0591F803C059
:1004B0000CF0100CBCF1000F03D091F802C04CEA14
:1004C000050591F800C0BCF1000F31D01468002080
:1004D0002BE04FF0010C0CFA00F3B1F800C00CEA6D
:1004E00003069E4220D183004FF00F0C0CFA03F755
:1004F000BC4305FA03FC4CEA040491F803C0BCF1C8
:10050000280F06D14FF0010C0CFA00FCC2F814C001
:100510000AE091F803C0BCF1480F05D14FF0010C7F
:100520000CFA00FCC2F810C0401C0828D1D314609B
:10053000B1F800C0BCF1FF0F34DD546800202EE09C
:1005400000F1080C4FF0010808FA0CF3B1F800C0F4
:100550000CEA03069E4221D183004FF00F0C0CFAE7
:1005600003F7BC4305FA03FC4CEA040491F803C00A
:10057000BCF1280F05D100F1080C08FA0CF8C2F8FC
:10058000148091F803C0BCF1480F07D100F1080CAA
:100590004FF0010808FA0CF8C2F81080401C082837
:1005A000CED35460BDE8F0810246002093680B4032
:1005B0000BB1012000E000207047416170470161EC
:1005C000704700002DE9FC5F0546884691469A4633
:1005D000DDF830B000953E20019000245FE004EB90
:1005E0000410374911F810009BF80010884253D1CD
:1005F00004EB0410324901EB400040789BF80110F5
:10060000884249D108F10F0083B205F10F0082B290
:100610004146284600F01AFB00263BE0002734E064
:100620000D9890B904EB0410254901EB4000801CA3
:10063000805D80213941084018B1484600F0A2FC95
:1006400021E0504600F09EFC1DE01E48A0F80090FE
:1006500004EB04101A4901EB4000801C805D8021EE
:100660003941084018B14146284600F071F9681C2C
:1006700085B20098281A102805D1009D08F10100C4
:100680001FFA80F803E0781CC7B2082FC8DB00BF50
:10069000701CC6B2202EC1DB00BF601C84B2019862
:1006A00084429CDB08484088401E83B2064800888C
:1006B000401E82B20021084600F0C8FABDE8FC9F47
:1006C000982C0008140000203C0000202DE9FC5F5D
:1006D0000546884691469A46DDF830B000950720D9
:1006E0000190002467E004EB840000EB44103A49D9
:1006F00011F810009BF80010884259D104EB8400D7
:1007000000EB4410344901EB400040789BF80110A5
:1007100088424DD108F1170083B205F1170082B26B
:100720004146284600F092FA00263FE0002738E0D4
:100730000D98A0B904EB840000EB4410264901EBAE
:100740004000801C805D80213941084018B1484636
:1007500000F018FC23E0504600F014FC1FE01F4896
:10076000A0F8009004EB840000EB44101A4901EB60
:100770004000801C805D80213941084018B141460D
:10078000284600F0E5F8681C85B20098281A182859
:1007900005D1009D08F101001FFA80F803E0781CE4
:1007A000C7B2082FC4DB00BF701CC6B2482EBDDB29
:1007B00000BF601C84B20198844294DB08484088E2
:1007C000401E83B206480088401E82B200210846BF
:1007D00000F03CFABDE8FC9FD4340008140000206F
:1007E0003C0000202DE9FC5F0546884691469A466C
:1007F000DDF830B000950420019000245FE004EBA8
:100800008410374911F810009BF80010884253D12A
:1008100004EB8410324901EB400040789BF8011052
:10082000884249D108F11F0083B205F11F0082B24E
:100830004146284600F00AFA00263BE0002734E053
:100840000D9890B904EB8410254901EB4000801C01
:10085000805D80213941084018B1484600F092FB84
:1008600021E0504600F08EFB1DE01E48A0F80090ED
:1008700004EB84101A4901EB4000801C805D80214C
:100880003941084018B14146284600F061F8681C1B
:1008900085B20098281A202805D1009D08F1010092
:1008A0001FFA80F803E0781CC7B2082FC8DB00BF2E
:1008B000701CC6B2802EC1DB00BF601C84B20198E0
:1008C00084429CDB08484088401E83B2064800886A
:1008D000401E82B20021084600F0B8F9BDE8FC9F36
:1008E000DA360008140000203C00002000BFFEE7BC
:1008F00070B5064614484088401E83B212480088EE
:10090000401E82B20021084600F0A0F94FF40060BA
:100910000E4908604010091F086000240AE0002505
:1009200003E0304600F02EFB6D1C07480088A8420B
:10093000F7D8641C04484088A042F0D84FF4006007
:100940000249091F086070BD3C000020140C0140E2
:1009500070B504460D462946204600F06DF9024860
:10096000008800F00FFB70BD140000202DE9F05F3F
:1009700004460D4616461F46301B401C1FFA80FADF
:10098000781B401C1FFA80FB3B4632462946204616
:1009900000F05CF94FF000080FE04FF0000906E0AE
:1009A0000A9800F0EFFA09F101001FFA80F9D14529
:1009B000F6DB08F101001FFA80F8D845EDDB0748A7
:1009C0004088401E83B205480088401E82B2002144
:1009D000084600F03BF9BDE8F09F00003C00002015
:1009E00008B50121082000F037FB4FF4F050ADF8B6
:1009F000000003208DF8020010208DF803006946E6
:100A00000148FFF746FD08BD000C014010B500F09D
:100A10009DFBFFF7E5FF00F0FBF8F02000F044FA43
:100A2000C32000F029FAF02000F03EFA962000F0F2
:100A300023FA362000F038FA682000F01DFA3A2038
:100A400000F032FA052000F017FAB02000F02CFA7E
:100A5000802000F011FAB62000F026FA002000F005
:100A60000BFA022000F008FAB52000F01DFA02206F
:100A700000F002FA032000F0FFF9002000F0FCF97A
:100A8000042000F0F9F9B12000F00EFA802000F007
:100A9000F3F9102000F0F0F9B42000F005FA00207E
:100AA00000F0EAF9B72000F0FFF9C62000F0E4F901
:100AB000C52000F0F9F9242000F0DEF9E42000F070
:100AC000F3F9312000F0D8F9E82000F0EDF94020EA
:100AD00000F0D2F98A2000F0CFF9002000F0CCF924
:100AE000002000F0C9F9292000F0C6F9192000F013
:100AF000C3F9A52000F0C0F9332000F0BDF9C220F1
:100B000000F0D2F9A72000F0CFF9E02000F0CCF9F6
:100B1000F02000F0B1F9092000F0AEF9132000F048
:100B2000ABF9122000F0A8F9122000F0A5F92B2053
:100B300000F0A2F93C2000F09FF9442000F09CF95D
:100B40004B2000F099F91B2000F096F9182000F0D6
:100B500093F9172000F090F91D2000F08DF9212065
:100B600000F08AF9E12000F09FF9F02000F084F90C
:100B7000092000F081F9132000F07EF90C2000F02C
:100B80007BF90D2000F078F9272000F075F93B2063
:100B900000F072F9442000F06FF94D2000F06CF97C
:100BA0000B2000F069F9172000F066F9172000F01B
:100BB00063F91D2000F060F9212000F05DF9362076
:100BC00000F072F9EC2000F057F9F02000F06CF919
:100BD000C32000F051F9F02000F066F9692000F020
:100BE0004BF9132000F060F9112000F05DF9292085
:100BF00000F05AF9002000F07FF901200349086055
:100C00004FF6FF70FFF774FE10BD0000A481214273
:100C100010B54FF4805007490860642000F098FD3B
:100C20004FF480500349091F0860322000F090FD06
:100C300010BD0000140C014070B504460D462B4653
:100C400022462946204600F001F870BD2DE9F0410A
:100C500004460D4616461F461149887A00F024F9CD
:100C6000201200F009F9E0B200F006F9301200F0AD
:100C700003F9F0B200F000F90949087B00F014F91B
:100C8000281200F0F9F8E8B200F0F6F8381200F097
:100C9000F3F8F8B200F0F0F800F01CF9BDE8F081CC
:100CA0003C0000202DE9FF4F83B081468A469346E1
:100CB000DDE91064404800880290A6F12000C6B229
:100CC00004EBD47009EB6000401E82B20AEB040012
:100CD000401E83B2514648460194FFF7B7FF129871
:100CE00050BB002525E00C2C07D106EB460033490C
:100CF00001EB800010F8058004E0314800EB06109D
:100D000010F8058000270DE008F0010018B15846E2
:100D100000F038F902E0069800F034F94FEA68086C
:100D2000781CC7B204EBD471B7EB610FECDB681C25
:100D3000C5B2A542D7DB2DE0002529E00C2C07D158
:100D400006EB46001D4901EB800010F8058004E029
:100D50001B4800EB061010F80580002711E016482C
:100D6000A0F800B008F0010038B10AEB050291B21A
:100D700009EB070290B2FFF7EBFD4FEA6808781C19
:100D8000C7B204EBD471B7EB610FE8DB681CC5B2E6
:100D9000A542D3DB0849029808800A484088401ED3
:100DA00083B208480088401E82B200210846FFF73F
:100DB0004DFF07B0BDE8F08F14000020342200087A
:100DC000A82600083C0000202DE9FF4F83B007460D
:100DD00091461E46109C4FF0000A002543E0701B10
:100DE000401EC1B20A2000F097FEB9FBF0F00A21C4
:100DF000B0FBF1F201FB1208BAF1000F1BD1701E1B
:100E0000A84218DDB8F1000F13D100202021A3461D
:100E1000CDE90014029004EBDB71491001FB057170
:100E200088B213490B8813490A880499FFF73AFFDF
:100E300017E04FF0010A002108F13000C0B2A346CC
:100E4000CDE90141009004EBDB71491001FB057114
:100E500088B207490B8807490A880499FFF722FFDF
:100E600000BF681CC5B2B542B9DB07B0BDE8F08F62
:100E7000160000201400002010B504464FF4006056
:100E8000074908604010091F08602146054800F026
:100E9000D5F94FF400600249091F086010BD000039
:100EA000140C01400038004010B504464FF40060B7
:100EB00006490860401008602146054800F0BEF968
:100EC0004FF400600149091F086010BD140C014077
:100ED0000038004010B50249087AFFF7E5FF10BD61
:100EE0003C00002070B505460C462846FFF7DCFFA5
:100EF000E0B2FFF7C1FF70BD10B504462A202049BB
:100F000048812B2088812C20088134B1012C10D0FD
:100F1000022C1AD0032C30D123E04FF4A0701849D2
:100F200008804FF4F070488048213620FFF7DAFF40
:100F300024E04FF4F070124908804FF4A07048800C
:100F400028213620FFF7CEFF18E04FF4A0700C499F
:100F500008804FF4F070488088213620FFF7C2FFE8
:100F60000CE04FF4F070064908804FF4A070488000
:100F7000E8213620FFF7B6FF00E000BF00BF10BD3C
:100F80003C00002010B504464FF400600949086099
:100F90004010091F08602112074800F04FF9E1B224
:100FA000054800F04BF94FF400600249091F086042
:100FB00010BD0000140C01400038004000BFFEE7E7
:100FC0007047000070B5002100230F22C47804B3DD
:100FD000154C246804F4E064C4F5E064210AC1F10E
:100FE0000403CA40447804FA03F18478144021438E
:100FF00009010E4C0678A155047804F01F05012460
:10100000AC4005786D11AD0005F1E025C5F8004153
:1010100009E0047804F01F050124AC40044D067873
:10102000761145F8264070BD0CED00E000E400E0CC
:1010300080E100E07047000029B1064AD26902430E
:10104000044BDA6104E0034AD2698243014BDA615E
:10105000704700000010024029B1064A926902431D
:10106000044B9A6104E0034A92698243014B9A61FE
:10107000704700000010024030B50021002200241B
:1010800000232D4D6D6805F00C0121B1042905D018
:10109000082923D105E0294D056022E0274D056090
:1010A0001FE0254D6D6805F47012234D6D6805F441
:1010B0008034022505EB92421CB9214D5543056051
:1010C0000BE01D4D6D6805F400351DB11C4D5543F9
:1010D000056002E0194D5543056002E0174D0560BB
:1010E00000BF00BF144D6D6805F0F0010909154DF2
:1010F0006B5C0568DD4045600F4D6D6805F4E0618F
:10110000090A104D6B5C4568DD4085600A4D6D68CD
:1011100005F46051C90A0B4D6B5C4568DD40C56044
:10112000054D6D6805F44041890B074D6B5CC56842
:10113000B5FBF3F5056130BD0010024000127A00E6
:1011400000093D00260000203600002000B587B0D1
:1011500001210920FFF780FF4FF42040ADF8040083
:1011600003208DF8060018208DF8070001A91C48FF
:10117000FFF78FF94FF48040ADF8040048208DF858
:10118000070003208DF8060001A91548FFF781F933
:1011900001218803FFF750FF0020ADF808004FF44D
:1011A0008270ADF80A000020ADF80C00ADF80E001A
:1011B000ADF810004FF40070ADF812000020ADF84B
:1011C0001400ADF816000720ADF8180002A9054874
:1011D00000F016F80121034800F006F807B000BD42
:1011E000000C01400038004021B1028842F040026A
:1011F000028004E002884FF6BF731A4002807047F5
:1012000010B50022028802F441520B884C88234317
:101210008C882343CC8823430C8923434C89234364
:101220008C892343CC8923431A430280838B4FF25A
:10123000FF74234083830B8A038210BD024600BFE4
:10124000108900F002000028FAD0918100BF1089B7
:1012500000F001000028FAD09089C0B270477047B2
:1012600010B500F001F810BD0CB500200190009001
:101270003348006840F480303149086000BF30488E
:10128000006800F4003000900198401C0190009824
:1012900018B90198B0F5A06FF1D12948006800F4A1
:1012A000003010B10120009001E000200090009873
:1012B000012843D12348006840F01000214908600C
:1012C0000846006820F0030008600846006840F007
:1012D000020008601A48406819494860084640689A
:1012E00048600846406840F48060486008464068AE
:1012F00020F47C1048600846406840F4E8104860DC
:101300000846006840F08070086000BF0C48006824
:1013100000F000700028F9D00948406820F0030070
:10132000074948600846406840F00200486000BF36
:101330000348406800F00C000828F9D10CBD0000FB
:1013400000100240002002402DE9FF4F83B0064606
:1013500088469146DDE91147109DB2464FF0000BDB
:1013600071E0BBF1000F40D104EBD471384A128810
:10137000A2EB6101B14204DB35494988091B4145B3
:1013800002DA07B0BDE8F08F2878802802DD4FF040
:10139000010B58E028780D2806D108EB04001FFA4D
:1013A00080F856466D1C1EE0102C0DDD10212878AB
:1013B0008DE883004A4641463046069BFFF772FCA3
:1013C00006F1080086B20EE028788DE891004A46C2
:1013D00041463046069BFFF765FC204604EBD07182
:1013E00006EB61018EB26D1C2DE019480088001BD0
:1013F000B04204DB16484088001B404500DAC0E7D5
:101400004FF0000B202C08D1CDE900574A46414649
:101410003046069BFFF7E6F912E0182C08D1CDE91B
:1014200000574A4641463046069BFFF74FF907E012
:10143000CDE900574A4641463046069BFFF7C2F8C1
:10144000AD1C301986B2287800288AD100BF98E7F1
:101450003C000020042808D14FF0E021096941F048
:1014600004014FF0E022116107E04FF0E02109692B
:1014700021F004014FF0E022116170477047000035
:1014800010B51348006840F0010011490860084693
:101490004068104908400E494860084600680E49F7
:1014A00008400B4908600846006820F48020086066
:1014B0000846406820F4FE0048604FF41F00886032
:1014C000FFF7CEFE4FF000600449086010BD000039
:1014D000001002400000FFF8FFFFF6FE08ED00E0FC
:1014E00010B540F225511D4800F04AF810B31B48D2
:1014F00000F002F9C4B21A48008800F40040C8B9EC
:101500001748008800F4804060B10A2C03D0002006
:101510001349088020E01248008840F40040104938
:10152000088019E00D2C06D10D48008840F4804059
:101530000B49088010E00A480088C0F30D000949F3
:101540000C5407480088401C05490880084600885C
:10155000C72801DD0020088010BD000000380140D0
:10156000240000204A00002021B1828942F4005268
:10157000828104E082894DF6FF731A4082817047B0
:1015800070B50246002400230025002040F66A16AC
:10159000B14200D100BFC1F3421501F01F03012683
:1015A00006FA03F3012D02D19689334006E0022D9D
:1015B00002D1168A334001E0968A33400C1201268C
:1015C00006FA04F41688344013B10CB1012000E08F
:1015D000002070BDF0B50346002400260025002041
:1015E00040F66A17B94200D100BF1846C1F3421451
:1015F00001F01F06012707FA06F5012C01D10C3076
:1016000004E0022C01D1103000E014301AB1076858
:101610002F43076002E00768AF430760F0BD00009A
:101620002DE9F04786B005460E460024A24600BFCD
:10163000A1460027B08900B100BF2F462C8A4CF686
:10164000FF700440F08804432C82AC894EF6F310FE
:101650000440B08831890843718908430443AC8150
:10166000AC8A4FF6FF400440B0890443AC8201A825
:10167000FFF702FD1F48874202D1DDF810A001E00C
:10168000DDF80CA0A88900F4004040B10AEBCA00C4
:1016900000EB0A1031684900B0FBF1F807E00AEBF3
:1016A000CA0000EB0A1031688900B0FBF1F8642031
:1016B000B8FBF0F004012009642101FB1089A8891E
:1016C00000F4004040B1322000EBC900B0FBF1F063
:1016D00000F00700044308E0322000EB0910642109
:1016E000B0FBF1F000F00F0004432C8106B0BDE820
:1016F000F08700000038014001468888C0F30800E8
:10170000704700BFFEE700BF7047000010B56FF0E4
:101710000400FFF79FFE0A4800680A49B0FBF1F099
:10172000094908700846007800EB4001C1EBC01081
:101730004FF6FF7101EAC0000449088010BD0000A7
:101740000000002000127A001A0000201C00002077
:101750000146114A12884A434FF0E0235A610022A1
:101760009A611A46126942F001021A6100BF4FF0F5
:10177000E022106900F001021AB100F48032002A60
:10178000F5D04FF0E022126922F001024FF0E02381
:101790001A6100229A6170471C0000200146114A1C
:1017A00012784A434FF0E0235A6100229A611A46A8
:1017B000126942F001021A6100BF4FF0E022106985
:1017C00000F001021AB100F48032002AF5D04FF087
:1017D000E022126922F001024FF0E0231A61002298
:1017E0009A6170471A00002000BF054A128802F073
:1017F0004002002AF9D0C2B2014B1B1D1A8070476B
:10180000003801400EB5FFF73BFE4FF4E13000F029
:101810008FF9FFF77BFFFFF7F9F800F07BF8002462
:101820005FE01F2000902F48028814230021084603
:10183000FFF79CF81F2000902A48438802884088C0
:10184000143881B20020FFF791F80120102126A260
:101850004FF6E073CDE9002102901F2232210846A5
:10186000FFF772FD0120102123A24FF6E073CDE9AE
:10187000002102901F225A213220FFF765FD0A2025
:1018800094FBF0F100FB114018BB00F0E1F80746B3
:1018900000F066FCC5B229461BA0FEF7BDFC102077
:1018A00002232A46322100907820FFF78DFA00F0BB
:1018B00001F9074600F054FCC6B2314612A0FEF70B
:1018C000ABFC1020022332465A2100907820FFF70B
:1018D0007BFA0A20FFF73CFF601CC4B2142C00D135
:1018E00000249EE73C00002074656D70313A202092
:1018F000202020202043000074656D70323A2020A3
:10190000202020202043000074656D70313D20258B
:10191000640D0A0008B501210820FFF79DFB012195
:101920004020FFF799FB49F28020ADF8000010201D
:101930008DF8030003208DF8020069460848FEF781
:10194000A8FD4FF49040ADF8000048208DF803004A
:1019500003208DF8020069460148FEF79AFD08BD94
:101960000018014070B5002480211A48FEF725FEBA
:1019700000251DE04FF400711648FEF720FE0A20F6
:10198000FFF70CFF4FF400611248FEF70DFE08B19F
:1019900044F001044FF6FF7000EA44044FF4007174
:1019A0000C48FEF70AFE0A20FFF7F8FE681C85B215
:1019B000102DDFDB80210748FEF701FE04F0040054
:1019C00008B1002404E04FF6FF7000EA440424113B
:1019D000204670BD0018014070B500244FF48051BE
:1019E0001A48FEF7EAFD00251DE04FF400411748B4
:1019F000FEF7E5FD0A20FFF7D1FE4FF480411348C2
:101A0000FEF7D2FD08B144F001044FF6FF7000EA82
:101A100044044FF400410D48FEF7CFFD0A20FFF7C4
:101A2000BDFE681C85B2102DDFDB4FF480510748E6
:101A3000FEF7C5FD04F0040008B1002404E04FF6F1
:101A4000FF7000EA44042411204670BD00180140D4
:101A50002DE9F04F85B0144802904FF49670FFF7CF
:101A600077FEFFF77FFF0490029800F04DFB0446DD
:101A70000D46049800F036FA804600220B4B00F029
:101A800045FA00220A4BCDE9000100F0D3F80646E2
:101A900022462B4600F0CEF8824600F099F80390DB
:101AA000039805B0BDE8F08F9224094000FE8F40F6
:101AB00000FEAF402DE9F04F85B0144802904FF47E
:101AC0009670FFF745FEFFF787FF0490029800F03D
:101AD0001BFB04460D46049800F004FA80460022E1
:101AE0000B4B00F013FA00220A4BCDE9000100F085
:101AF000A1F8064622462B4600F09CF8824600F0EC
:101B000067F80390039805B0BDE8F08F9224094070
:101B100000FE8F4000FEAF4010B50246012000E0FD
:101B200050430B1EA1F10104E1B2F9D110BD000038
:101B300010B586B00446012144F20400FFF78CFA88
:101B40004FF40070ADF8140003208DF81600182033
:101B50008DF8170005A91C48FEF79BFC4FF4806028
:101B6000ADF8140004208DF8170005A91648FEF7FB
:101B700090FC25208DF8000003208DF801008DF8E1
:101B8000020001208DF803006846FFF71BFA01945C
:101B90000020ADF80800ADF80A00ADF80C00ADF873
:101BA00010000C20ADF80E0001A90848FFF738FD21
:101BB000012240F225510548FFF70CFD01210348A1
:101BC000FFF7D2FC06B010BD00080140003801400C
:101BD00021F00042A2F16052B2F5801F01F00043F3
:101BE00028BFD2F17F6C0BD95FEA001C43EAC20226
:101BF00042EB507018BF704728BF20F001007047BB
:101C0000B2F5801FBCBF184670474FEA410C1CF567
:101C1000001F02D2084600F008BB70B500F020FAA1
:101C200000000089FFF7F6BF4FF00040A0F58000EC
:101C3000704700002DE9C04130B4DFF8A0C23CEA93
:101C4000111418BF3CEA131400F0EC8081EA03057C
:101C50001CEA111444EAD57418BF1CEA131500F0ED
:101C6000C780A4EB05044FF0004545EAC12145EAD1
:101C7000C32341EA505143EA525304F17F7499421D
:101C800004F500344FEAC0204FEAC22208BF904258
:101C900000F09C804FEA13650FF24016765D4FEA24
:101CA000134506FB05F7C7F1807706FB07F74FEAF8
:101CB000D737A7FB03687642C8F58038A7FB06CE66
:101CC00038BFA8F1010807FB08E64FF0000EA6FB9D
:101CD000028CE6FB03CEDCF1000CCEF1004E38BFE7
:101CE000AEF1010EA6FB0C584FF000074FF00005B7
:101CF000E6FB0E87A1FB08C6A0FB07CE16EB0E067F
:101D000045F10005E1FB076515F1E04E7EBFA4F546
:101D100080345FEA46066D4116F1800745F1000503
:101D20004FEA17274FEA066647EA0567A6F1DE463F
:101D3000B6F1805F4FEA15251FD9384624F0010C13
:101D400005EBC471BCF1FE6F01EB0C1102D8F0BCC5
:101D5000BDE8008124425CBF01F5801E9EEAC47F7D
:101D600002D4F0BCBDE80081244238D4F0BCA1F11B
:101D7000C041BDE8004100F0C1B94FEAD22242EAB9
:101D800043524FEAD323A7FB02864FEAD02040EA12
:101D9000415007FB03661EEA0E0F4FEAD12105FBF7
:101DA000026658BFA6EB0056B6EB00564FEA520E3D
:101DB0004EEAC37E18EB0E0E56EB530EBDD518EB54
:101DC00002085E417F1C55F10005B6E74FF480150F
:101DD0004FF000074FF000064FF00008ADE7F0BCF1
:101DE0004FF0000001F1C04101F00041BDE8008169
:101DF00011EA0C1F0CEA131500D00CE013EA0C1FBB
:101E000000F025804FF00000F0BC81EA030101F0F2
:101E10000041BDE80081F0BCBDE8004181EA03015A
:101E200000F06CB9F0BCBDE8004170B500F018F9E5
:101E3000097EFC3E00F007B881EA03014FF0000084
:101E400001F00041704781EA030100F057B9F0BC8E
:101E5000BDE800414FF0000021497047FFFDFBF94C
:101E6000F7F5F4F2F0EEEDEBE9E8E6E4E3E1E0DECD
:101E7000DDDBDAD8D7D5D4D3D1D0CFCDCCCBCAC83F
:101E8000C7C6C5C4C2C1C0BFBEBDBCBBBAB9B8B766
:101E9000B6B5B4B3B2B1B0AFAEADACABAAA9A8A859
:101EA000A7A6A5A4A3A3A2A1A09F9F9E9D9C9C9B27
:101EB0009A999998979796959594939392919190D2
:101EC0008F8F8E8E8D8C8C8B8B8A89898888878763
:101ED0008685858484838382828181800000FF07D8
:101EE0000000F87FB0FA80F310FA03F10AD0C3F1D2
:101EF0001D0303F580634FEA41504FEA035202EBA2
:101F0000D12170474FF0000070470000DFF848C152
:101F100070B51CEA111E1EBF1CEA13159EEA0C0FB9
:101F200095EA0C0F00F06F8081EA030423EA4C135A
:101F30004EEAD47E21EA4C1141F4801143F480131F
:101F4000AE44A1FB024CA0FB0365AEF17F7E3619C7
:101F500055EB0C05A1FB034C4CF10003A0FB021C4C
:101F600016EB0C06654153F10003094218BF46F019
:101F7000010613F4007F0BD14FEA03314FEA05301D
:101F8000340341EA155140EA16506FF003020AE0AB
:101F90004FEAC3214FEAC520F40241EA555140EA15
:101FA00056506FF0020202EB2E4201EB025585EA19
:101FB000CE710AD05FEA440C18BF24F0004450F1FF
:101FC000000041F1000120EAD47040F2FE7C62453D
:101FD00000D270BDA84214BF4FF080444FF040447F
:101FE000002E08BF0024BEF1806FA8BFA1F1C04140
:101FF000BDE8704080F282804FF0000001F1C041E6
:1020000001F0004170479EEA0C0F0CEA131518BF4F
:1020100095EA0C0F06D04FF0000081EA030E0EF097
:10202000004170BD00F01CF88900013E00F007B8C7
:1020300000F009B84FEA430C5FEA5C5C08D081EA23
:10204000030100F05BB84FEA410C5FEA5C5CF6D13B
:102050004FF00000014970470000FF070000F87FC3
:102060000EF1020E2EF0030E5EF8046B364205D41C
:10207000012A43EB030515F5001F12D8012841EB97
:10208000010C1CF5001F0CD80ED14FEAD17C15F5C0
:10209000001F0CEB4C0C0CF1020C08BF4CEBD37C7A
:1020A00004E04FF0080C01E04FEAD37C0CEB4C0548
:1020B00026FA05F606F00706B6F1040C06D20EEB7A
:1020C000860CBDE870404CF0010C6047DFE80CF076
:1020D000090B02024FF000414FF00000A1F5002172
:1020E00070BD19461046012851EB010418BFD4F504
:1020F000001484BF002001F0004170BD0808A0F565
:1021000000114FEA3101704743004FEAD30C4FEA08
:102110003C0C43401FBF40070CF1605113F0FE4FD1
:1021200070471CF0006F03D100200CF00041704795
:102130000CF0004343EA507010B540EACC0000F0C8
:102140002EF800BF000000924FEA0001FFF7D6BF53
:102150004FF000414FF00000A1F500217047000052
:10216000C10DD1F19E0206DB4FEA002343F000438C
:1021700023FA02F07047004207D54FEA4001B1F15F
:10218000FE4F02D24FF00000704710B500F007F884
:1021900049922480002070476FEA200070470EF1BA
:1021A000020E2EF0030E5EF8044B244204D44FEAD4
:1021B0004102B2F17F4F11D84FEA4003B3F17F4F94
:1021C0000CD80ED14FEAD07CB2F17F4F0CEB4C0C07
:1021D0000CF1020C08BF4CEBD17C04E04FF0080C72
:1021E00001E04FEAD17C0CEB4C0324FA03F404F039
:1021F0000704B4F1040C06D20EEB840CBDE81040C9
:102200004CF0010C6047DFE80CF0070802024FF0C9
:102210000040A0F5800010BD0846420018BFD2F172
:10222000807288BF00F0004010BDFF2141EAD0500D
:10223000C005704700000000000000000000000022
:1022400000000404040404040004000000140A0A4A
:102250000000000000000000000014143F140A3FBA
:102260000A0A000000041E1505060C14150F0400D0
:10227000000012150D0A142C2A1200000000040A96
:102280000A1E1515093600000002020100000000B8
:1022900000000000002010080808080808102000AE
:1022A00000020408080808080804020000000004EE
:1022B000150E0E150400000000000404041F0404A1
:1022C0000400000000000000000000000002020105
:1022D00000000000001F00000000000000000000DF
:1022E00000000000000200000010080808040402BA
:1022F0000202010000000E1111111111110E000057
:102300000000040604040404040E000000000E1182
:1023100011080402011F000000000E11100C101023
:10232000110E00000000080C0A0A091E081800001F
:1023300000001F01010F1010110E000000000E0917
:10234000010F1111110E000000001F090804040400
:102350000404000000000E11110E1111110E0000F6
:1023600000000E1111111E10120E000000000000DE
:102370000400000000040000000000000004000051
:1023800000040400002010080402040810200000CB
:10239000000000001F00001F0000000000020408F1
:1023A000102010080402000000000E11110804049F
:1023B0000004000000000E111915151D011E00007B
:1023C000000004040C0A0A1E1233000000000F1261
:1023D000120E1212120F000000001E110101010165
:1023E000110E000000000F1212121212120F000044
:1023F00000001F120A0E0A02121F000000001F1226
:102400000A0E0A020207000000001C120101391125
:10241000120C000000003312121E121212330000C0
:1024200000001F0404040404041F000000003E0810
:102430000808080808090700000037120A060A0AF7
:10244000123700000000070202020202223F0000D1
:1024500000001B1B1B1B15151515000000003B126F
:1024600016161A1A1217000000000E111111111180
:10247000110E000000000F12120E020202070000EF
:1024800000000E1111111117190E180000000F1283
:10249000120E0A121237000000001E110106081069
:1024A000110F000000001F1504040404040E0000B6
:1024B0000000331212121212120C0000000033122C
:1024C000120A0A0C0404000000001515150E0A0A71
:1024D0000A0A000000001B0A0A04040A0A1B000082
:1024E00000001B0A0A040404040E000000001F0977
:1024F00008040402121F0000001C04040404040465
:1025000004041C0000020202040408080810000071
:10251000000E08080808080808080E0000040A0051
:1025200000000000000000000000000000000000AB
:102530000000003F00040000000000000000000058
:1025400000000000000C121C123C000000000302FE
:10255000020E1212120E000000000000001C1202F7
:10256000021C000000001810101C1212123C000087
:1025700000000000000C121E021C000000003804C5
:10258000041E0404041E000000000000003C120CA5
:10259000021E221C00000302020E1212123700005B
:1025A0000000040000060404040E000000000800FF
:1025B000000C08080808080700000302023A0A0E87
:1025C000123700000000070404040404041F000084
:1025D00000000000000F1515151500000000000098
:1025E000000F12121237000000000000000C12123F
:1025F000120C000000000000000F1212120E020761
:1026000000000000001C1212121C10380000000014
:10261000001B06020207000000000000001E020C62
:10262000101E000000000004040E04040418000042
:1026300000000000001B1212123C0000000000000D
:102640000037120A0C040000000000000015150EEF
:102650000A0A000000000000001B0A040A1B000018
:10266000000000000037120A0C0404030000000000
:10267000001E0804041E00000018080808040808CA
:1026800008081800080808080808080808080808C2
:1026900000060404040804040404060002251800CB
:1026A000000000000000000000000000000000002A
:1026B00000000000000000000000000808080808F2
:1026C000080800001818000000486C2412000000E0
:1026D00000000000000000000000002424247F12FD
:1026E00012127F12121200000000081C2A2A0A0C83
:1026F0001828282A2A1C080800000022251515156C
:102700002A585454542200000000000C1212120ADD
:1027100076252911916E00000006060403000000D2
:102720000000000000000000004020101008080811
:1027300008080810102040000002040808101010BB
:1027400010101008080402000000000008086B1CAC
:102750001C6B0808000000000000000008080808C2
:102760007F080808080000000000000000000000CA
:102770000000000006060403000000000000000046
:10278000FE0000000000000000000000000000004B
:1027900000000000060600000000804040202010DD
:1027A00010080804040202000000001824424242FB
:1027B0004242424224180000000000080E080808A7
:1027C00008080808083E00000000003C4242422081
:1027D00020100804427E00000000003C4242201805
:1027E00020404042221C0000000000203028242409
:1027F00022227E20207800000000007E0202021AC1
:1028000026404042221C0000000000382402021A28
:1028100026424242241800000000007E22221010AE
:1028200008080808080800000000003C4242422452
:1028300018244242423C0000000000182442424258
:1028400064584040241C00000000000000001818DC
:102850000000000018180000000000000000000840
:1028600000000000000808040000004020100804D8
:1028700002040810204000000000000000007F005B
:1028800000007F000000000000000002040810208B
:1028900040201008040200000000003C4242464074
:1028A00020101000181800000000001C225A555576
:1028B00055552D42221C0000000000080818141471
:1028C000243C224242E700000000001F2222221E78
:1028D00022424242221F00000000007C42420101CD
:1028E00001010142221C00000000001F224242425E
:1028F00042424242221F00000000003F4212121ECC
:1029000012120242423F00000000003F4212121E1B
:1029100012120202020700000000003C2222010104
:1029200001712122221C0000000000E742424242C5
:102930007E42424242E700000000003E08080808CC
:1029400008080808083E00000000007C1010101065
:10295000101010101010110F0000007722120A0E34
:102960000A1212222277000000000007020202026F
:1029700002020202427F000000000077363636363F
:102980002A2A2A2A2A6B0000000000E346464A4A07
:1029900052525262624700000000001C2241414135
:1029A00041414141221C00000000003F424242429E
:1029B0003E020202020700000000001C22414141C9
:1029C00041414D53321C60000000003F4242423EF4
:1029D0001212222242C700000000007C4242020480
:1029E00018204042423E00000000007F49080808CD
:1029F00008080808081C0000000000E742424242A4
:102A000042424242423C0000000000E7424222248F
:102A100024141418080800000000006B49494949B3
:102A20005555362222220000000000E742242418D7
:102A30001818242442E70000000000772222141412
:102A400008080808081C00000000007E2120101063
:102A500008040442423F00000078080808080808FB
:102A600008080808080878000000020204040808A2
:102A70000810102020204040001E101010101010D0
:102A80001010101010101E0000384400000000004C
:102A90000000000000000000000000000000000036
:102AA00000000000000000FF000608000000000019
:102AB0000000000000000000000000000000003CDA
:102AC0004278444242FC0000000000030202021A65
:102AD00026424242261A0000000000000000003892
:102AE0004402020244380000000000604040407888
:102AF0004442424264D80000000000000000003C54
:102B0000427E0202423C0000000000F08808087E7D
:102B100008080808083E0000000000000000007CD3
:102B200022221C023C42423C000000030202023A04
:102B30004642424242E700000000000C0C00000E3A
:102B400008080808083E0000000000303000003887
:102B5000202020202020221E0000000302020272FA
:102B6000120A1612227700000000000E080808085A
:102B700008080808083E0000000000000000007F70
:102B80009292929292B70000000000000000003B79
:102B90004642424242E70000000000000000003CC4
:102BA00042424242423C0000000000000000001B84
:102BB00026424242221E0207000000000000007868
:102BC00044424242447840E00000000000000077A8
:102BD0004C040404041F0000000000000000007CFE
:102BE00042023C40423E0000000000000008083E57
:102BF000080808080830000000000000000000631A
:102C00004242424262DC000000000000000000E797
:102C1000422424140808000000000000000000EB1B
:102C200049495555222200000000000000000076AE
:102C300024181818246E000000000000000000E7AF
:102C40004224241418080807000000000000007E39
:102C500022100808447E000000C020202020201000
:102C6000202020202020C000101010101010101064
:102C70001010101010101010000608080808081096
:102C800008080808080806000C32C200000000000E
:102C90000000000000000000C9EE000027FC140442
:102CA00014A4811042084040104017FC2040E0E08E
:102CB000215022482C4620400040DBDA1104112428
:102CC000112411241124FD24112411241124112470
:102CD00011241D24E124422402040404CAD0020069
:102CE000010000007FFC0100010001003FF8210805
:102CF0002108210821082128211001000100C8AB6A
:102D000000000000018002400430180860061FF92E
:102D10000100010001003FF80100010001007FFEF9
:102D2000B6AF0000000000203E20007C0022002200
:102D30007F221022102212221222224223423D829E
:102D4000009CB5E70000010001001FF0610C410488
:102D500041047FFC4104410441047FFC0100010265
:102D6000010201FCD7D3000000003FF80010006012
:102D70000080010000807FFE004000400020002015
:102D8000002018400780BCBC10201020102013FE2B
:102D9000FC201020102015FC18843088D0481050DA
:102DA0001020105051882606CAF50100012001109C
:102DB00001107FFC03800540054009201110210807
:102DC00041048102010001000100D3D00200020091
:102DD000FFFE040004000FF0081018102FF0481038
:102DE00088100FF00810081008500820CFDE0000EF
:102DF0007BF84A08520853F8620852084BF84A44D4
:102E00004A486A3052204210428843064200B9AB19
:102E100000800480048008400840102020104208F0
:102E2000820604000440082010203FF0101000002B
:102E3000CBBE00003FF8000800087FE8000800084B
:102E40001F8810881088108810881F881088002814
:102E50000010BBB600800080FC8004FC050449081B
:102E60002A401440104028A024A0451081100208D8
:102E700004040802D3AD00002080133C1224022475
:102E80000224F2241224122412B413281220102037
:102E9000282047FE0000C4FA0900090011FC320492
:102EA00054489950114812441444114010800200B3
:102EB0005104511290120FF0B4BF000000201020F6
:102EC00013FE202026244A247A241224222423FCC0
:102ED0007C20002204227822003CC9AB00000000C4
:102EE00004000FF0102020207FFC20842084208408
:102EF00020843FF82000200220021FFECCEE0000BC
:102F00000000204023FE204079FC220423FC220400
:102F100023FC220423FC3A0465FA01980204B3E47A
:102F20000000010001007FFE0220041004080804D4
:102F30003FFC044204400440044208421042607EC8
:102F4000BED800000000207E3E804880488048FEB9
:102F500048827F8208820C8214FA128422802180A7
:102F600040FED0CE000000007F842208223022C024
:102F7000220222047FC8223022C222022204220816
:102F800022304040BBAD000000007FFE00000FF08B
:102F900011101110111051125FF2511251125112F1
:102FA0004FF240027FFCD4B2000000007FFE47E2F7
:102FB0004812481247E24FF2501250125112511269
:102FC00042924472580A3FFCCDBC000000003FFE14
:102FD000440247F24C225362408243625E1A4182AD
:102FE0004062430240C240223FFCC6AC00000040A9
:102FF0002040204020403FFE2000200020003FE0F5
:10300000201020102010201040104010CFD40000BD
:1030100000003FFC200420043FFC200420041FF893
:1030200024441448144814480C5004407FFECABE7F
:10303000000000003FFC0000000000007FFE008058
:10304000089008881088108420842082408207809D
:10305000B2CB0000002008207FFE002000783F88CF
:103060001108089009207FFE018003400D30310CCB
:103070004002B5A500000010081004203FF821040C
:1030800021043FFC210421043FF801007FFE0100E0
:1030900001000100D6D000000100010001003FFC4A
:1030A0002104210421042104210421043FFC010006
:1030B000010001000100D3A20000000008207FFEF3
:1030C0000820092001003FF82108210821081FF4E9
:1030D000014002200C10700ECEC40000010001005F
:1030E00000803F7C081008100410042002200240D9
:1030F0000180018002601C18E006D7DB00000000A0
:10310000102011FE2202220249FC5800300013FE5A
:103110002528792401240D24722202A2BACF0000AE
:103120000000018002400430180860061FF800000B
:103130001FF8200420042004200420041FF8C1C12B
:103140000000010001007FFE00003FF820083FF86A
:103150003FF8400647C24824082008221022603E5B
:10316000B6C80000000000803FFE44105FFC441021
:10317000441043F040005FF84408423041C04360CF
:10318000BC1EB2E20000000067C214520552055294
:10319000C55225520552055215521752228222421B
:1031A0004442483ECAD4000000002014101417FE08
:1031B00000120010601013F01090109010901492F4
:1031C00014EA1F0A0006B3CC0000000019FE7202C8
:1031D000120212027DFC18001BFE3420502053FE08
:1031E00010201020102013FED0F2000000000080FC
:1031F0003FFE400047FC4208413040C05FFE404275
:1032000040424044404840404440B5F70000000080
:1032100023FE122202FA0222E22212FE1272128A05
:10322000128A128A16BA1A421202040EB9E2000079
:103230000100010411080908091009207FFE04405B
:10324000044004400440084208421042607CB0E65A
:103250000000000048FE4900490049007EFE41820E
:103260004144794445284528451045284644038271
:10327000C8A800001000100013FC7D0411041904FC
:10328000188434885048505010201050108813046F
:103290001402CBF9000000003F7C204020403E405B
:1032A000227E2244224422443E842084208440847E
:1032B00041044204C6C100003FF8200820083FF83E
:1032C000241022202FF8222022203FFC22204220FE
:1032D000442084200820C4BB04407FFC04401FF02D
:1032E00010101FF010101FF00400FFFE11103FF827
:1032F000D116115011200100D0FD2080108010FE49
:103300000100FE0021FC20243C2424A024A024BC95
:1033100024A024A04560553E8A00D7AA2020202062
:103320002020FDFC4020504093FEFC40108011FC0A
:103330001C04F0885050102010101010BFAA00007C
:103340007FFC08200820082008200820FFFE082015
:103350000820082008201020102020204020D4B46D
:10336000000027FE1420144085FC450445FC15048C
:1033700015FC2524E42024A829242A2230A000407A
:10338000D2BA0080204017FE11208120423C4244E6
:10339000166412942348E2482230222022502288C8
:1033A0000306BEA70FE0082008200FE00820082031
:1033B0000FE000007EFC428442847EFC4284428412
:1033C0007EFC4284CDF800007FFC4004400442149F
:1033D00052944A54442444244A544A545294610412
:1033E000400440144008D5BE1020082008207E204C
:1033F000003E04204420442025FC290429040F0415
:10340000F104410401FC0104B0B41040102010206C
:1034100013FEFA02144410401BFE3088D0881108B5
:1034200010D01020105050882304BCFC2010201015
:103430003B7C211441FE7A14A27C2710F97C2510D4
:1034400025FE22102A10350028FE0000D0A31040CF
:103450001020102011FEFC00108831043A0254881C
:103460005088905010501020105010881306D7BC70
:1034700001404120212023FE022016201BFC1220A7
:10348000222023FCE2202220222023FE2200020010
:10349000B4A520202020782049FC91247D245524A7
:1034A00055247DFC552454207C28542457FE450285
:1034B0008C00C3FE1110111017FC1110FC0013F842
:1034C000120817F81A0833F8D04017FC10A0111092
:1034D00052082406C9EE0000000000001000000899
:1034E00000080C7FFC04401001C8A00218604230A4
:1034F0001832231812C30014030004030C047FF0D5
:10350000080F80080B4078136018332018631818D0
:10351000831C190308180300000300000000DBDA15
:1035200000000000000004100C04180C04108C04AF
:10353000108C04108C04108C04D08C3F108C041060
:103540008C04108C04108C04108C04108C04108CCF
:1035500005F08C0E208C78208C20408C00808C0113
:10356000000C02000C000000CAD0000000000000A7
:1035700000300000180000180800001C1FFFE000C9
:10358000180000182007FFF0041820041820041861
:1035900020041820041820041820041820041820DF
:1035A0000418200418E00418400018000018000057
:1035B0000000D6D000000000000000000000000065
:1035C0000018000018000018000018003FFFFE302F
:1035D00018063018063018063018063018063FFF57
:1035E000FE3018060018000018000018000018002F
:1035F000001800000000000000000000CEC4000021
:1036000000000000000000003800001C0000060060
:10361000FFFFFF060030060030030060030060017A
:1036200080C000C18000E300003600001C0000776D
:103630000003C1E01E003C60000700000000000025
:10364000000000000000B2E20000000000000000E6
:103650000000000040000321FF333983331183331E
:10366000019B33C19B33719B33199B33019B330106
:103670009B33119B3319B333303033306C0330C676
:10368000036383032E01BE00000000000000000061
:10369000CAD400000000000000000000000040004C
:1036A000D83000CE1800C21C00C001FFFF0000C0CF
:1036B000F800C01800C019FFC01818401818601989
:1036C00018601B18611E18311C1FB139F019100049
:1036D0000F000000000000000000D7D6000000002E
:1036E00000060000000300000000C0000001C0C090
:1036F000000107C00001FF00021FFE0007F01C00D0
:1037000007C070000F00E0000E03F0001C0FF00077
:103710003C0F70003C00E0001800C0000000C0003A
:103720000000C00000006000000020000000370022
:103730000001FF00007FF80007F830001F80300014
:103740000080300000C03000006060000018E00021
:10375000000FC0000006000000000000CCE50000E3
:10376000000000000000000000C0000000E0002099
:1037700001B800703FF80061FFC000C3030001C63C
:103780000600038C060003080C0006080C000E1847
:10379000183F1E101BF31F903F0700803C1C019038
:1037A000707C019060FE01A0C3F801A00FD803A0B7
:1037B0000818036000180340001803C000180380B5
:1037C000001803000018000000180000001000009E
:1037D0000030000000300000000000000000B2E2F5
:1037E00000000000000000000000000000000000D9
:1037F000020C1008071FF80403BFF00201BC3003DD
:1038000003EC3003015C600300D8600300D8600360
:103810008098620361B8430771B1430631324306B1
:103820003376C3063A64C7063EECC0063E78C0064F
:103830003C3040067C70000678E060067BFFF006B6
:10384000F7C00006E4000006400000060000000685
:103850000000007C00008FF000007C0000000000F1
:10386000CAD40000000000000000000000000000BA
:103870003F0000007F8000000180000000C00000C9
:1038800000C0000000CE038000CFFFC000DD4180FB
:103890000FFE0007FFFC000C00F000180FC03E19DF
:1038A000FF40F311BC6083307FE003B1FE2003339F
:1038B000802003700030036000100360001807C010
:1038C000000C07C000040780000201000003000094
:1038D00000010000000000000000000000000000E7
:1038E0000000000004390008000000203C00000037
:1038F0006C010008403900083C0000203C07000033
:103900008801000800A24A04000000000000000036
:1039100001020304060708090000FFFF0000000081
:103920000000000000000000000000000000010294
:103930000304010203040607080902040608000044
:04000005080001D519
:00000001FF
