:020000040800F2
:1000000078070020CD010008690E000845080008A7
:10001000650E0008B9020008AB15000800000000DA
:1000200000000000000000000000000007110008B0
:10003000BD02000800000000DD0E000825130008C6
:10004000E7010008E7010008E7010008E7010008F0
:10005000E7010008E7010008E7010008E7010008E0
:10006000E7010008E7010008E7010008E7010008D0
:10007000E7010008E7010008E7010008E7010008C0
:10008000E7010008E7010008E7010008E7010008B0
:10009000E7010008E7010008E7010008E7010008A0
:1000A000E7010008E7010008E7010008E701000890
:1000B000E7010008E7010008E7010008E701000880
:1000C000E7010008E7010008E7010008E701000870
:1000D000E701000889130008E7010008E7010008AC
:1000E000E7010008E7010008E7010008E701000850
:1000F000E7010008E7010008E7010008E701000840
:10010000E7010008E7010008E7010008E70100082F
:10011000E7010008E7010008E7010008E70100081F
:10012000E7010008E7010008E7010008E70100080F
:1001300000F002F800F03AF80AA090E8000C8244BF
:100140008344AAF10107DA4501D100F02FF8AFF29C
:10015000090EBAE80F0013F0010F18BFFB1A43F0A5
:100160000103184790850000B0850000103A24BFB5
:1001700078C878C1FAD8520724BF30C830C144BF0C
:1001800004680C607047000000230024002500264E
:10019000103A28BF78C1FBD8520728BF30C148BFEA
:1001A0000B6070471FB51FBD10B510BD00F056F8AD
:1001B0001146FFF7F7FF01F045FA00F074F803B4B9
:1001C000FFF7F2FF03BC01F0F2F900000948804795
:1001D00009480047FEE7FEE7FEE7FEE7FEE7FEE729
:1001E000FEE7FEE7FEE7FEE704480549054A064B41
:1001F0007047000029130008310100087801002031
:10020000780700207803002078030020704710B59D
:10021000431C02E010F8011B71B18107FAD14FF0C5
:10022000013202C88C1A8C4314EAC211F9D0C01AE8
:100230000A0603D0C01E10BDC01A10BD0A0401D0AA
:10024000801E10BD0902FCD0401E10BD70477047D3
:100250007047704700487047140100207546FFF74B
:10026000F9FFAE4605006946534620F00700854673
:1002700018B020B5FFF7B8FFBDE820404FF00006EA
:100280004FF000074FF000084FF0000B21F007017E
:10029000AC46ACE8C009ACE8C009ACE8C009ACE8C1
:1002A000C0098D46704710B50446AFF30080204664
:1002B000BDE81040FFF783BF00BFFEE770470000B6
:1002C0003EB504464FF6FF7000F0BEFA1F200090C6
:1002D0001948028814230021084600F0F3FA1F2071
:1002E00000901548438802884088143881B2002065
:1002F00000F0E8FA4FF6FF70104908800120102145
:100300000FA21F23CDE9002102904FF6FF720221B8
:10031000002000F077FA012010210DA2CDE9002184
:10032000029005484088123881B21F234FF6FF72B1
:10033000002000F067FA3EBD3C00002014000020C1
:10034000B4A5C3FEC6C1B5C4CAB9D3C3000000007A
:10035000BAC3BAC3D1A7CFB0A3ACCCECCCECCFF22C
:10036000C9CF21002DE9F0410246002500260020DA
:1003700000230024002791F803C00CF00F0591F82A
:1003800003C00CF0100CBCF1000F03D091F802C0B8
:100390004CEA050591F800C0BCF1000F31D014689B
:1003A00000202BE04FF0010C0CFA00F3B1F800C074
:1003B0000CEA03069E4220D183004FF00F0C0CFA8A
:1003C00003F7BC4305FA03FC4CEA040491F803C0AC
:1003D000BCF1280F06D14FF0010C0CFA00FCC2F85A
:1003E00014C00AE091F803C0BCF1480F05D14FF0EA
:1003F000010C0CFA00FCC2F810C0401C0828D1D334
:100400001460B1F800C0BCF1FF0F34DD5468002067
:100410002EE000F1080C4FF0010808FA0CF3B1F8D7
:1004200000C00CEA03069E4221D183004FF00F0C5E
:100430000CFA03F7BC4305FA03FC4CEA040491F8F8
:1004400003C0BCF1280F05D100F1080C08FA0CF824
:10045000C2F8148091F803C0BCF1480F07D100F135
:10046000080C4FF0010808FA0CF8C2F81080401C84
:100470000828CED35460BDE8F08100002DE9FC5F70
:100480000546884691469A46DDF830B00095112021
:10049000019000245FE004EB0410374911F81000CC
:1004A0009BF80010884253D104EB0410324901EB51
:1004B000400040789BF80110884249D108F10F00B4
:1004C00083B205F10F0082B24146284600F06AFB74
:1004D00000263BE0002734E00D9890B904EB0410AF
:1004E000254901EB4000801C805D80213941084096
:1004F00018B1484600F09AFC21E0504600F096FC06
:100500001DE01E48A0F8009004EB04101A4901EB0E
:100510004000801C805D80213941084018B141466F
:10052000284600F0C1F9681C85B20098281A1028E6
:1005300005D1009D08F101001FFA80F803E0781C46
:10054000C7B2082FC8DB00BF701CC6B2202EC1DBAB
:1005500000BF601C84B2019884429CDB084840883C
:10056000401E83B206480088401E82B20021084621
:1005700000F018FBBDE8FC9F388100081400002043
:100580003C0000202DE9FC5F0546884691469A46CE
:10059000DDF830B0009505200190002467E004EB01
:1005A000840000EB44103A4911F810009BF8001049
:1005B000884259D104EB840000EB4410344901EB2C
:1005C000400040789BF8011088424DD108F1170097
:1005D00083B205F1170082B24146284600F0E2FAE4
:1005E00000263FE0002738E00D98A0B904EB840016
:1005F00000EB4410264901EB4000801C805D802107
:100600003941084018B1484600F010FC23E050463C
:1006100000F00CFC1FE01F48A0F8009004EB8400E1
:1006200000EB44101A4901EB4000801C805D8021E2
:100630003941084018B14146284600F035F9681C98
:1006400085B20098281A182805D1009D08F10100EC
:100650001FFA80F803E0781CC7B2082FC4DB00BF84
:10066000701CC6B2482EBDDB00BF601C84B201986E
:10067000844294DB08484088401E83B206480088C4
:10068000401E82B20021084600F08CFABDE8FC9FB3
:100690007A830008140000203C0000202DE9FC5F54
:1006A0000546884691469A46DDF830B0009504200C
:1006B000019000245FE004EB8410374911F810002A
:1006C0009BF80010884253D104EB8410324901EBAF
:1006D000400040789BF80110884249D108F11F0082
:1006E00083B205F11F0082B24146284600F05AFA53
:1006F00000263BE0002734E00D9890B904EB84100D
:10070000254901EB4000801C805D80213941084073
:1007100018B1484600F08AFB21E0504600F086FB05
:100720001DE01E48A0F8009004EB84101A4901EB6C
:100730004000801C805D80213941084018B141464D
:10074000284600F0B1F8681C85B20098281A2028C5
:1007500005D1009D08F101001FFA80F803E0781C24
:10076000C7B2082FC8DB00BF701CC6B2802EC1DB29
:1007700000BF601C84B2019884429CDB084840881A
:10078000401E83B206480088401E82B200210846FF
:1007900000F008FABDE8FC9FEC840008140000207B
:1007A0003C0000202DE9F04706460F46154607F1AC
:1007B000270083B206F1270082B23946304600F0A6
:1007C000F1F900240AE015F8149005EB440090F8C4
:1007D000018049EA082000F029FB641CB4F5C86FC9
:1007E000F1DB07484088401E83B205480088401E60
:1007F00082B20021084600F0D5F9BDE8F08700007C
:100800003C0000202DE9FE4F0E4617469846DDE9D4
:100810000D9A0C9C2046FFF7FAFC85B2084909881E
:10082000A1EBC50000EBD071C1F34F0B43463A4634
:10083000314658468DE8100600F0DAFCBDE8FE8F20
:100840003C00002000BFFEE770B506461448408813
:10085000401E83B212480088401E82B20021084622
:1008600000F0A0F94FF400600E4908604010091F25
:10087000086000240AE0002503E0304600F0D6FAC4
:100880006D1C07480088A842F7D8641C04484088BB
:10089000A042F0D84FF400600249091F086070BD03
:1008A0003C000020140C014070B504460D4629465A
:1008B000204600F06DF90248008800F0B7FA70BDDC
:1008C000140000202DE9F05F04460D4616461F4631
:1008D000301B401C1FFA80FA781B401C1FFA80FB5B
:1008E0003B4632462946204600F05CF94FF00008AE
:1008F0000FE04FF0000906E00A9800F097FA09F1BE
:1009000001001FFA80F9D145F6DB08F101001FFA5A
:1009100080F8D845EDDB07484088401E83B2054883
:100920000088401E82B20021084600F03BF9BDE875
:10093000F09F00003C00002008B50121082000F0D5
:10094000DFFA4FF4F050ADF8000003208DF80200FC
:1009500010208DF8030069460148FFF703FD08BD2C
:10096000000C014010B500F045FBFFF7E5FF00F07B
:10097000FBF8F02000F0ECF9C32000F0D1F9F020F2
:1009800000F0E6F9962000F0CBF9362000F0E0F90F
:10099000682000F0C5F93A2000F0DAF9052000F0EF
:1009A000BFF9B02000F0D4F9802000F0B9F9B620EA
:1009B00000F0CEF9002000F0B3F9022000F0B0F909
:1009C000B52000F0C5F9022000F0AAF9032000F0DC
:1009D000A7F9002000F0A4F9042000F0A1F9B1204B
:1009E00000F0B6F9802000F09BF9102000F098F993
:1009F000B42000F0ADF9002000F092F9B72000F02B
:100A0000A7F9C62000F08CF9C52000F0A1F9242038
:100A100000F086F9E42000F09BF9312000F080F925
:100A2000E82000F095F9402000F07AF98A2000F0E3
:100A300077F9002000F074F9002000F071F9292006
:100A400000F06EF9192000F06BF9A52000F068F9AC
:100A5000332000F065F9C22000F07AF9A72000F0F9
:100A600077F9E02000F074F9F02000F059F909203E
:100A700000F056F9132000F053F9122000F050F95D
:100A8000122000F04DF92B2000F04AF93C2000F034
:100A900047F9442000F044F94B2000F041F91B20B5
:100AA00000F03EF9182000F03BF9172000F038F96B
:100AB0001D2000F035F9212000F032F9E12000F08E
:100AC00047F9F02000F02CF9092000F029F9132053
:100AD00000F026F90C2000F023F90D2000F020F999
:100AE000272000F01DF93B2000F01AF9442000F007
:100AF00017F94D2000F014F90B2000F011F9172020
:100B000000F00EF9172000F00BF91D2000F008F995
:100B1000212000F005F9362000F01AF9EC2000F051
:100B2000FFF8F02000F014F9C32000F0F9F8F020ED
:100B300000F00EF9692000F0F3F8132000F008F936
:100B4000112000F005F9292000F002F9002000F042
:100B500027F90120034908604FF6FF70FFF774FE84
:100B600010BD0000A481214210B54FF48050074908
:100B70000860642000F040FD4FF480500349091FD5
:100B80000860322000F038FD10BD0000140C014058
:100B900070B504460D462B4622462946204600F0F5
:100BA00001F870BD2DE9F04104460D4616461F467A
:100BB0001149887A00F0CCF8201200F0B1F8E0B2C8
:100BC00000F0AEF8301200F0ABF8F0B200F0A8F888
:100BD0000949087B00F0BCF8281200F0A1F8E8B23F
:100BE00000F09EF8381200F09BF8F8B200F098F888
:100BF00000F0C4F8BDE8F0813C0000202DE9FF4F73
:100C000083B081468A469346DDE9106440480088F7
:100C10000290A6F12000C6B204EBD47009EB60008C
:100C2000401E82B20AEB0400401E83B25146484681
:100C30000194FFF7B7FF129850BB002525E00C2C5C
:100C400007D106EB4600334901EB800010F8058020
:100C500004E0314800EB061010F8058000270DE095
:100C600008F0010018B1584600F0E0F802E00698DC
:100C700000F0DCF84FEA6808781CC7B204EBD471C6
:100C8000B7EB610FECDB681CC5B2A542D7DB2DE0EA
:100C9000002529E00C2C07D106EB46001D4901EB8D
:100CA000800010F8058004E01B4800EB061010F8E7
:100CB0000580002711E01648A0F800B008F00100F8
:100CC00038B10AEB050291B209EB070290B2FFF7C7
:100CD000EBFD4FEA6808781CC7B204EBD471B7EBA0
:100CE000610FE8DB681CC5B2A542D3DB0849029856
:100CF00008800A484088401E83B208480088401E89
:100D000082B200210846FFF74DFF07B0BDE8F08F23
:100D100014000020D4760008487B00083C00002026
:100D200010B504464FF40060074908604010091FE1
:100D300008602146054800F0D5F94FF400600249EB
:100D4000091F086010BD0000140C0140003800406D
:100D500010B504464FF40060064908604010086072
:100D60002146054800F0BEF94FF400600149091F13
:100D7000086010BD140C01400038004010B5024955
:100D8000087AFFF7E5FF10BD3C00002070B505466E
:100D90000C462846FFF7DCFFE0B2FFF7C1FF70BD4D
:100DA00010B504462A20204948812B2088812C2018
:100DB000088134B1012C10D0022C1AD0032C30D170
:100DC00023E04FF4A070184908804FF4F070488079
:100DD00048213620FFF7DAFF24E04FF4F070124983
:100DE00008804FF4A070488028213620FFF7CEFFFE
:100DF00018E04FF4A0700C4908804FF4F070488060
:100E000088213620FFF7C2FF0CE04FF4F07006494E
:100E100008804FF4A0704880E8213620FFF7B6FF25
:100E200000E000BF00BF10BD3C00002010B504462C
:100E30004FF40060094908604010091F0860211242
:100E4000074800F04FF9E1B2054800F04BF94FF4C4
:100E500000600249091F086010BD0000140C014029
:100E60000038004000BFFEE77047000070B5002169
:100E700000230F22C47804B3154C246804F4E06402
:100E8000C4F5E064210AC1F10403CA40447804FABD
:100E900003F184781440214309010E4C0678A155D2
:100EA000047804F01F050124AC4005786D11AD00F5
:100EB00005F1E025C5F8004109E0047804F01F05BC
:100EC0000124AC40044D0678761145F8264070BDEB
:100ED0000CED00E000E400E080E100E0704700007D
:100EE00029B1064AD2690243044BDA6104E0034A9D
:100EF000D2698243014BDA61704700000010024062
:100F000029B1064A92690243044B9A6104E0034AFC
:100F100092698243014B9A617047000000100240C1
:100F200030B500210022002400232D4D6D6805F00E
:100F30000C0121B1042905D0082923D105E0294D50
:100F4000056022E0274D05601FE0254D6D6805F422
:100F50007012234D6D6805F48034022505EB924232
:100F60001CB9214D554305600BE01D4D6D6805F41E
:100F700000351DB11C4D5543056002E0194D554328
:100F8000056002E0174D056000BF00BF144D6D689D
:100F900005F0F0010909154D6B5C0568DD40456001
:100FA0000F4D6D6805F4E061090A104D6B5C4568F2
:100FB000DD4085600A4D6D6805F46051C90A0B4D2E
:100FC0006B5C4568DD40C560054D6D6805F44041CA
:100FD000890B074D6B5CC568B5FBF3F5056130BD4A
:100FE0000010024000127A0000093D002600002097
:100FF0003600002000B587B001210920FFF780FFEF
:101000004FF42040ADF8040003208DF806001820AE
:101010008DF8070001A91C48FFF7A4F94FF48040A0
:10102000ADF8040048208DF8070003208DF8060075
:1010300001A91548FFF796F901218803FFF750FF32
:101040000020ADF808004FF48270ADF80A000020CF
:10105000ADF80C00ADF80E00ADF810004FF40070C4
:10106000ADF812000020ADF81400ADF8160007200E
:10107000ADF8180002A9054800F016F80121034850
:1010800000F006F807B000BD000C01400038004039
:1010900021B1028842F04002028004E002884FF64B
:1010A000BF731A400280704710B50022028802F414
:1010B00041520B884C8823438C882343CC8823439C
:1010C0000C8923434C8923438C892343CC892343B4
:1010D0001A430280838B4FF2FF74234083830B8A71
:1010E000038210BD024600BF108900F002000028F4
:1010F000FAD0918100BF108900F001000028FAD0D9
:101100009089C0B27047704710B500F001F810BD6B
:101110000CB50020019000903348006840F4803006
:101120003149086000BF3048006800F4003000908A
:101130000198401C0190009818B90198B0F5A06F73
:10114000F1D12948006800F4003010B1012000906E
:1011500001E0002000900098012843D12348006856
:1011600040F01000214908600846006820F00300A4
:1011700008600846006840F0020008601A484068AD
:10118000194948600846406848600846406840F48D
:10119000806048600846406820F47C10486008463B
:1011A000406840F4E81048600846006840F08070ED
:1011B000086000BF0C48006800F000700028F9D0FB
:1011C0000948406820F00300074948600846406825
:1011D00040F00200486000BF0348406800F00C0087
:1011E0000828F9D10CBD0000001002400020024088
:1011F0002DE9FF4F83B0064688469146DDE9114749
:10120000109DB2464FF0000B71E0BBF1000F40D1D2
:1012100004EBD471384A1288A2EB6101B14204DBBD
:1012200035494988091B414502DA07B0BDE8F08F0E
:101230002878802802DD4FF0010B58E028780D282F
:1012400006D108EB04001FFA80F856466D1C1EE01C
:10125000102C0DDD102128788DE883004A46414688
:101260003046069BFFF7CAFC06F1080086B20EE086
:1012700028788DE891004A4641463046069BFFF7A4
:10128000BDFC204604EBD07106EB61018EB26D1CF3
:101290002DE019480088001BB04204DB1648408846
:1012A000001B404500DAC0E74FF0000B202C08D1AE
:1012B000CDE900574A4641463046069BFFF7EEF916
:1012C00012E0182C08D1CDE900574A464146304675
:1012D000069BFFF757F907E0CDE900574A4641461C
:1012E0003046069BFFF7CAF8AD1C301986B2287845
:1012F00000288AD100BF98E73C000020042808D1CC
:101300004FF0E021096941F004014FF0E022116142
:1013100007E04FF0E021096921F004014FF0E022DD
:10132000116170477047000010B51348006840F025
:1013300001001149086008464068104908400E49FC
:101340004860084600680E4908400B490860084696
:10135000006820F4802008600846406820F4FE0001
:1013600048604FF41F008860FFF7CEFE4FF000602A
:101370000449086010BD0000001002400000FFF8A2
:10138000FFFFF6FE08ED00E010B540F225511D48C4
:1013900000F04AF810B31B4800F002F9C4B21A4832
:1013A000008800F40040C8B91748008800F4804065
:1013B00060B10A2C03D000201349088020E01248B5
:1013C000008840F400401049088019E00D2C06D137
:1013D0000D48008840F480400B49088010E00A481E
:1013E0000088C0F30D0009490C5407480088401CD0
:1013F0000549088008460088C72801DD00200880CC
:1014000010BD000000380140240000204A000020E8
:1014100021B1828942F40052828104E082894DF632
:10142000FF731A408281704770B502460024002382
:101430000025002040F66A16B14200D100BFC1F37A
:10144000421501F01F03012606FA03F3012D02D114
:101450009689334006E0022D02D1168A334001E01E
:10146000968A33400C12012606FA04F4168834409A
:1014700013B10CB1012000E0002070BDF0B50346AF
:10148000002400260025002040F66A17B94200D14A
:1014900000BF1846C1F3421401F01F06012707FAE6
:1014A00006F5012C01D10C3004E0022C01D11030E2
:1014B00000E014301AB107682F43076002E00768A4
:1014C000AF430760F0BD00002DE9F04786B0054648
:1014D0000E460024A24600BFA1460027B08900B1F5
:1014E00000BF2F462C8A4CF6FF700440F08804435E
:1014F0002C82AC894EF6F3100440B0883189084341
:10150000718908430443AC81AC8A4FF6FF40044024
:10151000B0890443AC8201A8FFF702FD1F4887424F
:1015200002D1DDF810A001E0DDF80CA0A88900F4DC
:10153000004040B10AEBCA0000EB0A1031684900D4
:10154000B0FBF1F807E00AEBCA0000EB0A103168C3
:101550008900B0FBF1F86420B8FBF0F00401200929
:10156000642101FB1089A88900F4004040B13220B9
:1015700000EBC900B0FBF1F000F00700044308E005
:10158000322000EB09106421B0FBF1F000F00F00F5
:1015900004432C8106B0BDE8F0870000003801400C
:1015A00001468888C0F30800704700BFFEE700BF0F
:1015B0007047000010B56FF00400FFF79FFE0A4867
:1015C00000680A49B0FBF1F0094908700846007844
:1015D00000EB4001C1EBC0104FF6FF7101EAC00003
:1015E0000449088010BD00000000002000127A00AD
:1015F0001A0000201C0000200146114A12884A43AC
:101600004FF0E0235A6100229A611A46126942F0B3
:1016100001021A6100BF4FF0E022106900F00102E0
:101620001AB100F48032002AF5D04FF0E02212699E
:1016300022F001024FF0E0231A6100229A61704704
:101640001C0000200EB5FFF76FFE4FF4E13000F0F4
:101650006DF8FFF7AFFFFFF785F922A0FEF730FE28
:101660003EE00020102120A24FF6E073CDE90021DA
:1016700002901F221E210A20FFF7BAFD0020182128
:101680001CA24FF47843CDE9002102904FF6FF727F
:1016900050210A20FFF7ACFD0120202118A24FF6AF
:1016A000E073CDE9002102901F2278210A20FFF784
:1016B0009FFD0120102115A24FF6E073CDE9002116
:1016C00002901F22B4210A20FFF792FD154ADC2167
:1016D0003220FFF767F8144ADC219620FFF762F802
:1016E000BFE7000000000000D5E2CAC7D6D0CEC4D4
:1016F00000000000D7D6CCE5B4F3D2BBB5E30000C0
:10170000D4D9B4F3D2BBB5E30000000054686973C8
:1017100020697320696E20456E676C6973682021AB
:1017200000000000CC3000084C24000810B586B042
:101730000446012144F20400FFF7E2FB4FF400707D
:10174000ADF8140003208DF8160018208DF817004E
:1017500005A91C48FEF706FE4FF48060ADF81400A2
:1017600004208DF8170005A91648FEF7FBFD25207B
:101770008DF8000003208DF801008DF80200012093
:101780008DF803006846FFF771FB01940020ADF867
:101790000800ADF80A00ADF80C00ADF810000C2000
:1017A000ADF80E0001A90848FFF78EFE012240F2B5
:1017B00025510548FFF762FE01210348FFF728FE87
:1017C00006B010BD0008014000380140FFFFFFFFD8
:1017D000FFFFFFFFFFFFFFFFFFFFFFFFFFFFFFFF19
:1017E000FFFFFFFFFFFFFFFFFFFFFFFFFFFFFFFF09
:1017F000FFFFFFFFFFFFFFFFFFFFFFFFFFFFFFFFF9
:10180000FFFFFFFFFFFFFFFFFFFFFFFFFFFFFFFFE8
:101A2000BEFFD6BD75B579D6FFFFFFFFFFFFFFFFF5
:101A3000FFFFFFFFFFFFFFFFFFFFFFFFFFFFFFFFB6
:101A4000FFFFFFFFFFFFFFFFFFFFFFFFFFFFFFFFA6
:101A5000FFFFFFFFFFFFFFFFFFFFFFFFFFFFFFFF96
:101A6000FFFFFFFFFFFFFFFFFFFFFFFFFFFFBEF7CF
:101A700054AD79CE38CED6C5FFFFFFFFFFFFFFFF85
:101A8000FFFFFFFF3CF71BEFFFFFFFFFFFFFFFFF25
:101A9000FFFFFFFFFFFFFFFFFFFFFFFFFFFFFFFF56
:101AA000FFFFFFFFFFFFFFFFFFFFFFFFFFFFFFFF46
:101AB000FFFFFFFFFFFFFFFFFFFFFFFFDFFFF7C598
:101AC000DAD6F7BDF39C508CB29CD3A475B5F3ACB9
:101AD000D2A413B534B5B6C53DF7FFFFFFFFFFFF36
:101AE000FFFFFFFFFFFFFFFFFFFFFFFFFFFFFFFF06
:101AF000FFFFFFFFFFFFFFFFFFFFFFFFFFFFFFFFF6
:101B0000FFFFFFFF7DEFDFFFFFFFFFFFB6BD3CEFF5
:101B1000F7BD139DCF73F39C5184F39C38C6BAE68E
:101B200054C50FA413C513BD7DFFFFFFFFFFFFFFCB
:101B3000FFFFFFFFFFFFFFFFFFFFFFFFFFFFFFFFB5
:101B4000FFFFFFFFFFFFFFFFFFFFFFFFFFFFFFFFA5
:101B5000FFFFDEFFD7BDFFFFFFFF9EF759CE79CE17
:101B600054A5F39475A596A5F39438BEBAD654B58A
:101B7000EF9395D538EEB2B4DFFFFFFFFFFFFFFF15
:101B8000FFFFFFFFFFFFFFFFFFFFFFFFFFFFFFFF65
:101B9000FFFFFFFFFFFFFFFFFFFFFFFFFFFFFFFF55
:101BA000DEFF59D617C6FFFFBEFF54ADD6B538BE0F
:101BB00096AD96A595A575A538B658BE79C679CEC9
:101BC000FBE63CEFB5C5FBEEFFFFFFFFFFFFFFFFAE
:101BD000FFFFFFFFFFFFFFFFFFFFFFFFFFFFFFFF15
:101BE000FFFFFFFFFFFFFFFFFFFFFFFFFFFFFFFF05
:101BF00034ADD29C18C6BEFF58D613AD58C658BED9
:101C000058BE38BE18B618B638B658BE58BE59BEFB
:101C10009ACE9AD699D675B5FFFFFFFFFFFFFFFF5B
:101C2000FFFFFFFFFFFFFFFFFFFFFFFFFFFFFFFFC4
:101C3000FFFFFFFFFFFFFFFFFFFFFFFFFFFF9EF71D
:101C400034A554AD75AD38CEB2A458D6BADEBAD6E6
:101C5000BACE79C679C658BE58BE58BE38BE58BE30
:101C600079C658C617C6B29CFFFFFFFFFFFFFFFFF4
:101C7000FFFFFFFFFFFFFFFFFFFFFFFFFFFFFFFF74
:101C8000FFFFFFFFFFFFDEFFFEFFFEFFFEFFBADEEE
:101C900095B5F7BDD7BDD6C5509458DEB1A4DAE6E8
:101CA0009EF75CE7DBDE79CE37C679CE58C658BEE4
:101CB00058BE38BE37C691949EF7FFFFFFFFFFFF67
:101CC000FFFFFFFFFFFFFFFFFFFFFFFFFFFFFFFF24
:101CD000FFFFFFFFFFFFDDFF38F7BAFF9BFF77D65F
:101CE000BEFF9DF73CE75CEF95BD58DEEE93EE8BB3
:101CF00079D6DADEF6CD0F9454BDB6BD1BDF58C6DB
:101D000038BE75AD718C0B6334ADFFFFFFFFFFFF75
:101D1000FFFFFFFFFFFFFFFFFFFFFFFFFFFFFFFFD3
:101D2000FFFFFFFFFFFFBDFFB6E695E619EF98DE68
:101D30003CEFFFFF9EF738CE38D654BDAA6A0F9409
:101D40003CEFF7CD54BDCA6ACE8B17D6F3A4D6BDEF
:101D500034A595AD75B5919C1BE7FFFFFFFFFFFF15
:101D6000FFFFFFFFFFFFFFFFFFFFFFFFFFFFFFFF83
:101D7000FFFFFFFFFFFFFFFFDDFF7BF7DEFF9DF7AC
:101D800079D699D61BE775B5308C7DFF17D6DAE684
:101D900018CEDAE659DE2B73AD83BAE6F7C579CEF5
:101DA000F7B5F7BD13A58E7BDEFFFFFF7DF77DEF57
:101DB000FFFFFFFFFFFFFFFFFFFFFFFFFFFFFFFF33
:101DC000FFFFFFFFFFFFFFFFFFFFFEFFDFFF7DF7CE
:101DD0007DF758CEB6BD1BEFF3ACBADEDAE63CEFCA
:101DE00079D69DFF7DF7DFFFDFFFDAE6FBE638C639
:101DF000D7B5349D91942C6B99D6FBE6DADE7DF74E
:101E0000FFFFBEFF79D69EF7FFFFFFFFFFFFFFFF3B
:101E1000FFFF5DEF1CE7DADE1BE7FFFFBEFF7DF78C
:101E2000FFFF7DF75DEF3CEF38D699DEFFFFFFFF48
:101E3000DFFFFFFF3CEF5DEF9DF77DEFDEFFFBDE99
:101E400059C675A5D29C74AD919C75B50F8413A528
:101E50001CEF3CEF5CEFDEFFFFFFFFFFFFFFFFFF2C
:101E6000BEFF75B554ADD6BDB6BDDADEDEFFDFFF11
:101E7000FFFFBEFF58CED6BD95BD919CBADEFFFFD9
:101E8000FFFFFFFFFFFFFFFFFFFFDFFF9DF71CDFEF
:101E9000DAD679CE34A5D6BDFBE679D696B591943F
:101EA000929CD2A4D6BDDADEFFFFFFFFFFFFFFFF4B
:101EB0009EF779D6D29C75ADD6BDB6B538CE1BE7A8
:101EC000FFFFD7C554AD13A56C732F8CDADE38C66F
:101ED00099D63CE7DFFFFFFFFBE617C69EF7DFFF63
:101EE0005DEF71941BEFDEFFDFFF9DF71BE795B5FC
:101EF00075BD5094BADEFFFFFFFFFFFFFFFFFFFF3E
:101F00009EF738CE34AD75AD75AD75ADB6B5D6BDF1
:101F1000F7C5B6BDD6BD13A553AD36CE3BE73CE7FE
:101F20007DEFBEF7DEFFFFFF9DF7D6C538CEFFFF82
:101F30007DF7D29C34AD37C6FBDEFBDE1BE737C630
:101F4000D2A413ADFBE6FFFFFFFFFFFFFFFFFFFF84
:101F5000FFFFBEF779D6F39C75AD75AD75AD75AD68
:101F600075ADD6BD54AD33AD56D6B7E69BF7F6C5C5
:101F7000BEF7FFFFFFFFDADEF7C5B6BDBADE79D6E2
:101F8000D2A4D2A4DADE99CED6BD58CE58D6D6C5C4
:101F900017CEFFFFFFFFFFFFFFFFFFFFFFFFFFFF6A
:101FA000FFFFFFFFFFFFF3A475AD75AD75AD75AD18
:101FB00075AD75AD75ADB5BDAFA4F8EEBCFF74B52C
:101FC000BADEDEFFBADED6BD13A5DADE58CEB29C8D
:101FD000CE7B16C65AEF7BF7DADE3CE775B5AE7BF3
:101FE000FBE6FFFFFFFFFFFFFFFFFFFFFFFFFFFF1E
:101FF000FFFFFFFFFFFF58CE34A575AD75ADD7B518
:1020000075AD75AD75AD54ADB19C37D69DFF53B56B
:10201000D5C574BDDADE5CEFF9E657CE78CEBAD618
:10202000D6BDD9DEB6E6F7E65BEF3CE779CED29CCB
:10203000FBE6FFFFFFFFFFFFFFFFFFFFFFFFFFFFCD
:10204000FFFFFFFFFFFF3CE7F39C75AD75AD17BECB
:1020500079CE75AD75AD75ADD29C2F8CD1A42E9473
:10206000F1ACB4C5FEFFBDF7F9E6D9E6DAD61BE759
:102070007CF75AEFF7EE59F77CEF3CE779CE54AD99
:102080009AD6FFFFFFFFFFFFFFFFFFFFFFFFFFFFEE
:10209000FFFFFFFFFFFF7DEFD7BD34A575AD75AD29
:1020A00018BE75AD75AD75AD34ADAD7B11AD52B526
:1020B0006FA457DEFEFFFEFF5BF7B9E6F6C537CE2D
:1020C000D5C5D4C5F9E61AE73BE73CDF79CED39C0A
:1020D000D7BDFFFFFFFFFFFFFFFFFFFFFFFFFFFF7A
:1020E000FFFFFFFFFFFFFFFFFFFF59CEF39C54AD43
:1020F00054AD75AD75AD75AD54ADEE83F1AC55D63F
:1021000073BD53B57DF758CEF2A4909CB1A4B1A491
:1021100093C536D6D4C5F6C599CEDAD6FBD6BAD68F
:10212000D6BDFFFFFFFFFFFFFFFFFFFFFFFFFFFF2A
:10213000FFFFFFFFFFFFFFFFFFFFFFFFFAE633B5E3
:10214000D1A454B555AD75AD75AD70942E8C53B505
:1021500094BDD19C508CB29C33AD12ADB1A42E9CD9
:10216000F0B476E697E698DE98DE37CE17C6DBDE6B
:10217000DADEFFFFFFFFFFFFFFFFFFFFFFFFFFFFB5
:10218000FFFFFFFFFFFFFFFFFFFFFFFFDEFF3BF74C
:1021900037D613ADD29C54AD54B5F2A40F8C53B5C1
:1021A00012AD53B513ADB19C909C4F9432B536D659
:1021B000B8E639F75AFFBCFFDEFFFEFFFFFF3CE742
:1021C000DADE9DF7FFFFFFFFFFFFFFFFFFFFFFFFCF
:1021D000FFFFFFFFFFFFFFFFFFFFFFFFFFFFFFFF0F
:1021E000DEFF3BEF77DEF1ACB1A453B52F94F2AC38
:1021F000D1A4709C2F9412AD94C577DED9E69CFFD4
:10220000FEFFFEFFFFFFFFFFFFFFFFFFFFFFFFFFE0
:10221000FFFFFFFFFFFFFFFFFFFFFFFFFFFFFFFFCE
:10222000FFFFFFFFFFFFFFFFFFFFFFFFFFFFFFFFBE
:10223000FFFFFEFFDDFF1AF737D633B5F2A4F2A495
:1022400033B5B5C51BEF9CFF5BF7BCFFFEFFFFFF7F
:10225000FFFFFFFFFFFFFFFFFFFFFFFFFFFFFFFF8E
:10226000FFFFFFFFFFFFFFFFFFFFFFFFFFFFFFFF7E
:10227000FFFFFFFFFFFFFFFFFFFFFFFFFFFFFFFF6E
:10228000FFFFFFFFFFFFFFFFFFFFBDFF7CF79DFF8D
:102290009DFFDEFFFFFFFFFFFFFFFFFFFFFFFFFFD1
:1022A000FFFFFFFFFFFFFFFFFFFFFFFFFFFFFFFF3E
:1022B000FFFFFFFFFFFFFFFFFFFFFFFFFFFFFFFF2E
:1022C000FFFFFFFFFFFFFFFFFFFFFFFFFFFFFFFF1E
:1022D000FFFFFFFFFFFFFFFFFFFFFFFFFFFFFFFF0E
:1022E000FFFFFFFFFFFFFFFFFFFFFFFFFFFFFFFFFE
:1022F000FFFFFFFFFFFFFFFFFFFFFFFFFFFFFFFFEE
:10230000FFFFFFFFFFFFFFFFFFFFFFFFFFFFFFFFDD
:10231000FFFFFFFFFFFFFFFFFFFFFFFFFFFFFFFFCD
:10232000FFFFFFFFFFFFFFFFFFFFFFFFFFFFFFFFBD
:10233000FFFFFFFFFFFFFFFFFFFFFFFFFFFFFFFFAD
:10234000FFFFFFFFFFFFFFFFFFFFFFFFFFFFFFFF9D
:10235000FFFFFFFFFFFFFFFFFFFFFFFFFFFFFFFF8D
:10236000FFFFFFFFFFFFFFFFFFFFFFFFFFFFFFFF7D
:10237000FFFFFFFFFFFFFFFFFFFFFFFFFFFFFFFF6D
:10238000FFFFFFFFFFFFFFFFFFFFFFFFFFFFFFFF5D
:10239000FFFFFFFFFFFFFFFFFFFFFFFFFFFFFFFF4D
:1023A000FFFFFFFFFFFFFFFFFFFFFFFFFFFFFFFF3D
:1023B000FFFFFFFFFFFFFFFFFFFFFFFFFFFFFFFF2D
:1023C000FFFFFFFFFFFFFFFFFFFFFFFFFFFFFFFF1D
:1023D000FFFFFFFFFFFFFFFFFFFFFFFFFFFFFFFF0D
:1023E000FFFFFFFFFFFFFFFFFFFFFFFFFFFFFFFFFD
:1023F000FFFFFFFFFFFFFFFFFFFFFFFFFFFFFFFFED
:10240000FFFFFFFFFFFFFFFFFFFFFFFFFFFFFFFFDC
:10241000FFFFFFFFFFFFFFFFFFFFFFFFFFFFFFFFCC
:10242000FFFFFFFFFFFFFFFFFFFFFFFFFFFFFFFFBC
:10243000FFFFFFFFFFFFFFFFFFFFFFFFFFFFDFFFCC
:102440007DEF9EF75DEF5DEF7DEFBEF7FFFFFFFFD6
:10245000FFFFFFFFFFFFFFFFFFFFFFFFFFFFFFFF8C
:10246000FFFFFFFFFFFFFFFFFFFFFFFFFFFFFFFF7C
:10247000FFFFFFFFFFFFFFFFFFFFFFFFFFFFFFFF6C
:10248000FFFFFFFFFFFFFFFFFFFFFFFFFFFFFFFF5C
:1026A000BEFFB6C554B579D6FFFFFFFFFFFFFFFFA2
:1026B000FFFFFFFFFFFFFFFFFFFFFFFFFFFFFFFF2A
:1026C000FFFFFFFFFFFFFFFFFFFFFFFFFFFFFFFF1A
:1026D000FFFFFFFFFFFFFFFFFFFFFFFFFFFFFFFF0A
:1026E000FFFFFFFFFFFFFFFFFFFFFFFFFFFF9EF763
:1026F00034B579CE58C6D6C5FFFFFFFFFFFFFFFFF9
:10270000FFFFFFFF5CEF1CE7FFFFFFFFFFFFFFFF87
:10271000FFFFFFFFFFFFFFFFFFFFFFFFFFFFFFFFC9
:10272000FFFFFFFFFFFFFFFFFFFFFFFFFFFFFFFFB9
:10273000FFFFFFFFFFFFFFFFFFFFFFFFDFFFF7C50B
:10274000DADE17BEF39C2F94B1A4B2A475BDF3AC2E
:10275000D2AC13B513BDB6CD5CEFFFFFFFFFFFFF9B
:10276000FFFFFFFFFFFFFFFFFFFFFFFFFFFFFFFF79
:10277000FFFFFFFFFFFFFFFFFFFFFFFFFFFFFFFF69
:10278000FFFFFFFF7DEFBFFFFFFFFFFFB6BD3CEF89
:10279000F7BD149DCE73F39C518CF39C38C6DADEE2
:1027A00075BD0FACD2D4F3BC9EF7FFFFFFFFFFFF58
:1027B000FFFFFFFFFFFFFFFFFFFFFFFFFFFFFFFF29
:1027C000FFFFFFFFFFFFFFFFFFFFFFFFFFFFFFFF19
:1027D000FFFFDEFFD7C5FFFFFFFF9DF758CE79C68D
:1027E00055A5F39475A596A5F39438BEBAD654B5FD
:1027F000CE9B55E517F6D2ACFFFFFFFFFFFFFFFFB3
:10280000FFFFFFFFFFFFFFFFFFFFFFFFFFFFFFFFD8
:10281000FFFFFFFFFFFFFFFFFFFFFFFFFFFFFFFFC8
:10282000DEFF79CE17C6FFFFBEFF34B5D6BD38BE7A
:10283000B6A5B6A595A575A538B658BE79C679C60C
:10284000FBDE1CEF95C51BE7FFFFFFFFFFFFFFFF50
:10285000FFFFFFFFFFFFFFFFFFFFFFFFFFFFFFFF88
:10286000FFFFFFFFFFFFFFFFFFFFFFFFFFFFFFFF78
:1028700013ADD29C38C6BEFF58D613AD59C658BE4C
:1028800058BE38B638B638B638B658BE58BE59BE37
:102890009ACEBACE99D654B5FFFFFFFFFFFFFFFFD8
:1028A000FFFFFFFFFFFFFFFFFFFFFFFFFFFFFFFF38
:1028B000FFFFFFFFFFFFFFFFFFFFFFFFFFFF9DF792
:1028C00034AD54AD75AD18CEB2A458CEDAD6BACE6A
:1028D000BACE79C659BE58BE58BE58BE38B658BED4
:1028E00079C659C638BE919CFFFFFFFFFFFFFFFF6F
:1028F000FFFFFFFFFFFFFFFFFFFFFFFFFFFFFFFFE8
:10290000FFFFFFFFFFFFFEFFFEFFFFFFFFFFBADE3F
:1029100095B518BEF7B5D7C5509C58D6B1A4FBE6FF
:102920009EEF5DE7DBDE79CE17C679CE59BE59BE84
:1029300059BE38BE38BE919C9DF7FFFFFFFFFFFFD9
:10294000FFFFFFFFFFFFFFFFFFFFFFFFFFFFFFFF97
:10295000FFFFFFFFFFFFDDFF37F7BBFF9BFF58D6F1
:10296000BEF79EEF3CE75CEF95BD58DECE93CE936D
:1029700079D6DAE6F6CDEF9354BDB6BDFBDE59BE8F
:1029800038BE95AD718CEA6A34B5FFFFFFFFFFFFDB
:10299000FFFFFFFFFFFFFFFFFFFFFFFFFFFFFFFF47
:1029A000FFFFFFFFFFFFBCFFB3EE92EE17F799DECC
:1029B0003CEFFFFF9EF718CE38D654BDA9720F9496
:1029C0003CEFF7C554BDA97AAD9317D6F3ACD6BD8D
:1029D00034A596AD95AD919C1BE7FFFFFFFFFFFF70
:1029E000FFFFFFFFFFFFFFFFFFFFFFFFFFFFFFFFF7
:1029F000FFFFFFFFFFFFFFFFDDFF79FFFDFF9DF7FB
:102A000079D699D63BE754B50F949DFF17CEBAE619
:102A100017D6DAE658D60B7B8D8BBAE6F6C579CE9B
:102A2000F7B517B6349D8D7BDEFFFFFF7DF77DEF99
:102A3000FFFFFFFFFFFFFFFFFFFFFFFFFFFFFFFFA6
:102A4000FFFFFFFFFFFFFFFFFFFFFFFFFFFF9DF700
:102A50007DF758CEB6BD1BE7F3ACBADEDADE3CEF4D
:102A600079D69EF77DF7DFFFFFFFDBE6FBE638C692
:102A7000F7B5349D91940B7379DEFBE6DAE67DEFD2
:102A8000FFFFBEFF79D69EF7FFFFFFFFFFFFFFFFAF
:102A9000FFFF5DEF1CE7BADEFBE6FFFFBDFF7DF742
:102AA000FFFF7DF77DEF5CE738CE99DEFFFFFFFF8C
:102AB000DFFFFFFF3CEF5DEF9EF77DEFDEF71BDFF3
:102AC00059C675A5D29C54AD919C75BDEF8BF3ACE6
:102AD0001BE75CEF5CEFDFFFFFFFFFFFFFFFFFFF88
:102AE000BEFF55B554B5D6BD95BDBADEDEFFFFFFBE
:102AF000FFFFBEFF58CED6BD95BD709CBADEFFFF6E
:102B0000FFFFFFFFFFFFFFFFFFFFDFFF9EEF1CDF69
:102B1000DAD679CE33ADD6BDFBE679CEB6B5929492
:102B2000B294D2A4D6C5DADEFFFFFFFFFFFFFFFF9E
:102B30009EF758D6D2A475ADD6BDB6BD17CE1BE74D
:102B4000FFFFD7C554B513A54C730F8CDADE38C61A
:102B500099D63CEFDFFFFFFFDBE6F7CD9EF7DFFF07
:102B60007DEF709C1BEFDFFFDFFF9EF71CDF96AD54
:102B700095B5509CBADEFFFFFFFFFFFFFFFFFFFF91
:102B80009EF737CE33AD75AD75AD75ADB6B5D6BD67
:102B9000F7C5B6BDB6BD13A553AD35CE3BE73CE793
:102BA0009DEFBEF7DEFFFFFF9DF7B6C517CEFFFF17
:102BB0007DF7B1A434B538C6FBDEFBDE1BE718C6D3
:102BC000D2A4F3ACDAE6FFFFFFFFFFFFFFFFFFFF3A
:102BD000FFFF9EF779D6F3A475AD75AD75AD75ADF4
:102BE00075ADD6BD54AD33AD55DEB4EE7BF7F7C54C
:102BF000BEF7FFFFFFFFDAE6F7C5B6BDBADE79D64E
:102C0000D2A4D2A4DADE99CED6BD58CE58CED6C53F
:102C1000F7CDFFFFFFFFFFFFFFFFFFFFFFFFFFFFFE
:102C2000FFFFFFFFFFFFF3A475AD75AD75AD75AD8B
:102C300075AD75AD75ADB6B5909CF6EEBCFF74BDC7
:102C4000B9DEDEFFBADEB6BD34A5DBD659CEB29C06
:102C5000CE8317C65AEF7CEFDAD63CE795B5AD8345
:102C6000FBE6FFFFFFFFFFFFFFFFFFFFFFFFFFFF91
:102C7000FFFFFFFFFFFF58CE34A575AD75ADD7B58B
:102C800075AD75AD75AD75AD919C37CEBDF753B5CE
:102C9000B4CD53BDDADE5CEFFADE58C679C6BACEE3
:102CA000D6B5D8E6B3EEF6EE5CEF3CE779CED2A42B
:102CB000FBE6FFFFFFFFFFFFFFFFFFFFFFFFFFFF41
:102CC000FFFFFFFFFFFF1CEFF3A475AD75AD17BE4F
:102CD0009ACE75AD75AD75ADD29C0F94D2A42F94DC
:102CE000F2AC95C5FFFFBCFFF6EEF8E6DAD61BDFC7
:102CF0007DEF5BEFF6E65AEF7DEF3CE779C634AD4A
:102D000099D6FFFFFFFFFFFFFFFFFFFFFFFFFFFF62
:102D1000FFFFFFFFFFFF5DEFD6C534A575AD75ADB5
:102D200018BE95AD75AD75AD54AD8D8312AD51BD69
:102D30006F9C58D6FFFFFEFF5AF7D8E6F7C537CE8F
:102D4000D5C5D5BD1ADF3BDF3CDF3CDF79C6F39C40
:102D5000D6C5FFFFFFFFFFFFFFFFFFFFFFFFFFFFE6
:102D6000FFFFFFFFFFFFFFFFFFFF58CEF2A454ADB0
:102D700075AD75AD75AD75AD75ADEE8BF1AC32E67B
:102D800070C533B57DF758D6F2A4919CB29CB0A41F
:102D900092CD14DEB3CDF5C599D6DAD6FBD6BAD628
:102DA000D6C5FFFFFFFFFFFFFFFFFFFFFFFFFFFF96
:102DB000FFFFFFFFFFFFFFFFFFFFFFFFF9EE32B551
:102DC000D2A475AD75AD75AD75AD71940F9451BD4F
:102DD00092BDB19C308CB29C34AD13A5D29C2F9C7B
:102DE000D0B475EE75EE96E677DE37CE17C6DADE2E
:102DF000DADEFFFFFFFFFFFFFFFFFFFFFFFFFFFF29
:102E0000FFFFFFFFFFFFFFFFFFFFFFFFDEFF3AF7C0
:102E100035DE11B5D1A454AD75ADF3A40F8C74B5E6
:102E200033A554AD34ADB29C919C2F9C11BD34DEC2
:102E3000B7EE39F75AF7BDFFFEFFFFFFDFFF3CE7B4
:102E4000BADE9EF7FFFFFFFFFFFFFFFFFFFFFFFF61
:102E5000FFFFFFFFFFFFFFFFFFFFFFFFFFFFFFFF82
:102E6000DEFF3AF756E6F1B4B1A454AD0F8CF3A4EB
:102E7000D2A470942F94F1B493CD76E6D8EE7CF77B
:102E8000FEFFFFFFFFFFFFFFFFFFFFFFFFFFFFFF53
:102E9000FFFFFFFFFFFFFFFFFFFFFFFFFFFFFFFF42
:102EA000FFFFFFFFFFFFFFFFFFFFFFFFFFFFFFFF32
:102EB000FFFFFFFFDEFF1AEF35DE12B5D1ACF1AC3C
:102EC00012B5B4CD1AEF9CFF7BF7DEFFFFFFFFFFCB
:102ED000FFFFFFFFFFFFFFFFFFFFFFFFFFFFFFFF02
:102EE000FFFFFFFFFFFFFFFFFFFFFFFFFFFFFFFFF2
:102EF000FFFFFFFFFFFFFFFFFFFFFFFFFFFFFFFFE2
:102F0000FFFFFFFFFFFFFFFFFEFFBDFF7CF79CFF02
:102F10009DFFDEFFFFFFFFFFFFFFFFFFFFFFFFFF44
:102F2000FFFFFFFFFFFFFFFFFFFFFFFFFFFFFFFFB1
:102F3000FFFFFFFFFFFFFFFFFFFFFFFFFFFFFFFFA1
:102F4000FFFFFFFFFFFFFFFFFFFFFFFFFFFFFFFF91
:102F5000FFFFFFFFFFFFFFFFFFFFFFFFFFFFFFFF81
:102F6000FFFFFFFFFFFFFFFFFFFFFFFFFFFFFFFF71
:102F7000FFFFFFFFFFFFFFFFFFFFFFFFFFFFFFFF61
:102F8000FFFFFFFFFFFFFFFFFFFFFFFFFFFFFFFF51
:102F9000FFFFFFFFFFFFFFFFFFFFFFFFFFFFFFFF41
:102FA000FFFFFFFFFFFFFFFFFFFFFFFFFFFFFFFF31
:102FB000FFFFFFFFFFFFFFFFFFFFFFFFFFFFFFFF21
:102FC000FFFFFFFFFFFFFFFFFFFFFFFFFFFFFFFF11
:102FD000FFFFFFFFFFFFFFFFFFFFFFFFFFFFFFFF01
:102FE000FFFFFFFFFFFFFFFFFFFFFFFFFFFFFFFFF1
:102FF000FFFFFFFFFFFFFFFFFFFFFFFFFFFFFFFFE1
:10300000FFFFFFFFFFFFFFFFFFFFFFFFFFFFFFFFD0
:10301000FFFFFFFFFFFFFFFFFFFFFFFFFFFFFFFFC0
:10302000FFFFFFFFFFFFFFFFFFFFFFFFFFFFFFFFB0
:10303000FFFFFFFFFFFFFFFFFFFFFFFFFFFFFFFFA0
:10304000FFFFFFFFFFFFFFFFFFFFFFFFFFFFFFFF90
:10305000FFFFFFFFFFFFFFFFFFFFFFFFFFFFFFFF80
:10306000FFFFFFFFFFFFFFFFFFFFFFFFFFFFFFFF70
:10307000FFFFFFFFFFFFFFFFFFFFFFFFFFFFFFFF60
:10308000FFFFFFFFFFFFFFFFFFFFFFFFFFFFFFFF50
:10309000FFFFFFFFFFFFFFFFFFFFFFFFFFFFFFFF40
:1030A000FFFFFFFFFFFFFFFFFFFFFFFFFFFFFFFF30
:1030B000FFFFFFFFFFFFFFFFFFFFFFFFFFFFFFFF20
:1030C0007DEF9EF75DEF5DEF7DEFBEF700105000E6
:1030D0007000011BC9D2C9D2C9D2A9CAA9CAA9CA3A
:1030E000A9CAC9CAC9D2C9D2C9DAC9DAC9D2C9D228
:1030F000A9D2A9D2A9D2C8DAE9DAE8E208E308EB52
:1031000007EB07EB07EB08EB08E3E8E2E9E2E9E2AB
:10311000E9E2EAE2EAE2EAE2EAE2EAE20AE30AE30E
:103120000AE30AE30BE30BE30BE30CDB0CDB0CDB46
:103130000DDB0DDB0DDB2DDB2ED32ED32ED32ED3CB
:103140000ECB0ECBEECAEDC2EDC2CDC2CCBACCBA1C
:10315000ACBAABBA8ABA6ABA6ABA89C289C2A9CA0F
:10316000A8D2A8D2C8D2C8DAC8DAC8DAC8DAC8DAA7
:10317000E8DAE8DAE9DAE9DAE9DAC9D2C9D2C9D2B1
:10318000A9D2A9D2C9D2C9D2C9DAE9DAE9DAC9DA47
:10319000C8DAC8DAC8DAC8DAC8DAE8E208E308EB5D
:1031A00008EB08EB08EB08EB08EB08E3E8E2E8E2E1
:1031B000E9E2E9E2E9E2E9E209E309E30AE30AE331
:1031C0000AE30AE32AEB2BE32BE32CE32CE32CE3C7
:1031D0002DE32DDB2DDB2DDB2EDB2EDB2ED32ED3B3
:1031E0000ECB0ECBEECAEEC2CDC2CDBAACBAACBAE3
:1031F000ABBAABBAABBA8AC28AC289C289CAA8CAF8
:10320000A8D2C8D2C8DAC8DAC8DAC8DAC8DAC8DADE
:10321000E8DAE8DA09DBE9DAE9DAE9DAE9DAC9D29F
:10322000C9D2A9D2A9D2A9D2C8DAE8DAE8DAE8E2A2
:10323000E8E2E8E2C8DAC8DAC8DAC8DAC8DAE8E206
:10324000E8E2E8E208EB07EB07EB07EB07EB07EB3D
:1032500008EB08EB08E308EB08EB08EB09EB29EBBC
:1032600009EB2AEB2AEB2AEB2BEB2BEB4BEB4CE39A
:103270002CE32DE32DE32DDB2DDB2EDB4ED32ED3E4
:103280000ECB0ECBEECACEC2ADC2CDC2ACC2ACBA72
:10329000ABC2ABC28AC28AC289C289CAA9CAA8D231
:1032A000A8D2C8DAC8DAC8DAC8DAC7DAC7DAC7DA39
:1032B000C8DAE8DAE8DAE8DAE9DA09DBE9DAE9DAF9
:1032C000C9DAC9D2A9D2A9D2A8D2A8D2C8DAC8DA92
:1032D000E8E2E8E2E8E2C8DAC8DAC8DAA8DAA8DAA6
:1032E000C8DAC8DAE8DAE8E2E8E207EB08EB07EB6D
:1032F00028EB28EB28EB28EB28EB08EB28EB28EB56
:1033000029EB29EB29EB2AEB2AEB2BEB4BEB4CEBD4
:103310004CEB4DE34DE34DDB2EDB4EDB2ED30ECBE2
:103320000ECB0FCBEFCAEECAEEC2EDC2EDC2EDC2BC
:10333000CCC2CBC2CBCAAACAAACAA9CAA9D2A9D28C
:10334000C8DAE8DAE8DAE8DAE7DAC7DAC7DAC7DAF1
:10335000C7DAE8DAC9D2C9D2C9D2E9D2E9DA0ADBD6
:10336000EADAE9DAE9D2C9D2C9D2A9D2C8D2C8DA2E
:10337000C8DAE8E2E8E2E8E2E8E2C8DAC8DAA8DABD
:10338000A8D2A8D2A8DAC8DAC8DAE8E2E8E208EBFC
:1033900028EB28F347F347F327F327F327F328F322
:1033A00028EB28EB29EB29EB29EB2AEB4BEB4CEB39
:1033B0004CEB4DE36DE34EDB4EDB2ED32FCB0FCB2F
:1033C0000FCB0FCB0FCB0FCB0ECB0ECB0ECB0DCB32
:1033D000ECCAECCACBCACBCAAACAAACAA9CAA8D282
:1033E000C8D2C8DAC8DAE7DAE7E2E7E2E7E2E7E21A
:1033F000E7E2E7E2C9D2C9D2C9D2C9D2C9D2C9D299
:10340000E9D2C9D2C9D2C9D2C9DAC9D2C9D2C9DAB4
:10341000C8DAC8DAE8E2E8E2E8E2E8E2E9DAE9DABA
:10342000C9DAC9D2A9D2A8D2A8D2A8DAC8DAE8E201
:10343000E7E207EB27EB27F327F327F327F328F33C
:1034400028F328F328EB29EB09EB2AEB2BEB2BE3F2
:103450002CE34CE32DE34DDB2ED32ED30FCB0FCB40
:103460000FCB0FC3EFC20ECB0ECB2FCB0ECB0ECBA1
:103470000DCB0DCBECCACBCACBCACACAAACAA9CA41
:10348000A9D2A8D2C8DAE7DAE7E2E7E2E7E2E7E2C0
:1034900007E3E7E2C8D2C8D2C9D2C9D2C9D2C9D2D9
:1034A000C9D2C9D2C9D2C9D2C9D2C9D2C9DAC9DA34
:1034B000C9DAC9DAC8DAC8DAC8DAE8DAE9DAE9DA98
:1034C000E9DAC9DAA8DAA8D2A8D288D2A8D2A8DACA
:1034D000C8E2E7E2E7EA07EB07EB07EB07EB27EBCE
:1034E00028F328EB28EB09EB09EB0AE30AE30BE3EB
:1034F0000CDB2CDB0DDB2DD32ED30ECBEECA0FCB8A
:103500000ECB0ECB0ECB0ECB0ECB0ECB2ECB2ED3AB
:103510002ED32ECB0ECB0DCBECCAECCACBCAAACA8B
:10352000AACAA9CAA8D2C8D2C7DAC7DAE7DAE7DADC
:10353000E7E207E3E8E2E8DAE8DAE8DAE8DAC8DA64
:10354000C9D2C9D2C9D2C9D2C9DAC9DAC9DAE9DA63
:10355000E9DAE9E2E9E2E8DAE8DAE8DAE8DAC8DA68
:10356000A8DAA8DAA8DAA8DAA8DAA8DAA8DAC7DA2C
:10357000C7E2C7E2E7E2E6EA07EB06EB07EB07EB99
:1035800007EB07EB08EB08EB09EB0AEB0AE30BE3AD
:103590000BE32CDB0DDB0DD30ED30ED32ED32FD3A9
:1035A0002FCB2FCB2FD32FD32ED32ED32ECB2ED327
:1035B0002ECB2ECB2ECB0EC30DC3EDC2ECC2CBC295
:1035C000ABC2AAC2A9CAA8D2C8DAC8DAE7DAE7E267
:1035D000E7E2E7E227EB07EB07E307E3E7E2E7E2EF
:1035E000E7E2E7E2E7DAC7DAC7DAC7DAC7E2C7E253
:1035F000E7E2E7E2E8E2E8E2E8E2E8E2C7E2C7E2BF
:10360000C7DAC7DAA7DAC7DAC7E2C7E2E7E2E7E272
:10361000E6EAE6EA06EB06EB06F306F306F326F324
:1036200006F306EB07EB07EB08EB09EB09E32AE3EC
:103630000BE32CE32CDB2DDB2DDB2DDB2ED32ED36C
:103640002ED32ED34FD34FD32FD32FD32ED32ECB36
:103650002FCB2FCB2FCB2FC30FC30EBBEDBAEDC299
:10366000CBC2ABC2AAC2A9CAA8D2C8D2C7DAE7E203
:10367000E7E2E7E227EB26EB06EB06EB07EB07EBCF
:1036800007EB07EB07EB07EB07EB07EB07EB07EBAA
:10369000E7EAE7EAE7E2E7E2E7E2E8E2E8E2E8E2CF
:1036A000E8E2E8E2C8DAC8E2E8E2E7E207EB07EBC3
:1036B00007EB26F326F326F326F326F326F326F369
:1036C00026F326F327F327EB07EB08EB09EB09EBCF
:1036D0000AE30BE30BE32CE32CE32DDB2DDB2DDBEB
:1036E0002EDB4ED34ED32ED32ED32FD32ECB0ECBB9
:1036F0000EC30EC30FC30FC30FC30FBBEEBAEDBA99
:10370000CDBACCC2CBC2CACAC9D2E9DAE8E208E370
:1037100007E307E328EB27EB27EB27EB27EB07EB88
:1037200027EB27EB27EB27EB26EB26EB27EB27EB0B
:1037300027EB07EB07EB08EB08EB08E3E9E2E9E22C
:10374000E9E2E9E2E9E2E9E2E8E2E8E208E308EBDB
:1037500028EB27F347F327F346F346F326F326F344
:1037600026F326F326F327F327F328EB08EB28EBC1
:1037700009EB09EB2AEB2BEB2BE32BE34CE34DE3BB
:103780002DE32DDB4EDB4ED34ED34ECB2FCB0FCBC9
:103790000FC30FC30EC3EEBA0FBB0FBB0EBBEEBA07
:1037A000CDB2CCBACCC2CBCAEAD2E9DAE8E208E3BD
:1037B00007E3E7E228EB28EB28EB28EB28EB27EBE5
:1037C00027EB27EB27F347F347F347F347F347F399
:1037D00048F328EB28EB08EB09E309E3E9DAE9DA37
:1037E000CAD2CAD2C9D2EADAE9DAE9E2E9E2E9E21E
:1037F000E8E208E308EB28EB48F328F327F327F384
:1038000027EB27F327F327F327EB28EB28EB28EB0D
:1038100028EB29EB29EB2AEB4AEB4BEB4BEB4CE388
:103820002CE32DDB2DDB2ED32ED32ECB0ECB2ECBAC
:103830002FC32FC30EC30EC32FC30FBB0EBB0EBBB4
:10384000EEBAEDBAECC2ECCA0BD3EADAE9E208E36D
:1038500008E307E348EB48EB28EB48EB28EB28EBC1
:1038600027EB07EB27EB27EB27EB27EB48F348F396
:1038700048EB29EB29EB09E30AE3EADAEAD2CAD2F8
:10388000CBCAEBCAEBCAEBD2EBDAEADAEADAEADA6B
:10389000EADAEADAE9DAE9DAE9E209E309EB09EB7B
:1038A00008EB08EB08EB08EB08EB09E3E8E208E3B8
:1038B00009E309EB09EB09EB09EB0AE30AE30BE384
:1038C0000BDB0CDB2CDB2DD30DD30DCB0ECB2ECB9A
:1038D0002FCB2EC32FCB2FC32EC32EC32EC30EBB75
:1038E0000EBB0EBBEDBAECC20CCB0BD30ADB09E36B
:1038F000E8E2E7E268F368F368F368EB68F348EB43
:1039000028EB28EB27EB27EB27EB27EB27EB28EB24
:1039100028EB28EB29EB29E30AE30ADB0BD3EBD2F4
:10392000CBCACBC2CBC2CBCACBD2EAD2EADAEADA72
:10393000EADACADACAD2EADAC9DAE9E2E9E208E39B
:1039400009EB09EB09EB09EB09E309E309E3E9E218
:10395000E9E2E8E2E8E2E8E2E9E2E9E2E9E2EADA19
:103960000BE30BDB0CDB0CD30DD32DD32ED32ED3DB
:103970002ECB4ECB2ECB4ECB4ECB2ECB2EC32EC32F
:103980000EC30EBB0DBB0DC30CCB0CD30ADB09E37E
:1039900008E3E8E2A8FBA8F3A8F3A8FBA8FB88F3D8
:1039A00088F388F388F388F368F368F348F348EB07
:1039B00049F349EB49EB49EB29E32AE30AE30ADB44
:1039C000EBD2CBCAABCAAACAAACACAD2A9D2C9D296
:1039D000C9DAC9DAE9DAE9E2E9E208E308EB08EB77
:1039E00008EB28EB28EB28EB08EB08EB08E3E8E210
:1039F000E8E2E8E2E8EA09EB09EB09E3E9E2EADAFE
:103A0000EBDA0BDB0CDB0CDB2CD32DD32DD34DD31E
:103A10004ED34ED34ED34ECB4FCB4FCB4FCB4EC3CB
:103A20002EC30EC30DBB0DC30DC30CCB0BDB2ADBAA
:103A300009E3E8E2A6F3A6F3A6F3A6F3A7F3A7F338
:103A400087F387F387F387F387F388F388F388F3A3
:103A500069F369F369F369F34AEB4AEB2AE30AE392
:103A60000ADBEAD2CBD2EBD2EAD2EADA09DB09E30B
:103A7000E9E2E9E2E8E2E8E208EB08EB28EB28F308
:103A800028F328F328F327EB28EB07EB08EBE8EA09
:103A9000E8E2E8E2E8E2E8EAE8EAE9E2E9E2EAE2C2
:103AA000EADA0BDB0BDB0CDB2CDB2CDB4DDB4DDB41
:103AB0004DDB6EDB6ED36ED34ED34ECB4ECB2EC3CF
:103AC0002EC32EC32EC30DBB0DC30CCB0BD30ADBF1
:103AD00009E308E3A5F3C6FBC6FBC6FBA6F3A6F302
:103AE000A6FBA6FB86F386F386F386F367F367F3FC
:103AF00067F368EB48EB49EB49EB29EB2AE32AE350
:103B00002ADB0BDB0BDB0BDB0AE32AE34AEB69EB7B
:103B100069F369F349EB28EB28EB28EB28EB27F353
:103B200047F347F347F347F347F327F307EB07EB75
:103B3000E7EAE7EAE7EAE7EAE8EAE8EAE8E209E3E7
:103B40000AE30AE32BE32BE32BE34CE34CE34DE3E3
:103B50004DDB4DDB6EDB6EDB6ED36ED36FD34FCBA5
:103B60004FCB2EC32EC32EC32DC30DCB0CD30BDBDB
:103B70002ADB29E3E6FBE6FBE6FBE6FBE6FBE5FBEF
:103B8000C5FBC5FBC5FBC5FBC5FBA5FBA6FB86F3BB
:103B900086F367F347EB47EB48EB28EB28EB29E389
:103BA00009E309E3E9DA0AE309E32AEB49EB69F3FC
:103BB00069F369F369F369F349F349F348F348F3A7
:103BC00047F347F347F347F347F346F327F306EB8F
:103BD000E6EAE6EAE6EAE6EAE7EA07EB08EB08EBFC
:103BE00009EB29EB2AEB2AEB4BEB4BE34BE34CE3E2
:103BF0004CE34CE34CE36DDB6DDB6EDB6ED36ED3DD
:103C00004ECB4EC34EC34EC34ECB2DCB2CD32BD35A
:103C10002BDB2AE3C6F3C6FBE6FB06FC06FC06FC30
:103C2000E5FB05FCE5FBE4FBE4FBE4FBC4FBC5FBB7
:103C3000A5FB85F365F365F346F346F326EB26EB28
:103C400007E3E7E2E7E2E7E2E8E208EB08EB48EB4C
:103C500048F369F369F369F389F389F369F369F365
:103C600069F368F348F348F347F347F347F327F35F
:103C700026F326F326F326F346F346F347F347F3FA
:103C800048F348F349F349EB2AEB2AEB2AEB2AEBFA
:103C90002AEB2AE34AE32BE32BDB2CDB2CD32DD3BB
:103CA0004ECB4ECB4EC34EC34ECB4DD32CD32CDB81
:103CB0002BDB2ADBC6F3C6F3C5F3C5F3E5F3E5F367
:103CC00005FC05FC25FC24FC25FC24FC25FC24FC2F
:103CD00005FC05FCE5FBC5FBA5F385F385F365F362
:103CE00046F326EB06EBE6EAE7EAE7EA07EB08EB42
:103CF00028EB28EB48F348F348F369F389F389F399
:103D000089F389F388F368F368F368F367F367F37B
:103D100066FB66F346F346F365F366FB66FB86FBDC
:103D200067FB67F368F348F329EB29EB29EB29EBF1
:103D300029EB29EB29EB2AEB2AE32ADB0BDB0BD35C
:103D40000CCB0CCB0CC32CCB2CCB2CD32CD32BDB04
:103D50002ADB2AE325FC05F405F405F405FC05FC43
:103D600005FC05FC25FC25FC25FC45FC65FC65FCEB
:103D700065FC65FC65FC45FC05FCE5FBC5FBA4FB9F
:103D8000A4FB85F345F305EBE6EAE7EAE7EAE7EAB1
:103D900008EB08EB08EB28F328F348F348F368F343
:103DA00068F368F388F387FB87FB87FB87FB86FB59
:103DB00086FB86FB86F386F385FB85FB85FB86FB0E
:103DC00086FB66F367F348F348F329EB29EB29EB0D
:103DD00029EB29EB29EB29EB29EB29E30AE30ADBA1
:103DE0000ADB0BD30BD3EBD2EBD20BD30ADB0AE308
:103DF00029E309E3A7FC87FC87FC67FC66FC66FCFB
:103E000066FC66FC65FC45FC45FC65FC65FCA5FCA8
:103E1000A5FCA5FCA5FC85FC65FC44FC04FC04FC9D
:103E2000E3FBC3FBA3F363EB24EBE5E2C5E2C6E2ED
:103E3000E7E2E7EA07EB07EB28F327F347F347F35B
:103E400067F367F387FBA6FBA6FBA6FBA6FBA6FB17
:103E5000A6FB85FB85FB85FBA5FBA5FBA5FBA6FBC0
:103E6000A6FB86FB67FB67F348F348F349EB29EBB6
:103E700029EB29EB28EB28EB28EB29EB09E309E3F5
:103E800009E30ADB0ADBEADAEADA0ADB09E309E337
:103E900008EB08EB67FC87FC87FC87FCA7FCA7FC0A
:103EA000C7FCC6FCC6FCA6FCA5FC85FC85FC85FC05
:103EB00085FC85FCA5FCA5FCA5FCA4FC63FC63FCBF
:103EC00063FC42FC42FC02F4A3F343EB04EBE5EA9F
:103ED000E6EAE6EAE6EA07EB27EB26EB46F346F3EB
:103EE00066F366F3A6FBC6FBC6FBC5FBE6FBE6FB7B
:103EF000C5FBA5FBA5FBA5FBA5FBA5FBA6FBA6FBA0
:103F000086FB86FB66FB46F327F328EB08EB08EB02
:103F100008EB08EB08EB28EB28EB28EB08E309E3B8
:103F200009E309E309E309DBE9DAE9E2E8E2E8E2C7
:103F3000E7EAE7EA47FC47FC46FC46FC66FC66FC11
:103F400066FC86FCA6FCC6FCC6FCC6FCA6FCA5FC62
:103F500085FC84FC84FCA4FCC4FCC4FCC3FCA2FC63
:103F6000A2FCA2FCE2FCC3FC63FC03FCC3FB64F305
:103F700025F305EB06EB26EB26EB46F346F366F35B
:103F800066FB65FB85FBC5FBC5FBC5FBC5FBC5FB30
:103F9000C4FBC4FBA4FBA5FBA5FB85FB85FB85FB44
:103FA00085FB65FB66FB46F326F327EB07EBE7EAA9
:103FB00008EB08EB08EB08EB08EB08E308E308E381
:103FC00008E309E3E9E2E8E2E9E2E8DAE8E2E8E264
:103FD000E7EAE7EA47FC47FC47FC46FC47FC47FCAE
:103FE00067FC67FC66FC86FC86FCA6FCA6FCC6FC9F
:103FF000C5FCC5FCC5FCC4FCE4FCE4FC03FDE2FC20
:10400000C2FCC1FCC1FCE2FC03FDC3FC62FC02FC7F
:1040100083F344F325EB05EB25F326F346F366F330
:1040200066FB85FBA5FBA5FBC5FBC4FBE4FBE4FB32
:10403000E4FBC4FBA4FB84FB84FB84FB64FB84FBE8
:1040400085FB85FB65FB45F346F326F327F327EB5A
:1040500028EB08EB08EB08EB08EB08EB08EB08E3B0
:1040600008E308E3E8E2E8E2E8E2E8E2E8E2E7E2BF
:10407000E7EAE7EA48FC68FC68FC47FC47FC26FCEA
:1040800026F426FC26F446FC66FC66FC86FCA6FCB0
:10409000A6FCA6FCA5FCC5FCC5FCE4FC04FD04FDD7
:1040A00003FDE3FCE2FCE2FC02FD02FDC2FC82FC3B
:1040B00003FCC3FB84F364F365F365F365F365F315
:1040C00065F365F384F385FBA5FBC4FBC4FBE4FB4C
:1040D000E4FBE4FBC4FBA4FBA4FB84FB84FB84FBA8
:1040E000A4FBA4FB84FB65F345F345F326F326EB21
:1040F00026EB27EB07EB07EB08EB08EB08EB08E3F5
:1041000008E3E8E2E8E2E8E2E8E2E7E2E7E2E6E242
:10411000E6E2E6EA89FC89FC89FC89FCA8FCA8FCAB
:1041200087FC87FC67FC67FC47FC47FC46FC46FCB9
:1041300046FC46FC46FC45FC65FC64FC84FCA4FC97
:10414000C4FCE4FCC4FCC4FCC3FCE3FCE2FCC2FC15
:10415000A2FC62FC02FCE3F3C3F3C4FBC5FBC5FB9A
:10416000C5FBC5FBA5FB85F385F3A5FBA5FBC5FB3F
:10417000E5FB05FCE4FBC4FBA4FB84FB84FBA4FB84
:10418000A4FBA4FBA4FBA4FB84FB84FB64F344F327
:1041900025F305EB06EB06EB06EB07EB07EBE7EA8F
:1041A000E7E2E7E2E7E2E7E2E7E2E7E2E6EAE6EAB9
:1041B00006EB05EB28F448F448F468FC88FC88FC1E
:1041C00088FC67FC67FC67FC47FC47FC47FC47FC36
:1041D00047FC47FC46FC46FC66FC66FC85FCA5FCEF
:1041E000A5FCA4FCA4FC84FCA4FCA3FCC3FCC2FCB2
:1041F000C2FCC2FCA3FC63FC44FC04FCE4FB05FC25
:1042000005FC05FC05FCE5FBC5FBC5FBA5FBA5FB0B
:10421000A5FBC5FBE5FBE5FBC5FB84FB64F364F391
:1042200084FB84FBA4FBA4FBC5FBC5FBC5FBA5FB72
:1042300085FB65F345F326F326F306F307EB07EB5F
:1042400007EBE7E2E7E2E7E2E7EAE7EA06EB26EB7D
:1042500026F346F369FC69FC69FC48FC48F448F421
:1042600048FC68FC68FC89FC89FCA9FCA8FC88FC6B
:1042700088FC67FC67FC66F466FC66F486F486F4EA
:10428000A6FCA5FCA5FCA5FCA5F4A4F4A4F4C4FC20
:10429000C4FCC4FCA3FC84FC64FC45FC25FC05FCBC
:1042A00005FCE5FBE5FBE5FBE5FBE5FBC5FBA5FB4D
:1042B00085F365F385FBA5FBC5FBC5FB84F364F3C0
:1042C00045F345F346F365F385FBA5FBC5FBC5FB4D
:1042D000C5FBC5FBA5FB65F345F326F306EB06EB33
:1042E000E7EAE7EAE7EAE7E2E7EAE7EA06EB06EB0E
:1042F00006F325F368FC48FC48FC48FC69FC69FCB3
:1043000089FC69FC68FC68FC68FC68FC89FCA9FC09
:10431000A9FCA9FCA9FCC8FCC8FCE8FC08FD08FD38
:1043200008FD07FD07FD26FD26FD47FD46FD46FD70
:1043300025FD25FDE4FCA4F484F464FC25FC05FCC7
:1043400005FC06FC26FC26FC25FC05FCE5FBC5FB64
:10435000A5F364F344F364F364F3A4FBA5FBA5FBAA
:1043600065FB25F305EB05EB45F365F385F3A5FB4D
:10437000C5FBC5FBA5FB85FB65F346F326EB06EB0A
:10438000E6EAE6E2E6E2C6E2C6E2C6E2C6E2C6E285
:10439000E5EAE5EACAFCEAFCCAFCA9FC88FC68FC80
:1043A00068FC68FC48FC48FC28F428F448F448FC05
:1043B00048FC68FC89FCA9FCC9FCE9FC09FD29FD55
:1043C00049FD69FD88FDA8FD87FD87FDC7FDE8FD66
:1043D00008FEE8FDC7FD86FDE5F464F444F424FC22
:1043E000E4FBC5FBA5FBC5F305FC45FC85FC65FCB2
:1043F00024FCE3FBC3FB83F363F363F363F384FB0A
:1044000085FB85FB45F324EB04EB04EB45F365F3F7
:10441000A5FBA5FBC5FBA5FB85FB65F326F306EB1A
:1044200006EBE7E2E7E2C7E2C7E2C7DAA6DAC6E2EE
:10443000C6E2E6EAE8DB09E449EC69F489FCA9FC98
:10444000A9FC89FC89FC68FC68FC48FC48FC48F431
:1044500027F427F427F426EC26EC26EC46F467F440
:1044600087F4C7F407FD47FD67FD87FD87FDA7FDBE
:10447000C8FDE8FD08FEE8FDC8FD67FDE5FC64FC3D
:1044800003F4C3F3A4F3A4F3A4F3A3F3E3F324FC2E
:1044900044FC44FC04FCE4FBC4FBA4FBA4FB84FB41
:1044A00044F344F365F365FB46F326F305EB25F38C
:1044B00045F385F3A5FBA5FB85FB65FB45F325EBE4
:1044C00006EBE6EAE6E2C6E2C7E2A7DAA7DAC7DA6F
:1044D000C6E2E6E28AD38AD389DBA9E3C9EB09EC19
:1044E00008F428FC48FC68FC88FC88FC87FC87FCF6
:1044F00087FC87FC87FC66FC67FC67FC47FC67FC65
:1045000087FC87FCA7FCE7FC28FD69FD89FD68FDA9
:1045100047FD48FD68FD88FD88FDA7FD87FD45FD39
:10452000E4FC83FC23FCE4FBA4FBA4F3A5F3C5F3A8
:10453000C5FBE5FBE4FBA3FB83F384F384FB85FB72
:1045400085FB65F345F325EB25EB25F325F346F3D2
:1045500065F385FBA5FBA5FBA5FBA5FB65F345F373
:1045600025EB05EBE6EAE6EAC6E2C6E2C6E2C6E20B
:10457000C6E2C6E26BD36BD36BD38ADBAAE3CAEB8A
:104580000AF42AF429F449FC68FC89FCA8FCC8FC5C
:10459000C8FCC8FCE8FCC7FC87FC87FC67FC47FC40
:1045A00047FC27FC27F447F447F467F467F487F4E3
:1045B00087F466F486F4A6F4E6F405FD25FD25FDF2
:1045C00005FDE4FCA4FC44FCE4FBA4FB84F365F3DC
:1045D00064F385F3C5FBE5FBE5FBA4FB63F343EB69
:1045E00043F324F325F325F325EB05EB04EB25F347
:1045F00065F3A5FBC5FBC5FBC5FBC5FBA5FB85F3AB
:1046000065F345F326F306EB06EB06EB06EBE6EA6D
:10461000E6EAE5EA6BD38BD36BD36BD36AD36AD369
:104620006ADB69DBA9E3EAEB0AF42AF449F469FCE2
:1046300069FC89FCA8FCC9FCE9FCE9FCC9FCA8FCF4
:1046400068FC28FC08F4C7EBC8EBC8EBE8EB08F4FF
:1046500028FC48FC88FCC8FCC7FCE7FCC6FCC5FC81
:10466000A5FCA5FCA5FC84FC44FC04FCA4FB64F3B1
:1046700024EB24EB24EB64F3A5FB05FC25FC04FCF4
:10468000A3F363EB23EB24EB25F345F324EB44F393
:10469000A5FBC4FBC4FBC4FBC4FBC4FBA4FBA5FB80
:1046A000A5FB65FB45F325F325F325F325F325F35A
:1046B00025F325F36BD36BD36BD36BD36BD36AD357
:1046C0006AD36AD36ADB69DB69DB69DB88DB88E391
:1046D000A8E3C8E3E7EBE7EB07EC07EC27F428F4E3
:1046E00008F4E8F3E8F3C8F3A8EBA8EB87EB87EB53
:1046F000C7F3C7F3E6F306F425F445F465FC65FC5F
:1047000064FC64FC64FC64FC43FC24FCE4FBA4FB4C
:1047100064F344F324F364F363F3C3F304FC44FC51
:1047200045FC25FCE5FBA5FB85F385F3A5FBA5FB77
:10473000C4FBE4FB04FCE4FBE4FBC4FBA4FBA4FB20
:10474000A4FB84FB45F325F325F325F345F324F37C
:1047500024F304F36AD36AD36AD36AD36AD36AD3DD
:104760006ADB6ADB6ADB6ADB6ADB69DB69DB69DB24
:1047700069DB69DB68DB68DB88E3A8E3C9EBE9EBAD
:10478000E9F3E9F3E9F309FC09FC29FC08FC08FC5E
:10479000E7F3C7F3E6F3E5F325F445F465F464FCC9
:1047A00084FC84FC63F423F423F423FC03FC04FC66
:1047B00004FCE4FBE4FBE4FBE4FBE4FBC4F3E4FB08
:1047C000E4FB05FC05FC06FC06FC26FC06FC05FCDF
:1047D00005FC04FC24FC03FCE3FBC3FB83FB83FB21
:1047E00064FB64FB24F305F305EBE5EA05EB05EB5D
:1047F000E5EAE5EA6AD36AD36AD36AD36AD36AD3AD
:104800006AD36ADB6ADB6ADB6ADB6ADB6ADB6ADB88
:104810006ADB6ADB6ADB6ADB69DB69DB69DB68E36D
:1048200068E368E368E388E388EBA8EBA8F3C8F3E0
:10483000E8F308FC28FC48FC87FCA7FCC6FCE6FC67
:10484000E5FCE5FCE5FCC4FCA4FC83FC63FC43FC48
:1048500043FC23FC23FC23FC03FC04FC04FC05FCBC
:10486000E5FBE5FBC5FBC5FBA5F3A5F3C5FBE5FB38
:10487000E5FBE4FB24FC23FC03FCC2FBA2FB82FB64
:1048800063FB43F324F304F3E5EAE5EAE5EAE5EA4A
:10489000E5EAC5EA8ADB6ADB6ADB6ADB6ADB6ADBDC
:1048A0006ADB6ADB6ADB6ADB6ADB6ADB6ADB6ADBE0
:1048B0006ADB6ADB6ADB69DB69DB69DB69E369E3C5
:1048C00069E349E349E348E348E348E348E368E34D
:1048D00068EB88F3A7F3C6F3E6F305FC24FC64FC5D
:1048E000A4FCE4FC24FD44FD24FD24FD03FDE3FCC5
:1048F000C3FCA2FC82FC82FC43F443FC24FC04FCC9
:10490000C4F385F365F365F366F366F366F386F344
:10491000C6FBC5FBE4FBE3FB02FC02FCE2FBC2FBC3
:10492000A2FB83FB43F324F3E5F2E5EAE6EAC6EAF9
:10493000C6EAC6EA6ADB6ADB6ADB6ADB6ADB69DB7A
:104940006ADB69DB69DB69DB6AE36AE369E369E324
:1049500069E369E369E369E369E369E369E369E3F7
:1049600069E369E369E369E349E349E349E348E368
:1049700048E347EB67EBC7FB07FC27FC66FC64FCDE
:1049800084FCC4FC24FD85FDA5FDA5FDA5FDA4FDBD
:1049900084FD44FD24FD04FDE4FCC4FC84FC44FCD3
:1049A00005FCE5FBA6FB66F366F346F346F346F328
:1049B00066F3A6FBE5FB04FC23FC23FC22FC02FCC3
:1049C000E2FBC3FB83FB44FB04F3E5EAC5EAA6EA8A
:1049D000A6EAA6E26ADB69DB6ADB69DB69E369E315
:1049E00069E369E369E369E369E369E369E369E367
:1049F00069E369E369E369E369E369E369E369E357
:104A000069E369E369E369E369E369EB68EB68EB30
:104A100068EB68EB68EB87F387F3A6F306FC66FCAC
:104A200086FCA5FCC4FCE4FC03FD23FD22FDE2FCA6
:104A3000E1FCC1FCA2FCA2FCA3FCA3FCA4FCA4FC22
:104A400064FC45FC05FCC5FB86F366F346F346F3C0
:104A500066F366FB85FBA5FBA4FBC4FB03FC02FC21
:104A6000E2FBC2FB83FB43FB03F3E4F2A5EAA5EA06
:104A7000A6EAA6EA49DB69DB69DB69E369E369E386
:104A800069E369E369E369E369E369E369E349E3E6
:104A900069E369E369E369E369E369EB69E369E3AE
:104AA00069EB68EB68EB68EB69EB68EB68EB68EB6C
:104AB00068EB68EB67EB67EB67F346EB65EB85EB61
:104AC000A4EBC4F3C3F303F442FC83FCC3FCE4FC97
:104AD000A3FC82FC63FC43FC43FC43FC23FC23FC5F
:104AE00023FC04FCE4FBC5FBA5FB86FB66FB65F32E
:104AF00045F345F365F364F364FB84FBA3FBE3FB3D
:104B0000E3FBC3FB83FB63FB24FB04FBE5F2C5F281
:104B1000A6EAA6EA69E369E369E369E369E369E3AD
:104B200069E369E369E369E369E369EB69EB69EB0D
:104B300069EB68EB68EB68EB68EB68EB68EB68EBDC
:104B400069EB68EB68EB68EB68EB68EB68EB68EBCC
:104B500068EB68EB68EB68EB48F367F367F366EBC9
:104B600066F366F365F385F3A4FBC4FBC4FBC3FBE8
:104B7000A4FBA3F3A4FBC4FBC4FBC4FBC4FBC4FBA6
:104B8000C5FBC4FBC4FBC5FBA5FBA5FBA5FBA5FBA7
:104B9000A5FBA5FB85FB84FB84FB84FB84FB84FBDA
:104BA000A3FBA3FB83FB63FB43FB24FBE4FAE5F2DB
:104BB000C5F2C5F269E369E369E369E369E369E3BF
:104BC00069EB69E368E369E368E369EB69EB69EB67
:104BD00068EB68EB68EB68EB68EB68EB68EB68EB3D
:104BE00069EB68EB68EB68EB68EB68EB68EB68EB2C
:104BF00068EB68EB48EB48EB48EB48EB48F347F3CE
:104C000067F347F346F346F346F345F345FB65FB8D
:104C100065FB65FB65FB65F365FB64FB64FB64FB9F
:104C200064FB64FB64FB64FB64FB64FB64FB64FB8C
:104C300064FB85FB85FB85FB64FB64FB64FB64FB19
:104C400063FB63FB63FB63FB43FB23FB04FBE4FAB3
:104C5000E5FAE5FA48E348E348E349E349E348E392
:104C600048E349E369EB48E348E348E368EB68EB72
:104C700068EB48EB48EB68EB48EB48EB48EB48EB5C
:104C800068EB48EB48EB48EB48EB48EB68EB48EB4C
:104C900048EB48EB48EB48EB28EB28EB28EB47EBDD
:104CA00027EB27F347F326F346FB26F326FB25F3F2
:104CB00026F326F325F325F325F325F325FB45FB02
:104CC00045FB44FB44FB44FB44FB24FB44FB25FB2A
:104CD00025FB25FB25FB45FB45FB45FB44FB43FB37
:104CE00063FB62FB62FB42FB22FB03FB03FBE4FA78
:104CF000E4FAE4FA48E348E348E348E348E348E3F6
:104D000028EB28EB48EB48EB48EB48EB48EB48EB4B
:104D100028EB28EB48EB48EB28EB28EB28EB28EBBB
:104D200028EB28EB28EB28EB28EB28EB28EB28EBEB
:104D300028EB28EB28EB28EB28EB28EB28EB28EBDB
:104D400028EB28EB27F327F327F327FB27FB27FB89
:104D500027FB27FB27FB27FB27FB46FB46FB46FBE6
:104D600046FB46FB46FB46FB46FB46FB25FB25FB7D
:104D700026FB06FB06FB06FB05FB05FB25FB45FBAF
:104D800044FB43FB63FB43FB23FB23FB03FB03FBD2
:104D9000E3FAE4FA28E328E328E328E328E328E316
:104DA00028E328E328E328EB28EB28EB28EB28EB83
:104DB00028EB28EB28EB28EB28EB28EB28EB28EB5B
:104DC00028EB28EB28EB28EB28EB28EB28EB28EB4B
:104DD00028EB28EB28EB28EB28EB28EB28EB08EB5B
:104DE00008EB08EB08EB07EB07F307F307F307F310
:104DF00007F307F307F307F307F307F307F307F3E3
:104E000007F307F306F306F306F326F326FB26FB68
:104E100006FB06FB07FB06F307F307F306F306F3AF
:104E200026F325FB45FB44FB43FB43FB23FB23FB12
:104E300003FB03FB08E308E308E308E3E8E208E315
:104E400008E308EB08EB08EB08EB08EB08EB08EBD2
:104E500008EB08EB08EBE8EA08EB08EBE8EA08EBFC
:104E6000E8EA08EB08EB08EB08EBE8EA08EB08EBEC
:104E700008EB08EB08EB08EB08EBE8EA08EB08EBBB
:104E800008EBE8EAE8EAE8EAE8EAE8EAE7EAE7EA73
:104E9000E8EAE8EAE8EAE8EAE8EAE8EAE8EAE8EA82
:104EA000E8EAE8EAE8EAE7EAE7EAE7EA07F3E7F246
:104EB000E7F2E7F2E7F2E7F2E7EAE8EAE8EAE7EA48
:104EC000E7EAE6EA06EB05F325F324FB24FB04FB03
:104ED00003FB03FBE8E2E8E2E9E2E9E2E8E2E8E218
:104EE000E8E2E8EA08EBE8EAE8EAE8EAE8EAE8EA19
:104EF000E8EAE8EAE8EAE8EAE8EAE8EAE8EAE8EA22
:104F0000E8EAE8EAE8EAE8EAE8EAE8EAE8EAE8EA11
:104F1000E8EAE8EAE8EAE8EAE8EAE8EAE8EAE8EA01
:104F2000E8EAE8EAE8EAE8EAE8EAE8EAE8EAE8EAF1
:104F3000E8EAE8EAE8EAE8EAE8EAC8EAE8EAE8EA01
:104F4000E8EAC8EAE8EAE8EAE8EAC8E2C8EAE8EA39
:104F5000C8EAC8EAC8EAC8E2C8E2C8E2C8E2C8E2E9
:104F6000C8E2C8E2C8E2C7E2C7E2E7EAE6F206F34F
:104F700005FBE5FAC8E2C8E2C9E2C9E2C9E2C9E252
:104F8000C9E2C9E2C9E2E9E2C9EAC8EAC8EAC8EA8C
:104F9000C8EAC8EAC8EAC8EAC8EAE9EAE8EAE8EA20
:104FA000E9EAE9EAC8EAC8EAC9EAC9EAC9EAC9EA2B
:104FB000C9EAC9EAC9EAC9EAC9EAC9EAC9EAC9EA59
:104FC000C9EAC9EAC9EAC9EAC9EAC9EAC9EAC9EA49
:104FD000C9EAC9EAC9EAC9E2C9EAC9EAC9EAC9E249
:104FE000C9E2C9E2C9E2C9E2C9E2C8E2A9E2A9E2AA
:104FF000A9E2A9E2C9E2A9E2C9E2A9DAA9DAA9DA31
:10500000A9DAA9DAA9DAA9DAA9DAA8DAA8E2C7EA54
:10501000C7F2C7F2C9E2C9E2C9E2C9E2C9E2C9E21C
:10502000C9E2C9E2C9E2C9E2C9E2C9E2C9E2C9E228
:10503000C9E2C9E2C9E2C9E2C9E2C9E2C9E2C9E218
:10504000C9E2C9E2C9E2C9E2CAE2CAE2CAE2CAE204
:10505000CAE2CAE2CAE2CAE2CAE2CAE2C9E2C9E2F2
:10506000C9E2C9E2C9E2C9E2C9E2C9E2C9E2C9E2E8
:10507000A9E2C9E2C9E2A9E2A9E2A9E2A9E2A9E298
:10508000A9E2A9E2C9E2A9E2A9E2A9E2A9E289E2C8
:1050900089E289E289E2A9DA89DAA9DA89DA89D2A8
:1050A00089D2A9D28AD2AAD2A9D289D289D2A9DA9E
:1050B000A9DAA9E2C9DAC9DAAADAAADAC9DAC9DA4E
:1050C000AADAAADAAADAAADAAADAAADAAADAAADAC0
:1050D000AADAA9DAA9DAA9DAA9DAAADA8ADA89DAF5
:1050E00089DA89D289D289D269D269D269D269D260
:1050F00069D269D269D269D269D269D269D269D2D8
:1051000069D269D269D269D269D269D269D269D2C7
:1051100069DA69D269D269D269D269D269D289DA87
:1051200089DA89DA69DA69DA8ADA8ADA8AE28AE293
:105130008ADA6ADA8ADA8ADA8AD28AD26AD26ACAD7
:105140006ACA6ACA6ACA6ACA6ACA49CA49C249C232
:1051500049C249CAAAD2AAD2AAD2AAD2AAD2AAD249
:10516000AAD28AD28AD28AD28AD28AD28AD28AD23F
:105170008AD28AD28AD28AD28AD26AD26ACA6ACABF
:105180006ACA6ACA6ACA6ACA6ACA6ACA6ACA6ACA7F
:105190006ACA6ACA6ACA6ACA6ACA6ACA6AD26AD25F
:1051A0006AD26ACA6AD26AD26AD26AD26ACA6ACA37
:1051B0006ACA6ACA6ACA6ACA6ACA6ACA6ACA6ACA4F
:1051C0006ACA6ACA6ACA6ACA6ACA6ACA6AD26AD22F
:1051D0006AD26ACA6ACA6ACA6ACA6ACA6ACA6ACA27
:1051E0006AC26AC26AC26AC26AC26AC26AC24ABA87
:1051F0004ABA4ABAAAD2AAD2AAD2ABD2AAD28AD2DE
:105200008AD28AD28BD28BD28BD28BD28BCA8ACAC9
:105210008BCA8BD28BD28BCA8BD28BD28BCA8BCAC6
:105220008BCA8BCA8BCA8BCA8BCA8BCA8BCA8BCAD6
:105230008BCA8BCA8BCA8BCA8BCA8BCA8BCA8BCAC6
:105240008BCA8BCA8BCA8BCA8BCA8BCA8BCA8BCAB6
:105250008BCA8BCA8BCA8BCA8BCA8BCA8BCA8BC2AE
:105260006BC26BC28BCA6BC26BC26BC26BC28BCA86
:105270006BCA6BCA8BC26BC26BC26BC26BC26BBA9E
:105280006BBA6BBA6BBA6BBA6BBA6BB26BB26BB20E
:105290006BB26BB2ABCAABCAABCAABCAABCA8BCA36
:1052A0008BCA8BCA8BCA8BCA8BCA8BCA8BCA8BCA56
:1052B0008BCA8BCA8BCA8BCA8BCA8BCA8BCAABCA26
:1052C0008BCA8BCA8BCA8BCA8BCA8BCA8BCA8BCA36
:1052D0008BCA8BCA8BCA8BCA8BCA6BCA6BCA8BC26E
:1052E0008BC26BC26BC26BC26BC26BC26BC26BC236
:1052F0006BC28BC26BC26CC26CC26BBA8CC26BBA13
:105300006BBA6BBA6BBA6BBA6BBA6BBA6BBA6BBA75
:105310006BBA6BBA6BB26BB26BB26BB26BB26BAA9D
:105320006BAA6BAA6BAA6BAA6BAA4BAA4BAA4BAA35
:105330004BA24BA28BC28BC28BC28BC28BC28BC2C5
:105340008BC28BC28BC28BC28BCA8BCA8BCA8BCAD5
:105350008BCA8BCA8BCA8BCA8BCA8BCA8BCA8BCAA5
:105360008BCA8BCA8BCA8BCA6BCA8BCA6BC26BC205
:105370006BC26BC26BC26BC26BC26BC24BC24BC205
:105380004BC24BBA4BBA4BBA4BBA4BBA4BBA4BBAED
:105390004BBA2BBA2BBA2BB22BB22BB22AB22AB2EF
:1053A0002BB22BB22BB22AB22AB22AAA2BAA0AAA51
:1053B0000AAA0AAA0BAA0AAA0AAA0AA20AA20A9A6C
:1053C000EA99EA99EA91EA91EA91EA91EA99EA99E5
:1053D000EA99EA996BBA6BBA6BBA6BBA8BBA8BBAA9
:1053E0008BBA6BBA8BC28BC28BC28BC28BC28BC285
:1053F0008BC28BC28BC28BC28BC28BC28BC28BC245
:105400008BC28BCA8BCA8BCA8BCA8BCA8CCA8CCAFA
:105410006CCA6CCA8CC26BC26CCA6CCA6CC26CC2DD
:105420006CC26CC26CC26CC26CC26CC26CC26CC20C
:105430006CC26BC26BC24BBA4CBA4BBA4BBA4BBACA
:105440004BBA4BBA4BBA4BBA2BB22BB22BB22BB2D4
:105450002BB22BB22BB22BB22BB22BAA2BAA2BAA7C
:105460002BAA2BAA2BAA2BAA2BA22BA22BA22BA2B4
:105470002BA22BA26CBA6CBA6CBA8CBA8CBA8CBA4E
:105480008CBA8CBA8CBA8CC28CC28CC28CC28CC2C4
:105490008CC28CC28CC28CC28CC28CC28CC28CC29C
:1054A0008CCA8CCA8CC28CCA8CCA8CCA8CCA8CCA54
:1054B0006CCA6CCA6CC26CC26CCA6CC26CC26CC264
:1054C0006CC26CC26CC26CC26CC26CC26CC24CBA94
:1054D0004CBA4CBA4CBA4BBA4CBA4CBA4BBA4BBA9F
:1054E0004BBA4BBA4BBA4BB24CB24BB24CB24BB2BA
:1054F0004CB24BB24BB24BB22CAA4CAA2BAA2BAA41
:105500002BAA2BAA4CAA2CAA4CA22BA22BA22BA2D0
:105510002BA22BA24CB26CB26CB26CB26CB26CB25D
:105520006CB26CBA6CBA6CBA6CBA6CBA6CBA6CBA53
:105530006CBA6CBA6CBA6CBA6CC26CC26CC26CC21B
:105540006CC26CC26CC26CC24CC26CC24CC24CC24B
:105550004CC24CC24CC24CC24CC24CC24CC24CBAE3
:105560004CBA4CBA6CB26CB24CBA4CBA4CBA2CBAFB
:105570004CBA4CB24CB24CB22CB24CB24CB24CB253
:105580002CB22CB24CB24CB22CAA2BAA2BAA4CAAED
:105590002CAA2CAA2CAA4CA22BA22BA22BA22BA267
:1055A0004CA22CA22BA22BA22B9A2B9A2B9A2B9A91
:1055B0002B9A2B9A4CA24CA24CA24CA24BA24BA2CF
:1055C0004BA24BAA4BAA4BAA4CAA4CAA4BAA4BAA39
:1055D0004CAA4CB24CB24CB24CB24CB24CB24CB2E3
:1055E0004BB24BB24CB24CB24CB24CB24CB24CB2CD
:1055F0004CB24CB24CB24CB24CB24CB24CB24CB2BB
:105600004CB20BA202586CA24CAA4CB24CB24CAA9F
:105610004CAA4CAA4CAA4CAA4CAA4CAA4CAA4CA2E2
:105620004CA24CA24CA24CA24CA24CA24CA24CA20A
:105630004CA22C9A4C9A2C9A2B9A2B9A2B9A2B9AF6
:105640002C9A2C922C922B922B922C922C922C9264
:105650002C922B924C8A4C8A4C8A4C924C924B92B4
:105660004B924B924C924C924C924C924B924C9A45
:105670004C9A4C9A4C9A4C9A4C9A4C9A4C9A4C9AFA
:105680004C9A4C9A4C9A4C9A4C9A4C9A4C9A4C9AEA
:105690004C9A4C9A4C9A4C9A4C9A4C9A4C9A4C9ADA
:1056A0004C9AC98101386B8A6C924C9A4C9A4C9AEC
:1056B0004C9A4C9A4C9A4C9A4C924C924C924C92DA
:1056C0004C924C924C924C924C924C924C924C92EA
:1056D0004C924C8A4C8A4C8A4C8A4C8A4C8A4C8A12
:1056E0004C8A4C8A4C8A4C8A4C8A4C8A4C8A4C8A0A
:1056F0004C824C826C8A6C8A6C8A6C8A6C8A6C8A4A
:105700006C8A6C8A6C8A6C8A6C8A6C8A6C8A6C8AE9
:105710006C8A6C8A6C8A6C8A6C8A6C8A6C8A6C8AD9
:105720006C926C926C926C926C926C926C926C9289
:105730006C926C926C926C926C926C926C926C9279
:105740006C926C8200206B7A6C8A6C926C926C9278
:105750006C926C926C8A6C8A6C8A6C8A6C8A6C8A89
:105760006C8A4C8A4C8A4C8A4C8A4C8A4C8A4C8A69
:105770004C824C824C824C824C824C824C824C82B9
:105780004C824C824C824B822B822B822B822B7A36
:105790002B7A2B7A0A7A0A720A7A0A7A0A7A0B7AAE
:1057A0000A7A0A7A2A7A0A7A0B7A0B7A2A7A0A7A97
:1057B0000B7A0B7A0A7A0A7A0B7A0B7A0B7A2B7AA3
:1057C0000B820B822B7A2B7A2A822A820B820B8203
:1057D0002B820B820B820B820B822B820B820B8221
:1057E0002B822B7A0020A8592B7A0B820B820B82FA
:1057F0000B820A820A7A0A820B820B7A0B7A0B7A64
:105800000B7A0B7A0A7A0A7A0A7A0A7A0A7A0A7A76
:105810000A720A720A720A72EA71EA71EA71EA712C
:10582000EA71EA71EA71EA71EA71EA71EA71EA71A0
:10583000EA71EA718C8A6C8A6C8A6C8A6C8A8B8AAF
:105840008C8A8C8A8C8A8C8A8C8A8C8A8C8A8C8AA8
:105850008C8A8C8A8C8A8C8A8C928C928C928C9278
:105860008C928C928C8A8C928C928C928C928C9250
:105870008C928C928C928C928C928C928C928C9238
:105880008C92AC8A2130C861AC928C928C928C92B2
:105890008C928C928C928C928C928C928C928C8A20
:1058A0006C8A6C8A8C8A8C8A6C8A6C8A6C8A6C8A08
:1058B0006C8A6C8A6C8A6C8A6C826C826C826C8258
:1058C0004B826B824B826B824B824B824B824B8230
:1058D0004B824B82EDA2EDA2EDA2EDA2EDA20DA3B3
:1058E0000DA30DA30DA3EDA2EDA20DAB0DAB0DAB62
:1058F0000DAB0DAB0DAB0DAB0DAB0DAB0DAB0DABE8
:105900000DAB0DAB0DAB0DAB0DAB0DAB0DAB0DABD7
:105910000DAB0DAB0DAB0DAB0DABEDAAEDAAEDAA2A
:10592000EDAA0DA36238E8690DA3EDAAEDAAEDAAD0
:10593000EDAAEDAAEDAAEDAAEDA2CDA2EDA2EDA2EF
:10594000CDA2CDA2CDA2CDA2CDA2CDA2CD9AAC9A10
:10595000AC9AAC9AAC9AAC9AAC9AAC9AAC9AAC9A17
:10596000AC9AAC928C92AC928C928C92AC9A8C92B7
:105970008C928C924DBB4DB34EBB6EBB6DBB6DBB61
:105980006DBB6EBB6EBB6EBB6EBB6EBB6DBB6DBBD2
:105990006EBB6EBB6DBB6EC36EC36EC36EC36EBBA0
:1059A0006EBB6EBB6EBB6EBB6EBB6EBB6EBB6EBBAF
:1059B0006EC36EC36EC36EC36EC36EC36EC36EC35F
:1059C0006EC36EBB6240087A6EBB6EC36EC34EC3BD
:1059D0004EC34EC34EC34EBB4EBB4EBB4EBB4EBB67
:1059E0004EBB2EBB2EB32EB32DB32DB30DB30DB3C3
:1059F0000DAB0DAB0DAB0DABEDAAEDAAEDAAEDAA6B
:105A0000EDAAEDAAEDAAEDA2EDAACCA2CCA2CCAA59
:105A1000ECAAECAACED3CECBCED3CECBCED3CED3A4
:105A2000CED3CED3CED3CED3CED3CED3CED3CED36E
:105A3000CED3CED3CED3CED3AED3AED3CED3AED3BE
:105A4000AED3AED3AED3AED3AED3AED3AED3AED34E
:105A5000AED3AED3AED3AED3AED3AED3AED3AED33E
:105A6000AED3CECB4140E779CFCBAED3AED3AED31E
:105A7000AED3AED3AECB8ECB8ECB8ECB8ECB8ECBEE
:105A80008ECB8ECB8EC38EC36EC36EC36EC36EC3FE
:105A90006EBB6EBB6EBB4EBB4EBB4EBB4EBB4DBB5F
:105AA0004DBB4DBB2DB32DB32DB32DB32DB32DB3A6
:105AB0000CB32DB30EDC0EDC2EDC0EDC2EDC2EDC6B
:105AC0002EE40EE40EE40EE40EE40EDC0EDC0EDC3E
:105AD0000EE40EE40EE40EE40EE40EE40EE40EE436
:105AE0000EE40EE40EE40EE4EEDB0EE40EE40EE44F
:105AF0000EE4EEDB0EE4EEDBEEE3EEE3EEE3EEDBF4
:105B0000EEDB0ED4E258C6710ED4EDDBEDDBEDDB3F
:105B1000EDDBCDDBCDDBCEDBCEDBCEDBCEDBCEDB20
:105B2000CEDBCED3CED3AED3AED3AED3AED3AECB0D
:105B3000AECBAECBADCBADCB8ECB8ECB8DCB8DCB21
:105B40008DCB8DCB8DCB6DC36DC36DC36DC36DCB55
:105B50006DCB6DCB8EF48EF48EF48EF48EF48EF4C9
:105B60008EF48EF48EF48EF48EF48EF48EF48EF425
:105B70008EF48EF48EF48EF48EF46DF46DF46DF478
:105B80006DEC6DEC6DEC6DEC6DEC6DEC6DEC6DEC4D
:105B90006DEC6DEC6DF46DEC6DEC6EF46DF46DF41C
:105BA0006DF46EE4226147828EE46DF46DF46DF461
:105BB0006DF46DF46DF46EF44DF44DEC4EF44EEC6A
:105BC0004EEC4EEC2EEC2EEC2EEC2EEC0EE42EE4F5
:105BD0002EE42EE42EE40EE40EE40EE40EE40EE4D5
:105BE0000EE4EDE3EDE3CDDBCDDBCDDBCDDBCDDBDB
:105BF000CDDBCDE38EF48EF4ADF4ADF4ADF4ADF4C5
:105C0000AEF4ADF4ADFCADFCCDFCCDFCCDFCCEFCDA
:105C1000CEFCCEFCCEFCCEFCCEFCCEFCCEFCEEFC14
:105C2000EEFCEEFCEEFCEEFCCEFCCEFCCEFCCEFCA4
:105C3000CEFCCEFCCEFCEEFCEEFCEEFCEEFCEEFC74
:105C4000CEFCEFF4E158878AEFF4CEFCCEFCCDFC1D
:105C5000CDFCCDFCADFCADFCAEFCAEFCADFC8EFCD9
:105C60008EFC8EFC8EFC6EF46EF48FF46FF48FF469
:105C70006FEC6FEC6FEC6FEC6FEC6FEC6EEC4EEC6E
:105C80004EEC2EF42DEC2DEC0DEC0DECEDEBEDEBE4
:105C9000EDEBECEB8DF48DF48DF48DF48DF48DF44F
:105CA000ADF4ADF4ADFCADFCADFCADFCADFCCDFC9C
:105CB000CDFCCDFCCDFCCDFCCDFCCDFCCDFCCDFC9C
:105CC000CDFCCDFCEDFCEDFCEDFCEDFCEDFCEDFCCC
:105CD000EDFCEDFCEDFCEDFC0EFDEDFCEDFCEDFC5A
:105CE000EDFCEEF48048E89AEEF4EDFCCDFCCDFC42
:105CF000CDFCADFCADFC8DFC8DFC6DFC6CF44CF46E
:105D00004DF42DF42DEC0DEC0DE40DDC6BC34BC309
:105D10004BBB2ABB0AB32AB32ABB2ABB0ABB6BCB39
:105D20008BD3ECE30CEC0CEC0CEC0CECECEBECEBB8
:105D3000ECF3ECF34DEC4DEC6DEC6CEC6DEC6CECD1
:105D40006CF46DF48CF48CF48CF48DF48DF4ADF46F
:105D5000ADFCADFCADFCADFCCDFCCDFCCDFCCDFC7B
:105D6000CDFCCDFCCDFCCDFCCDFCCDFCCDFCEDFCCB
:105D7000EDFCEDFCEDFCEDFCEDFCEDFCEDFCEDFCDB
:105D8000EDFCEEF4003869AB0EF5ECFCECFCCCFC61
:105D9000CCFCACFCCCFCACFCADFC8DFCADF48EF4CE
:105DA0008EF46DF46DEC2DE4E8BAA8AA67A2269AE9
:105DB00006920692068A069205920592E4994ACBCB
:105DC0002DEC2CF42CF42CF40CF40CF40CF40CF45A
:105DD0000BF40BF46DEC6DEC6DF46DF48DF48DF44F
:105DE0006DF48DF48DF48DF48DF48DF48DFC8DFCBB
:105DF0008DFC8DFCADFCADFCADFCADFCACFCACFC9D
:105E0000ACFCACFCACFCACFCACFCACFCACFCACFC52
:105E1000ACFCACFCACFCCCFCCCFCCCFCCCFCCCFCA2
:105E2000CDFC2BDC00302CC4EDF4ECFCCCFCCCFC29
:105E3000CCFCACFCACFCACFCADFCADF48EE4AFE453
:105E4000CFECAFE4AFE48EE48EEC8EEC8EE48EE427
:105E50006EEC8EECAFECAEEC8DEC6DF46CF46CFC97
:105E60004CFC4CFC4CFC2BFC2BFC0BF40BF40BF40F
:105E70000BF40BF44DEC4DEC4DEC4DEC4CEC4CECD0
:105E80004CEC6CEC6CEC6CF46CF46CF46CF46CF44A
:105E90006CF46CF48CF48CF48CF48CF48CF48CF442
:105EA0008CFC8CFC8CFC8CFC8CFC8CFC8CFC8CFCB2
:105EB0008CFCACFCACFCACFCACFCCCFCCCFCCCFC62
:105EC000CDFC89C30038CFDCEDF4ECFCEDFCECF448
:105ED000CCFCCCFCCCFCCDF4CDF4659A0030203861
:105EE0002159E050E1504269A3792592E391E39969
:105EF00065AA45AA6189818989DB6CFC6BFC4BFC36
