:020000040800F2
:1000000070070020CD010008990900084704000886
:100010009509000819030008CF0F00080000000030
:10002000000000000000000000000000370C000885
:100030001D030008000000000D0A0008490D00081B
:10004000E7010008E7010008E7010008E7010008F0
:10005000E7010008E7010008E7010008E7010008E0
:10006000E7010008E7010008E7010008E7010008D0
:10007000E7010008E7010008E7010008E7010008C0
:10008000E7010008E7010008E7010008E7010008B0
:10009000E7010008E7010008E7010008E7010008A0
:1000A000E7010008E7010008E7010008E701000890
:1000B000E7010008E7010008E7010008E701000880
:1000C000E7010008E7010008E7010008E701000870
:1000D000E7010008AD0D0008E7010008E70100088E
:1000E000E7010008E7010008E7010008E701000850
:1000F000E7010008E7010008E7010008E701000840
:10010000E7010008E7010008E7010008E70100082F
:10011000E7010008E7010008E7010008E70100081F
:10012000E7010008E7010008E7010008E70100080F
:1001300000F002F800F03AF80AA090E8000C8244BF
:100140008344AAF10107DA4501D100F02FF8AFF29C
:10015000090EBAE80F0013F0010F18BFFB1A43F0A5
:10016000010318471410000034100000103A24BF97
:1001700078C878C1FAD8520724BF30C830C144BF0C
:1001800004680C607047000000230024002500264E
:10019000103A28BF78C1FBD8520728BF30C148BFEA
:1001A0000B6070471FB51FBD10B510BD00F072F891
:1001B0001146FFF7F7FF00F065FF00F0A4F803B465
:1001C000FFF7F2FF03BC00F004FF0000094880477E
:1001D00009480047FEE7FEE7FEE7FEE7FEE7FEE729
:1001E000FEE7FEE7FEE7FEE704480549054A064B41
:1001F000704700004D0D000831010008700100201B
:10020000700700207003002070030020704700007A
:100210000FB4044910B503AA029800F009F810BC05
:100220005DF814FB1C000020704770477047704752
:10023000074B70B50D467B4400F011F80446284684
:1002400000F020F810B14FF0FF3070BD204670BDB7
:100250002F0E000001694A1C02610878704700B542
:100260008FB0CDE901310021059105497944CDE9EF
:1002700003101146684600F032F80FB000BD0000D0
:10028000E5FFFFFF007B00F08000704700487047EB
:10029000100100207546FFF7F9FFAE4605006946DC
:1002A000534620F00700854618B020B5FFF79CFFA5
:1002B000BDE820404FF000064FF000074FF0000867
:1002C0004FF0000B21F00701AC46ACE8C009ACE8E8
:1002D000C009ACE8C009ACE8C0098D4670472DE9FB
:1002E000F04106460024D6E90170F56880463046A4
:1002F00003E04146B847641C3046A8470028F8D1BF
:100300002046BDE8F08110B50446AFF300802046DA
:10031000BDE81040FFF753BF00BFFEE770472DE96F
:10032000F04102460025002600200023002400277B
:1003300091F803C00CF00F0591F803C00CF0100CFD
:10034000BCF1000F03D091F802C04CEA050591F80A
:1003500000C0BCF1000F31D0146800202BE04FF03A
:10036000010C0CFA00F3B1F800C00CEA03069E423F
:1003700020D183004FF00F0C0CFA03F7BC4305FAB1
:1003800003FC4CEA040491F803C0BCF1280F06D129
:100390004FF0010C0CFA00FCC2F814C00AE091F80E
:1003A00003C0BCF1480F05D14FF0010C0CFA00FC62
:1003B000C2F810C0401C0828D1D31460B1F800C0A6
:1003C000BCF1FF0F34DD546800202EE000F1080C72
:1003D0004FF0010808FA0CF3B1F800C00CEA03066C
:1003E0009E4221D183004FF00F0C0CFA03F7BC435F
:1003F00005FA03FC4CEA040491F803C0BCF1280F91
:1004000005D100F1080C08FA0CF8C2F8148091F834
:1004100003C0BCF1480F07D100F1080C4FF00108F0
:1004200008FA0CF8C2F81080401C0828CED354609B
:10043000BDE8F0810246002093680B400BB101201B
:1004400000E00020704700BFFEE7000008B5012172
:10045000442000F0EDFA1820ADF8000048208DF897
:10046000030069460648FFF75AFF0120ADF8000077
:1004700028208DF8030069460248FFF750FF08BDA9
:10048000001801400008014010B52848007820B14C
:10049000012810D0042846D13CE008212448FFF769
:1004A000C9FF10B9012021490870002021490870B6
:1004B0002149087038E008211D48FFF7BBFFD0B97B
:1004C0001D48007810B901201B49087019480078B0
:1004D000401C1849087008460078642819DD02207D
:1004E0001649087000201349087013490870042049
:1004F0000E4908700DE010480078012806D103204D
:100500000E49087004200949087002E000200749DC
:10051000087009E008210648FFF78CFF10B10020A1
:100520000249087000E000BF00BF10BD14000020A9
:1005300000180140160000201700002015000020C0
:1005400070B5064614484088401E83B212480088A1
:10055000401E82B20021084600F04EF94FF40060C0
:100560000E4908604010091F086000240AE00025B9
:1005700003E0304600F0F2F96D1C07480088A842FD
:10058000F7D8641C04484088A042F0D84FF40060BB
:100590000249091F086070BD38000020140C01409A
:1005A00008B50121082000F043FA4FF4F050ADF8EF
:1005B000000003208DF8020010208DF8030069462A
:1005C0000148FFF7ACFE08BD000C014010B500F07B
:1005D000A9FAFFF7E5FF00F0FBF8F02000F050F972
:1005E000C32000F035F9F02000F04AF9962000F021
:1005F0002FF9362000F044F9682000F029F93A205C
:1006000000F03EF9052000F023F9B02000F038F9A1
:10061000802000F01DF9B62000F032F9002000F033
:1006200017F9022000F014F9B52000F029F9022092
:1006300000F00EF9032000F00BF9002000F008F99B
:10064000042000F005F9B12000F01AF9802000F034
:10065000FFF8102000F0FCF8B42000F011F90020A1
:1006600000F0F6F8B72000F00BF9C62000F0F0F823
:10067000C52000F005F9242000F0EAF8E42000F09D
:10068000FFF8312000F0E4F8E82000F0F9F840200D
:1006900000F0DEF88A2000F0DBF8002000F0D8F847
:1006A000002000F0D5F8292000F0D2F8192000F041
:1006B000CFF8A52000F0CCF8332000F0C9F8C22014
:1006C00000F0DEF8A72000F0DBF8E02000F0D8F81A
:1006D000F02000F0BDF8092000F0BAF8132000F077
:1006E000B7F8122000F0B4F8122000F0B1F82B2077
:1006F00000F0AEF83C2000F0ABF8442000F0A8F881
:100700004B2000F0A5F81B2000F0A2F8182000F004
:100710009FF8172000F09CF81D2000F099F8212088
:1007200000F096F8E12000F0ABF8F02000F090F82F
:10073000092000F08DF8132000F08AF80C2000F05A
:1007400087F80D2000F084F8272000F081F83B2086
:1007500000F07EF8442000F07BF84D2000F078F89F
:100760000B2000F075F8172000F072F8172000F049
:100770006FF81D2000F06CF8212000F069F8362099
:1007800000F07EF8EC2000F063F8F02000F078F83C
:10079000C32000F05DF8F02000F072F8692000F04E
:1007A00057F8132000F06CF8112000F069F82920A8
:1007B00000F066F8002000F08BF801200349086083
:1007C0004FF6FF70FFF7BCFE10BD0000A481214270
:1007D00010B54FF4805007490860642000F01EFCFB
:1007E0004FF480500349091F0860322000F016FCC6
:1007F00010BD0000140C01402DE9F04104460D46E7
:1008000016461F461149887A00F03AF8201200F087
:100810001FF8E0B200F01CF8301200F019F8F0B246
:1008200000F016F80949087B00F02AF8281200F0B9
:100830000FF8E8B200F00CF8381200F009F8F8B23E
:1008400000F006F800F032F8BDE8F0813800002032
:1008500010B504464FF40060074908604010091FB6
:1008600008602146054800F0D5F94FF400600249C0
:10087000091F086010BD0000140C01400038004042
:1008800010B504464FF40060064908604010086047
:100890002146054800F0BEF94FF400600149091FE8
:1008A000086010BD140C01400038004010B502492A
:1008B000087AFFF7E5FF10BD3800002070B5054647
:1008C0000C462846FFF7DCFFE0B2FFF7C1FF70BD22
:1008D00010B504462A20204948812B2088812C20ED
:1008E000088134B1012C10D0022C1AD0032C30D145
:1008F00023E04FF4A070184908804FF4F07048804E
:1009000048213620FFF7DAFF24E04FF4F070124957
:1009100008804FF4A070488028213620FFF7CEFFD2
:1009200018E04FF4A0700C4908804FF4F070488034
:1009300088213620FFF7C2FF0CE04FF4F070064923
:1009400008804FF4A0704880E8213620FFF7B6FFFA
:1009500000E000BF00BF10BD3800002010B5044605
:100960004FF40060094908604010091F0860211217
:10097000074800F04FF9E1B2054800F04BF94FF499
:1009800000600249091F086010BD0000140C0140FE
:100990000038004000BFFEE77047000070B500213E
:1009A00000230F22C47804B3154C246804F4E064D7
:1009B000C4F5E064210AC1F10403CA40447804FA92
:1009C00003F184781440214309010E4C0678A155A7
:1009D000047804F01F050124AC4005786D11AD00CA
:1009E00005F1E025C5F8004109E0047804F01F0591
:1009F0000124AC40044D0678761145F8264070BDC0
:100A00000CED00E000E400E080E100E07047000051
:100A100029B1064AD2690243044BDA6104E0034A71
:100A2000D2698243014BDA61704700000010024036
:100A300029B1064A92690243044B9A6104E0034AD1
:100A400092698243014B9A61704700000010024096
:100A500030B500210022002400232D4D6D6805F0E3
:100A60000C0121B1042905D0082923D105E0294D25
:100A7000056022E0274D05601FE0254D6D6805F4F7
:100A80007012234D6D6805F48034022505EB924207
:100A90001CB9214D554305600BE01D4D6D6805F4F3
:100AA00000351DB11C4D5543056002E0194D5543FD
:100AB000056002E0174D056000BF00BF144D6D6872
:100AC00005F0F0010909154D6B5C0568DD404560D6
:100AD0000F4D6D6805F4E061090A104D6B5C4568C7
:100AE000DD4085600A4D6D6805F46051C90A0B4D03
:100AF0006B5C4568DD40C560054D6D6805F440419F
:100B0000890B074D6B5CC568B5FBF3F5056130BD1E
:100B10000010024000127A0000093D00220000206F
:100B20003200002000B587B001210920FFF780FFC7
:100B30004FF42040ADF8040003208DF80600182083
:100B40008DF8070001A91C48FFF7E9FB4FF480402E
:100B5000ADF8040048208DF8070003208DF806004A
:100B600001A91548FFF7DBFB01218803FFF750FFC0
:100B70000020ADF808004FF48270ADF80A000020A4
:100B8000ADF80C00ADF80E00ADF810004FF4007099
:100B9000ADF812000020ADF81400ADF816000720E3
:100BA000ADF8180002A9054800F016F80121034825
:100BB00000F006F807B000BD000C0140003800400E
:100BC00021B1028842F04002028004E002884FF620
:100BD000BF731A400280704710B50022028802F4E9
:100BE00041520B884C8823438C882343CC88234371
:100BF0000C8923434C8923438C892343CC89234389
:100C00001A430280838B4FF2FF74234083830B8A45
:100C1000038210BD024600BF108900F002000028C8
:100C2000FAD0918100BF108900F001000028FAD0AD
:100C30009089C0B27047704710B500F001F810BD40
:100C40000CB50020019000903348006840F48030DB
:100C50003149086000BF3048006800F4003000905F
:100C60000198401C0190009818B90198B0F5A06F48
:100C7000F1D12948006800F4003010B10120009043
:100C800001E0002000900098012843D1234800682B
:100C900040F01000214908600846006820F0030079
:100CA00008600846006840F0020008601A48406882
:100CB000194948600846406848600846406840F462
:100CC000806048600846406820F47C104860084610
:100CD000406840F4E81048600846006840F08070C2
:100CE000086000BF0C48006800F000700028F9D0D0
:100CF0000948406820F003000749486008464068FA
:100D000040F00200486000BF0348406800F00C005B
:100D10000828F9D10CBD000000100240002002405C
:100D2000042808D14FF0E021096941F004014FF097
:100D3000E022116107E04FF0E021096921F0040190
:100D40004FF0E022116170477047000010B5134862
:100D5000006840F0010011490860084640681049E9
:100D600008400E494860084600680E4908400B4993
:100D700008600846006820F4802008600846406843
:100D800020F4FE0048604FF41F008860FFF754FF16
:100D90004FF000600449086010BD000000100240E0
:100DA0000000FFF8FFFFF6FE08ED00E010B540F28E
:100DB00025511D4800F04AF810B31B4800F002F915
:100DC000C4B21A48008800F40040C8B91748008827
:100DD00000F4804060B10A2C03D000201349088041
:100DE00020E01248008840F400401049088019E0D3
:100DF0000D2C06D10D48008840F480400B49088036
:100E000010E00A480088C0F30D0009490C54074857
:100E10000088401C0549088008460088C72801DD75
:100E20000020088010BD0000003801402000002094
:100E30004600002021B1828942F40052828104E000
:100E400082894DF6FF731A408281704770B5024661
:100E5000002400230025002040F66A16B14200D18C
:100E600000BFC1F3421501F01F03012606FA03F388
:100E7000012D02D19689334006E0022D02D1168A57
:100E8000334001E0968A33400C12012606FA04F43E
:100E90001688344013B10CB1012000E0002070BD71
:100EA000F0B50346002400260025002040F66A170E
:100EB000B94200D100BF1846C1F3421401F01F0629
:100EC000012707FA06F5012C01D10C3004E0022CB1
:100ED00001D1103000E014301AB107682F430760C9
:100EE00002E00768AF430760F0BD00002DE9F0475E
:100EF00086B005460E460024A24600BFA146002744
:100F0000B08900B100BF2F462C8A4CF6FF70044018
:100F1000F08804432C82AC894EF6F3100440B0886C
:100F200031890843718908430443AC81AC8A4FF688
:100F3000FF400440B0890443AC8201A8FFF788FD5C
:100F40001F48874202D1DDF810A001E0DDF80CA0B7
:100F5000A88900F4004040B10AEBCA0000EB0A1077
:100F600031684900B0FBF1F807E00AEBCA0000EB7A
:100F70000A1031688900B0FBF1F86420B8FBF0F08A
:100F800004012009642101FB1089A88900F40040B4
:100F900040B1322000EBC900B0FBF1F000F00700D7
:100FA000044308E0322000EB09106421B0FBF1F0AB
:100FB00000F00F0004432C8106B0BDE8F08700006C
:100FC0000038014001468888C0F30800704700BF20
:100FD000FEE700BF7047000010B56FF00400FFF798
:100FE0009FFE0A4800680A49B0FBF1F00949087001
:100FF0000846007800EB4001C1EBC0104FF6FF71CE
:1010000001EAC0000449088010BD00000000002073
:1010100000127A00180000201A0000200146114A30
:1010200012884A434FF0E0235A6100229A611A461F
:10103000126942F001021A6100BF4FF0E02210690C
:1010400000F001021AB100F48032002AF5D04FF00E
:10105000E022126922F001024FF0E0231A6100221F
:101060009A6170471A00002000BF054A128802F0FA
:101070004002002AF9D0C2B2014B1B1D1A807047F2
:1010800000380140FFF762FE4FF4E13000F024F831
:10109000FFF7A2FFFFF79AFAFFF7D8F910E0FFF782
:1010A000F3F908480078022803D107A0FFF7B0F849
:1010B00006E004480078032802D105A0FFF7A8F84D
:1010C000EDE7000015000020B3A4B0B4000000005C
:1010D000B6CCB0B40000000010B586B004460121C3
:1010E00044F20400FFF7A4FC4FF40070ADF81400C4
:1010F00003208DF8160018208DF8170005A91C484C
:10110000FFF70DF94FF48060ADF8140004208DF85E
:10111000170005A91648FFF702F925208DF80000F1
:1011200003208DF801008DF8020001208DF80300E6
:101130006846FFF733FC01940020ADF80800ADF8D5
:101140000A00ADF80C00ADF810000C20ADF80E0050
:1011500001A90848FFF7CAFE012240F225510548BF
:10116000FFF79EFE01210348FFF764FE06B010BDA5
:1011700000080140003801409811000800000020DC
:10118000380000006C010008D01100083800002071
:10119000380700008801000800A24A04000000008F
:1011A0000000000001020304060708090000000017
:1011B000000000000000000000000000000001022C
:1011C00003040102030406070809020406080000DC
:04000005080001CD21
:00000001FF
