:020000040800F2
:1000000070070020CD01000855080008F90300081A
:10001000510800087D020008C30E0008000000001F
:100020000000000000000000000000002B0B000892
:100030008102000800000000C90800083D0C00080B
:10004000E7010008E7010008E7010008E7010008F0
:10005000E7010008E7010008E7010008E7010008E0
:10006000E7010008E7010008E7010008E7010008D0
:10007000E7010008E7010008E7010008E7010008C0
:10008000E7010008E7010008E7010008E7010008B0
:10009000E7010008E7010008E7010008E7010008A0
:1000A000E7010008E7010008E7010008E701000890
:1000B000E7010008E7010008E7010008E701000880
:1000C000E7010008E7010008E7010008E701000870
:1000D000E7010008A10C0008E7010008E70100089B
:1000E000E7010008E7010008E7010008E701000850
:1000F000E7010008E7010008E7010008E701000840
:10010000E7010008E7010008E7010008E70100082F
:10011000E7010008E7010008E7010008E70100081F
:10012000E7010008E7010008E7010008E70100080F
:1001300000F002F800F03AF80AA090E8000C8244BF
:100140008344AAF10107DA4501D100F02FF8AFF29C
:10015000090EBAE80F0013F0010F18BFFB1A43F0A5
:10016000010318473434000054340000103A24BF0F
:1001700078C878C1FAD8520724BF30C830C144BF0C
:1001800004680C607047000000230024002500264E
:10019000103A28BF78C1FBD8520728BF30C148BFEA
:1001A0000B6070471FB51FBD10B510BD00F038F8CB
:1001B0001146FFF7F7FF00F0D1FE00F056F803B448
:1001C000FFF7F2FF03BC00F07EFE00000948804705
:1001D00009480047FEE7FEE7FEE7FEE7FEE7FEE729
:1001E000FEE7FEE7FEE7FEE704480549054A064B41
:1001F00070470000410C0008310100087001002028
:1002000070070020700300207003002070477047C3
:100210007047704770470000004870470C0100208D
:100220007546FFF7F9FFAE4605006946534620F0D4
:100230000700854618B020B5FFF7D6FFBDE820407F
:100240004FF000064FF000074FF000084FF0000B92
:1002500021F00701AC46ACE8C009ACE8C009ACE845
:10026000C009ACE8C0098D46704710B50446AFF32D
:1002700000802046BDE81040FFF7A1BF00BFFEE7A9
:1002800070472DE9F041024600250026002000239A
:100290000024002791F803C00CF00F0591F803C06B
:1002A0000CF0100CBCF1000F03D091F802C04CEA26
:1002B000050591F800C0BCF1000F31D01468002092
:1002C0002BE04FF0010C0CFA00F3B1F800C00CEA7F
:1002D00003069E4220D183004FF00F0C0CFA03F767
:1002E000BC4305FA03FC4CEA040491F803C0BCF1DA
:1002F000280F06D14FF0010C0CFA00FCC2F814C014
:100300000AE091F803C0BCF1480F05D14FF0010C91
:100310000CFA00FCC2F810C0401C0828D1D31460AD
:10032000B1F800C0BCF1FF0F34DD546800202EE0AE
:1003300000F1080C4FF0010808FA0CF3B1F800C006
:100340000CEA03069E4221D183004FF00F0C0CFAF9
:1003500003F7BC4305FA03FC4CEA040491F803C01C
:10036000BCF1280F05D100F1080C08FA0CF8C2F80E
:10037000148091F803C0BCF1480F07D100F1080CBC
:100380004FF0010808FA0CF8C2F81080401C082849
:10039000CED35460BDE8F0812DE9F04706460F4604
:1003A000154607F1270083B206F1270082B23946CD
:1003B000304600F07FF900240AE015F8149005EBB0
:1003C000440090F8018049EA082000F025FA641CF6
:1003D000B4F5C86FF1DB07484088401E83B205487A
:1003E0000088401E82B20021084600F063F9BDE893
:1003F000F08700003400002000BFFEE770B506461D
:1004000014484088401E83B212480088401E82B2C1
:100410000021084600F04EF94FF400600E490860D4
:100420004010091F086000240AE0002503E0304660
:1004300000F0F2F96D1C07480088A842F7D8641C48
:1004400004484088A042F0D84FF400600249091FD8
:10045000086070BD34000020140C014008B5012173
:10046000082000F05FFA4FF4F050ADF800000320D0
:100470008DF8020010208DF8030069460148FFF74F
:1004800000FF08BD000C014010B500F0C5FAFFF7F1
:10049000E5FF00F0FBF8F02000F050F9C32000F079
:1004A00035F9F02000F04AF9962000F02FF93620B7
:1004B00000F044F9682000F029F93A2000F03EF9F4
:1004C000052000F023F9B02000F038F9802000F07A
:1004D0001DF9B62000F032F9002000F017F90220D3
:1004E00000F014F9B52000F029F9022000F00EF90F
:1004F000032000F00BF9002000F008F9042000F0C0
:1005000005F9B12000F01AF9802000F0FFF8102062
:1005100000F0FCF8B42000F011F9002000F0F6F82B
:10052000B72000F00BF9C62000F0F0F8C52000F06D
:1005300005F9242000F0EAF8E42000F0FFF831206B
:1005400000F0E4F8E82000F0F9F8402000F0DEF8D0
:100550008A2000F0DBF8002000F0D8F8002000F03E
:10056000D5F8292000F0D2F8192000F0CFF8A52006
:1005700000F0CCF8332000F0C9F8C22000F0DEF81B
:10058000A72000F0DBF8E02000F0D8F8F02000F021
:10059000BDF8092000F0BAF8132000F0B7F81220D7
:1005A00000F0B4F8122000F0B1F82B2000F0AEF803
:1005B0003C2000F0ABF8442000F0A8F84B2000F0FD
:1005C000A5F81B2000F0A2F8182000F09FF81720D3
:1005D00000F09CF81D2000F099F8212000F096F81A
:1005E000E12000F0ABF8F02000F090F8092000F0D6
:1005F0008DF8132000F08AF80C2000F087F80D2009
:1006000000F084F8272000F081F83B2000F07EF80D
:10061000442000F07BF84D2000F078F80B2000F02B
:1006200075F8172000F072F8172000F06FF81D2001
:1006300000F06CF8212000F069F8362000F07EF818
:10064000EC2000F063F8F02000F078F8C32000F010
:100650005DF8F02000F072F8692000F057F81320E0
:1006600000F06CF8112000F069F8292000F066F81D
:10067000002000F08BF80120034908604FF6FF705E
:10068000FFF7BCFE10BD0000A481214210B54FF45D
:10069000805007490860642000F03AFC4FF4805015
:1006A0000349091F0860322000F032FC10BD000031
:1006B000140C01402DE9F04104460D4616461F4634
:1006C0001149887A00F03AF8201200F01FF8E0B2E1
:1006D00000F01CF8301200F019F8F0B200F016F833
:1006E0000949087B00F02AF8281200F00FF8E8B258
:1006F00000F00CF8381200F009F8F8B200F006F833
:1007000000F032F8BDE8F0813400002010B5044656
:100710004FF40060074908604010091F0860214637
:10072000054800F0F1F94FF400600249091F086024
:1007300010BD0000140C01400038004010B5044604
:100740004FF40060064908604010086021460548E3
:1007500000F0DAF94FF400600149091F086010BD8C
:10076000140C01400038004010B50249087AFFF728
:10077000E5FF10BD3400002070B505460C46284644
:10078000FFF7DCFFE0B2FFF7C1FF70BD10B5044614
:100790002A20204948812B2088812C20088134B1CF
:1007A000012C10D0022C1AD0032C30D123E04FF4AE
:1007B000A070184908804FF4F07048804821362016
:1007C000FFF7DAFF24E04FF4F070124908804FF48D
:1007D000A070488028213620FFF7CEFF18E04FF4A4
:1007E000A0700C4908804FF4F070488088213620B2
:1007F000FFF7C2FF0CE04FF4F070064908804FF499
:10080000A0704880E8213620FFF7B6FF00E000BF67
:1008100000BF10BD3400002010B504464FF4006046
:10082000094908604010091F08602112074800F0BC
:100830006BF9E1B2054800F067F94FF40060024936
:10084000091F086010BD0000140C01400038004072
:1008500000BFFEE77047000070B5002100230F22A3
:10086000C47804B3154C246804F4E064C4F5E0646F
:10087000210AC1F10403CA40447804FA03F18478E0
:100880001440214309010E4C0678A155047804F068
:100890001F050124AC4005786D11AD0005F1E02580
:1008A000C5F8004109E0047804F01F050124AC40BC
:1008B000044D0678761145F8264070BD0CED00E039
:1008C00000E400E080E100E07047000010B50A4A53
:1008D0001E210846FFF760FD084A1E216420FFF72D
:1008E0005BFD074A1E21B420FFF756FD4FF49660CA
:1008F00000F00EFB10BD0000981C00081810000846
:100900001829000829B1064AD2690243044BDA616A
:1009100004E0034AD2698243014BDA617047000068
:100920000010024029B1064A92690243044B9A61C1
:1009300004E0034A92698243014B9A6170470000C8
:100940000010024030B500210022002400232D4D6C
:100950006D6805F00C0121B1042905D0082923D1C7
:1009600005E0294D056022E0274D05601FE0254D7B
:100970006D6805F47012234D6D6805F4803402250E
:1009800005EB92421CB9214D554305600BE01D4D0E
:100990006D6805F400351DB11C4D5543056002E03E
:1009A000194D5543056002E0174D056000BF00BFBB
:1009B000144D6D6805F0F0010909154D6B5C056873
:1009C000DD4045600F4D6D6805F4E061090A104D8A
:1009D0006B5C4568DD4085600A4D6D6805F46051CB
:1009E000C90A0B4D6B5C4568DD40C560054D6D68FF
:1009F00005F44041890B074D6B5CC568B5FBF3F509
:100A0000056130BD0010024000127A0000093D006F
:100A10001E0000202E00002000B587B00121092013
:100A2000FFF780FF4FF42040ADF8040003208DF85D
:100A3000060018208DF8070001A91C48FFF721FCCB
:100A40004FF48040ADF8040048208DF807000320E3
:100A50008DF8060001A91548FFF713FC0121880352
:100A6000FFF750FF0020ADF808004FF48270ADF89A
:100A70000A000020ADF80C00ADF80E00ADF8100033
:100A80004FF40070ADF812000020ADF81400ADF87E
:100A900016000720ADF8180002A9054800F016F866
:100AA0000121034800F006F807B000BD000C01402A
:100AB0000038004021B1028842F04002028004E088
:100AC00002884FF6BF731A400280704710B50022AB
:100AD000028802F441520B884C8823438C882343BC
:100AE000CC8823430C8923434C8923438C8923439B
:100AF000CC8923431A430280838B4FF2FF74234037
:100B000083830B8A038210BD024600BF108900F068
:100B100002000028FAD0918100BF108900F0010086
:100B20000028FAD09089C0B27047704710B500F025
:100B300001F810BD0CB5002001900090334800680A
:100B400040F480303149086000BF3048006800F44C
:100B5000003000900198401C0190009818B901984D
:100B6000B0F5A06FF1D12948006800F4003010B151
:100B70000120009001E0002000900098012843D15E
:100B80002348006840F010002149086008460068CA
:100B900020F0030008600846006840F0020008608A
:100BA0001A48406819494860084640684860084645
:100BB000406840F4806048600846406820F47C103B
:100BC00048600846406840F4E810486008460068FD
:100BD00040F08070086000BF0C48006800F00070B2
:100BE0000028F9D00948406820F003000749486010
:100BF0000846406840F00200486000BF0348406873
:100C000000F00C000828F9D10CBD000000100240D3
:100C100000200240042808D14FF0E021096941F08A
:100C200004014FF0E022116107E04FF0E021096973
:100C300021F004014FF0E02211617047704700007D
:100C400010B51348006840F00100114908600846DB
:100C50004068104908400E494860084600680E493F
:100C600008400B4908600846006820F480200860AE
:100C70000846406820F4FE0048604FF41F0088607A
:100C8000FFF754FF4FF000600449086010BD0000FA
:100C9000001002400000FFF8FFFFF6FE08ED00E044
:100CA00010B540F225511D4800F04AF810B31B481A
:100CB00000F002F9C4B21A48008800F40040C8B934
:100CC0001748008800F4804060B10A2C03D000204F
:100CD0001349088020E01248008840F40040104981
:100CE000088019E00D2C06D10D48008840F48040A2
:100CF0000B49088010E00A480088C0F30D0009493C
:100D00000C5407480088401C0549088008460088A4
:100D1000C72801DD0020088010BD00000038014018
:100D20001C0000204200002021B1828942F40052C0
:100D3000828104E082894DF6FF731A4082817047F8
:100D400070B50246002400230025002040F66A16F4
:100D5000B14200D100BFC1F3421501F01F030126CB
:100D600006FA03F3012D02D19689334006E0022DE5
:100D700002D1168A334001E0968A33400C120126D4
:100D800006FA04F41688344013B10CB1012000E0D7
:100D9000002070BDF0B50346002400260025002089
:100DA00040F66A17B94200D100BF1846C1F3421499
:100DB00001F01F06012707FA06F5012C01D10C30BE
:100DC00004E0022C01D1103000E014301AB10768A1
:100DD0002F43076002E00768AF430760F0BD0000E3
:100DE0002DE9F04786B005460E460024A24600BF16
:100DF000A1460027B08900B100BF2F462C8A4CF6CF
:100E0000FF700440F08804432C82AC894EF6F31046
:100E10000440B08831890843718908430443AC8198
:100E2000AC8A4FF6FF400440B0890443AC8201A86D
:100E3000FFF788FD1F48874202D1DDF810A001E0CE
:100E4000DDF80CA0A88900F4004040B10AEBCA000C
:100E500000EB0A1031684900B0FBF1F807E00AEB3B
:100E6000CA0000EB0A1031688900B0FBF1F8642079
:100E7000B8FBF0F004012009642101FB1089A88966
:100E800000F4004040B1322000EBC900B0FBF1F0AB
:100E900000F00700044308E0322000EB0910642151
:100EA000B0FBF1F000F00F0004432C8106B0BDE868
:100EB000F08700000038014001468888C0F3080030
:100EC000704700BFFEE700BF7047000010B56FF02D
:100ED0000400FFF79FFE0A4800680A49B0FBF1F0E2
:100EE000094908700846007800EB4001C1EBC010CA
:100EF0004FF6FF7101EAC0000449088010BD0000F0
:100F00000000002000127A001400002016000020CB
:100F10000146114A12884A434FF0E0235A610022E9
:100F20009A611A46126942F001021A6100BF4FF03D
:100F3000E022106900F001021AB100F48032002AA8
:100F4000F5D04FF0E022126922F001024FF0E023C9
:100F50001A6100229A61704716000020FFF770FEA8
:100F60004FF4E13000F008F8FFF7B0FFFFF78CFA1C
:100F700001E0FFF7ABFCFCE710B586B004460121A9
:100F800044F20400FFF7CEFC4FF40070ADF81400FB
:100F900003208DF8160018208DF8170005A91C48AD
:100FA000FFF76FF94FF48060ADF8140004208DF85E
:100FB000170005A91648FFF764F925208DF80000F1
:100FC00003208DF801008DF8020001208DF8030048
:100FD0006846FFF741FC01940020ADF80800ADF829
:100FE0000A00ADF80C00ADF810000C20ADF80E00B2
:100FF00001A90848FFF7F4FE012240F225510548F7
:10100000FFF7C8FE01210348FFF78EFE06B010BDB2
:101010000008014000380140FFFFFFFFFFFFFFFF16
:10102000FFFFFFFFFFFFFFFFFFFFFFFFFFFFFFFFD0
:10103000FFFFFFFFFFFFFFFFFFFFFFFFFFFFFFFFC0
:10104000FFFFFFFFFFFFFFFFFFFFFFFFFFFFFFFFB0
:10105000FFFFFFFFFFFFFFFFFFFFFFFFFFFFFFFFA0
:10126000FFFFFFFFFFFFFFFFFFFFFFFFBEFFD6BD3A
:1012700075B579D6FFFFFFFFFFFFFFFFFFFFFFFF01
:10128000FFFFFFFFFFFFFFFFFFFFFFFFFFFFFFFF6E
:10129000FFFFFFFFFFFFFFFFFFFFFFFFFFFFFFFF5E
:1012A000FFFFFFFFFFFFFFFFFFFFFFFFFFFFFFFF4E
:1012B000FFFFFFFFFFFFFFFFFFFFBEF754AD79CE3B
:1012C00038CED6C5FFFFFFFFFFFFFFFFFFFFFFFF89
:1012D0003CF71BEFFFFFFFFFFFFFFFFFFFFFFFFFDD
:1012E000FFFFFFFFFFFFFFFFFFFFFFFFFFFFFFFF0E
:1012F000FFFFFFFFFFFFFFFFFFFFFFFFFFFFFFFFFE
:10130000FFFFFFFFFFFFFFFFDFFFF7C5DAD6F7BDE7
:10131000F39C508CB29CD3A475B5F3ACD2A413B596
:1013200034B5B6C53DF7FFFFFFFFFFFFFFFFFFFF2F
:10133000FFFFFFFFFFFFFFFFFFFFFFFFFFFFFFFFBD
:10134000FFFFFFFFFFFFFFFFFFFFFFFFFFFFFFFFAD
:101350007DEFDFFFFFFFFFFFB6BD3CEFF7BD139D45
:10136000CF73F39C5184F39C38C6BAE654C50FA4DE
:1013700013C513BD7DFFFFFFFFFFFFFFFFFFFFFF53
:10138000FFFFFFFFFFFFFFFFFFFFFFFFFFFFFFFF6D
:10139000FFFFFFFFFFFFFFFFFFFFFFFFFFFFDEFF7E
:1013A000D7BDFFFFFFFF9EF759CE79CE54A5F3942A
:1013B00075A596A5F39438BEBAD654B5EF9395D5D6
:1013C00038EEB2B4DFFFFFFFFFFFFFFFFFFFFFFFBD
:1013D000FFFFFFFFFFFFFFFFFFFFFFFFFFFFFFFF1D
:1013E000FFFFFFFFFFFFFFFFFFFFFFFFDEFF59D6FD
:1013F00017C6FFFFBEFF54ADD6B538BE96AD96A555
:1014000095A575A538B658BE79C679CEFBE63CEFF2
:10141000B5C5FBEEFFFFFFFFFFFFFFFFFFFFFFFF75
:10142000FFFFFFFFFFFFFFFFFFFFFFFFFFFFFFFFCC
:10143000FFFFFFFFFFFFFFFFFFFFFFFF34ADD29C69
:1014400018C6BEFF58D613AD58C658BE58BE38BED3
:1014500018B618B638B658BE58BE59BE9ACE9AD6E7
:1014600099D675B5FFFFFFFFFFFFFFFFFFFFFFFFEF
:10147000FFFFFFFFFFFFFFFFFFFFFFFFFFFFFFFF7C
:10148000FFFFFFFFFFFFFFFFFFFF9EF734A554ADF7
:1014900075AD38CEB2A458D6BADEBAD6BACE79C6B1
:1014A00079C658BE58BE58BE38BE58BE79C658C652
:1014B00017C6B29CFFFFFFFFFFFFFFFFFFFFFFFF0D
:1014C000FFFFFFFFFFFFFFFFFFFFFFFFFFFFFFFF2C
:1014D000FFFFDEFFFEFFFEFFFEFFBADE95B5F7BDA4
:1014E000D7BDD6C5509458DEB1A4DAE69EF75CE7C6
:1014F000DBDE79CE37C679CE58C658BE58BE38BE68
:1015000037C691949EF7FFFFFFFFFFFFFFFFFFFF2E
:10151000FFFFFFFFFFFFFFFFFFFFFFFFFFFFFFFFDB
:10152000FFFFDDFF38F7BAFF9BFF77D6BEFF9DF7C1
:101530003CE75CEF95BD58DEEE93EE8B79D6DADEB4
:10154000F6CD0F9454BDB6BD1BDF58C638BE75AD81
:10155000718C0B6334ADFFFFFFFFFFFFFFFFFFFF49
:10156000FFFFFFFFFFFFFFFFFFFFFFFFFFFFFFFF8B
:10157000FFFFBDFFB6E695E619EF98DE3CEFFFFFF3
:101580009EF738CE38D654BDAA6A0F943CEFF7CDFB
:1015900054BDCA6ACE8B17D6F3A4D6BD34A595AD7B
:1015A00075B5919C1BE7FFFFFFFFFFFFFFFFFFFFEC
:1015B000FFFFFFFFFFFFFFFFFFFFFFFFFFFFFFFF3B
:1015C000FFFFFFFFDDFF7BF7DEFF9DF779D699D6A2
:1015D0001BE775B5308C7DFF17D6DAE618CEDAE654
:1015E00059DE2B73AD83BAE6F7C579CEF7B5F7BDF3
:1015F00013A58E7BDEFFFFFF7DF77DEFFFFFFFFF73
:10160000FFFFFFFFFFFFFFFFFFFFFFFFFFFFFFFFEA
:10161000FFFFFFFFFFFFFEFFDFFF7DF77DF758CEE7
:10162000B6BD1BEFF3ACBADEDAE63CEF79D69DFF30
:101630007DF7DFFFDFFFDAE6FBE638C6D7B5349D7E
:1016400091942C6B99D6FBE6DADE7DF7FFFFBEFFA7
:1016500079D69EF7FFFFFFFFFFFFFFFFFFFF5DEF64
:101660001CE7DADE1BE7FFFFBEFF7DF7FFFF7DF71C
:101670005DEF3CEF38D699DEFFFFFFFFDFFFFFFF96
:101680003CEF5DEF9DF77DEFDEFFFBDE59C675A5F4
:10169000D29C74AD919C75B50F8413A51CEF3CEFE3
:1016A0005CEFDEFFFFFFFFFFFFFFFFFFBEFF75B533
:1016B00054ADD6BDB6BDDADEDEFFDFFFFFFFBEFFF5
:1016C00058CED6BD95BD919CBADEFFFFFFFFFFFF50
:1016D000FFFFFFFFFFFFDFFF9DF71CDFDAD679CEAC
:1016E00034A5D6BDFBE679D696B59194929CD2A44A
:1016F000D6BDDADEFFFFFFFFFFFFFFFF9EF779D6C3
:10170000D29C75ADD6BDB6B538CE1BE7FFFFD7C5A9
:1017100054AD13A56C732F8CDADE38C699D63CE72E
:10172000DFFFFFFFFBE617C69EF7DFFF5DEF71945B
:101730001BEFDEFFDFFF9DF71BE795B575BD5094EE
:10174000BADEFFFFFFFFFFFFFFFFFFFF9EF738CE70
:1017500034AD75AD75AD75ADB6B5D6BDF7C5B6BD15
:10176000D6BD13A553AD36CE3BE73CE77DEFBEF7C4
:10177000DEFFFFFF9DF7D6C538CEFFFF7DF7D29C79
:1017800034AD37C6FBDEFBDE1BE737C6D2A413AD94
:10179000FBE6FFFFFFFFFFFFFFFFFFFFFFFFBEF7BF
:1017A00079D6F39C75AD75AD75AD75AD75ADD6BD1E
:1017B00054AD33AD56D6B7E69BF7F6C5BEF7FFFF7F
:1017C000FFFFDADEF7C5B6BDBADE79D6D2A4D2A461
:1017D000DADE99CED6BD58CE58D6D6C517CEFFFF85
:1017E000FFFFFFFFFFFFFFFFFFFFFFFFFFFFFFFF09
:1017F000FFFFF3A475AD75AD75AD75AD75AD75AD88
:1018000075ADB5BDAFA4F8EEBCFF74B5BADEDEFFB2
:10181000BADED6BD13A5DADE58CEB29CCE7B16C694
:101820005AEF7BF7DADE3CE775B5AE7BFBE6FFFFF0
:10183000FFFFFFFFFFFFFFFFFFFFFFFFFFFFFFFFB8
:10184000FFFF58CE34A575AD75ADD7B575AD75AD87
:1018500075AD54ADB19C37D69DFF53B5D5C574BD9C
:10186000DADE5CEFF9E657CE78CEBAD6D6BDD9DE51
:10187000B6E6F7E65BEF3CE779CED29CFBE6FFFFEE
:10188000FFFFFFFFFFFFFFFFFFFFFFFFFFFFFFFF68
:10189000FFFF3CE7F39C75AD75AD17BE79CE75AD16
:1018A00075AD75ADD29C2F8CD1A42E94F1ACB4C57E
:1018B000FEFFBDF7F9E6D9E6DAD61BE77CF75AEF6B
:1018C000F7EE59F77CEF3CE779CE54AD9AD6FFFF9F
:1018D000FFFFFFFFFFFFFFFFFFFFFFFFFFFFFFFF18
:1018E000FFFF7DEFD7BD34A575AD75AD18BE75ADE5
:1018F00075AD75AD34ADAD7B11AD52B56FA457DE8E
:10190000FEFFFEFF5BF7B9E6F6C537CED5C5D4C5F9
:10191000F9E61AE73BE73CDF79CED39CD7BDFFFF62
:10192000FFFFFFFFFFFFFFFFFFFFFFFFFFFFFFFFC7
:10193000FFFFFFFFFFFF59CEF39C54AD54AD75ADD3
:1019400075AD75AD54ADEE83F1AC55D673BD53B5E1
:101950007DF758CEF2A4909CB1A4B1A493C536D61D
:10196000D4C5F6C599CEDAD6FBD6BAD6D6BDFFFF1A
:10197000FFFFFFFFFFFFFFFFFFFFFFFFFFFFFFFF77
:10198000FFFFFFFFFFFFFFFFFAE633B5D1A454B519
:1019900055AD75AD75AD70942E8C53B594BDD19C7D
:1019A000508CB29C33AD12ADB1A42E9CF0B476E64F
:1019B00097E698DE98DE37CE17C6DBDEDADEFFFF6D
:1019C000FFFFFFFFFFFFFFFFFFFFFFFFFFFFFFFF27
:1019D000FFFFFFFFFFFFFFFFDEFF3BF737D613AD33
:1019E000D29C54AD54B5F2A40F8C53B512AD53B57F
:1019F00013ADB19C909C4F9432B536D6B8E639F70A
:101A00005AFFBCFFDEFFFEFFFFFF3CE7DADE9DF77B
:101A1000FFFFFFFFFFFFFFFFFFFFFFFFFFFFFFFFD6
:101A2000FFFFFFFFFFFFFFFFFFFFFFFFDEFF3BEFBB
:101A300077DEF1ACB1A453B52F94F2ACD1A4709C75
:101A40002F9412AD94C577DED9E69CFFFEFFFEFF12
:101A5000FFFFFFFFFFFFFFFFFFFFFFFFFFFFFFFF96
:101A6000FFFFFFFFFFFFFFFFFFFFFFFFFFFFFFFF86
:101A7000FFFFFFFFFFFFFFFFFFFFFFFFFFFFFEFF77
:101A8000DDFF1AF737D633B5F2A4F2A433B5B5C5E6
:101A90001BEF9CFF5BF7BCFFFEFFFFFFFFFFFFFF9D
:101AA000FFFFFFFFFFFFFFFFFFFFFFFFFFFFFFFF46
:101AB000FFFFFFFFFFFFFFFFFFFFFFFFFFFFFFFF36
:101AC000FFFFFFFFFFFFFFFFFFFFFFFFFFFFFFFF26
:101AD000FFFFFFFFFFFFBDFF7CF79DFF9DFFDEFFC8
:101AE000FFFFFFFFFFFFFFFFFFFFFFFFFFFFFFFF06
:101AF000FFFFFFFFFFFFFFFFFFFFFFFFFFFFFFFFF6
:101B0000FFFFFFFFFFFFFFFFFFFFFFFFFFFFFFFFE5
:101B1000FFFFFFFFFFFFFFFFFFFFFFFFFFFFFFFFD5
:101B2000FFFFFFFFFFFFFFFFFFFFFFFFFFFFFFFFC5
:101B3000FFFFFFFFFFFFFFFFFFFFFFFFFFFFFFFFB5
:101B4000FFFFFFFFFFFFFFFFFFFFFFFFFFFFFFFFA5
:101B5000FFFFFFFFFFFFFFFFFFFFFFFFFFFFFFFF95
:101B6000FFFFFFFFFFFFFFFFFFFFFFFFFFFFFFFF85
:101B7000FFFFFFFFFFFFFFFFFFFFFFFFFFFFFFFF75
:101B8000FFFFFFFFFFFFFFFFFFFFFFFFFFFFFFFF65
:101B9000FFFFFFFFFFFFFFFFFFFFFFFFFFFFFFFF55
:101BA000FFFFFFFFFFFFFFFFFFFFFFFFFFFFFFFF45
:101BB000FFFFFFFFFFFFFFFFFFFFFFFFFFFFFFFF35
:101BC000FFFFFFFFFFFFFFFFFFFFFFFFFFFFFFFF25
:101BD000FFFFFFFFFFFFFFFFFFFFFFFFFFFFFFFF15
:101BE000FFFFFFFFFFFFFFFFFFFFFFFFFFFFFFFF05
:101BF000FFFFFFFFFFFFFFFFFFFFFFFFFFFFFFFFF5
:101C0000FFFFFFFFFFFFFFFFFFFFFFFFFFFFFFFFE4
:101C1000FFFFFFFFFFFFFFFFFFFFFFFFFFFFFFFFD4
:101C2000FFFFFFFFFFFFFFFFFFFFFFFFFFFFFFFFC4
:101C3000FFFFFFFFFFFFFFFFFFFFFFFFFFFFFFFFB4
:101C4000FFFFFFFFFFFFFFFFFFFFFFFFFFFFFFFFA4
:101C5000FFFFFFFFFFFFFFFFFFFFFFFFFFFFFFFF94
:101C6000FFFFFFFFFFFFFFFFFFFFFFFFFFFFFFFF84
:101C7000FFFFFFFFFFFFFFFFFFFFFFFFFFFFFFFF74
:101C8000FFFFFFFFFFFFFFFFFFFFDFFF7DEF9EF77F
:101C90005DEF5DEF7DEFBEF7FFFFFFFFFFFFFFFF93
:101CA000FFFFFFFFFFFFFFFFFFFFFFFFFFFFFFFF44
:101CB000FFFFFFFFFFFFFFFFFFFFFFFFFFFFFFFF34
:101CC000FFFFFFFFFFFFFFFFFFFFFFFFFFFFFFFF24
:101CD000FFFFFFFFFFFFFFFFFFFFFFFFFFFFFFFF14
:101EE000FFFFFFFFFFFFFFFFFFFFFFFFBEFFB6C5C6
:101EF00054B579D6FFFFFFFFFFFFFFFFFFFFFFFF96
:101F0000FFFFFFFFFFFFFFFFFFFFFFFFFFFFFFFFE1
:101F1000FFFFFFFFFFFFFFFFFFFFFFFFFFFFFFFFD1
:101F2000FFFFFFFFFFFFFFFFFFFFFFFFFFFFFFFFC1
:101F3000FFFFFFFFFFFFFFFFFFFF9EF734B579CEE6
:101F400058C6D6C5FFFFFFFFFFFFFFFFFFFFFFFFE4
:101F50005CEF1CE7FFFFFFFFFFFFFFFFFFFFFFFF3F
:101F6000FFFFFFFFFFFFFFFFFFFFFFFFFFFFFFFF81
:101F7000FFFFFFFFFFFFFFFFFFFFFFFFFFFFFFFF71
:101F8000FFFFFFFFFFFFFFFFDFFFF7C5DADE17BE32
:101F9000F39C2F94B1A4B2A475BDF3ACD2AC13B52D
:101FA00013BDB6CD5CEFFFFFFFFFFFFFFFFFFFFF9D
:101FB000FFFFFFFFFFFFFFFFFFFFFFFFFFFFFFFF31
:101FC000FFFFFFFFFFFFFFFFFFFFFFFFFFFFFFFF21
:101FD0007DEFBFFFFFFFFFFFB6BD3CEFF7BD149DD8
:101FE000CE73F39C518CF39C38C6DADE75BD0FAC12
:101FF000D2D4F3BC9EF7FFFFFFFFFFFFFFFFFFFF01
:10200000FFFFFFFFFFFFFFFFFFFFFFFFFFFFFFFFE0
:10201000FFFFFFFFFFFFFFFFFFFFFFFFFFFFDEFFF1
:10202000D7C5FFFFFFFF9DF758CE79C655A5F3949E
:1020300075A596A5F39438BEBAD654B5CE9B55E592
:1020400017F6D2ACFFFFFFFFFFFFFFFFFFFFFFFF11
:10205000FFFFFFFFFFFFFFFFFFFFFFFFFFFFFFFF90
:10206000FFFFFFFFFFFFFFFFFFFFFFFFDEFF79CE58
:1020700017C6FFFFBEFF34B5D6BD38BEB6A5B6A5A0
:1020800095A575A538B658BE79C679C6FBDE1CEF96
:1020900095C51BE7FFFFFFFFFFFFFFFFFFFFFFFFF0
:1020A000FFFFFFFFFFFFFFFFFFFFFFFFFFFFFFFF40
:1020B000FFFFFFFFFFFFFFFFFFFFFFFF13ADD29CFE
:1020C00038C6BEFF58D613AD59C658BE58BE38B62E
:1020D00038B638B638B658BE58BE59BE9ACEBACE03
:1020E00099D654B5FFFFFFFFFFFFFFFFFFFFFFFF84
:1020F000FFFFFFFFFFFFFFFFFFFFFFFFFFFFFFFFF0
:10210000FFFFFFFFFFFFFFFFFFFF9DF734AD54AD63
:1021100075AD18CEB2A458CEDAD6BACEBACE79C63C
:1021200059BE58BE58BE58BE38B658BE79C659C6F4
:1021300038BE919CFFFFFFFFFFFFFFFFFFFFFFFF88
:10214000FFFFFFFFFFFFFFFFFFFFFFFFFFFFFFFF9F
:10215000FFFFFEFFFEFFFFFFFFFFBADE95B518BED3
:10216000F7B5D7C5509C58D6B1A4FBE69EEF5DE706
:10217000DBDE79CE17C679CE59BE59BE59BE38BE00
:1021800038BE919C9DF7FFFFFFFFFFFFFFFFFFFFA2
:10219000FFFFFFFFFFFFFFFFFFFFFFFFFFFFFFFF4F
:1021A000FFFFDDFF37F7BBFF9BFF58D6BEF79EEF63
:1021B0003CE75CEF95BD58DECE93CE9379D6DAE658
:1021C000F6CDEF9354BDB6BDFBDE59BE38BE95AD1E
:1021D000718CEA6A34B5FFFFFFFFFFFFFFFFFFFFCF
:1021E000FFFFFFFFFFFFFFFFFFFFFFFFFFFFFFFFFF
:1021F000FFFFBCFFB3EE92EE17F799DE3CEFFFFF57
:102200009EF718CE38D654BDA9720F943CEFF7C58F
:1022100054BDA97AAD9317D6F3ACD6BD34A596AD0F
:1022200095AD919C1BE7FFFFFFFFFFFFFFFFFFFF47
:10223000FFFFFFFFFFFFFFFFFFFFFFFFFFFFFFFFAE
:10224000FFFFFFFFDDFF79FFFDFF9DF779D699D6F0
:102250003BE754B50F949DFF17CEBAE617D6DAE6E2
:1022600058D60B7B8D8BBAE6F6C579CEF7B517B687
:10227000349D8D7BDEFFFFFF7DF77DEFFFFFFFFFCE
:10228000FFFFFFFFFFFFFFFFFFFFFFFFFFFFFFFF5E
:10229000FFFFFFFFFFFFFFFFFFFF9DF77DF758CE1A
:1022A000B6BD1BE7F3ACBADEDADE3CEF79D69EF7BB
:1022B0007DF7DFFFFFFFDBE6FBE638C6F7B5349DB1
:1022C00091940B7379DEFBE6DAE67DEFFFFFBEFF4C
:1022D00079D69EF7FFFFFFFFFFFFFFFFFFFF5DEFD8
:1022E0001CE7BADEFBE6FFFFBDFF7DF7FFFF7DF7D2
:1022F0007DEF5CE738CE99DEFFFFFFFFDFFFFFFFDA
:102300003CEF5DEF9EF77DEFDEF71BDF59C675A54D
:10231000D29C54AD919C75BDEF8BF3AC1BE75CEF89
:102320005CEFDFFFFFFFFFFFFFFFFFFFBEFF55B5C5
:1023300054B5D6BD95BDBADEDEFFFFFFFFFFBEFF81
:1023400058CED6BD95BD709CBADEFFFFFFFFFFFFE4
:10235000FFFFFFFFFFFFDFFF9EEF1CDFDAD679CE26
:1023600033ADD6BDFBE679CEB6B59294B294D2A485
:10237000D6C5DADEFFFFFFFFFFFFFFFF9EF758D64F
:10238000D2A475ADD6BDB6BD17CE1BE7FFFFD7C52E
:1023900054B513A54C730F8CDADE38C699D63CEFD2
:1023A000DFFFFFFFDBE6F7CD9EF7DFFF7DEF709CE1
:1023B0001BEFDFFFDFFF9EF71CDF96AD95B5509C4E
:1023C000BADEFFFFFFFFFFFFFFFFFFFF9EF737CEE5
:1023D00033AD75AD75AD75ADB6B5D6BDF7C5B6BD8A
:1023E000B6BD13A553AD35CE3BE73CE79DEFBEF739
:1023F000DEFFFFFF9DF7B6C517CEFFFF7DF7B1A447
:1024000034B538C6FBDEFBDE1BE718C6D2A4F3AC3E
:10241000DAE6FFFFFFFFFFFFFFFFFFFFFFFF9EF773
:1024200079D6F3A475AD75AD75AD75AD75ADD6BD89
:1024300054AD33AD55DEB4EE7BF7F7C5BEF7FFFF05
:10244000FFFFDAE6F7C5B6BDBADE79D6D2A4D2A4CC
:10245000DADE99CED6BD58CE58CED6C5F7CDFFFF21
:10246000FFFFFFFFFFFFFFFFFFFFFFFFFFFFFFFF7C
:10247000FFFFF3A475AD75AD75AD75AD75AD75ADFB
:1024800075ADB6B5909CF6EEBCFF74BDB9DEDEFF4F
:10249000BADEB6BD34A5DBD659CEB29CCE8317C604
:1024A0005AEF7CEFDAD63CE795B5AD83FBE6FFFF4C
:1024B000FFFFFFFFFFFFFFFFFFFFFFFFFFFFFFFF2C
:1024C000FFFF58CE34A575AD75ADD7B575AD75ADFB
:1024D00075AD75AD919C37CEBDF753B5B4CD53BD39
:1024E000DADE5CEFFADE58C679C6BACED6B5D8E6E3
:1024F000B3EEF6EE5CEF3CE779CED2A4FBE6FFFF4D
:10250000FFFFFFFFFFFFFFFFFFFFFFFFFFFFFFFFDB
:10251000FFFF1CEFF3A475AD75AD17BE9ACE75AD78
:1025200075AD75ADD29C0F94D2A42F94F2AC95C525
:10253000FFFFBCFFF6EEF8E6DAD61BDF7DEF5BEFC0
:10254000F6E65AEF7DEF3CE779C634AD99D6FFFF4A
:10255000FFFFFFFFFFFFFFFFFFFFFFFFFFFFFFFF8B
:10256000FFFF5DEFD6C534A575AD75AD18BE95AD51
:1025700075AD75AD54AD8D8312AD51BD6F9C58D600
:10258000FFFFFEFF5AF7D8E6F7C537CED5C5D5BD54
:102590001ADF3BDF3CDF3CDF79C6F39CD6C5FFFF8B
:1025A000FFFFFFFFFFFFFFFFFFFFFFFFFFFFFFFF3B
:1025B000FFFFFFFFFFFF58CEF2A454AD75AD75AD20
:1025C00075AD75AD75ADEE8BF1AC32E670C533B55A
:1025D0007DF758D6F2A4919CB29CB0A492CD14DEA3
:1025E000B3CDF5C599D6DAD6FBD6BAD6D6C5FFFF98
:1025F000FFFFFFFFFFFFFFFFFFFFFFFFFFFFFFFFEB
:10260000FFFFFFFFFFFFFFFFF9EE32B5D2A475AD6C
:1026100075AD75AD75AD71940F9451BD92BDB19C02
:10262000308CB29C34AD13A5D29C2F9CD0B475EEE7
:1026300075EE96E677DE37CE17C6DADEDADEFFFF16
:10264000FFFFFFFFFFFFFFFFFFFFFFFFFFFFFFFF9A
:10265000FFFFFFFFFFFFFFFFDEFF3AF735DE11B59B
:10266000D1A454AD75ADF3A40F8C74B533A554AD9E
:1026700034ADB29C919C2F9C11BD34DEB7EE39F77E
:102680005AF7BDFFFEFFFFFFDFFF3CE7BADE9EF714
:10269000FFFFFFFFFFFFFFFFFFFFFFFFFFFFFFFF4A
:1026A000FFFFFFFFFFFFFFFFFFFFFFFFDEFF3AF728
:1026B00056E6F1B4B1A454AD0F8CF3A4D2A4709437
:1026C0002F94F1B493CD76E6D8EE7CF7FEFFFFFFB2
:1026D000FFFFFFFFFFFFFFFFFFFFFFFFFFFFFFFF0A
:1026E000FFFFFFFFFFFFFFFFFFFFFFFFFFFFFFFFFA
:1026F000FFFFFFFFFFFFFFFFFFFFFFFFFFFFFFFFEA
:10270000DEFF1AEF35DE12B5D1ACF1AC12B5B4CDA7
:102710001AEF9CFF7BF7DEFFFFFFFFFFFFFFFFFFCE
:10272000FFFFFFFFFFFFFFFFFFFFFFFFFFFFFFFFB9
:10273000FFFFFFFFFFFFFFFFFFFFFFFFFFFFFFFFA9
:10274000FFFFFFFFFFFFFFFFFFFFFFFFFFFFFFFF99
:10275000FFFFFFFFFEFFBDFF7CF79CFF9DFFDEFF3D
:10276000FFFFFFFFFFFFFFFFFFFFFFFFFFFFFFFF79
:10277000FFFFFFFFFFFFFFFFFFFFFFFFFFFFFFFF69
:10278000FFFFFFFFFFFFFFFFFFFFFFFFFFFFFFFF59
:10279000FFFFFFFFFFFFFFFFFFFFFFFFFFFFFFFF49
:1027A000FFFFFFFFFFFFFFFFFFFFFFFFFFFFFFFF39
:1027B000FFFFFFFFFFFFFFFFFFFFFFFFFFFFFFFF29
:1027C000FFFFFFFFFFFFFFFFFFFFFFFFFFFFFFFF19
:1027D000FFFFFFFFFFFFFFFFFFFFFFFFFFFFFFFF09
:1027E000FFFFFFFFFFFFFFFFFFFFFFFFFFFFFFFFF9
:1027F000FFFFFFFFFFFFFFFFFFFFFFFFFFFFFFFFE9
:10280000FFFFFFFFFFFFFFFFFFFFFFFFFFFFFFFFD8
:10281000FFFFFFFFFFFFFFFFFFFFFFFFFFFFFFFFC8
:10282000FFFFFFFFFFFFFFFFFFFFFFFFFFFFFFFFB8
:10283000FFFFFFFFFFFFFFFFFFFFFFFFFFFFFFFFA8
:10284000FFFFFFFFFFFFFFFFFFFFFFFFFFFFFFFF98
:10285000FFFFFFFFFFFFFFFFFFFFFFFFFFFFFFFF88
:10286000FFFFFFFFFFFFFFFFFFFFFFFFFFFFFFFF78
:10287000FFFFFFFFFFFFFFFFFFFFFFFFFFFFFFFF68
:10288000FFFFFFFFFFFFFFFFFFFFFFFFFFFFFFFF58
:10289000FFFFFFFFFFFFFFFFFFFFFFFFFFFFFFFF48
:1028A000FFFFFFFFFFFFFFFFFFFFFFFFFFFFFFFF38
:1028B000FFFFFFFFFFFFFFFFFFFFFFFFFFFFFFFF28
:1028C000FFFFFFFFFFFFFFFFFFFFFFFFFFFFFFFF18
:1028D000FFFFFFFFFFFFFFFFFFFFFFFFFFFFFFFF08
:1028E000FFFFFFFFFFFFFFFFFFFFFFFFFFFFFFFFF8
:1028F000FFFFFFFFFFFFFFFFFFFFFFFFFFFFFFFFE8
:10290000FFFFFFFFFFFFFFFFFFFFFFFF7DEF9EF7D2
:102910005DEF5DEF7DEFBEF70000000000000000FE
:1029200000000000000000000000000000000000A7
:1029300000000008A6398E7B14AD38D6DBEE5DFFB3
:102940005DFFDBEE38D614AD8E83A639000800009B
:102950000000000000000000000000000000000077
:102960000000000000000000000000000000000067
:102970000000000000000000000000000000E32054
:10298000F08BBAE67DFF7DFF7DFF7DFF5DFF5DFF84
:102990005DFF5DFF5DFF7DFF7DFF7DFFBAE6F08B94
:1029A000E320000000000000000000000000000024
:1029B0000000000000000000000000000000000017
:1029C00000000000000000000000821871945DF714
:1029D0007DFF5DFF7DFF7DFF7DFF5DFF5DFF5DFF97
:1029E0005DFF5DFF5DFF5DFF5DFF7DFF5DFF7DFFC7
:1029F0003CF7719482180000000000000000000005
:102A000000000000000000000000000000000000C6
:102A100000000000000000008A5AFBE67DFF7DFFF9
:102A20005DFF5DFF5DFF5DFF5DFF5DFF5DFF5DFFC6
:102A30005DFF5DFF5DFF5DFF5DFF5DFF5DFF5DFFB6
:102A40007DFF7DFFFBE68A5A0000000000000000C9
:102A50000000000000000000000000000000000076
:102A600000000000000871945DFF7DFF7DFF5DFFA9
:102A70005DFF5DFF5DFF5DFF5DFF7DFF5DFF5DFF56
:102A80005DFF5DFF7DFF5DFF5DFF5DFF5DFF5DFF46
:102A90005DFF7DFF7DFF7DFF719C00080000000051
:102AA0000000000000000000000000000000000026
:102AB0000000200855B57DFF7DFF5DFF5DFF5DFFD8
:102AC0005DFF5DFF5DFF5DFF5DFF5DFF5DFF5DFF26
:102AD0005DFF5DFF5DFF5DFF5DFF5DFF5DFF5DFF16
:102AE0005DFF5DFF5DFF7DFF7DFF55B521080000A7
:102AF00000000000000000000000000000000000D6
:102B0000000855B57DFF7DFF5DFF5DFF5DFF7DFF2B
:102B10005DFF5DFF5DFF5DFF5DFF5DFF5DFF5DFFD5
:102B20007DFF7DFF7DFF7DFF5DFF5DFF5DFF5DFF45
:102B30007DFF5DFF5DFF5DFF5DFF7DFF55B500081B
:102B40000000000000000000000000000000000085
:102B5000719C7DFF7DFF7DFF5DFF5DFF5DFF5DFF84
:102B60005DFF5DFF5DFF5DFF5DFF5DFF5DFF5DFF85
:102B70007DFF7DFF7DFF7DFF5DFF5DFF5DFF5DFFF5
:102B80005DFF5DFF5DFF5DFF7DFF5DFF7DFF719C74
:102B900000000000000000000000000000008A5A51
:102BA0005DFF7DFF5DFF5DFF5DFF7DFF5DFF5DFF05
:102BB0005DFF5DFF5DFF5DFF5DFF5DFF5DFF5DFF35
:102BC0005DFF5DFF7DFF7DFF5DFF5DFF5DFF5DFFE5
:102BD0005DFF5DFF7DFF5DFF5DFF5DFF7DFF7DFFB5
:102BE0008A5A000000000000000000008218FBE686
:102BF0007DFF5DFF5DFF5DFF5DFF5DFF5DFF5DFFD5
:102C00007DFF5DFF5DFF5DFF5DFF5DFF5DFF5DFFC4
:102C10005DFF5DFF5DFF5DFF5DFF5DFF5DFF7DFFB4
:102C20005DFF5DFF5DFF5DFF5DFF5DFF5DFF7DFFA4
:102C3000FBEEA218000000000000000071947DFF70
:102C40007DFF5DFF5DFF5DFF5DFF5DFF5DFF5DFF84
:102C50005DFF5DFF5DFF5DFF5DFF5DFF5DFF5DFF94
:102C60005DFF5DFF5DFF5DFF5DFF5DFF5DFF5DFF84
:102C70005DFF5DFF7DFF7DFF5DFF5DFF5DFF5DFF34
:102C80007DFF719C000000000000E3205DF77DFFE8
:102C90005DFF5DFF7DFF5DFF5DFF5DFF5DFF5DFF34
:102CA0005DFF5DFF5DFF5DFF5DFF3DFFFCFE76EDBF
:102CB00076EDFCFE3DFF5DFF5DFF5DFF5DFF5DFFAF
:102CC0005DFF5DFF7DFF7DFF5DFF7DFF5DFF5DFFC4
:102CD0005DFF3CF7E32000000000F08B7DFF5DFF0F
:102CE0005DFF5DFF5DFF5DFF7DFF7DFF5DFF5DFFC4
:102CF0005DFF5DFF5DFF5DFF3DFF9BFEB0E34ACAE8
:102D00004ACAB0E39BFE1DFF5DFF5DFF5DFF5DFFF7
:102D10005DFF5DFF7DFF5DFF5DFF5DFF5DFF5DFFB3
:102D20005DFF7DFFF08B00000008BAE65DFF5DFFF0
:102D30005DFF5DFF5DFF5DFF7DFF7DFF5DFF5DFF73
:102D40005DFF5DFF3DFF1CFF39FE0DD30ADAEAE1AE
:102D5000EAE12ADA0ED339FE1DFF3DFF5DFF5DFF7C
:102D60005DFF5DFF5DFF5DFF5DFF5DFF5DFF5DFF83
:102D70005DFF7DFFBAE60008A6397DFF7DFF5DFFA0
:102D80005DFF5DFF5DFF5DFF5DFF5DFF7DFF5DFF43
:102D90005DFF3DFFFCFE76FD8BD20ADAEAE1C9E970
:102DA000C9E9EAE10ADA8BD276FDFCFE3DFF5DFF60
:102DB0005DFF7DFF5DFF5DFF5DFF5DFF5DFF5DFF13
:102DC0005DFF7DFF7DFFA6398E7B7DFF5DFF5DFF93
:102DD0005DFF5DFF5DFF5DFF5DFF5DFF7DFF5DFFF3
:102DE0003DFFFCFE93F44ACA0AE2E9E9C9E9C9E9F0
:102DF000C9E9C9E9C9E90AE24BCAB3F4FCFE3DFFDF
:102E00005DFF7DFF5DFF5DFF5DFF5DFF5DFF5DFFC2
:102E10005DFF7DFF7DFF8E7B14B57DFF5DFF5DFF58
:102E20005DFF5DFF5DFF5DFF5DFF5DFF5DFF3DFFE2
:102E30009BFEB0E32AD20AE2E9E9C9E9C9E9C9E996
:102E4000C9E9C9E9C9E9EAE90AE22AD2B0E39BFE85
:102E50003DFF5DFF5DFF5DFF5DFF5DFF5DFF5DFFB2
:102E60005DFF5DFF7DFF14B538D65DFF5DFF5DFF43
:102E70005DFF5DFF7DFF5DFF5DFF5DFF3DFF5AFE76
:102E80000DD30AD2EAE1C9E9C9E9C9E9C9E9C9E941
:102E9000C9E9C9E9C9E9C9E9C9E9EAE12AD20DD311
:102EA0005AFE3DFF5DFF5DFF5DFF5DFF5DFF5DFF66
:102EB0005DFF5DFF7DFF38D6DBEE5DFF5DFF5DFFF3
:102EC0005DFF5DFF5DFF5DFF5DFF3DFFFCFE0DC330
:102ED0002AD2EAE1E9E9C9E9C9E9C9E9C9E9C9E9DF
:102EE000C9E9C9E9C9E9C9E9C9E9EAE9EAE12AD2CE
:102EF0000DC3FCFE3DFF5DFF5DFF5DFF5DFF5DFF00
:102F00005DFF5DFF5DFFDBEE5DFF5DFF5DFF5DFF74
:102F10005DFF5DFF5DFF5DFF7DFF3DFFFCFE0DC3BF
:102F20002AD2EAE1E9E9C9E9C9E9C9E9C9E9C9E98E
:102F3000C9E9C9E9C9E9C9E9C9E9E9E9EAE12AD27E
:102F40000DC3FCFE3DFF7DFF5DFF5DFF5DFF5DFF8F
:102F50005DFF5DFF5DFF5DFF5DFF5DFF7DFF7DFF51
:102F60005DFF5DFF5DFF5DFF5DFF5DFF3DFF5AFEA5
:102F700073FC2AD2EAE1C9E9C9E9C9E9C9E9C9E9A1
:102F8000C9E9C9E9C9E9C9E9C9E9EAE12AD273FC91
:102F90005AFE3DFF5DFF5DFF5DFF5DFF5DFF5DFF75
:102FA0005DFF5DFF5DFF5DFFDBEE5DFF5DFF7DFFB4
:102FB0005DFF5DFF5DFF5DFF5DFF5DFF5DFF1DFF71
:102FC0009BFE4BCA0AE2C9E9C9E9C9E9C9E9C9E9ED
:102FD000C9E9C9E9C9E9C9E9C9E9EAE14BCA9BFEFE
:102FE0001DFF5DFF5DFF5DFF5DFF5DFF5DFF5DFF41
:102FF0005DFF5DFF5DFFDBEE39D67DFF5DFF5DFFB1
:103000005DFF5DFF7DFF5DFF5DFF5DFF5DFF3DFFE0
:10301000BBFE6BC20ADAC9E9C9E9C9E9C9E9C9E96C
:10302000C9E9C9E9C9E9C9E9C9E90ADA6BC2BBFE5C
:103030003DFF5DFF5DFF5DFF5DFF5DFF5DFF5DFFD0
:103040005DFF5DFF7DFF38D614B57DFF5DFF5DFF41
:103050005DFF5DFF5DFF5DFF5DFF5DFF5DFF3DFFB0
:10306000BBFE6BC20ADAC9E9C9E9EAE10ADA2ADA7F
:103070002ADA0ADAEAE1C9E9C9E90ADA6BC2BBFE6F
:103080003DFF5DFF5DFF5DFF5DFF5DFF5DFF5DFF80
:103090005DFF7DFF7DFF14B58E7B7DFF7DFF5DFFB6
:1030A0005DFF5DFF5DFF5DFF5DFF5DFF7DFF3DFF40
:1030B000BBFE6BC20ADAC9E9C9E90ADA32F49BFE3F
:1030C0009BFE32F40ADAC9E9C9E90ADA6BC2BBFE2F
:1030D0003DFF5DFF5DFF5DFF5DFF5DFF5DFF5DFF30
:1030E0007DFF7DFF7DFF8E7BA6397DFF7DFF5DFF30
:1030F0005DFF5DFF5DFF5DFF5DFF5DFF5DFF3DFF10
:10310000BBFE6BC20ADAC9E9C9E92ADAB3ECFCFEF4
:10311000FCFEB3EC2ADAC9E9C9E90ADA6BC2BBFEE4
:103120003DFF5DFF5DFF7DFF5DFF5DFF5DFF5DFFBF
:103130007DFF7DFF7DFFA6390008BAE67DFF5DFFBC
:103140005DFF7DFF5DFF5DFF5DFF5DFF5DFF3DFF9F
:10315000DCFE8BC20ADAC9E9C9E92ADAB3ECFCFE63
:10316000FCFEB3EC2AD2C9E9C9E90ADA8BBADCFE63
:103170003DFF5DFF5DFF5DFF5DFF5DFF7DFF7DFF4F
:103180005DFF7DFFBAE600080000F08B7DFF5DFF6C
:103190005DFF5DFF5DFF5DFF5DFF5DFF5DFF3DFF6F
:1031A000FCFED0D34BCA2ADA2AD26BC2D4E41DFF6C
:1031B0001CFFD4E44BCA2AD22AD24BCAD0D3FCFE7D
:1031C0003DFF5DFF5DFF5DFF5DFF5DFF7DFF7DFFFF
:1031D0005DFF7DFFF08B00000000E3203DF75DFF09
:1031E0005DFF5DFF5DFF5DFF5DFF5DFF5DFF5DFFFF
:1031F0003DFFFCFE35EDB3ECB3ECD4E419F63DFF36
:103200003DFF19F6D4E4B3ECB4EC35EDFCFE3DFF24
:103210005DFF5DFF5DFF5DFF5DFF7DFF5DFF5DFFAE
:103220007DFF3CF7E32000000000000071947DFF6B
:103230005DFF5DFF5DFF5DFF5DFF5DFF5DFF5DFFAE
:103240007DFF5DFF3DFF1DFF1CFF3DFF5DFF5DFF3F
:103250005DFF5DFF1DFF1DFF1DFF3DFF5DFF5DFF6E
:103260005DFF7DFF5DFF5DFF5DFF5DFF5DFF7DFF3E
:103270007DFF719400000000000000008218FBE652
:103280007DFF7DFF5DFF5DFF5DFF5DFF5DFF5DFF1E
:103290005DFF5DFF5DFF5DFF5DFF5DFF5DFF5DFF4E
:1032A0005DFF5DFF5DFF5DFF5DFF5DFF5DFF5DFF3E
:1032B0005DFF7DFF5DFF7DFF5DFF5DFF5DFF7DFFCE
:1032C000FBE6A218000000000000000000008A5A7F
:1032D0005DFF7DFF5DFF7DFF5DFF5DFF5DFF5DFFCE
:1032E0005DFF5DFF7DFF5DFF5DFF5DFF5DFF5DFFDE
:1032F0005DFF5DFF5DFF5DFF5DFF5DFF5DFF5DFFEE
:103300007DFF7DFF5DFF5DFF5DFF5DFF7DFF7DFF5D
:103310008A5A0000000000000000000000000000C9
:10332000729C7DFF5DFF7DFF5DFF5DFF5DFF5DFFCB
:103330005DFF5DFF5DFF5DFF5DFF5DFF5DFF5DFFAD
:103340005DFF5DFF5DFF5DFF7DFF5DFF5DFF5DFF7D
:103350007DFF5DFF5DFF5DFF7DFF7DFF7DFF719C5C
:10336000000000000000000000000000000000005D
:10337000000855B57DFF5DFF5DFF5DFF5DFF5DFFF3
:103380005DFF5DFF5DFF5DFF5DFF5DFF5DFF5DFF5D
:103390005DFF5DFF5DFF5DFF5DFF5DFF5DFF5DFF4D
:1033A0005DFF5DFF5DFF5DFF7DFF7DFF55B50008A3
:1033B000000000000000000000000000000000000D
:1033C0000000400855B57DFF7DFF7DFF5DFF5DFF7F
:1033D0007DFF7DFF5DFF5DFF5DFF5DFF5DFF5DFFCD
:1033E0005DFF5DFF5DFF5DFF7DFF5DFF5DFF5DFFDD
:1033F0005DFF5DFF7DFF7DFF7DFF55B5400800004F
:1034000000000000000000000000000000000000BC
:1034100000000000000871945DFF7DFF7DFF5DFFEF
:103420007DFF7DFF5DFF5DFF5DFF7DFF5DFF5DFF5C
:103430005DFF5DFF7DFF5DFF5DFF5DFF5DFF5DFF8C
:103440005DFF7DFF7DFF7DFF719C00080000000097
:10345000000000000000000000000000000000006C
:1034600000000000000000008A5AFBE67DFF7DFF9F
:103470005DFF5DFF5DFF5DFF5DFF5DFF5DFF5DFF6C
:103480005DFF5DFF5DFF5DFF5DFF5DFF5DFF5DFF5C
:103490007EFF5DFFFBE68A5A00000000000000008E
:1034A000000000000000000000000000000000001C
:1034B00000000000000000000000821871943CF73A
:1034C0007DFF7DFF7DFF7DFF5DFF5DFF5DFF5DFF9C
:1034D0005DFF5DFF5DFF5DFF5DFF7DFF7DFF7DFFAC
:1034E0003DF7719CA21800000000000000000000E1
:1034F00000000000000000000000000000000000CC
:103500000000000000000000000000000000E320B8
:10351000F08BBAE67DFF7DFF7DFF7DFF5DFF5DFFE8
:103520005DFF5DFF5DFF7DFF7DFF7DFFBAE6108CD7
:10353000E320000000000000000000000000000088
:10354000000000000000000000000000000000007B
:10355000000000000000000000000000000000006B
:1035600000000008A6398E7B14B538D6DBEE5DFF6F
:103570005DFFDBEE38D614AD8E83A639000800005F
:10358000000000000000000000000000000000003B
:103590000000000000000000B83500080000002016
:1035A000340000006C010008EC35000834000020F5
:1035B0003C0700008801000800A24A040000000047
:1035C00000000000010203040607080900000000D3
:1035D00000000000000000000000010203040102DE
:0C35E000030406070809020406080000A6
:04000005080001CD21
:00000001FF
