:020000040800F2
:1000000040080020D1010008E90E0008C5080008DA
:10001000E50E00089D030008C71600080000000058
:100020000000000000000000000000009B1100081C
:10003000A103000800000000710F0008B9130008B8
:10004000EB010008EB010008EB010008EB010008E0
:10005000EB010008EB010008EB010008EB010008D0
:10006000EB010008EB010008EB010008EB010008C0
:10007000EB010008EB010008EB010008EB010008B0
:10008000EB010008EB010008EB010008EB010008A0
:10009000EB010008EB010008EB010008EB01000890
:1000A000EB010008EB010008EB010008EB01000880
:1000B000EB010008EB010008EB010008EB01000870
:1000C000EB010008EB010008EB010008EB01000860
:1000D000EB0100081D140008A5140008EB0100083E
:1000E000EB010008EB010008EB010008EB01000840
:1000F000EB010008EB010008EB010008EB01000830
:10010000EB010008EB010008EB010008EB0100081F
:10011000EB010008EB010008EB010008EB0100080F
:10012000EB010008EB010008EB010008EB010008FF
:1001300000F002F800F03CF80AA090E8000C8244BD
:100140008344AAF10107DA4501D100F031F8AFF29A
:10015000090EBAE80F0013F0010F18BFFB1A43F0A5
:10016000010318473029000050290000103A24BF2D
:1001700078C878C1FAD8520724BF30C830C144BF0C
:1001800004680C607047000000230024002500264E
:10019000103A28BF78C1FBD8520728BF30C148BFEA
:1001A0000B607047002070471FB51FBD10B510BD14
:1001B00000F0C6F81146FFF7F7FF01F0DFFA00F094
:1001C000E4F803B4FFF7F2FF03BC01F07EFA00008D
:1001D0000948804709480047FEE7FEE7FEE7FEE7DB
:1001E000FEE7FEE7FEE7FEE7FEE7FEE70448054917
:1001F000054A064B70470000BD1300083101000896
:10020000400200204008002040040020400400205C
:10021000704700000FB4044910B503AA029800F01B
:100220005DF810BC5DF814FB200000202DE9F041C2
:100230000E460446002020622046E168884730B31D
:10024000252805D0D4E901219047206A401CF2E717
:10025000E168204600278847050018D0A5F1410035
:10026000192802D820354FF4006732462946204627
:100270002760FFF797FF40B1012804D0F61D26F054
:1002800007060836D8E7361DD6E72846DAE7206A9B
:10029000BDE8F08110B5431C02E010F8011B71B1FC
:1002A0008107FAD14FF0013202C88C1A8C4314EA4C
:1002B000C211F9D0C01A0A0603D0C01E10BDC01A60
:1002C00010BD0A0401D0801E10BD0902FCD0401EE2
:1002D00010BD70477047704770470000074B70B5FE
:1002E0000D467B4400F011F80446284600F020F843
:1002F00010B14FF0FF3070BD204670BD7B14000080
:1003000001694A1C02610878704700B58FB0CDE9D9
:1003100001310021059105497944CDE903101146C9
:100320006846FFF783FF0FB000BD0000E5FFFFFF49
:10033000007B00F08000704700487047DC0100201F
:100340007546FFF7F9FFAE4605006946534620F0B3
:100350000700854618B020B5FFF748FFBDE82040EC
:100360004FF000064FF000074FF000084FF0000B71
:1003700021F00701AC46ACE8C009ACE8C009ACE824
:10038000C009ACE8C0098D46704710B50446AFF30C
:1003900000802046BDE81040FFF713BF00BFFEE716
:1003A000704700003EB50446002000F08DFA1F2083
:1003B00000901A4802881E230021084600F0C2FA65
:1003C0001F2000901548438802884088143881B265
:1003D000002000F0B7FA4FF6FF70114908800120A5
:1003E000182110A21F23CDE9002102904FF6FF72C1
:1003F0000146002000F046FA012010210CA2CDE9B0
:100400000021029005484088123881B21F234FF620
:10041000FF72002000F036FA3EBD00003C000020D4
:1004200014000020BAC3BAC3D1A7CFB000000000A7
:10043000B1BEC9E8B1B8CAB9D3C3B4A5C3FEC6C179
:10044000000000002DE9F0410246002500260020B2
:1004500000230024002791F803C00CF00F0591F849
:1004600003C00CF0100CBCF1000F03D091F802C0D7
:100470004CEA050591F800C0BCF1000F31D01468BA
:1004800000202BE04FF0010C0CFA00F3B1F800C093
:100490000CEA03069E4220D183004FF00F0C0CFAA9
:1004A00003F7BC4305FA03FC4CEA040491F803C0CB
:1004B000BCF1280F06D14FF0010C0CFA00FCC2F879
:1004C00014C00AE091F803C0BCF1480F05D14FF009
:1004D000010C0CFA00FCC2F810C0401C0828D1D353
:1004E0001460B1F800C0BCF1FF0F34DD5468002087
:1004F0002EE000F1080C4FF0010808FA0CF3B1F8F7
:1005000000C00CEA03069E4221D183004FF00F0C7D
:100510000CFA03F7BC4305FA03FC4CEA040491F817
:1005200003C0BCF1280F05D100F1080C08FA0CF843
:10053000C2F8148091F803C0BCF1480F07D100F154
:10054000080C4FF0010808FA0CF8C2F81080401CA3
:100550000828CED35460BDE8F08100002DE9FC5F8F
:100560000546884691469A46DDF830B00095112040
:10057000019000245FE004EB0410374911F81000EB
:100580009BF80010884253D104EB0410324901EB70
:10059000400040789BF80110884249D108F10F00D3
:1005A00083B205F10F0082B24146284600F03AFBC3
:1005B00000263BE0002734E00D9890B904EB0410CE
:1005C000254901EB4000801C805D802139410840B5
:1005D00018B1484600F06AFC21E0504600F066FC85
:1005E0001DE01E48A0F8009004EB04101A4901EB2E
:1005F0004000801C805D80213941084018B141468F
:10060000284600F091F9681C85B20098281A102835
:1006100005D1009D08F101001FFA80F803E0781C65
:10062000C7B2082FC8DB00BF701CC6B2202EC1DBCA
:1006300000BF601C84B2019884429CDB084840885B
:10064000401E83B206480088401E82B20021084640
:1006500000F0E8FABDE8FC9FE42300081400002045
:100660003C0000202DE9FC5F0546884691469A46ED
:10067000DDF830B0009503200190002467E004EB22
:10068000840000EB44103A4911F810009BF8001068
:10069000884259D104EB840000EB4410344901EB4B
:1006A000400040789BF8011088424DD108F11700B6
:1006B00083B205F1170082B24146284600F0B2FA33
:1006C00000263FE0002738E00D98A0B904EB840035
:1006D00000EB4410264901EB4000801C805D802126
:1006E0003941084018B1484600F0E0FB23E050468D
:1006F00000F0DCFB1FE01F48A0F8009004EB840032
:1007000000EB44101A4901EB4000801C805D802101
:100710003941084018B14146284600F005F9681CE7
:1007200085B20098281A182805D1009D08F101000B
:100730001FFA80F803E0781CC7B2082FC4DB00BFA3
:10074000701CC6B2482EBDDB00BF601C84B201988D
:10075000844294DB08484088401E83B206480088E3
:10076000401E82B20021084600F05CFABDE8FC9F02
:1007700026260008140000203C0000202DE9FC5F24
:100780000546884691469A46DDF830B00095072028
:10079000019000245FE004EB8410374911F8100049
:1007A0009BF80010884253D104EB8410324901EBCE
:1007B000400040789BF80110884249D108F11F00A1
:1007C00083B205F11F0082B24146284600F02AFAA2
:1007D00000263BE0002734E00D9890B904EB84102C
:1007E000254901EB4000801C805D80213941084093
:1007F00018B1484600F05AFB21E0504600F056FB85
:100800001DE01E48A0F8009004EB84101A4901EB8B
:100810004000801C805D80213941084018B141466C
:10082000284600F081F8681C85B20098281A202814
:1008300005D1009D08F101001FFA80F803E0781C43
:10084000C7B2082FC8DB00BF701CC6B2802EC1DB48
:1008500000BF601C84B2019884429CDB0848408839
:10086000401E83B206480088401E82B2002108461E
:1008700000F0D8F9BDE8FC9F042700081400002010
:100880003C0000202DE9FE4F0E4617469846DDE954
:100890000D9A0C9C2046FFF7FDFC85B2084909889B
:1008A000A1EBC50000EBD071C1F34F0B43463A46B4
:1008B000314658468DE8100600F0E4FCBDE8FE8F96
:1008C0003C00002000BFFEE770B506461448408893
:1008D000401E83B212480088401E82B200210846A2
:1008E00000F0A0F94FF400600E4908604010091FA5
:1008F000086000240AE0002503E0304600F0D6FA44
:100900006D1C07480088A842F7D8641C044840883A
:10091000A042F0D84FF400600249091F086070BD82
:100920003C000020140C014070B504460D462946D9
:10093000204600F06DF90248008800F0B7FA70BD5B
:10094000140000202DE9F05F04460D4616461F46B0
:10095000301B401C1FFA80FA781B401C1FFA80FBDA
:100960003B4632462946204600F05CF94FF000082D
:100970000FE04FF0000906E00A9800F097FA09F13D
:1009800001001FFA80F9D145F6DB08F101001FFADA
:1009900080F8D845EDDB07484088401E83B2054803
:1009A0000088401E82B20021084600F03BF9BDE8F5
:1009B000F09F00003C00002008B50121082000F055
:1009C000E9FA4FF4F050ADF8000003208DF8020072
:1009D00010208DF8030069460148FFF733FD08BD7C
:1009E000000C014010B500F04FFBFFF7E5FF00F0F1
:1009F000FBF8F02000F0ECF9C32000F0D1F9F02072
:100A000000F0E6F9962000F0CBF9362000F0E0F98E
:100A1000682000F0C5F93A2000F0DAF9052000F06E
:100A2000BFF9B02000F0D4F9802000F0B9F9B62069
:100A300000F0CEF9002000F0B3F9022000F0B0F988
:100A4000B52000F0C5F9022000F0AAF9032000F05B
:100A5000A7F9002000F0A4F9042000F0A1F9B120CA
:100A600000F0B6F9802000F09BF9102000F098F912
:100A7000B42000F0ADF9002000F092F9B72000F0AA
:100A8000A7F9C62000F08CF9C52000F0A1F92420B8
:100A900000F086F9E42000F09BF9312000F080F9A5
:100AA000E82000F095F9402000F07AF98A2000F063
:100AB00077F9002000F074F9002000F071F9292086
:100AC00000F06EF9192000F06BF9A52000F068F92C
:100AD000332000F065F9C22000F07AF9A72000F079
:100AE00077F9E02000F074F9F02000F059F90920BE
:100AF00000F056F9132000F053F9122000F050F9DD
:100B0000122000F04DF92B2000F04AF93C2000F0B3
:100B100047F9442000F044F94B2000F041F91B2034
:100B200000F03EF9182000F03BF9172000F038F9EA
:100B30001D2000F035F9212000F032F9E12000F00D
:100B400047F9F02000F02CF9092000F029F91320D2
:100B500000F026F90C2000F023F90D2000F020F918
:100B6000272000F01DF93B2000F01AF9442000F086
:100B700017F94D2000F014F90B2000F011F917209F
:100B800000F00EF9172000F00BF91D2000F008F915
:100B9000212000F005F9362000F01AF9EC2000F0D1
:100BA000FFF8F02000F014F9C32000F0F9F8F0206D
:100BB00000F00EF9692000F0F3F8132000F008F9B6
:100BC000112000F005F9292000F002F9002000F0C2
:100BD00027F90120034908604FF6FF70FFF774FE04
:100BE00010BD0000A481214210B54FF48050074988
:100BF0000860642000F08EFD4FF480500349091F07
:100C00000860322000F086FD10BD0000140C014089
:100C100070B504460D462B4622462946204600F074
:100C200001F870BD2DE9F04104460D4616461F46F9
:100C30001149887A00F0CCF8201200F0B1F8E0B247
:100C400000F0AEF8301200F0ABF8F0B200F0A8F807
:100C50000949087B00F0BCF8281200F0A1F8E8B2BE
:100C600000F09EF8381200F09BF8F8B200F098F807
:100C700000F0C4F8BDE8F0813C0000202DE9FF4FF2
:100C800083B081468A469346DDE910644048008877
:100C90000290A6F12000C6B204EBD47009EB60000C
:100CA000401E82B20AEB0400401E83B25146484601
:100CB0000194FFF7B7FF129850BB002525E00C2CDC
:100CC00007D106EB4600334901EB800010F80580A0
:100CD00004E0314800EB061010F8058000270DE015
:100CE00008F0010018B1584600F0E0F802E006985C
:100CF00000F0DCF84FEA6808781CC7B204EBD47146
:100D0000B7EB610FECDB681CC5B2A542D7DB2DE069
:100D1000002529E00C2C07D106EB46001D4901EB0C
:100D2000800010F8058004E01B4800EB061010F866
:100D30000580002711E01648A0F800B008F0010077
:100D400038B10AEB050291B209EB070290B2FFF746
:100D5000EBFD4FEA6808781CC7B204EBD471B7EB1F
:100D6000610FE8DB681CC5B2A542D3DB08490298D5
:100D700008800A484088401E83B208480088401E08
:100D800082B200210846FFF74DFF07B0BDE8F08FA3
:100D90001400002080190008F41D00083C00002009
:100DA00010B504464FF40060074908604010091F61
:100DB00008602146054800F0DFF94FF40060024961
:100DC000091F086010BD0000140C014000380040ED
:100DD00010B504464FF400600649086040100860F2
:100DE0002146054800F0C8F94FF400600149091F89
:100DF000086010BD140C01400038004010B50249D5
:100E0000087AFFF7E5FF10BD3C00002070B50546ED
:100E10000C462846FFF7DCFFE0B2FFF7C1FF70BDCC
:100E200010B504462A20204948812B2088812C2097
:100E3000088134B1012C10D0022C1AD0032C30D1EF
:100E400023E04FF4A070184908804FF4F0704880F8
:100E500048213620FFF7DAFF24E04FF4F070124902
:100E600008804FF4A070488028213620FFF7CEFF7D
:100E700018E04FF4A0700C4908804FF4F0704880DF
:100E800088213620FFF7C2FF0CE04FF4F0700649CE
:100E900008804FF4A0704880E8213620FFF7B6FFA5
:100EA00000E000BF00BF10BD3C00002010B50446AC
:100EB0004FF40060094908604010091F08602112C2
:100EC000074800F059F9E1B2054800F055F94FF430
:100ED00000600249091F086010BD0000140C0140A9
:100EE0000038004000BFFEE77047000070B50021E9
:100EF00000230F22C47804B3154C246804F4E06482
:100F0000C4F5E064210AC1F10403CA40447804FA3C
:100F100003F184781440214309010E4C0678A15551
:100F2000047804F01F050124AC4005786D11AD0074
:100F300005F1E025C5F8004109E0047804F01F053B
:100F40000124AC40044D0678761145F8264070BD6A
:100F50000CED00E000E400E080E100E00249014324
:100F6000024A1160704700000000FA050CED00E035
:100F70007047000029B1064AD2690243044BDA6186
:100F800004E0034AD2698243014BDA6170470000F2
:100F90000010024029B1064A92690243044B9A614B
:100FA00004E0034A92698243014B9A617047000052
:100FB0000010024030B500210022002400232D4DF6
:100FC0006D6805F00C0121B1042905D0082923D151
:100FD00005E0294D056022E0274D05601FE0254D05
:100FE0006D6805F47012234D6D6805F48034022598
:100FF00005EB92421CB9214D554305600BE01D4D98
:101000006D6805F400351DB11C4D5543056002E0C7
:10101000194D5543056002E0174D056000BF00BF44
:10102000144D6D6805F0F0010909154D6B5C0568FC
:10103000DD4045600F4D6D6805F4E061090A104D13
:101040006B5C4568DD4085600A4D6D6805F4605154
:10105000C90A0B4D6B5C4568DD40C560054D6D6888
:1010600005F44041890B074D6B5CC568B5FBF3F592
:10107000056130BD0010024000127A0000093D00F9
:10108000280000203800002000B587B00121092089
:10109000FFF780FF4FF42040ADF8040003208DF8E7
:1010A000060018208DF8070001A91C48FFF7CAF9AF
:1010B0004FF48040ADF8040048208DF8070003206D
:1010C0008DF8060001A91548FFF7BCF90121880336
:1010D000FFF750FF0020ADF808004FF48270ADF824
:1010E0000A000020ADF80C00ADF80E00ADF81000BD
:1010F0004FF40070ADF812000020ADF81400ADF808
:1011000016000720ADF8180002A9054800F016F8EF
:101110000121034800F006F807B000BD000C0140B3
:101120000038004021B1028842F04002028004E011
:1011300002884FF6BF731A400280704710B5002234
:10114000028802F441520B884C8823438C88234345
:10115000CC8823430C8923434C8923438C89234324
:10116000CC8923431A430280838B4FF2FF742340C0
:1011700083830B8A038210BD024600BF108900F0F2
:1011800002000028FAD0918100BF108900F0010010
:101190000028FAD09089C0B27047704710B500F0AF
:1011A00001F810BD0CB50020019000903348006894
:1011B00040F480303149086000BF3048006800F4D6
:1011C000003000900198401C0190009818B90198D7
:1011D000B0F5A06FF1D12948006800F4003010B1DB
:1011E0000120009001E0002000900098012843D1E8
:1011F0002348006840F01000214908600846006854
:1012000020F0030008600846006840F00200086013
:101210001A484068194948600846406848600846CE
:10122000406840F4806048600846406820F47C10C4
:1012300048600846406840F4E81048600846006886
:1012400040F08070086000BF0C48006800F000703B
:101250000028F9D00948406820F003000749486099
:101260000846406840F00200486000BF03484068FC
:1012700000F00C000828F9D10CBD0000001002405D
:10128000002002402DE9FF4F83B006468846914674
:10129000DDE91147109DB2464FF0000B71E0BBF144
:1012A000000F40D104EBD471384A1288A2EB6101DF
:1012B000B14204DB35494988091B414502DA07B0D0
:1012C000BDE8F08F2878802802DD4FF0010B58E050
:1012D00028780D2806D108EB04001FFA80F856463E
:1012E0006D1C1EE0102C0DDD102128788DE8830088
:1012F0004A4641463046069BFFF7C0FC06F108000F
:1013000086B20EE028788DE891004A464146304684
:10131000069BFFF7B3FC204604EBD07106EB61019E
:101320008EB26D1C2DE019480088001BB04204DB12
:1013300016484088001B404500DAC0E74FF0000B1C
:10134000202C08D1CDE900574A4641463046069B3D
:10135000FFF714FA12E0182C08D1CDE900574A46DD
:1013600041463046069BFFF77DF907E0CDE900577F
:101370004A4641463046069BFFF7F0F8AD1C30194F
:1013800086B2287800288AD100BF98E73C00002068
:10139000042808D14FF0E021096941F004014FF021
:1013A000E022116107E04FF0E021096921F004011A
:1013B0004FF0E022116170477047000010B51348EC
:1013C000006840F001001149086008464068104973
:1013D00008400E494860084600680E4908400B491D
:1013E00008600846006820F48020086008464068CD
:1013F00020F4FE0048604FF41F008860FFF7CEFE27
:101400004FF000600449086010BD00000010024069
:101410000000FFF8FFFFF6FE08ED00E010B540F217
:1014200025511D4800F08EF810B31B4800F046F916
:10143000C4B21A48008800F40040C8B917480088B0
:1014400000F4804060B10A2C03D0002013490880CA
:1014500020E01248008840F400401049088019E05C
:101460000D2C06D10D48008840F480400B490880BF
:1014700010E00A480088C0F30D0009490C540748E1
:101480000088401C0549088008460088C72801DDFF
:101490000020088010BD000000380140240000201A
:1014A0004A00002010B540F225511D4800F04AF8CE
:1014B00010B31B4800F002F9C4B21A48008800F4C7
:1014C0000040C8B91748008800F4804060B10A2C79
:1014D00003D000201349088020E01248008840F41F
:1014E00000401049088019E00D2C06D10D480088F5
:1014F00040F480400B49088010E00A480088C0F39F
:101500000D0009490C5407480088401C0549088013
:1015100008460088C72801DD0020088010BD0000B3
:1015200000440040260000201201002021B18289E1
:1015300042F40052828104E082894DF6FF731A4022
:101540008281704770B502460024002300250020E8
:1015500040F66A16B14200D100BFC1F3421501F056
:101560001F03012606FA03F3012D02D196893340A9
:1015700006E0022D02D1168A334001E0968A3340FC
:101580000C12012606FA04F41688344013B10CB18B
:10159000012000E0002070BDF0B5034600240026C5
:1015A0000025002040F66A17B94200D100BF184656
:1015B000C1F3421401F01F06012707FA06F5012CBA
:1015C00001D10C3004E0022C01D1103000E01430C5
:1015D0001AB107682F43076002E00768AF4307604E
:1015E000F0BD00002DE9F04786B005460E46002408
:1015F000A24600BFA1460027B08900B100BF2F4618
:101600002C8A4CF6FF700440F08804432C82AC898D
:101610004EF6F3100440B0883189084371890843BD
:101620000443AC81AC8A4FF6FF400440B0890443C8
:10163000AC8201A8FFF7BEFC1F48874202D1DDF84B
:1016400010A001E0DDF80CA0A88900F4004040B132
:101650000AEBCA0000EB0A1031684900B0FBF1F850
:1016600007E00AEBCA0000EB0A1031688900B0FB02
:10167000F1F86420B8FBF0F004012009642101FBBB
:101680001089A88900F4004040B1322000EBC90065
:10169000B0FBF1F000F00700044308E0322000EB5B
:1016A00009106421B0FBF1F000F00F0004432C811D
:1016B00006B0BDE8F0870000003801400146888888
:1016C000C0F30800704700BFFEE700BF704700008E
:1016D00010B56FF00400FFF75BFE0A4800680A4986
:1016E000B0FBF1F0094908700846007800EB4001B2
:1016F000C1EBC0104FF6FF7101EAC0000449088039
:1017000010BD00000000002000127A001A00002026
:101710001C0000200146114A12884A434FF0E02382
:101720005A6100229A611A46126942F001021A6156
:1017300000BF4FF0E022106900F001021AB100F47E
:101740008032002AF5D04FF0E022126922F0010227
:101750004FF0E0231A6100229A6170471C000020BC
:1017600000BF054A128802F04002002AF9D0C2B236
:10177000014B1B1D1A807047003801400EB5FFF762
<<<<<<< HEAD
:101780001DFE4FF4A060FFF7E9FB4FF4165000F088
:1017900055F84FF4165000F0A3F8FFF799FFFFF744
=======
:101780001DFE4FF4A060FFF7E9FB4FF4164000F098
:1017900055F84FF4164000F0A3F8FFF799FFFFF754
>>>>>>> e8b95b0088448286ec768b82a60064d0bf377976
:1017A00021F91CA0FEF7FEFD32E01B48008800F482
:1017B000004000282CD01848057818A0FEF72AFD14
:1017C00000240DE01848005D1849088000BF174844
:1017D000001F008800F040000028F8D0601CC4B250
:1017E000AC42EFDB12A0FEF715FD002020210E4ACF
:1017F0004FF47843CDE9002102904FF6FF72C821E3
:101800006420FFF73FFD00200B4908800249088053
:10181000CBE7000000000000260000206D65737318
:101820006167653A0D0A000012010020043801408A
:101830000D0A0D0A000000002400002010B586B03B
:101840000446012144F20500FFF7A4FB4FF40070A9
:10185000ADF8140003208DF8160018208DF817003D
:1018600005A91D48FEF7EEFD4FF48060ADF81400A9
:1018700004208DF8170005A91748FEF7E3FD252081
:101880008DF8000001208DF8010000208DF8020085
:1018900001208DF803006846FFF728FB0194002023
:1018A000ADF80800ADF80A00ADF80C00ADF8100076
:1018B0000C20ADF80E0001A90848FFF793FE0122A5
:1018C00040F225510548FFF767FE01210348FFF765
:1018D0002DFE06B010BD0000000801400038014098
:1018E00010B586B0044601214804FFF743FB0121EF
:1018F0000520FFF74FFB0420ADF8140003208DF8FE
:10190000160018208DF8170005A91B48FEF79AFD50
:101910000820ADF8140004208DF8170005A916481A
:10192000FEF790FD26208DF8000001208DF80100C3
:101930008DF802008DF803006846FFF7D7FA01948E
:101940000020ADF80800ADF80A00ADF80C00ADF8C5
:1019500010000C20ADF80E0001A90848FFF742FE68
:10196000012240F225510548FFF716FE01210348E8
:10197000FFF7DCFD06B010BD000801400044004048
:10198000000000000000000000000000000004044F
:10199000040404040004000000140A0A000000000B
:1019A00000000000000014143F140A3F0A0A00005F
:1019B00000041E1505060C14150F04000000121576
:1019C0000D0A142C2A1200000000040A0A1E151524
:1019D00009360000000202010000000000000000C3
:1019E0000020100808080808081020000002040859
:1019F000080808080804020000000004150E0E156F
:101A00000400000000000404041F0404040000009B
:101A100000000000000000000002020100000000C1
:101A2000001F000000000000000000000000000097
:101A3000000200000010080808040402020201006D
:101A400000000E1111111111110E0000000004060A
:101A500004040404040E000000000E111108040226
:101A6000011F000000000E11100C1010110E0000DC
:101A70000000080C0A0A091E0818000000001F01D7
:101A8000010F1010110E000000000E09010F1111BE
:101A9000110E000000001F090804040404040000E3
:101AA00000000E11110E1111110E000000000E1198
:101AB00011111E10120E00000000000004000000B2
:101AC0000004000000000000000400000004040006
:101AD000002010080402040810200000000000008C
:101AE0001F00001F00000000000204081020100862
:101AF0000402000000000E1111080404000400009C
:101B000000000E111915151D011E0000000004042F
:101B10000C0A0A1E1233000000000F12120E1212DD
:101B2000120F000000001E1101010101110E000042
:101B300000000F1212121212120F000000001F12EA
:101B40000A0E0A02121F000000001F120A0E0A02EB
:101B50000207000000001C1201013911120C0000E4
:101B600000003312121E12121233000000001F0474
:101B700004040404041F000000003E0808080808CC
:101B800008090700000037120A060A0A1237000087
:101B90000000070202020202223F000000001B1B9D
:101BA0001B1B15151515000000003B1216161A1AFE
:101BB0001217000000000E1111111111110E00007A
:101BC00000000F12120E02020207000000000E11A8
:101BD00011111117190E180000000F12120E0A121F
:101BE0001237000000001E1101060810110F00003E
:101BF00000001F1504040404040E0000000033124A
:101C000012121212120C000000003312120A0A0CF7
:101C10000404000000001515150E0A0A0A0A000047
:101C200000001B0A0A04040A0A1B000000001B0A29
:101C30000A040404040E000000001F090804040242
:101C4000121F0000001C04040404040404041C000B
:101C5000000202020404080808100000000E080830
:101C60000808080808080E0000040A000000000028
:101C70000000000000000000000000000000003F25
:101C80000004000000000000000000000000000050
:101C9000000C121C123C000000000302020E121283
:101CA000120E000000000000001C1202021C0000C6
:101CB00000001810101C1212123C0000000000005E
:101CC000000C121E021C000000003804041E040454
:101CD000041E000000000000003C120C021E221C2A
:101CE00000000302020E121212370000000004006E
:101CF00000060404040E000000000800000C0808A0
:101D00000808080700000302023A0A0E1237000012
:101D10000000070404040404041F00000000000085
:101D2000000F15151515000000000000000F12121D
:101D30001237000000000000000C1212120C00000C
:101D400000000000000F1212120E02070000000037
:101D5000001C1212121C103800000000001B0602AA
:101D60000207000000000000001E020C101E000010
:101D700000000004040E0404041800000000000029
:101D8000001B1212123C0000000000000037120A73
:101D90000C040000000000000015150E0A0A0000E7
:101DA00000000000001B0A040A1B000000000000E5
:101DB0000037120A0C04040300000000001E08048F
:101DC000041E000000180808080408080808180085
:101DD0000808080808080808080808080006040495
:101DE0000408040404040600022518000000000092
:101DF00000000000000000000000000000000000E3
:101E0000000000000000000808080808080800009A
:101E10001818000000486C241200000000000000A8
:101E2000000000000000002424247F1212127F1200
:101E3000121200000000081C2A2A0A0C1828282A5E
:101E40002A1C080800000022251515152A5854548C
:101E5000542200000000000C1212120A76252911EB
:101E6000916E000000060604030000000000000060
:101E700000000000004020101008080808080810A2
:101E80001020400000020408081010101010100864
:101E9000080402000000000008086B1C1C6B080806
:101EA0000000000000000000080808087F0808087B
:101EB000080000000000000000000000000000001A
:101EC000060604030000000000000000FE00000001
:101ED0000000000000000000000000000000000002
:101EE0000606000000008040402020101008080472
:101EF00004020200000000182442424242424242D0
:101F000024180000000000080E0808080808080847
:101F1000083E00000000003C42424220201008041D
:101F2000427E00000000003C424220182040404217
:101F3000221C0000000000203028242422227E20C1
:101F4000207800000000007E0202021A2640404273
:101F5000221C0000000000382402021A26424242DD
:101F6000241800000000007E222210100808080833
:101F7000080800000000003C42424224182442426B
:101F8000423C000000000018244242426458404095
:101F9000241C0000000000000000181800000000D1
:101FA00018180000000000000000000800000000F9
:101FB0000008080400000040201008040204081073
:101FC000204000000000000000007F0000007F00B3
:101FD000000000000000000204081020402010084B
:101FE000040200000000003C424246402010100065
:101FF000181800000000001C225A555555552D4256
:10200000221C00000000000808181414243C22427E
:1020100042E700000000001F2222221E224242420C
:10202000221F00000000007C424201010101014228
:10203000221C00000000001F224242424242424253
:10204000221F00000000003F4212121E1212024224
:10205000423F00000000003F4212121E1212020214
:10206000020700000000003C222201010171212230
:10207000221C0000000000E7424242427E424242EF
:1020800042E700000000003E0808080808080808A9
:10209000083E00000000007C1010101010101010FE
:1020A0001010110F0000007722120A0E0A121222DD
:1020B0002277000000000007020202020202020270
:1020C000427F000000000077363636362A2A2A2A58
:1020D0002A6B0000000000E346464A4A5252526210
:1020E000624700000000001C224141414141414142
:1020F000221C00000000003F424242423E02020217
:10210000020700000000001C2241414141414D53A3
:10211000321C60000000003F4242423E1212222266
:1021200042C700000000007C4242020418204042E6
:10213000423E00000000007F49080808080808081F
:10214000081C0000000000E7424242424242424274
:10215000423C0000000000E74242222424141418EC
:10216000080800000000006B4949494955553622CE
:1021700022220000000000E742242418181824241A
:1021800042E7000000000077222214140808080823
:10219000081C00000000007E2120101008040442EA
:1021A000423F0000007808080808080808080808E6
:1021B0000808780000000202040408080810102033
:1021C00020204040001E1010101010101010101091
:1021D00010101E0000384400000000000000000045
:1021E00000000000000000000000000000000000EF
:1021F000000000FF000608000000000000000000D2
:1022000000000000000000000000003C4278444252
:1022100042FC0000000000030202021A2642424271
:10222000261A0000000000000000003844020202EC
:102230004438000000000060404040784442424280
:1022400064D80000000000000000003C427E020252
:10225000423C0000000000F08808087E08080808DA
:10226000083E0000000000000000007C22221C024A
:102270003C42423C000000030202023A4642424213
:1022800042E700000000000C0C00000E08080808DF
:10229000083E0000000000303000003820202020E0
:1022A0002020221E0000000302020272120A1612EF
:1022B000227700000000000E080808080808080837
:1022C000083E0000000000000000007F9292929201
:1022D00092B70000000000000000003B464242426E
:1022E00042E70000000000000000003C4242424281
:1022F000423C0000000000000000001B2642424259
:10230000221E020700000000000000784442424202
:10231000447840E000000000000000774C04040412
:10232000041F0000000000000000007C42023C404E
:10233000423E0000000000000008083E08080808AF
:1023400008300000000000000000006342424242EA
:1023500062DC000000000000000000E742242414BA
:102360000808000000000000000000EB4949555536
:102370002222000000000000000000762418181837
:10238000246E000000000000000000E74224241436
:1023900018080807000000000000007E221008084E
:1023A000447E000000C0202020202010202020207B
:1023B0002020C0001010101010101010101010105D
:1023C000101010100006080808080810080808086F
:1023D000080806000C32C2000000000000000000E7
:1023E00000000000B1BE01000100010001007FFCFF
:1023F0000380054005400920111021084FE48102A7
:10240000010001000100C9E8000021F011101110C5
:102410000110020EF40013F811081110109014A00E
:10242000184010A003180C06B1B8040004000FF007
:102430001820644003801C70E00E1FF01110111072
:102440001FF0111011101FF01010B4A52020202033
:10245000782049FC91247D24552455247DFC552465
:1024600054207C28542457FE45028C00C3FE1110D2
:10247000111017FC1110FC0013F8120817F81A08B5
:1024800033F8D04017FC10A0111052082406C6C122
:1024900000003FF8200820083FF8241022202FF8E1
:1024A000222022203FFC2220422044208420082099
:1024B000C7EB0040404027FC204003F80040E7FE07
:1024C000200023F8220823F822082BF832082228BB
:1024D0000210D1CF00007FFC024012480A50024097
:1024E0003FFE2000200020002000200020004000AF
:1024F00040008000B8F11080108010F81108FB1027
:1025000014A0304038A05518520695F8110811084B
:10251000110811F81108B0B410401020102013FE5B
:10252000FA02144410401BFE3088D088110810D0E5
:102530001020105050882304D5D500007DFC444461
:102540004444444444947D0844FC44844484448486
:102550007CFC0000488844448444B9E6100011FC27
:1025600011047D04112411241124FF241124115479
:1025700010502890249045128212040EB7B60440E1
:102580000440FFFE0440100009F84908210825080E
:102590000528091071021102110210FE0000B2D9C3
:1025A00023F82208220823F8F80027BC24A42CA42E
:1025B00037BCE0402FFE216022502448B8464040FE
:1025C000D7F709000900090011FE1280328034801B
:1025D00050F890801080108010FC108010801080C7
:1025E0001080CAB9104010401FFE2040204067FCF8
:1025F0006444A44427FC2040224021402080214004
:1026000022302C0ED3C300003FF8210821082108F6
:102610003FF82108210821083FF821082108210856
:10262000410841288010BAC30000000000000600E5
:1026300000060000061FF80400180400207FC040B8
:102640000C40800C408008C08008808408BFFE18C1
:1026500080801080801100800D008003808002C087
:102660008004608018008020078040010000000086
:10267000D1A70000000020400430600218C00318F9
:10268000800118800101001FFFFC10000C100010D9
:1026900037FFC00001800002000004000008087F2E
:1026A000FFFC000800000800000800000800009877
:1026B00000007800001000000000CFB00000000013
:1026C00000000000000000101FFFF00000300000BC
:1026D0003001003000E03000703000303000103049
:1026E000000030000330000C3000303001C0200FFB
:1026F00000201C00200800200007600001E000000E
:10270000C0000000B2DE0000000000000000000079
:1027100000100400003807FFFFFC06000000060060
:10272000002006400038063FE030062063300620D7
:1027300062300620623006266230062762300626A6
:102740006230062662300626623006266230062691
:102750006230062662300626623006264230044683
:102760000230040500300C0CC030080C6030081832
:10277000303010303030106013F0218010F04600FF
:10278000006000000000CBF9000000000000000025
:1027900000040010000E0078007C47E007807800FD
:1027A0000600600006006000060060000600600091
:1027B0000604600007FE6008060C7FFC060C60C083
:1027C000060C60C0060C60C0060C60C0060C60C041
:1027D00007FC40C0060C40C00608C0C00400C0C0D2
:1027E0000C0080C00C0180C00C0100C0080300C0B8
:1027F000180200C0100400C0100800C0201000C063
:102800004020000000000000BFCD000000000000DC
:1028100000000006000000038000000180000000AE
:1028200080100FFFFFF80C00003C18080060181C17
:10283000004010180400003FFE0000700E0000C8A9
:10284000180000843000010260000201C000040191
:10285000C00000073000000C1E00003807F801E03F
:1028600003FC0E7FFF307040030000400300004077
:1028700003000040030000400300007FFF00004011
:1028800003000040020000000000CCFC000000003B
:1028900000000000000000200000007003FFFFF8AF
:1028A000030000000300000003000000030000001C
:1028B0000300001803FFFFFC03003000030030009A
:1028C000030030000300300002003000020030003E
:1028D0000200300006003000060030000600300024
:1028E0000600300006003000040030000C0030000C
:1028F0000C00300008001000180330001000F00039
:10290000200060002000400000000000CED4000045
:1029100000000000000000000400000006000000AD
:1029200084000FFFC40008300400083004000830A1
:1029300004000830040008300400083084000FFF51
:10294000C40008018700080184C0080184700801E0
:10295000843808018418080184080FFF84000831B6
:1029600084000830040008300400083004000830F7
:102970000400083004000830C4001FFFC400080031
:102980000400000004000000040000000000CAD29F
:1029900000000000000000000002000000038000B2
:1029A00000018000000080000400801007FFFFF895
:1029B0000C0000300C0000601C00014003FFFF8091
:1029C00000070000000C080000180600003003009B
:1029D0000040018001FFFFC001FE00C000810080B7
:1029E0000001C000000180000001818003FFFFC0E2
:1029F00000018000000180000001800000018000D3
:102A0000000180183FFFFFFC0000000000000000F4
:102A1000B5C60000000000000000010000000180B9
:102A20000000018000180187FFFC01800600018082
:102A30000600019806000998060009B0060011E09A
:102A400006001180060031800600318006002180DA
:102A500006000180060001800600018006000100DA
:102A6000060001800600036006000330060002181D
:102A7000060002180600040806000C000600080103
:102A80000C001000FC0020003C00000018000000BA
:102A900000000000B42A0008000000203C000000F4
:102AA0006C010008F02A00083C0000200408000027
:102AB0008801000800A24A04000000000000000095
:102AC00001020304060708090000FFFF00000000E0
:102AD00000000000000000000000000000000000F6
:102AE00001020304010203040607080902040608A0
:04000005080001D11D
:00000001FF
