:020000040800F2
:1000000008070020CD01000801050008CB03000807
:10001000FD0400087D020008350C00080000000007
:10002000000000000000000000000000AD08000813
:100030009D0200080000000075050008C1090008C5
:10004000E7010008E7010008E7010008E7010008F0
:10005000E7010008E7010008E7010008E7010008E0
:10006000E7010008E7010008E7010008E7010008D0
:10007000E7010008E7010008E7010008E7010008C0
:10008000E7010008E7010008E7010008E7010008B0
:10009000E7010008E7010008E7010008E7010008A0
:1000A000E7010008E7010008E7010008E701000890
:1000B000E7010008E7010008E7010008E701000880
:1000C000E7010008E7010008E7010008E701000870
:1000D000E7010008250A0008E7010008E701000819
:1000E000E7010008E7010008E7010008E701000850
:1000F000E7010008E7010008E7010008E701000840
:10010000E7010008E7010008E7010008E70100082F
:10011000E7010008E7010008E7010008E70100081F
:10012000E7010008E7010008E7010008E70100080F
:1001300000F002F800F03AF80AA090E8000C8244BF
:100140008344AAF10107DA4501D100F02FF8AFF29C
:10015000090EBAE80F0013F0010F18BFFB1A43F0A5
:10016000010318479C0E0000BC0E0000103A24BF8B
:1001700078C878C1FAD8520724BF30C830C144BF0C
:1001800004680C607047000000230024002500264E
:10019000103A28BF78C1FBD8520728BF30C148BFEA
:1001A0000B6070471FB51FBD10B510BD00F033F8D0
:1001B0001146FFF7F7FF00F0F3FD00F051F803B42C
:1001C000FFF7F2FF03BC00F037FD0000094880474D
:1001D00009480047FEE7FEE7FEE7FEE7FEE7FEE729
:1001E000FEE7FEE7FEE7FEE704480549054A064B41
:1001F00070470000C509000831010008080100200F
:1002000008070020080300200803002070477047FB
:10021000704770477047754600F02CF8AE460500F1
:100220006946534620F00700854618B020B5FFF711
:10023000DBFFBDE820404FF000064FF000074FF015
:1002400000084FF0000B21F00701AC46ACE8C009F4
:10025000ACE8C009ACE8C009ACE8C0098D467047FD
:1002600010B50446AFF300802046BDE81040FFF70C
:10027000A6BF000000487047A800002000BFFEE7AE
:1002800004E0054800780F2800D100E0F9E700BF3E
:1002900000200149087070472400002070472DE9B4
:1002A000F0410246002500260020002300240027FC
:1002B00091F803C00CF00F0591F803C00CF0100C7E
:1002C000BCF1000F03D091F802C04CEA050591F88B
:1002D00000C0BCF1000F31D0146800202BE04FF0BB
:1002E000010C0CFA00F3B1F800C00CEA03069E42C0
:1002F00020D183004FF00F0C0CFA03F7BC4305FA32
:1003000003FC4CEA040491F803C0BCF1280F06D1A9
:100310004FF0010C0CFA00FCC2F814C00AE091F88E
:1003200003C0BCF1480F05D14FF0010C0CFA00FCE2
:10033000C2F810C0401C0828D1D31460B1F800C026
:10034000BCF1FF0F34DD546800202EE000F1080CF2
:100350004FF0010808FA0CF3B1F800C00CEA0306EC
:100360009E4221D183004FF00F0C0CFA03F7BC43DF
:1003700005FA03FC4CEA040491F803C0BCF1280F11
:1003800005D100F1080C08FA0CF8C2F8148091F8B5
:1003900003C0BCF1480F07D100F1080C4FF0010871
:1003A00008FA0CF8C2F81080401C0828CED354601C
:1003B000BDE8F0810246002093680B400BB101209C
:1003C00000E0002070470161704700BFFEE70000B9
:1003D00008B50121442000F0CFF81820ADF8000046
:1003E00048208DF8030069460648FFF758FF0120B2
:1003F000ADF8000028208DF8030069460248FFF799
:100400004EFF08BD001801400008014010B5044629
:1004100014B10120234908702248007858B31021F4
:100420002148FFF7C7FF50B108211F48FFF7C2FF5F
:1004300028B101211D48FFF7BDFF01281BD10A206B
:1004400000F01EFC00201749087010211648FFF725
:10045000B1FF08B9012010BD08211348FFF7AAFF1A
:1004600008B90220F7E701211048FFF7A3FF012890
:1004700015D10320EFE710210B48FFF79BFF012860
:100480000DD108210848FFF795FF012807D1012168
:100490000648FFF78FFF10B90120024908700020BD
:1004A000D9E70000160000200018014000080140B4
:1004B00008B50121482000F05FF82020ADF80000C9
:1004C00010208DF8030003208DF8020069460948CA
:1004D000FFF7E5FE20210748FFF775FF2020ADF864
:1004E000000069460448FFF7DAFE20210248FFF7C2
:1004F0006AFF08BD000C01400018014000BFFEE784
:100500007047000070B5002100230F22C47804B3A7
:10051000154C246804F4E064C4F5E064210AC1F1D8
:100520000403CA40447804FA03F184781440214358
:1005300009010E4C0678A155047804F01F0501242A
:10054000AC4005786D11AD0005F1E025C5F800411E
:1005500009E0047804F01F050124AC40044D06783E
:10056000761145F8264070BD0CED00E000E400E097
:1005700080E100E07047000029B1064A9269024319
:10058000044B9A6104E0034A92698243014B9A61E9
:10059000704700000010024030B500210022002406
:1005A00000232D4D6D6805F00C0121B1042905D003
:1005B000082923D105E0294D056022E0274D05607B
:1005C0001FE0254D6D6805F47012234D6D6805F42C
:1005D0008034022505EB92421CB9214D554305603C
:1005E0000BE01D4D6D6805F400351DB11C4D5543E4
:1005F000056002E0194D5543056002E0174D0560A6
:1006000000BF00BF144D6D6805F0F0010909154DDC
:100610006B5C0568DD4045600F4D6D6805F4E06179
:10062000090A104D6B5C4568DD4085600A4D6D68B8
:1006300005F46051C90A0B4D6B5C4568DD40C5602F
:10064000054D6D6805F44041890B074D6B5CC5682D
:10065000B5FBF3F5056130BD0010024000127A00D1
:1006600000093D00300000204000002008B50121B5
:1006700041F20400FFF780FFE020ADF800001820F1
:100680008DF8030003208DF8020069461248FFF739
:1006900006FEE0211048FFF796FE00200F49088073
:1006A0004FF482704880002088800220C88001209A
:1006B000088140024881382088810020C8810720B5
:1006C0000882074800F0D4F80121054800F046F8F8
:1006D000FF2000F007F808BD00080140440000209A
:1006E0000030014070B50546002405E0601CC4B22E
:1006F000C82C01DD002070BD02210E4800F0AAF8D0
:100700000028F3D029460B4800F0B0F8002405E09B
:10071000601CC4B2C82C01DD0020ECE701210548B3
:1007200000F098F80028F3D0024800F09CF8C0B21E
:10073000E1E700000030014010B50446054884811F
:100740000146054800F094F80121034800F006F83E
:1007500010BD0000440000200030014021B102889B
:1007600042F04002028004E002884FF6BF731A4054
:100770000280704708B501210420FFF7FDFE142018
:10078000ADF8000010208DF8030003208DF8020062
:1007900069460848FFF783FD04210648FFF713FE6A
:1007A000FFF764FF0820FFF7C7FF00F02FF80249AA
:1007B000088008BD00080140140000202DE9F04128
:1007C00006460C46174600200F4908600320FFF735
:1007D00089FFC4F30740FFF785FFC4F30720FFF745
:1007E00081FFE0B2FFF77EFF002505E0FF20FFF765
:1007F00079FF7055681C85B2BD42F7DB01200249C4
:100800000860BDE8F08100009001214210B500248D
:1008100000200E4908609020FFF764FF0020FFF7DA
:1008200061FF0020FFF75EFF0020FFF75BFFFF2066
:10083000FFF758FF44EA0024FF20FFF753FF04436B
:1008400001200349C1F89001204610BD90012142CA
:10085000000021420246002013890B400BB1012009
:1008600000E0002070470146888970478181704709
:1008700010B50022028802F441520B884C882343B1
:100880008C882343CC8823430C8923434C892343FE
:100890008C892343CC8923431A430280838B4FF2F4
:1008A000FF74234083830B8A038210BD704710B509
:1008B00000F002F810BD00000CB50020019000907F
:1008C0003348006840F480303149086000BF304848
:1008D000006800F4003000900198401C01900098DE
:1008E00018B90198B0F5A06FF1D12948006800F45B
:1008F000003010B10120009001E00020009000982D
:10090000012843D12348006840F0100021490860C5
:100910000846006820F0030008600846006840F0C0
:10092000020008601A484068194948600846406853
:1009300048600846406840F4806048600846406867
:1009400020F47C1048600846406840F4E810486095
:100950000846006840F08070086000BF0C480068DE
:1009600000F000700028F9D00948406820F003002A
:10097000074948600846406840F00200486000BFF0
:100980000348406800F00C000828F9D10CBD0000B5
:100990000010024000200240042808D14FF0E0215E
:1009A000096941F004014FF0E022116107E04FF0C6
:1009B000E021096921F004014FF0E0221161704744
:1009C0007047000010B51348006840F0010011495D
:1009D000086008464068104908400E4948600846CB
:1009E00000680E4908400B4908600846006820F47A
:1009F000802008600846406820F4FE0048604FF4FC
:100A00001F008860FFF753FF4FF000600449086043
:100A100010BD0000001002400000FFF8FFFFF6FECE
:100A200008ED00E010B5012440F22551054800F022
:100A300024F830B1034800F0DBF8C4B2204600F0DF
:100A400045F910BD0038014021B1828942F40052BD
:100A5000828104E082894DF6FF731A4082817047DB
:100A600002460020B1F5007F00D100BF13880B4083
:100A70000BB1012000E00020704770B50246002451
:100A800000230025002040F66A16B14200D100BFC5
:100A9000C1F3421501F01F03012606FA03F3012DED
:100AA00002D19689334006E0022D02D1168A3340E6
:100AB00001E0968A33400C12012606FA04F41688E7
:100AC000344013B10CB1012000E0002070BDF0B53E
:100AD0000346002400260025002040F66A17B9428C
:100AE00000D100BF1846C1F3421401F01F060127D0
:100AF00007FA06F5012C01D10C3004E0022C01D1DB
:100B0000103000E014301AB107682F43076002E08C
:100B10000768AF430760F0BD2DE9F04786B0054692
:100B20000E460024A24600BFA1460027B08900B1AE
:100B300000BF2F462C8A4CF6FF700440F088044317
:100B40002C82AC894EF6F3100440B08831890843FA
:100B5000718908430443AC81AC8A4FF6FF400440DE
:100B6000B0890443AC8201A8FFF716FD1F488742F5
:100B700002D1DDF810A001E0DDF80CA0A88900F496
:100B8000004040B10AEBCA0000EB0A10316849008E
:100B9000B0FBF1F807E00AEBCA0000EB0A1031687D
:100BA0008900B0FBF1F86420B8FBF0F004012009E3
:100BB000642101FB1089A88900F4004040B1322073
:100BC00000EBC900B0FBF1F000F00700044308E0BF
:100BD000322000EB09106421B0FBF1F000F00F00AF
:100BE00004432C8106B0BDE8F087000000380140C6
:100BF00001468888C0F308007047C1F3080282806C
:100C00007047000070B5044600250FE0207860B101
:100C100021780748FFF7F1FF00BF80210448FFF764
:100C20001FFF0028F9D0641C00E070BDEEE7000053
:100C30000038014000BFFEE700BF704710B56FF0FD
:100C40000400FFF7A9FE0A4800680A49B0FBF1F06A
:100C5000094908700846007800EB4001C1EBC0105C
:100C60004FF6FF7101EAC0000449088010BD000082
:100C70000000002000127A00180000201A00002056
:100C80000146114A12884A434FF0E0235A6100227C
:100C90009A611A46126942F001021A6100BF4FF0D0
:100CA000E022106900F001021AB100F48032002A3B
:100CB000F5D04FF0E022126922F001024FF0E0235C
:100CC0001A6100229A6170471A0000207B2809D11E
:100CD00000212D4A117001212C4A117000212C4A4B
:100CE000117050E07D2806D10021284A11700121A1
:100CF000284A117047E03A2801D02C2808D124490D
:100D00000978491C224A117000211F4A11703AE0EB
:100D10001E490978012912D11B490978032908DAEB
:100D20001B49097801EB41011B4A1144164A12780C
:100D3000885415490978491C134A117023E04F283B
:100D400003D10121154A11701DE04B2807D1134929
:100D5000097801F00D01891C104A117013E00D286B
:100D600007D10E49097801F00B01091D0B4A1170DA
:100D700009E00A2807D10949097801F0070141F083
:100D80000801064A11707047200000202200002050
:100D90002100002023000020560000202400002015
:100DA0000EB50020029000BFFFF70CFEFFF746FFD4
:100DB0004FF4E13000F094F8FFF7DCFC4FF4FA70E8
:100DC000FFF75EFF0122002101A8FFF7F7FC0122D7
:100DD00011466846FFF7F2FC00BFFFF7F9FAFFF78C
:100DE00067FB3FE04FF4FA70FFF74AFF0020FFF780
:100DF0000DFB02909DF80800002833D09DF80800F4
:100E000001281DD002280AD003282AD116A0FFF7F6
:100E1000F9FEFFF735FA6420FFF732FF21E015A055
:100E2000FFF7F0FEFFF72CFA1E48006808B9012012
:100E300000E000201B4908600A20FFF721FF10E0B6
:100E400019A0FFF7DFFEFFF71BFA2448006808B976
:100E5000012000E00020214908606420FFF710FF16
:100E600000BF00BFBEE700004A554D502831293B66
:100E70000D0A00005345545F42544E28332C31294B
:100E80003B5345545F504F494E5428322C3930293A
:100E90003B5345545F50524F4728312C3530293B46
:100EA0000D0A0000940123425345545F42544E28DA
:100EB000332C30293B5345545F504F494E54283210
:100EC0002C313530293B5345545F50524F47283120
:100ED0002C313030293B0D0A000000009481214262
:100EE00010B586B00446012144F23500FFF744FBFB
:100EF0000120ADF8140003208DF8160048208DF86D
:100F0000170005A93A48FFF7CAF90220ADF8140006
:100F100003208DF8160048208DF8170005A93448E5
:100F2000FFF7BDF90420ADF8140003208DF816007A
:100F300048208DF8170005A92D48FFF7B0F90421C6
:100F40002C48FFF740FA0420ADF8140010208DF86B
:100F5000170003208DF8160005A92648FFF79FF912
:100F600004212448FFF72FFA4FF40070ADF8140065
:100F700003208DF8160018208DF8170005A91E48CB
:100F8000FFF78DF94FF48060ADF8140004208DF860
:100F9000170005A91848FFF782F925208DF80000F1
:100FA00003208DF801008DF8020001208DF8030068
:100FB0006846FFF7A7FA01940020ADF80800ADF8E5
:100FC0000A00ADF80C00ADF810000C20ADF80E00D2
:100FD00001A90A48FFF7A0FD012240F22551074868
:100FE000FFF775FD01210548FFF72EFD06B010BD86
:100FF0000010014000140140000801400038014089
:101000002010000800000020440000006C010008CF
:101010006410000844000020C40600008801000895
:1010200000A24A04000000000000000001020304C6
:101030000607080916EF010000000000000000008C
:1010400000000000000000000000000000000000A0
:10105000000000000102030401020304060708095E
:041060000204060878
:04000005080001CD21
:00000001FF
