:020000040800F2
:10000000A8070020CD01000805150008D109000847
:10001000011500087B040008032C00080000000004
:10002000000000000000000000000000D7170008DA
:100030007F0400080000000079150008F519000889
:10004000E7010008E7010008E7010008E7010008F0
:10005000E7010008E7010008E7010008E7010008E0
:10006000E7010008E7010008E7010008E7010008D0
:10007000E7010008E7010008E7010008E7010008C0
:10008000E7010008E7010008E7010008E7010008B0
:10009000E7010008E7010008E7010008E7010008A0
:1000A000E7010008E7010008E7010008E701000890
:1000B000E7010008E7010008E7010008E701000880
:1000C000E7010008E7010008E7010008E701000870
:1000D000E7010008E1290008E7010008E70100083E
:1000E000E7010008E7010008E7010008E701000850
:1000F000E7010008E7010008E7010008E701000840
:10010000E7010008E7010008E7010008E70100082F
:10011000E7010008E7010008E7010008E70100081F
:10012000E7010008E7010008E7010008E70100080F
:1001300000F002F800F03AF80AA090E8000C8244BF
:100140008344AAF10107DA4501D100F02FF8AFF29C
:10015000090EBAE80F0013F0010F18BFFB1A43F0A5
:1001600001031847184A0000384A0000103A24BF1B
:1001700078C878C1FAD8520724BF30C830C144BF0C
:1001800004680C607047000000230024002500264E
:10019000103A28BF78C1FBD8520728BF30C148BFEA
:1001A0000B6070471FB51FBD10B510BD00F0A0F863
:1001B0001146FFF7F7FF02F035FE00F0D2F803B466
:1001C000FFF7F2FF03BC02F060FD00000948804722
:1001D00009480047FEE7FEE7FEE7FEE7FEE7FEE729
:1001E000FEE7FEE7FEE7FEE704480549054A064B41
:1001F00070470000F919000831010008A80100202B
:10020000A8070020A8030020A803002070470000D2
:100210000FB4044910B503AA029800F033F810BCDB
:100220005DF814FB5000002010B5431C02E010F8EC
:10023000011B71B18107FAD14FF0013202C88C1A4B
:100240008C4314EAC211F9D0C01A0A0603D0C01EAA
:1002500010BDC01A10BD0A0401D0801E10BD0902D5
:10026000FCD0401E10BD704770477047704710B5F6
:1002700000F01AF8006810BD10B5044600F014F83C
:10028000046010BD074B70B50D467B4400F015F8B7
:100290000446284600F024F810B14FF0FF3070BD3E
:1002A000204670BDDF2A000000487047440100204E
:1002B00001694A1C02610878704700B58FB0CDE92A
:1002C00001310021059105497944CDE9031011461A
:1002D000684600F032F80FB000BD0000E5FFFFFFF8
:1002E000007B00F080007047004870474401002008
:1002F0007546FFF7F9FFAE4605006946534620F004
:100300000700854618B020B5FFF76EFFBDE8204016
:100310004FF000064FF000074FF000084FF0000BC1
:1003200021F00701AC46ACE8C009ACE8C009ACE874
:10033000C009ACE8C0098D4670472DE9F04106467A
:100340000024D6E90170F5688046304603E0414656
:10035000B847641C3046A8470028F8D12046BDE8BD
:10036000F08110B50446AFF300802046BDE8104090
:10037000FFF725BF10B500F055FB10BD2DE9F0418A
:1003800007460C460026002509E036023919491BAC
:10039000491E88B200F008F80644681CC5B2A542A0
:1003A000F3DB3046BDE8F08170B50446002600F06E
:1003B000E7FB2546E11704EB11610912A02202EBCD
:1003C0004101C8B200F0A8FB00F026FCE11704EBE5
:1003D00011610912A4EB0121C8B200F09DFB00F0ED
:1003E0001BFC00F0CDFBA12000F096FB00F014FCFC
:1003F000002000F059FB064600F0E8FB304670BDD7
:100400002DE9F04105460E461746002409E0E200BA
:1004100026FA02F2D1B22A1990B200F006F8601C56
:10042000C4B2BC42F3DBBDE8F08170B504460E46B1
:1004300000F0A6FB2546E11704EB11610912A0228A
:1004400002EB4101C8B200F067FB00F0E5FBE117E9
:1004500004EB11610912A4EB0121C8B200F05CFBAE
:1004600000F0DAFB304600F057FB00F0D5FB00F05F
:10047000ADFB0A2002F02EFC70BD00BFFEE7704706
:100480003EB504464FF6FF7000F046FC1F2000907A
:100490001948028814230021084600F0D3FC1F20CD
:1004A00000901548438802884088143881B20020A3
:1004B00000F0C8FC4FF6FF701049088001201021A1
:1004C0000FA21F23CDE9002102904FF6FF720221F7
:1004D000002000F05DFA012010210DA2CDE90021DD
:1004E000029005484088123881B21F234FF6FF72F0
:1004F000002000F04DFA3EBD6C00002014000020EA
:10050000B4A5C3FEC6C1B5C4CAB9D3C300000000B8
:10051000BAC3BAC3D1A7CFB0A3ACCCECCCECCFF26A
:10052000C9CF21002DE9F041024600250026002018
:1005300000230024002791F803C00CF00F0591F868
:1005400003C00CF0100CBCF1000F03D091F802C0F6
:100550004CEA050591F800C0BCF1000F31D01468D9
:1005600000202BE04FF0010C0CFA00F3B1F800C0B2
:100570000CEA03069E4220D183004FF00F0C0CFAC8
:1005800003F7BC4305FA03FC4CEA040491F803C0EA
:10059000BCF1280F06D14FF0010C0CFA00FCC2F898
:1005A00014C00AE091F803C0BCF1480F05D14FF028
:1005B000010C0CFA00FCC2F810C0401C0828D1D372
:1005C0001460B1F800C0BCF1FF0F34DD54680020A6
:1005D0002EE000F1080C4FF0010808FA0CF3B1F816
:1005E00000C00CEA03069E4221D183004FF00F0C9D
:1005F0000CFA03F7BC4305FA03FC4CEA040491F837
:1006000003C0BCF1280F05D100F1080C08FA0CF862
:10061000C2F8148091F803C0BCF1480F07D100F173
:10062000080C4FF0010808FA0CF8C2F81080401CC2
:100630000828CED35460BDE8F081024600209368BC
:100640000B400BB1012000E00020704701617047B2
:100650002DE9FC5F0546884691469A46DDF830B0A4
:1006600000951120019000245FE004EB041037494D
:1006700011F810009BF80010884253D104EB0410CD
:10068000324901EB400040789BF80110884249D183
:1006900008F10F0083B205F10F0082B241462846EF
:1006A00000F040FD00263BE0002734E00D9890B9B3
:1006B00004EB0410254901EB4000801C805D802183
:1006C0003941084018B1484600F0FEFE21E050468E
:1006D00000F0FAFE1DE01E48A0F8009004EB0410A4
:1006E0001A4901EB4000801C805D8021394108409F
:1006F00018B14146284600F097FB681C85B2009867
:10070000281A102805D1009D08F101001FFA80F871
:1007100003E0781CC7B2082FC8DB00BF701CC6B24C
:10072000202EC1DB00BF601C84B2019884429CDB98
:1007300008484088401E83B206480088401E82B2A6
:100740000021084600F0EEFCBDE8FC9F4245000891
:10075000140000206C0000202DE9FC5F054688464F
:1007600091469A46DDF830B00095052001900024AE
:1007700067E004EB840000EB44103A4911F81000E4
:100780009BF80010884259D104EB840000EB441020
:10079000344901EB400040789BF8011088424DD16C
:1007A00008F1170083B205F1170082B241462846CE
:1007B00000F0B8FC00263FE0002738E00D98A0B913
:1007C00004EB840000EB4410264901EB4000801C40
:1007D000805D80213941084018B1484600F074FE20
:1007E00023E0504600F070FE1FE01F48A0F8009084
:1007F00004EB840000EB44101A4901EB4000801C1C
:10080000805D80213941084018B14146284600F0FA
:100810000BFB681C85B20098281A182805D1009D8A
:1008200008F101001FFA80F803E0781CC7B2082F16
:10083000C4DB00BF701CC6B2482EBDDB00BF601C0D
:1008400084B20198844294DB08484088401E83B2F9
:1008500006480088401E82B20021084600F062FC73
:10086000BDE8FC9F84470008140000206C000020B5
:100870002DE9FC5F0546884691469A46DDF830B082
:1008800000950420019000245FE004EB84103749B8
:1008900011F810009BF80010884253D104EB84102B
:1008A000324901EB400040789BF80110884249D161
:1008B00008F11F0083B205F11F0082B241462846AD
:1008C00000F030FC00263BE0002734E00D9890B9A2
:1008D00004EB8410254901EB4000801C805D8021E1
:1008E0003941084018B1484600F0EEFD21E050467D
:1008F00000F0EAFD1DE01E48A0F8009004EB841013
:100900001A4901EB4000801C805D8021394108407C
:1009100018B14146284600F087FA681C85B2009855
:10092000281A202805D1009D08F101001FFA80F83F
:1009300003E0781CC7B2082FC8DB00BF701CC6B22A
:10094000802EC1DB00BF601C84B2019884429CDB16
:1009500008484088401E83B206480088401E82B284
:100960000021084600F0DEFBBDE8FC9FF6480008C9
:10097000140000206C00002070B505460E46144699
:100980003146284600F0C4FB204600F09DFD70BDB6
:100990002DE9FE4F0E4617469846DDE90D9A0C9C50
:1009A0002046FFF741FC85B208490988A1EBC50044
:1009B00000EBD071C1F34F0B43463A4631465846DF
:1009C0008DE8100600F07CFFBDE8FE8F6C00002073
:1009D00000BFFEE710B500200F4908600F4800680F
:1009E00020F070400D4908600846006840F0405013
:1009F000086000200A49C1F89C01022002F090F929
:100A0000012005490860022002F08AF9002004490B
:100A1000C1F8980110BD000098812142000C0140EE
:100A20000080214208B50121082000F0B7FDC02058
:100A3000ADF8000010208DF8030003208DF80200AF
:100A400069460448FFF76EFDC0210248FFF7FEFD2E
:100A500008BD0000000C014010B500200F490860DF
:100A60000F48006820F070400D4908600846006893
:100A700040F04050086001200A49C1F89C01022062
:100A800002F04EF9012005490860022002F048F901
:100A900000200449C1F8980110BD0000988121424E
:100AA000000C01400080214270B505460024174823
:100AB000006820F07040154908600846006840F062
:100AC00000400860002616E000201149086002205E
:100AD00002F026F901200F49C1F898016006040EC2
:100AE0000B487C38006808B1601CC4B2012002F0D9
:100AF00017F9701CC6B2082EE6DB15B9FFF7ACFF7C
:100B000001E0FFF767FF204670BD0000000C0140C8
:100B1000988121420080214270B504461548006842
:100B200020F07040134908600846006840F04050CB
:100B30000860002010490860002517E0E0090E4910
:100B4000091D08606006040E022002F0E9F8012089
:100B50000A49C1F89801022002F0E2F80020064993
:100B60000860022002F0DCF8681CC5B2082DE5DB45
:100B700070BD0000000C014098812142008021429C
:100B800010B50F48006820F070400D490860084615
:100B9000006840F04050086001200A4908600A4996
:100BA000C1F89801042002F0BBF800200549086054
:100BB000042002F0B5F800200349C1F8980110BDE7
:100BC000000C01409C8121420080214210B50F4859
:100BD000006820F070400D4908600846006840F049
:100BE0004050086000200A4908600A49C1F89C0189
:100BF000042002F095F80120054908600549C1F874
:100C00009C01042002F08CF810BD0000000C014093
:100C1000988121420080214210B5002414480068C8
:100C200020F07040124908600846006840F000401B
:100C3000086001200F49086002F072F801200E4997
:100C4000C1F8980102F06CF807E0601CC4B2FA2CFD
:100C500003DDFFF7BBFF012010BD064880380068A8
:100C60000028F2D10349091F086000BFF4E7000023
:100C7000000C01409C8121420080214208B50121E5
:100C8000442000F08BFC1820ADF8000048208DF8BF
:100C9000030069460648FFF745FC0120ADF8000057
:100CA00028208DF8030069460248FFF73BFC08BD89
:100CB000001801400008014010B510211448FFF74A
:100CC000BCFC50B108211248FFF7B7FC28B1012144
:100CD0001048FFF7B2FC012818D10A2001F0FAFFF2
:100CE00010210B48FFF7A9FC08B9012010BD08210D
:100CF0000748FFF7A2FC08B90220F7E701210548E1
:100D0000FFF79BFC012801D10320EFE70020EDE76E
:100D1000001801400008014070B50646144840889C
:100D2000401E83B212480088401E82B2002108464D
:100D300000F0F8F94FF400600E4908604010091FF8
:100D4000086000240AE0002503E0304600F0BCFB08
:100D50006D1C07480088A842F7D8641C04484088E6
:100D6000A042F0D84FF400600249091F086070BD2E
:100D70006C000020140C01402DE9FF4F85B0814626
:100D80008A460020049003900798A0EB0905089874
:100D9000A0EB0A06CDF80890CDF804A0002D01DDE7
:100DA000012705E00DB9002702E04FF0FF376D4243
:100DB000002E02DD4FF0010806E016B94FF00008E2
:100DC00002E04FF0FF387642B54201DD2C4600E0EC
:100DD00034464FF0000B21E0019A91B2029A90B292
:100DE00000F022F8049828440490039830440390BB
:100DF0000498A04205DD0498001B04900298384432
:100E000002900398A04205DD0398001B039001980F
:100E1000404401900BF101001FFA80FB601C8345E8
:100E2000DADD09B0BDE8F08F70B504460D462946FD
:100E3000204600F06DF90248008800F045FB70BDC7
:100E4000140000202DE9F05F04460D4616461F46AB
:100E5000301B401C1FFA80FA781B401C1FFA80FBD5
:100E60003B4632462946204600F05CF94FF0000828
:100E70000FE04FF0000906E00A9800F025FB09F1A9
:100E800001001FFA80F9D145F6DB08F101001FFAD5
:100E900080F8D845EDDB07484088401E83B20548FE
:100EA0000088401E82B20021084600F03BF9BDE8F0
:100EB000F09F00006C00002008B50121082000F020
:100EC0006DFB4FF4F050ADF8000003208DF80200E8
:100ED00010208DF8030069460148FFF723FB08BD89
:100EE000000C014010B500F0EDFBFFF7E5FF00F04E
:100EF000FBF8F02000F07AFAC32000F05FFAF0204F
:100F000000F074FA962000F059FA362000F06EFADC
:100F1000682000F053FA3A2000F068FA052000F04B
:100F20004DFAB02000F062FA802000F047FAB620B7
:100F300000F05CFA002000F041FA022000F03EFAD6
:100F4000B52000F053FA022000F038FA032000F038
:100F500035FA002000F032FA042000F02FFAB12018
:100F600000F044FA802000F029FA102000F026FA60
:100F7000B42000F03BFA002000F020FAB72000F087
:100F800035FAC62000F01AFAC52000F02FFA242006
:100F900000F014FAE42000F029FA312000F00EFAF3
:100FA000E82000F023FA402000F008FA8A2000F040
:100FB00005FA002000F002FA002000F0FFF92920D5
:100FC00000F0FCF9192000F0F9F9A52000F0F6F97D
:100FD000332000F0F3F9C22000F008FAA72000F057
:100FE00005FAE02000F002FAF02000F0E7F909200D
:100FF00000F0E4F9132000F0E1F9122000F0DEF92E
:10100000122000F0DBF92B2000F0D8F93C2000F092
:10101000D5F9442000F0D2F94B2000F0CFF91B2085
:1010200000F0CCF9182000F0C9F9172000F0C6F93B
:101030001D2000F0C3F9212000F0C0F9E12000F0EC
:10104000D5F9F02000F0BAF9092000F0B7F9132023
:1010500000F0B4F90C2000F0B1F90D2000F0AEF969
:10106000272000F0ABF93B2000F0A8F9442000F065
:10107000A5F94D2000F0A2F90B2000F09FF91720F0
:1010800000F09CF9172000F099F91D2000F096F966
:10109000212000F093F9362000F0A8F9EC2000F0B0
:1010A0008DF9F02000F0A2F9C32000F087F9F020BC
:1010B00000F09CF9692000F081F9132000F096F906
:1010C000112000F093F9292000F090F9002000F0A1
:1010D000B5F90120034908604FF6FF70FFF71CFEC9
:1010E00010BD0000A481214210B54FF48050074983
:1010F0000860642001F0EEFD4FF480500349091FA1
:101100000860322001F0E6FD10BD0000140C014023
:1011100070B504460D462B4622462946204600F06F
:1011200001F870BD2DE9F04104460D4616461F46F4
:101130001149887A00F05AF9201200F03FF9E0B224
:1011400000F03CF9301200F039F9F0B200F036F955
:101150000949087B00F04AF9281200F02FF9E8B29B
:1011600000F02CF9381200F029F9F8B200F026F955
:1011700000F052F9BDE8F0816C0000202DE9FF4F2E
:1011800083B081468A469346DDE910644048008872
:101190000290A6F12000C6B204EBD47009EB600007
:1011A000401E82B20AEB0400401E83B251464846FC
:1011B0000194FFF7B7FF129850BB002525E00C2CD7
:1011C00007D106EB4600334901EB800010F805809B
:1011D00004E0314800EB061010F8058000270DE010
:1011E00008F0010018B1584600F06EF902E00698C8
:1011F00000F06AF94FEA6808781CC7B204EBD471B2
:10120000B7EB610FECDB681CC5B2A542D7DB2DE064
:10121000002529E00C2C07D106EB46001D4901EB07
:10122000800010F8058004E01B4800EB061010F861
:101230000580002711E01648A0F800B008F0010072
:1012400038B10AEB050291B209EB070290B2FFF741
:10125000EBFD4FEA6808781CC7B204EBD471B7EB1A
:10126000610FE8DB681CC5B2A542D3DB08490298D0
:1012700008800A484088401E83B208480088401E03
:1012800082B200210846FFF74DFF07B0BDE8F08F9E
:1012900014000020DE3A0008523F00086C000020D5
:1012A0002DE9FF4F83B0074691461E46109C4FF034
:1012B000000A002543E0701B401EC1B20A2001F065
:1012C0009BFEB9FBF0F00A21B0FBF1F201FB120822
:1012D000BAF1000F1BD1701EA84218DDB8F1000F43
:1012E00013D100202021A346CDE90014029004EB85
:1012F000DB71491001FB057188B213490B88134952
:101300000A880499FFF73AFF17E04FF0010A00211D
:1013100008F13000C0B2A346CDE90141009004EBD2
:10132000DB71491001FB057188B207490B88074939
:101330000A880499FFF722FF00BF681CC5B2B542B6
:10134000B9DB07B0BDE8F08F1600002014000020C4
:101350002DE9FE4306460F4615461C46DDF828805B
:101360001DE013480088401EB04204DB104840884E
:10137000401EB84201DABDE8FE8320788DE82101E5
:101380000C4803880C48028839463046FFF7F6FEC1
:10139000284605EBD07106EB61018EB2641C207803
:1013A0007E2802DC20782028DBDA00BFE3E700009B
:1013B0006C000020160000201400002010B5044628
:1013C0004FF40060074908604010091F086021467B
:1013D000054800F0EFF94FF400600249091F08606A
:1013E00010BD0000140C01400038004010B5044648
:1013F0004FF4006006490860401008602146054827
:1014000000F0D8F94FF400600149091F086010BDD1
:10141000140C01400038004010B50249087AFFF76B
:10142000E5FF10BD6C00002070B505460C4628464F
:10143000FFF7DCFFE0B2FFF7C1FF70BD10B5044657
:101440002A20204948812B2088812C20088134B112
:10145000012C10D0022C1AD0032C30D123E04FF4F1
:10146000A070184908804FF4F07048804821362059
:10147000FFF7DAFF24E04FF4F070124908804FF4D0
:10148000A070488028213620FFF7CEFF18E04FF4E7
:10149000A0700C4908804FF4F070488088213620F5
:1014A000FFF7C2FF0CE04FF4F070064908804FF4DC
:1014B000A0704880E8213620FFF7B6FF00E000BFAB
:1014C00000BF10BD6C00002010B504464FF4006052
:1014D000094908604010091F08602112074800F000
:1014E00069F9E1B2054800F065F94FF4006002497E
:1014F000091F086010BD0000140C014000380040B6
:1015000000BFFEE77047000070B5002100230F22E6
:10151000C47804B3154C246804F4E064C4F5E064B2
:10152000210AC1F10403CA40447804FA03F1847823
:101530001440214309010E4C0678A155047804F0AB
:101540001F050124AC4005786D11AD0005F1E025C3
:10155000C5F8004109E0047804F01F050124AC40FF
:10156000044D0678761145F8264070BD0CED00E07C
:1015700000E400E080E100E07047000029B1064A85
:10158000D2690243044BDA6104E0034AD269824320
:10159000014BDA61704700000010024029B1064A91
:1015A00092690243044B9A6104E0034A92698243C0
:1015B000014B9A61704700000010024030B50021D5
:1015C0000022002400232D4D6D6805F00C0121B18F
:1015D000042905D0082923D105E0294D056022E022
:1015E000274D05601FE0254D6D6805F47012234DF1
:1015F0006D6805F48034022505EB92421CB9214D3B
:10160000554305600BE01D4D6D6805F400351DB1B7
:101610001C4D5543056002E0194D5543056002E03D
:10162000174D056000BF00BF144D6D6805F0F00157
:101630000909154D6B5C0568DD4045600F4D6D680F
:1016400005F4E061090A104D6B5C4568DD4085607A
:101650000A4D6D6805F46051C90A0B4D6B5C456815
:10166000DD40C560054D6D6805F44041890B074DAF
:101670006B5CC568B5FBF3F5056130BD0010024039
:1016800000127A0000093D0056000020660000208C
:1016900008B501210420FFF781FFE020ADF800002C
:1016A00010208DF8030003208DF8020069460448DD
:1016B000FEF738FFE0210248FEF7C8FF08BD000032
:1016C0000008014000B587B001210920FFF766FF3F
:1016D0004FF42040ADF8040003208DF806001820D8
:1016E0008DF8070001A91C48FEF71CFF4FF480404D
:1016F000ADF8040048208DF8070003208DF806009F
:1017000001A91548FEF70EFF01218803FFF736FFF8
:101710000020ADF808004FF48270ADF80A000020F8
:10172000ADF80C00ADF80E00ADF810004FF40070ED
:10173000ADF812000020ADF81400ADF81600072037
:10174000ADF8180002A9054800F016F80121034879
:1017500000F006F807B000BD000C01400038004062
:1017600021B1028842F04002028004E002884FF674
:10177000BF731A400280704710B50022028802F43D
:1017800041520B884C8823438C882343CC882343C5
:101790000C8923434C8923438C892343CC892343DD
:1017A0001A430280838B4FF2FF74234083830B8A9A
:1017B000038210BD024600BF108900F0020000281D
:1017C000FAD0918100BF108900F001000028FAD002
:1017D0009089C0B27047704710B500F001F810BD95
:1017E0000CB50020019000903348006840F4803030
:1017F0003149086000BF3048006800F400300090B4
:101800000198401C0190009818B90198B0F5A06F9C
:10181000F1D12948006800F4003010B10120009097
:1018200001E0002000900098012843D1234800687F
:1018300040F01000214908600846006820F00300CD
:1018400008600846006840F0020008601A484068D6
:10185000194948600846406848600846406840F4B6
:10186000806048600846406820F47C104860084664
:10187000406840F4E81048600846006840F0807016
:10188000086000BF0C48006800F000700028F9D024
:101890000948406820F0030007494860084640684E
:1018A00040F00200486000BF0348406800F00C00B0
:1018B0000828F9D10CBD00000010024000200240B1
:1018C0002DE9FF4F83B0064688469146DDE9114772
:1018D000109DB2464FF0000B71E0BBF1000F40D1FC
:1018E00004EBD471384A1288A2EB6101B14204DBE7
:1018F00035494988091B414502DA07B0BDE8F08F38
:101900002878802802DD4FF0010B58E028780D2858
:1019100006D108EB04001FFA80F856466D1C1EE045
:10192000102C0DDD102128788DE883004A464146B1
:101930003046069BFFF722FC06F1080086B20EE057
:1019400028788DE891004A4641463046069BFFF7CD
:1019500015FC204604EBD07106EB61018EB26D1CC4
:101960002DE019480088001BB04204DB164840886F
:10197000001B404500DAC0E74FF0000B202C08D1D7
:10198000CDE900574A4641463046069BFEF770FFB8
:1019900012E0182C08D1CDE900574A46414630469E
:1019A000069BFEF7D9FE07E0CDE900574A464146BF
:1019B0003046069BFEF74CFEAD1C301986B22878E7
:1019C00000288AD100BF98E76C000020042808D1C5
:1019D0004FF0E021096941F004014FF0E02211616C
:1019E00007E04FF0E021096921F004014FF0E02207
:1019F000116170477047000010B51348006840F04F
:101A000001001149086008464068104908400E4925
:101A10004860084600680E4908400B4908600846BF
:101A2000006820F4802008600846406820F4FE002A
:101A300048604FF41F008860FFF7CEFE4FF0006053
:101A40000449086010BD0000001002400000FFF8CB
:101A5000FFFFF6FE08ED00E02DE9F84F04460D46C5
:101A600017461E46DDE90CABDDE90A894FF47840E4
:101A70004A49088001204AA31022A0210090282072
:101A8000FFF766FC012047A31022A02100907820D8
:101A9000FFF75EFC012044A31022B421009028200F
:101AA000FFF756FC012041A31022B42100907820BA
:101AB000FFF74EFC01203EA31022C82100902820F1
:101AC000FFF746FC01203BA31022C821009078209C
:101AD000FFF73EFC012038A31022DC2100902820D3
:101AE000FFF736FC012035A31022DC21009078207E
:101AF000FFF72EFC012032A31022F02100902820B5
:101B0000FFF726FC102004232246A021009040204D
:101B1000FFF7C6FB102004232A46A0210090902046
:101B2000FFF7BEFB102004233A46B421009040206A
:101B3000FFF7B6FB102004233246B421009090201A
:101B4000FFF7AEFB102004234246C821009040203E
:101B5000FFF7A6FB102004234A46C82100909020DE
:101B6000FFF79EFB102004235246DC21009040200A
:101B7000FFF796FB102004235A46DC2100909020AA
:101B8000FFF78EFB102000900F4801880323602090
:101B90000E9AFFF785FBBDE8F88F000014000020C7
:101BA00078313A0079313A0078323A0079323A00A5
:101BB00078333A0079333A0078343A0079343A008D
:101BC0006661632069733A006C00002000B595B02F
:101BD000002010900A9010901F20F94908804FF6BD
:101BE000FF70F8490880FFF797F84FF47840F44900
:101BF00008804FF6FF70FFF78FF80020F04908804B
:101C00000120F1A31022282100900A20FFF7A0FB59
:101C10000120F5A31022382100900A20FFF798FB3D
:101C20000120FAA31022482100900A20FFF790FB20
:101C30000120FEA31022582100900A20FFF788FB04
:101C40004FF478421421084600F02EFC0020FE4993
:101C50000875886144E2FC484068099001200999B0
:101C60008847F948007D00F0C00040287AD1002064
:101C70000A90F548007D20F04000F34908750846B9
:101C8000018A11AA109822F82010EF48418A109872
:101C900002EB800041801098401CC0B21090109858
:101CA000012806D0022815D0032829D0042810D1F5
:101CB00041E04FF6FF721421084600F0F5FBE348BF
:101CC0000088143880B24FF478421421099000F053
:101CD000EBFBABE3DD480088143880B24FF6FF72AF
:101CE0001421099000F0E0FBD8484088143880B2F5
:101CF0004FF4784201460990142000F0D5FB95E39B
:101D0000D2484088143880B24FF6FF7201460990DD
:101D1000142000F0C9FBCD484088143880B20990E7
:101D2000CA480088143880B24FF478420890099964
:101D300000F0BAFB7AE3BDF84400BDF84810401A41
:101D40000990002801DB099801E0099840420D90B4
:101D5000BDF8461011A8C088081A0990002802DBB7
:101D6000099802E063E3099840420C900D984043C3
:101D70000D900C9840430C90DDE90C100844059040
:101D800001F0F5F9CDE9060101F041F9CDE90801CD
:101D900001F0C0F980B20F90BDF84C00BDF85010B2
:101DA000401A0990002801DB099801E00998404297
:101DB0000D9011A84189C089081A0990002801DBFB
:101DC000099801E0099840420C900D9840430D900D
:101DD0000C9840430C90DDE90C100844059001F08C
:101DE000C6F9CDE9060101F012F9CDE9080101F0CB
:101DF00091F980B20E900E9801F01CFD09900F9899
:101E000001F018FD0890099901F0FEFB0B900B986A
:101E100001F06CFB4FF066328D4BCDE9080101F00B
:101E2000B9F90DD30B9801F061FB8A4A8A4BCDE9D1
:101E3000080101F03FFA03D30F9808B10E98E8BBF0
:101E40000020109081484088143880B209907F4863
:101E50000088143880B24FF6FF720890099900F09C
:101E600023FB4FF478421421084600F01DFB7B4908
:101E70000B9801F0F3FC089001F0A4FC80B211A9CA
:101E80000990C989BDF8502011AB5B89CDE90132B9
:101E9000CDE90310BDF84C00009011A8C08808904F
:101EA000BDF848000790BDF846000690BDF8440014
:101EB000059006A90EC9FFF7CFFDF0E2FFE7BDF8D8
:101EC0004400BDF84C10401A0990002801DB099825
:101ED00001E0099840420D90BDF8461011A84089D4
:101EE000081A0990002801DB099801E0099840428E
:101EF0000C900D9840430D900C9840430C90DDE9F8
:101F00000C100844059001F032F9CDE9060101F00A
:101F10007EF8CDE9080101F0FDF880B20F90BDF820
:101F20004800BDF85010401A0990002801DB0998BC
:101F300001E0099840420D9011A8C188C089081A93
:101F40000990002801DB099801E0099840420C90B3
:101F50000D9840430D900C9840430C90DDE90C1017
:101F60000844059001F003F9CDE9060101F04FF8AE
:101F7000CDE9080101F0CEF880B20E900E9801F084
:101F800059FC09900F9801F055FC0890099901F04F
:101F90003BFB0B900B9801F0A9FA4FF066322C4BEB
:101FA000CDE9080101F0F6F809D30B9801F09EFA8B
:101FB000284A294BCDE9080101F07CF97ED24FE097
:101FC0001400002016000020506C656173652075B8
:101FD000736520746865207374796C757320636C05
:101FE00069636B207468650063726F7373206F6E32
:101FF000207468652073637265656E2E5468652071
:1020000063726F73732077696C6C0000616C776129
:102010007973206D6F766520756E74696C207468B5
:10202000652073637265656E2000000061646A75E7
:1020300073746D656E7420697320636F6D706C6569
:102040007465642E000000001C0000206C0000205D
:102050006666EE3FCDCCCCCCCCCCF03F0000C84285
:1020600000201090F9484088143880B20990F74851
:102070000088143880B24FF6FF720890099900F07A
:1020800013FA4FF478421421084600F00DFAF04993
:102090000B9801F0E3FB089001F094FB80B201463D
:1020A000099011A8C289BDF8500011AB5B89CDE938
:1020B0000130CDE90321BDF84C0000E011E00090B3
:1020C00011A8C0880890BDF848000790BDF84600E8
:1020D0000690BDF84400059006A90EC9FFF7BCFCA8
:1020E000DDE1BDF84800BDF84C10401A0990002809
:1020F00001DB099801E0099840420D9011A8C188C0
:102100004089081A0990002801DB099801E0099824
:1021100040420C900D9840430D900C9840430C9019
:10212000DDE90C100844059001F021F8CDE9060125
:1021300000F06DFFCDE9080100F0ECFF80B20F90D8
:10214000BDF84400BDF85010401A0990002801DB8A
:10215000099801E0099840420D90BDF8461011A879
:10216000C089081A0990002801DB099801E0099844
:1021700040420C900D9840430D900C9840430C90B9
:10218000DDE90C100844059000F0F1FFCDE90601EF
:1021900000F03DFFCDE9080100F0BCFF80B20E90D9
:1021A0000E9801F047FB09900F9801F043FB08904F
:1021B000099901F029FA0B900B9801F097F94FF06B
:1021C0006632A44BCDE9080100F0E4FF09D30B9877
:1021D00001F08CF9A04AA14BCDE9080101F06AF8A1
:1021E0003ED20020109099484088143880B209905F
:1021F00096480088143880B24FF6FF72089009990B
:1022000000F052F94FF478421421084600F04CF9DE
:102210008F490B9801F022FB089001F0D3FA80B2AD
:102220000246099011A8C089BDF8501011AB5B8916
:10223000CDE90131CDE90302BDF84C00009011A8B1
:10224000C0880890BDF848000790BDF84600069089
:10225000BDF84400059006A90EC9FFF7FDFB1EE17D
:10226000BDF84800BDF84410401A079001F0CAFAC2
:102270000990764800882838079001F0C3FA089042
:10228000099901F0C1F976498861BDF84800BDF8A7
:1022900044100844049001F0B5FA05907048806934
:1022A00001460490059801F0D9FA07906748008824
:1022B000059001F0BFFA0690079901F09BFB4FF0E3
:1022C0008041089001F0A0F9099001F05FFA00B296
:1022D0006349088411A84089BDF84610401A079048
:1022E00001F090FA0990594840882838079001F089
:1022F00089FA0890099901F087F95949C86111A82C
:102300004089BDF846100844049001F07BFA05901E
:102310005348C06901460490059801F09FFA079060
:102320004A484088059001F085FA0690079901F027
:1023300061FB4FF08041089001F066F9099001F0CF
:1023400025FA00B24649488408468069079001F0A2
:102350001DFA0890002801DB089801E00898404227
:1023600002280DDC3E48C069079001F00FFA099081
:10237000002801DB099801E00998404202283ADD73
:102380000020109031484088143880B209902F48BE
:102390000088143880B24FF6FF720890099900F057
:1023A00083F84FF478421421084600F07DF80120AC
:1023B0002CA310221A2100902820FEF7C9FF2848DC
:1023C00090F8240008B9012000E00020244981F899
:1023D0002400084690F8240030B190202649087067
:1023E000D0202649087005E0D020234908709020AD
:1023F0002249087053E01F20214908804FF6FF70E2
:10240000FEF78AFC01201FA310226E2100902320DA
:10241000FEF79EFF4FF47A7000F05CFC00F006FAC5
:102420004FF6FF70FEF778FC15B000BD00BF0A2024
:1024300000F050FC0A98401C80B20A900A98B0F54F
:102440007A7F2BDD00F06CF82BE000006C000020A0
:102450000000C8426666EE3FCDCCCCCCCCCCF03F81
:102460001C0000205450204E656564207265616434
:102470006A757374210000004400002045000020AC
:1024800014000020546F7563682053637265656E95
:102490002041646A757374204F4B210000BFFFF721
:1024A000DABB00BF00BFBFE7F8B504460D461646CD
:1024B0001A48068004F10D018AB2193988B22B46F8
:1024C0002946FEF759FC05F10D0083B2193881B297
:1024D00022462046FEF750FC6A1C91B2621C90B264
:1024E000FEF7A2FC6A1C91B2621E90B2FEF79CFC41
:1024F0006A1E91B2621C90B2FEF796FC6A1E91B2FF
:10250000621E90B2FEF790FC002006230090034864
:1025100002882946204600F037FCF8BD1400002050
:1025200070B53520FDF740FF04460A2C42D1042146
:102530002820FDF723FF0446204601F063F90546F5
:102540001D4901F061F81D49886104212C20FDF727
:1025500015FF0446204601F055F90546164901F0DD
:1025600053F81649C86102213020FDF707FF00B279
:102570001249088402213220FDF700FF00B20F4902
:1025800048843420FDF710FF0C4981F824000846E8
:1025900090F8240030B1902009490870D0200949F2
:1025A000087005E0D02006490870902005490870A1
:1025B000012070BD0020FCE720BCBE4C1C000020A8
:1025C000440000204500002008B501211120FEF73D
:1025D000E5FF42F20900ADF8000010208DF803007D
:1025E00003208DF8020069461248FDF79BFF40F278
:1025F0000440ADF8000048208DF8030069460D48FE
:10260000FDF790FF0C49881E00F098F8FDF7B2FE28
:10261000FFF786FF08B1002008BD4FF6FF70FEF7F8
:102620007BFBFFF7D3FA00F001F9FFF779FF0120F8
:10263000F2E70000001001402E00002070B50646B1
:102640000025002400201D4908601D49C1F88C01A7
:102650001A4934310860304600F0A2F9062000F033
:102660005FFB00201649C1F88001012000F058FBF3
:1026700001201249086000201149C1F8800100BF03
:1026800012E04FF6FF7000EA440400200B49086096
:1026900001200B49C1F8800108487838006808B16A
:1026A000601C84B2681CC5B2102DEADB2411012025
:1026B000024934310860204670BD0000800122428A
:1026C000000022422DE9FE4380460027002406E058
:1026D0004046FFF7B3FF2DF81400601C84B2052CB0
:1026E000F6DB002416E0601C85B20FE03DF8140014
:1026F0003DF81510884207DD3DF814603DF81500DF
:102700002DF814002DF81560681C85B2052DEDDB41
:10271000601C84B2042CE6DB0027012405E03DF8B0
:102720001400384487B2601C84B2042CF7DB032009
:1027300097FBF0F086B23046BDE8FE832DE9F0410C
:1027400004460D4607480078FFF7BCFF06460648DA
:102750000078FFF7B7FF074626802F800120BDE8ED
:10276000F081000044000020450000207FB50446B1
:102770000D4602A903A8FFF7E1FF064616B900209F
:1027800004B070BD694601A8FFF7D8FF06460EB930
:102790000020F5E7BDF80400BDF80C10884206DC07
:1027A000BDF80C10BDF80400323081420CDBBDF8DE
:1027B0000C00BDF80410884236DCBDF80410BDF8EA
:1027C0000C00323081422FDABDF80000BDF808104D
:1027D000884206DCBDF80810BDF8000032308142A6
:1027E0000CDBBDF80800BDF8001088421CDCBDF809
:1027F0000010BDF808003230814215DABDF80C1027
:10280000BDF80420881800EBD071C1F34F0121807E
:10281000BDF80810BDF80020881800EBD071C1F396
:102820004F0129800120ABE70020A9E770B51B49C3
:1028300088691B4901F012F8054600F0A7FF04461D
:10284000042221462820FDF7DBFD1449C8691449FC
:1028500001F004F8054600F099FF044604222146E1
:102860002C20FDF7CDFD0D48B0F9201002223020BC
:10287000FDF7C6FD0948B0F9221002223220FDF70B
:10288000BFFD064890F824103420FDF7CEFD0A2441
:1028900021463520FDF7C9FD70BD00001C00002059
:1028A00020BCBE4C2DE9F04104463B48006800289E
:1028B00053D124B13949881EFFF758FF3CE037490E
:1028C000881EFFF753FFB8B334491239B1F920001D
:1028D00000F098FF074631491239088A00F0AAFF34
:1028E00080462E4812388169404600F0B7FF064600
:1028F000394600F027FE054600F064FF27491239EB
:102900000882B1F9220000F07DFF07462349123901
:10291000488A00F08FFF804620481238C16940463F
:1029200000F09CFF0646394600F00CFE054600F01C
:1029300049FF1A491239488218481238007D00F0C0
:10294000800010BBC0201549123908750846008A5E
:1029500088810846408AC88117E010481238007DF7
:1029600000F0800040B10D481238007D20F080005A
:102970000A491239087508E000200849123988818F
:10298000C8814FF6FF700882488204481238007DE3
:1029900000F08000BDE8F081280122422E000020D6
:1029A000002100BF15E000F080021AB101220A4B9D
:1029B0001A6002E00022084B1A604206100E002244
:1029C000054B0C3B1A600122044BC3F880214A1CC2
:1029D000D1B20829E7DB70478C0122420000224275
:1029E00010B540F225511D4800F04AF810B31B48BD
:1029F00000F002F9C4B21A48008800F40040C8B9D7
:102A00001748008800F4804060B10A2C03D00020F1
:102A10001349088020E01248008840F40040104923
:102A2000088019E00D2C06D10D48008840F4804044
:102A30000B49088010E00A480088C0F30D000949DE
:102A40000C5407480088401C054908800846008847
:102A5000C72801DD0020088010BD000000380140BB
:102A6000540000207A00002021B1828942F40052F3
:102A7000828104E082894DF6FF731A40828170479B
:102A800070B50246002400230025002040F66A1697
:102A9000B14200D100BFC1F3421501F01F0301266E
:102AA00006FA03F3012D02D19689334006E0022D88
:102AB00002D1168A334001E0968A33400C12012677
:102AC00006FA04F41688344013B10CB1012000E07A
:102AD000002070BDF0B5034600240026002500202C
:102AE00040F66A17B94200D100BF1846C1F342143C
:102AF00001F01F06012707FA06F5012C01D10C3061
:102B000004E0022C01D1103000E014301AB1076843
:102B10002F43076002E00768AF430760F0BD000085
:102B20002DE9F04786B005460E460024A24600BFB8
:102B3000A1460027B08900B100BF2F462C8A4CF671
:102B4000FF700440F08804432C82AC894EF6F310E9
:102B50000440B08831890843718908430443AC813B
:102B6000AC8A4FF6FF400440B0890443AC8201A810
:102B7000FEF724FD1F48874202D1DDF810A001E0D6
:102B8000DDF80CA0A88900F4004040B10AEBCA00AF
:102B900000EB0A1031684900B0FBF1F807E00AEBDE
:102BA000CA0000EB0A1031688900B0FBF1F864201C
:102BB000B8FBF0F004012009642101FB1089A88909
:102BC00000F4004040B1322000EBC900B0FBF1F04E
:102BD00000F00700044308E0322000EB09106421F4
:102BE000B0FBF1F000F00F0004432C8106B0BDE80B
:102BF000F08700000038014001468888C0F30800D3
:102C0000704700BFFEE72DE9F04104460D46164629
:102C10001F46DDF81880EA1991B2A21990B2424617
:102C2000FDF7AAFEEA1991B2A21B90B24246FDF747
:102C3000A3FEEA1B91B2A21990B24246FDF79CFE98
:102C4000EA1B91B2A21B90B24246FDF795FEAA196B
:102C500091B2E21990B24246FDF78EFEAA1991B2E6
:102C6000E21B90B24246FDF787FEAA1B91B2E21921
:102C700090B24246FDF780FEAA1B91B2E21B90B2D1
:102C80004246FDF779FEBDE8F08100BF70470000C5
:102C900010B56FF00400FEF799FE0A4800680A4973
:102CA000B0FBF1F0094908700846007800EB4001DC
:102CB000C1EBC0104FF6FF7101EAC0000449088063
:102CC00010BD00000000002000127A004C0000201F
:102CD0004E0000200146114A12884A434FF0E0237B
:102CE0005A6100229A611A46126942F001021A6181
:102CF00000BF4FF0E022106900F001021AB100F4A9
:102D00008032002AF5D04FF0E022126922F0010251
:102D10004FF0E0231A6100229A6170474E000020B4
:102D20000146114A12784A434FF0E0235A610022CB
:102D30009A611A46126942F001021A6100BF4FF00F
:102D4000E022106900F001021AB100F48032002A7A
:102D5000F5D04FF0E022126922F001024FF0E0239B
:102D60001A6100229A6170474C00002000BF054A9A
:102D7000128802F04002002AF9D0C2B2014B1B1D9A
:102D80001A807047003801402DE9FF4F81B082461C
:102D900017469846DDF838B0002445464FEA48000B
:102DA000C0F10306BBF1000F1FD01BE0A14608E0F5
:102DB0004B462246009750460299FFF724FF09F13F
:102DC0000109A945F4DD002E04DA042000FB0460AB
:102DD000861D06E0601B042101FB006000F10A066D
:102DE0006D1E641CAC42E1DD18E015E02B46224666
:102DF000009750460299FFF706FF002E04DA0420E0
:102E000000FB0460861D06E0601B042101FB0060DE
:102E100000F10A066D1E641CAC42E7DD05B0BDE89A
:102E2000F08F00000EB5FEF7E7FD4FF4E13000F043
:102E300015F9FFF72DFFFEF755F85BA0FDF720FB16
:102E4000FFF7C2FBFDF71AFFFEF722FC4FF47840B4
:102E500064239622322100901846FDF7F3FF0120EB
:102E6000102152A24FF6E073CDE9002102901F22FB
:102E700041216C20FEF724FD1F20C8239622114615
:102E800000906420FDF7DEFF0120102149A24FF6DB
:102E9000E073CDE9002102904FF47842A5216C2027
:102EA000FEF70EFD4FF4FC604FF496739622FA2164
:102EB00000906420FDF7C6FF012010213FA24FF6CD
:102EC000E073CDE9002102901F2240F209116C202D
:102ED000FEF7F6FC67E0FDF7EFFE3A484168002098
:102EE00088473848007D00F08000002858D03548D9
:102EF000008A962818DA3348008A642814DD31489D
:102F0000408A322810DD2F48408A64280CDA2EA02F
:102F1000FDF77EF901202F49086000202E49C1F8F5
:102F200098012C49083108602648008A962818DA4A
:102F30002448008A642814DD2248408A962810DD3F
:102F40002048408AC8280CDA24A0FDF761F9012046
:102F5000204908602049C1F8980100201D49083126
:102F600008601848008A96281ADA1648008A6428E9
:102F700016DD1448408AFA2812DD1248408AB0F55E
:102F8000967F0DDA18A0FDF743F90120114908607A
:102F900000201149C1F8980101200E49083108604C
:102FA0001448FFF7BDFE96E7000000004C45443191
:102FB000000000004C454432000000004C45443302
:102FC000000000001C00002068656C6C6F200D0A7A
:102FD000000000009401214200002142776F726CD2
:102FE00064200D0A000000006C616C616C61200DB2
:102FF0000A000000400D030010B50246012000E069
:1030000050430B1EA1F10104E1B2F9D110BD2DE92D
:10301000F04106460F4600F083F9041E0D4618BF26
:103020000120284320F00040C0F17F6000F1E04023
:10303000C00F0ED0301C18BF0120384320F00040D4
:10304000C0F17F6000F1E040C00F04BF0120FDF738
:1030500013F920462946BDE8F081000010B586B07E
:103060000446012144F20400FEF798FA4FF4007080
:10307000ADF8140003208DF8160018208DF8170005
:1030800005A91C48FDF74EFA4FF48060ADF8140016
:1030900004208DF8170005A91648FDF743FA2520EE
:1030A0008DF8000003208DF801008DF8020001204A
:1030B0008DF803006846FEF727FA01940020ADF86A
:1030C0000800ADF80A00ADF80C00ADF810000C20B7
:1030D000ADF80E0001A90848FFF722FD012240F2D9
:1030E00025510548FFF7F6FC01210348FFF7BCFC1A
:1030F00006B010BD0008014000380140491058BF1B
:10310000C1F140415B1058BFC3F140438B42EFF324
:10311000008070474FEA1153A3F58063D3F11E037B
:10312000A8BFD3F1200C08DB4FF0004242EAC122D5
:1031300052EA505232FA03F0704709420BD4102B76
:10314000C4BF0020704703F5787CBCF1FF3F05D079
:103150004FF0FF3070474FF00000704770B500F03F
:1031600055F800BF4992248000207047F0E7B0FA7C
:1031700080F310FA03F10AD0C3F11D0303F5806355
:103180004FEA41504FEA035202EBD12170474FF012
:103190000000704751EA030C17D41CF5801F58BF7C
:1031A000BCF5801F00F10680994218BF704708BF28
:1031B0009042704707D711F5801F58BF13F5801F45
:1031C00019D499427047894270471CF5801F08D571
:1031D000BCF5801FF7D58B4218BF704708BF8242ED
:1031E00070474FF4001C1CEB410F38BF1CEB430F22
:1031F00001D28B42704770B500F008F89224490064
:103200004FF000514FF08053FFF778BF0EF1020EE0
:103210002EF0030E5EF8046B364205D4012A43EB10
:10322000030515F5001F12D8012841EB010C1CF510
:10323000001F0CD80ED14FEAD17C15F5001F0CEB06
:103240004C0C0CF1020C08BF4CEBD37C04E04FF0AB
:10325000080C01E04FEAD37C0CEB4C0526FA05F68E
:1032600006F00706B6F1040C06D20EEB860CBDE89C
:1032700070404CF0010C6047DFE80CF0090B0202D3
:103280004FF000414FF00000A1F5002170BD19463C
:103290001046012851EB010418BFD4F5001484BF77
:1032A000002001F0004170BD0808A0F500114FEAB0
:1032B0003101704753EA010C17D41CF5801F58BF29
:1032C000BCF5801F00F106808B4218BF704708BF15
:1032D0008242704707D713F5801F58BF11F5801F32
:1032E00019D48B4270479B4270471CF5801F08D54C
:1032F000BCF5801FF7D5994218BF704708BF9042B0
:1033000070474FF4001C1CEB430F38BF1CEB410F00
:1033100001D2994270470FB40CBC03BCFFF76BBFDE
:103320002DE9F04101F5801CBCF5001FC0F2C380FF
:103330004FEA115C21EA0C510CF1FD0C41F48011B3
:103340005FEA5C0C0CF5C07C01D3400049413DA410
:10335000890241EA905187028E0E0A0CA45D04FB9B
:1033600004F602FB06F6C6F14046A4FB0662F60D23
:1033700046EA422606FB06F4A4FB01235242C3F1AF
:10338000404338BF5B1EA6FB02420024E6FB032439
:10339000D20B42EA4446A6FB0623A1FB02E2A3FBB2
:1033A00007E4A4184FF0000252F10002E3FB0142CF
:1033B0006442C2F1404E38BFAEF1010EA6FB0423B9
:1033C0004FF00002E6FB0E32A2FB03464FF0000472
:1033D000B61954F10004E2FB0264A1FB06E6A4FB6B
:1033E00007E816EB08064FF0000858F10008E4FB68
:1033F00001687642C8F1405838BFA8F10108A2FB25
:1034000006E4A3FB08E52D194FF0000454F1000475
:10341000E2FB0854A1FB05E6A7FB04E818EB06084D
:103420004FF0000656F10006E1FB048618F1200576
:1034300056F10006A809A8F11B08B10908F03F08D9
:10344000B8F10A0F40EA86601CD901EB0C51BDE8C7
:10345000F08100BFFCF5EEE8E2DDD8D3CFCBC7C3E7
:10346000C0BDB9B6B4B1AEACA9A7A5A3A19F9D9BA1
:103470009A9896959392908F8D8C8B898887868564
:1034800084838281A0FB006800FB01F208EB420804
:10349000B8EB872807D5341858EB0104D5D5401C64
:1034A00051F10001D1E7341A78EB0104CDD4401E6C
:1034B00071F10001C9E75FEA4C0C5FEA9C5C0DD139
:1034C00005D34FF0000001F00041BDE8F081BDE8F8
:1034D000F04170B5FFF79AFE6DDBFFBEBDE8F0412D
:1034E0004FF00000004970470000F87F43004FEAAA
:1034F000D30C4FEA3C0C43401FBF40070CF1605116
:1035000013F0FE4F70471CF0006F03D100200CF049
:10351000004170470CF0004343EA507010B540EA98
:10352000CC0000F01CFA00BF000000924FEA00013E
:10353000FFF7BABE4FF000414FF00000A1F50021A7
:103540007047000090EA010F48BF81F0004100F190
:103550005882421A3CBF801A89184FEAD0524FF065
:103560007F4C1CEA410FA2EBD15318BF9CEA026FBB
:1035700000F03B804FF0004C4CEA00204CEA012167
:1035800021FA03FC10EB0C0C1ED202F1FF325FEAB1
:103590001C2040EBC25038BF70471CF07F0F4FEA31
:1035A000400C18BFBCF17F4F38BF7047C3F12003F8
:1035B000994008BF20F00100BCF17F4F38BF704731
:1035C000A0F1C04000F011BA4FEA3C00000A40EB05
:1035D000C25028BF1CF0FF0F4FEA400CE6D018BFC6
:1035E000BCF17F4F38BF7047EAE79CEA026F05D015
:1035F00010EA5C0F08BF00F00040704710B500F003
:10360000AEF900BF64FBBE3E4FF47F0C1CEAD01243
:103610001EBF1CEAD11392EA0C0F93EA0C0F00F0C4
:10362000858090EA010F48BF42F4807240F4000C9C
:1036300041F400002CF07F4120F07F4000B5814232
:10364000A2EB03020FF2081CACEB504EC0F10000DD
:103650009EF800E04FEA4E0E00FB0EFC38BF49001A
:103660004FEA2C1C02F5FA020CFB0EF34FEACE1EB9
:103670004FEA112C4FEAC1210EEB635E42EB22426E
:103680000EFB0CFC4FEA1C5300FB03114FEA112CFC
:103690004FEA01310EFB0CFC4FEADC4C00FB0C1135
:1036A000C14228BF09184CEB03335DF804EB10EB63
:1036B000410143EBC250B2F57C0F38BF704729D5AA
:1036C00012F0F00F1CBF00F1C04000F00040704746
:1036D000008182838485868788898B8C8D8E8F91EB
:1036E0009293959697999A9C9D9FA0A2A3A5A7A80F
:1036F000AAACAEB0B2B3B5B7B9BCBEC0C2C5C7C93B
:10370000CCCED1D4D7D9DCDFE2E6E9ECF0F3F7FA9E
:10371000FE0000004FEA400C0CF1807CBCF17E4FB3
:1037200028BF7047B0F1C04000F05FB990EA010FC8
:103730000CEAD11348BF42F48072624538BF63453A
:1037400007D213F47F0F16D080EA010000F000408A
:10375000704710B500F003F9097EFC3E00F005B893
:1037600080EA010000F00040704780EA010000F0AC
:10377000004000F03AB912F47F0F04BF02487047CE
:1037800080EA010000F031B90000C07F41000B0E5B
:10379000D3F19E0208D950F400034FEA032323FA21
:1037A00002F048BF4042704710B500F0D8F800BFA3
:1037B00049922480002070476FF0004282EA200086
:1037C00070470000C10DD1F19E0206DB4FEA0023D5
:1037D00043F0004323FA02F07047004207D54FEA56
:1037E0004001B1F1FE4F02D24FF00000704710B51A
:1037F00000F0B5F849922480002070476FEA20005D
:103800007047000010F0004148BF4042B0FA80F31A
:1038100010FA03F2C3F19D030BD051EAC35101EB3F
:103820001220530638BF704700F1010008BF20F096
:1038300001007047B0FA80F310FA03F2C3F19D0360
:103840000AD0D90501EB1220530638BF704700F1AA
:10385000010008BF20F00100704700004FF47F0C0A
:103860001CEAD0121EBF1CEAD11392EA0C0F93EA95
:103870000C0F00F0478090EA010F48BF42F48072BD
:103880004FF0004C4CEA00204CEA012102EB03020D
:10389000A0FB0113A2F50002002918BF43F00103A9
:1038A0005B0028BF4FEA330342EB22425FEA132C4E
:1038B0004CEBC2502EBFBCEB436FB2F57C0F704790
:1038C0004FEA036CBCF1004F08BF20F00100B2F5D5
:1038D0007C0F38BF70470BD582F0FF0212F5803F96
:1038E000C8BF704700F1C040D8BF00F0004070472B
:1038F00000F5000C5FEA4C0C48BF7047B0F1C040C7
:1039000000F073B890EA010F0CEAD11348BF42F4FB
:103910008072624538BF634504D280EA010000F03E
:103920000040704710B500F01AF800BF8900013E52
:1039300000F007B800F009B85FEA410C5FEA1C6CC0
:1039400008D080EA010000F050B85FEA400C5FEA5E
:103950001C6CF6D14FF00040A0F5800070470EF1CE
:10396000020E2EF0030E5EF8044B244204D44FEAFC
:103970004102B2F17F4F11D84FEA4003B3F17F4FBC
:103980000CD80ED14FEAD07CB2F17F4F0CEB4C0C2F
:103990000CF1020C08BF4CEBD17C04E04FF0080C9A
:1039A00001E04FEAD17C0CEB4C0324FA03F404F061
:1039B0000704B4F1040C06D20EEB840CBDE81040F1
:1039C0004CF0010C6047DFE80CF0070802024FF0F2
:1039D0000040A0F5800010BD0846420018BFD2F19B
:1039E000807288BF00F0004010BDFF2141EAD05036
:1039F000C005704790EA010F48BF81F000413FF5D4
:103A0000A8AD421A04D882F00042A0EB0200114493
:103A10004FEAD0524FF07F4C1CEA410FA2EBD1533A
:103A200018BF9CEA026F4AD04FF0004C4CEA0020CD
:103A30004CEA012121FA03FCB0EB0C0C0FD412F07C
:103A4000FE0F36D05FEA4C001DD5001240EBC2508D
:103A500038BF70471CF03F0F18BF70470BE0A2F152
:103A600001025FEA1C2040EBC25038BF70471CF0D7
:103A70007F0F18BF7047C3F12003994014BF401E49
:103A800020F00100704780084FEA122308BF7047FA
:103A9000B0FA80FCA2EB0C02CCF1280C60FA0CF01E
:103AA00093EA122F04BF00EBC25070474FEAC37075
:103AB0007047130A5FEADC1008BF7047F6E79CEA1C
:103AC000026F04D010EA5C0F08BF0020704710B5E9
:103AD000FFF745FF40DFF63E81F0004070470000F1
:103AE00000000000000000000000000004040404C6
:103AF00004040004000000140A0A00000000000092
:103B00000000000014143F140A3F0A0A00000004D9
:103B10001E1505060C14150F0400000012150D0AE1
:103B2000142C2A1200000000040A0A1E151509367A
:103B30000000000202010000000000000000002060
:103B400010080808080808102000000204080808E7
:103B500008080804020000000004150E0E150400F9
:103B6000000000000404041F04040400000000001E
:103B70000000000000000002020100000000001F21
:103B80000000000000000000000000000000000233
:103B900000000010080808040402020201000000EE
:103BA0000E1111111111110E000000000406040481
:103BB0000404040E000000000E1111080402011F8D
:103BC000000000000E11100C1010110E000000007B
:103BD000080C0A0A091E0818000000001F01010F46
:103BE0001010110E000000000E09010F1111110E2E
:103BF000000000001F090804040404040000000081
:103C00000E11110E1111110E000000000E111111F4
:103C10001E10120E0000000000000400000000044E
:103C20000000000000000004000000040400002068
:103C300010080402040810200000000000001F000B
:103C4000001F0000000000020408102010080402F9
:103C5000000000000E111108040400040000000020
:103C60000E111915151D011E0000000004040C0A98
:103C70000A1E1233000000000F12120E1212120F51
:103C8000000000001E1101010101110E00000000E2
:103C90000F1212121212120F000000001F120A0E51
:103CA0000A02121F000000001F120A0E0A02020779
:103CB000000000001C1201013911120C000000006C
:103CC0003312121E12121233000000001F040404EB
:103CD0000404041F000000003E0808080808080942
:103CE0000700000037120A060A0A12370000000017
:103CF000070202020202223F000000001B1B1B1BE6
:103D000015151515000000003B1216161A1A121789
:103D1000000000000E1111111111110E0000000021
:103D20000F12120E02020207000000000E11111104
:103D30001117190E180000000F12120E0A12123776
:103D4000000000001E1101060810110F0000000005
:103D50001F1504040404040E0000000033121212A4
:103D60001212120C000000003312120A0A0C040492
:103D7000000000001515150E0A0A0A0A00000000CE
:103D80001B0A0A04040A0A1B000000001B0A0A049A
:103D90000404040E000000001F0908040402121F9E
:103DA0000000001C04040404040404041C000002B9
:103DB00002020404080808100000000E08080808A1
:103DC000080808080E0000040A00000000000000B7
:103DD000000000000000000000000000003F0004A0
:103DE0000000000000000000000000000000000CC7
:103DF000121C123C000000000302020E1212120EEE
:103E0000000000000000001C1202021C0000000064
:103E10001810101C1212123C000000000000000CD0
:103E2000121E021C000000003804041E0404041EBC
:103E3000000000000000003C120C021E221C0000CA
:103E40000302020E121212370000000004000006E6
:103E50000404040E000000000800000C0808080814
:103E6000080700000302023A0A0E123700000000A1
:103E7000070404040404041F000000000000000FF5
:103E800015151515000000000000000F1212123762
:103E9000000000000000000C1212120C00000000D4
:103EA0000000000F1212120E020700000000001C9A
:103EB0001212121C103800000000001B060202073C
:103EC000000000000000001E020C101E0000000098
:103ED0000004040E04040418000000000000001B8D
:103EE0001212123C0000000000000037120A0C04FD
:103EF0000000000000000015150E0A0A0000000076
:103F00000000001B0A040A1B00000000000000372C
:103F1000120A0C04040300000000001E0804041E22
:103F20000000001808080804080808081800080815
:103F30000808080808080808080800060404040817
:103F4000040404040600022518000000000000001C
:103F50000000000000000000000000000000000061
:103F600000000000000808080808080800001818E9
:103F7000000000486C241200000000000000000057
:103F800000000000002424247F1212127F1212125B
:103F900000000000081C2A2A0A0C1828282A2A1CBB
:103FA000080800000022251515152A5854545422DB
:103FB00000000000000C1212120A76252911916EE1
:103FC00000000006060403000000000000000000DE
:103FD00000000040201010080808080808101020F1
:103FE0004000000204080810101010101008080407
:103FF00002000000000008086B1C1C6B0808000091
:10400000000000000000080808087F0808080800F1
:104010000000000000000000000000000000060694
:1040200004030000000000000000FE00000000008B
:104030000000000000000000000000000000060674
:1040400000000000804040202010100808040402F6
:104050000200000000182442424242424242241818
:104060000000000000080E08080808080808083EBC
:1040700000000000003C4242422020100804427E22
:1040800000000000003C4242201820404042221C18
:104090000000000000203028242422227E202078E6
:1040A00000000000007E0202021A26404042221C4C
:1040B0000000000000382402021A2642424224185E
:1040C00000000000007E22221010080808080808DE
:1040D00000000000003C4242422418244242423C7C
:1040E0000000000000182442424264584040241C52
:1040F0000000000000000000181800000000181860
:10410000000000000000000000080000000000089F
:104110000804000000402010080402040810204099
:1041200000000000000000007F0000007F00000091
:1041300000000000000204081020402010080402C3
:1041400000000000003C42424640201010001818B9
:1041500000000000001C225A555555552D42221CC6
:1041600000000000000808181414243C224242E712
:1041700000000000001F2222221E22424242221F73
:1041800000000000007C4242010101010142221CAA
:1041900000000000001F2242424242424242221FCF
:1041A00000000000003F4212121E12120242423F63
:1041B00000000000003F4212121E1212020202070B
:1041C00000000000003C2222010101712122221C7A
:1041D0000000000000E7424242427E42424242E783
:1041E00000000000003E0808080808080808083E0B
:1041F00000000000007C10101010101010101010A3
:10420000110F0000007722120A0E0A1212222277E2
:104210000000000000070202020202020202427FC6
:10422000000000000077363636362A2A2A2A2A6B02
:104230000000000000E346464A4A5252526262477A
:1042400000000000001C2241414141414141221C2B
:1042500000000000003F424242423E0202020207CA
:1042600000000000001C2241414141414D53321CDD
:1042700060000000003F4242423E1212222242C72A
:1042800000000000007C4242020418204042423EEE
:1042900000000000007F4908080808080808081CFA
:1042A0000000000000E74242424242424242423C99
:1042B0000000000000E742422224241414180808D9
:1042C00000000000006B4949494955553622222219
:1042D0000000000000E7422424181818242442E7B4
:1042E0000000000000772222141408080808081CA7
:1042F00000000000007E2120101008040442423F0C
:1043000000000078080808080808080808080808D5
:104310007800000002020404080808101020202081
:104320004040001E1010101010101010101010102F
:104330001E000038440000000000000000000000E3
:10434000000000000000000000000000000000006D
:1043500000FF000608000000000000000000000050
:104360000000000000000000003C4278444242FC93
:104370000000000000030202021A26424242261AEE
:10438000000000000000000000384402020244382F
:10439000000000000060404040784442424264D83F
:1043A0000000000000000000003C427E0202423C8F
:1043B0000000000000F08808087E08080808083E91
:1043C0000000000000000000007C22221C023C4291
:1043D000423C000000030202023A4642424242E7E7
:1043E00000000000000C0C00000E08080808083E41
:1043F0000000000000303000003820202020202065
:10440000221E0000000302020272120A1612227714
:1044100000000000000E0808080808080808083E08
:104420000000000000000000007F9292929292B77C
:104430000000000000000000003B4642424242E70C
:104440000000000000000000003C42424242423CAA
:104450000000000000000000001B26424242221E15
:104460000207000000000000007844424242447805
:1044700040E000000000000000774C040404041F2A
:104480000000000000000000007C42023C40423E70
:104490000000000000000008083E08080808083076
:1044A000000000000000000000634242424262DC63
:1044B000000000000000000000E742242414080867
:1044C000000000000000000000EB49495555222281
:1044D0000000000000000000007624181818246E68
:1044E000000000000000000000E742242414180827
:1044F0000807000000000000007E22100808447E2B
:10450000000000C02020202020102020202020207B
:10451000C0001010101010101010101010101010FB
:1045200010100006080808080810080808080808FD
:1045300006000C32C2000000000000000000000075
:104540000000D5E200802040104017FC001002104F
:10455000F12010A0104010A011101208140828001B
:1045600047FE0000CAC71FF0101010101FF01010F7
:1045700010101FF00000FFFE0100110011F81100E3
:104580002900450083FED6D0010001000100010092
:104590003FF8210821082108210821083FF82108B7
:1045A0000100010001000100CEC402000100010071
:1045B000FFFE1010101008200820044002800100A7
:1045C0000280044008203018C006B4A52020202016
:1045D000782049FC91247D24552455247DFC5524C4
:1045E00054207C28542457FE45028C00C3FE111031
:1045F000111017FC1110FC0013F8120817F81A0814
:1046000033F8D04017FC10A0111052082406C6C180
:1046100000003FF8200820083FF8241022202FF83F
:10462000222022203FFC22204220442084200820F7
:10463000B5C41040104020407E7C42844284430434
:1046400042447E2442244204420442047E0442281E
:104650000010CAB9104010401FFE2040204067FCE7
:104660006444A44427FC2040224021402080214073
:1046700022302C0ED3C300003FF821082108210866
:104680003FF82108210821083FF8210821082108C6
:10469000410841288010BAC3100010FC1004100813
:1046A000FC102420242025FE24204820282010202F
:1046B0002820442084A00040D1A72208110811100E
:1046C00000207FFE400280041FE000400180FFFECA
:1046D00001000100010005000200CFB000007FF8DA
:1046E0000008000808080408020802080068018899
:1046F0000E0870082008000800500020A3AC00003D
:1047000000000000000000000000000000000000A9
:104710000000000030003000100020000000CCEC51
:1047200000003FF80100010001000100FFFE010050
:104730000280028004400440082010102008C006B7
:10474000CFF20200040008007FFC4004400447C48C
:10475000444444444444444447C44444400440140E
:104760004008C9CF0200020002000200020002005D
:1047700003F8020002000200020002000200020030
:10478000FFFE0000D7D60000000020000018000047
:1047900018000808080FFFFC08001818001037FF61
:1047A000E00001C000030000040000180000180031
:1047B0007FFFFC001800001800001800001800001F
:1047C000180000180000F800003000000000CCE5E0
:1047D00000000002020003030002020006020004BF
:1047E000020004FFFC0806800E0E80140A80140AE2
:1047F0004024124044126004222004623004421813
:1048000004822C057FFC060200040200040200045E
:104810000200040200000000B4F3000000001000D9
:104820000018000010000010000010000010083FE9
:10483000FFFC0010000018000018000018000034F1
:104840000000240000220000630000410000C0803E
:104850000180C003007004003C1800082000000024
:104860000000D2BB000000000000000000000000BB
:104870000000000000000000000000000000000038
:1048800000000000087FFFFC0000000000000000A6
:104890000000000000000000000000000000000018
:1048A000000000000000000000000000B5E3000070
:1048B00000001000001800001000001010001FF889
:1048C00000100000100000100003FFE00200600272
:1048D000006002006002006002006003FFE002006E
:1048E0006000000000842008421808630818610C6A
:1048F000300000000000D4D90000000000000000DB
:1049000000000020000000701FFFFFF00001800089
:1049100000018000000180000001808001FFFFC0D5
:10492000018181800181818001818180018181807B
:104930000181818001FFFF8001818180018181806F
:104940000181818001818180018181983FFFFFFC8D
:10495000018001800180018001800180018001804F
:10496000018001800180018001803F8001800780FB
:104970000100020000000000B4F30000000000008D
:104980000000000100000001800000018000000123
:104990008000000180000001800000018010000103
:1049A00080383FFFFFFC0001800000018000000311
:1049B000800000038000000340000003400000036B
:1049C0002000000620000006300000061000000C49
:1049D0000800000C0C000018060000300300006006
:1049E000038000C001E0018000F8060000381800D4
:1049F00000102000000000000000D2BB00000000FA
:104A000000000000000000000000000000000000A6
:104A10000000000000000000000000000000000096
:104A20000000000000000000000000000000000086
:104A3000000000303FFFFFFC00000000000000000D
:104A40000000000000000000000000000000000066
:104A50000000000000000000000000000000000056
:104A60000000000000000000000000000000000046
:104A7000000000000000000000000000B5E300009E
:104A800000000000000000010000000180000001A3
:104A9000800000018000000180600001FFF0000143
:104AA0008000000180000001800000018000010101
:104AB000808001FFFFC001800180018001800180B2
:104AC000018001800180018001800180018001FF5F
:104AD000FF800180018001800100000000000010C3
:104AE000204002083060020C1830060C18380C0602
:104AF00018181C040818180400100000000000001A
:104B0000506C6561736520757365207468652073EA
:104B100074796C757320636C69636B2074686520AD
:104B200063726F7373206F6E207468652073637295
:104B300065656E2E5468652063726F7373207769A4
:104B40006C6C20616C77617973206D6F7665207570
:104B50006E74696C207468652073637265656E207D
:104B600061646A7573746D656E7420697320636F18
:104B70006D706C657465642E000000009C4B00082D
:104B8000000000206C0000006C010008084C0008C8
:104B90006C0000203C0700008801000800A24A04C5
:104BA00000000000000000000102030406070809DD
:104BB0000000FFFF00000000C9250008A52800082C
:104BC000CD1B0008000000000000000000000000F5
:104BD00000000000000000000000000000000000D5
:104BE000D0900000004B0008000000000000000012
:104BF0000000000000000102030401020304060794
:084C0000080902040608000087
:04000005080001CD21
:00000001FF
