:020000040800F2
:10000000A8070020CD010008CD1B000899100008AA
:10001000C91B00087B040008EF3200080000000044
:10002000000000000000000000000000C31E0008E7
:10003000450B000800000000651C0008E1200008D6
:10004000E7010008E7010008E7010008E7010008F0
:10005000E7010008E7010008E7010008E7010008E0
:10006000E7010008E7010008E7010008E7010008D0
:10007000E7010008E7010008E7010008E7010008C0
:10008000E7010008E7010008E7010008E7010008B0
:10009000E7010008E7010008E7010008E7010008A0
:1000A000E7010008E7010008E7010008E701000890
:1000B000E7010008E7010008E7010008E701000880
:1000C000E7010008E7010008E7010008E701000870
:1000D000E7010008CD300008E7010008E70100084B
:1000E000E7010008E7010008E7010008E701000850
:1000F000E7010008E7010008E7010008E701000840
:10010000E7010008E7010008E7010008E70100082F
:10011000E7010008E7010008E7010008E70100081F
:10012000E7010008E7010008E7010008E70100080F
:1001300000F002F800F03AF80AA090E8000C8244BF
:100140008344AAF10107DA4501D100F02FF8AFF29C
:10015000090EBAE80F0013F0010F18BFFB1A43F0A5
:1001600001031847EC6300000C640000103A24BF40
:1001700078C878C1FAD8520724BF30C830C144BF0C
:1001800004680C607047000000230024002500264E
:10019000103A28BF78C1FBD8520728BF30C148BFEA
:1001A0000B6070471FB51FBD10B510BD00F0A0F863
:1001B0001146FFF7F7FF03F0AAF900F0D2F803B4F5
:1001C000FFF7F2FF03BC03F0D6F8000009488047B0
:1001D00009480047FEE7FEE7FEE7FEE7FEE7FEE729
:1001E000FEE7FEE7FEE7FEE704480549054A064B41
:1001F00070470000E520000831010008A801002038
:10020000A8070020A8030020A803002070470000D2
:100210000FB4044910B503AA029800F033F810BCDB
:100220005DF814FB5000002010B5431C02E010F8EC
:10023000011B71B18107FAD14FF0013202C88C1A4B
:100240008C4314EAC211F9D0C01A0A0603D0C01EAA
:1002500010BDC01A10BD0A0401D0801E10BD0902D5
:10026000FCD0401E10BD704770477047704710B5F6
:1002700000F01AF8006810BD10B5044600F014F83C
:10028000046010BD074B70B50D467B4400F015F8B7
:100290000446284600F024F810B14FF0FF3070BD3E
:1002A000204670BDCB31000000487047440100205B
:1002B00001694A1C02610878704700B58FB0CDE92A
:1002C00001310021059105497944CDE9031011461A
:1002D000684600F032F80FB000BD0000E5FFFFFFF8
:1002E000007B00F080007047004870474401002008
:1002F0007546FFF7F9FFAE4605006946534620F004
:100300000700854618B020B5FFF76EFFBDE8204016
:100310004FF000064FF000074FF000084FF0000BC1
:1003200021F00701AC46ACE8C009ACE8C009ACE874
:10033000C009ACE8C0098D4670472DE9F04106467A
:100340000024D6E90170F5688046304603E0414656
:10035000B847641C3046A8470028F8D12046BDE8BD
:10036000F08110B50446AFF300802046BDE8104090
:10037000FFF725BF10B500F0B9FE10BD2DE9F04123
:1003800007460C460026002509E036023919491BAC
:10039000491E88B200F008F80644681CC5B2A542A0
:1003A000F3DB3046BDE8F08170B50446002600F06E
:1003B0004BFF2546E11704EB11610912A02202EB65
:1003C0004101C8B200F00CFF00F08AFFE11704EB16
:1003D00011610912A4EB0121C8B200F001FF00F085
:1003E0007FFF00F031FFA12000F0FAFE00F078FF5F
:1003F000002000F0BDFE064600F04CFF304670BD08
:100400002DE9F04105460E461746002409E0E200BA
:1004100026FA02F2D1B22A1990B200F006F8601C56
:10042000C4B2BC42F3DBBDE8F08170B504460E46B1
:1004300000F00AFF2546E11704EB11610912A02222
:1004400002EB4101C8B200F0CBFE00F049FFE1171A
:1004500004EB11610912A4EB0121C8B200F0C0FE47
:1004600000F03EFF304600F0BBFE00F039FF00F028
:1004700011FF0A2002F0A4FF70BD00BFFEE70000DC
:100480000EB502F017FC00F05DFF01F077FC00F004
:1004900019FBFEA000F058FB1F2096237822502164
:1004A0000090002001F032F801201821F8A21F234B
:1004B000CDE9002102904FF6FF7264210A2001F07D
:1004C00075FD1F2096235A0050210090B42001F0A2
:1004D0001DF801201821F1A21F23CDE9002102906F
:1004E0004FF6FF726421BE2001F060FD1F20FA2349
:1004F0007822B4210090002001F008F80120182192
:10050000E9A21F23CDE9002102904FF6FF72C82116
:100510000A2001F04BFD1F20FA234FF49672B421FC
:100520000090084600F0F2FF01201821E1A21F23ED
:10053000CDE9002102904FF6FF72C821BE2001F0E4
:1005400035FD1F204FF4AF7378224FF48C7100906B
:10055000002000F0DBFF01201821D9A21F23CDE9E4
:10056000002102904FF6FF724FF496710A2001F0BD
:100570001DFD1F204FF4AF734FF496724FF48C7132
:100580000090B42000F0C2FF01201821CFA21F2349
:10059000CDE9002102904FF6FF724FF49671BE2014
:1005A00001F004FD1F204FF4E17378224FF4BE7177
:1005B0000090002000F0AAFF01201821C6A21F23EE
:1005C000CDE9002102904FF6FF724FF4C8710A2066
:1005D00001F0ECFC1F204FF4E1734FF496724FF4DE
:1005E000BE710090B42000F091FF01201821BDA23F
:1005F0001F23CDE9002102904FF6FF724FF4C8711E
:10060000BE2001F0D3FC1AE200F0BAFEB8484168FF
:1006100000208847B648007D00F0800000287CD08C
:10062000B348008A782832DAB148008A00282EDDE3
:10063000AF48408A50282ADDAD48408A962826DAFD
:10064000ACA0FFF7E5FD02F0A3FF1FE000F098FE6D
:10065000A748416800208847A548007D00F0800039
:10066000A0B1A348008AB0F5967F0FDAA048008AAF
:10067000B4280BDD9E48408AB0F5BE7F06DD9C485D
:10068000408AB0F5E17F01DA01F0DAFADEE7984856
:10069000008AB0F5967F2FDA9548008AB4282BDDC2
:1006A0009348408A502827DD9148408A962823DACB
:1006B00002F0ACFF1FE000F063FE8D4841680020AF
:1006C00088478B48007D00F08000A0B18848008AF0
:1006D000B0F5967F0FDA8648008AB4280BDD84488F
:1006E000408AB0F5BE7F06DD8148408AB0F5E17FE3
:1006F00001DA01F0A5FADEE77D48008A782810DAF1
:100700007B48008A00280CDD7948408AB42808DD3F
:100710007748408AFA2804DA00E08DE177A0FFF7F5
:1007200077FD7348008AB0F5967F0EDA7048008A2C
:10073000B4280ADD6E48408AB42806DD6C48408A39
:10074000FA2802DA6FA0FFF763FD6948008A78286B
:1007500037DA6748008A002833DD6548408AB0F5FB
:100760008C7F2EDD6248408AB0F5AF7F29DA67A022
:10077000FFF74EFD02F098FF22E000F001FE5C481A
:100780004168002088471E2002F01AFE5848007D6C
:1007900000F08000A0B15648008AB0F5967F0FDACD
:1007A0005348008AB4280BDD5148408AB0F5BE7F1B
:1007B00006DD4F48408AB0F5E17F01DA01F040FAEA
:1007C000DBE74B48008AB0F5967F5EDA4848008A3E
:1007D000B4285ADD4648408AB0F58C7F55DD444840
:1007E000408AB0F5AF7F50DA4AA0FFF711FD02F062
:1007F000B5FFADE000F0C4FD3D48416800208847EA
:100800003B48007D00F08000F0B33948008AB0F525
:10081000967F0FDA3648008AB4280BDD3448408AC8
:10082000B0F5BE7F06DD3248408AB0F5E17F01DADF
:1008300001F006FA2E48008AC8280EDA2C48008AF1
:1008400064280ADD2A48408A822806DD2848408A32
:10085000962802DA31A0FFF7DBFC2548008AC82879
:100860000EDA2348008A64280ADD2148408AC82815
:1008700006DD1F48408AFA2802DA2AA0FFF7C8FCE2
:100880001B48008AC82851E062E062E000000000D6
:10089000CAB5CAB1BCE0B2E200000000D6C7C4DCF1
:1008A000B1A8BEAF00000000C9E8B1B8BDE9C9DC1D
:1008B00000000000CAB9D3C3CBB5C3F700000000E5
:1008C000CAD2C4DAD7B4BFF600000000B5C6B9E298
:1008D000BFD8D6C600000000B9ABCBBEB5D8D6B7DE
:1008E00000000000C1AACFB5B7BDCABD000000001E
:1008F0001C00002031200D0A0000000033200D0AEA
:100900000000000034200D0A0000000035200D0A10
:100910000000000036200D0A00000000BFCDCCFC16
:1009200000000000CED4CAD20000000010DA444813
:10093000008A64280CDD4248408AB0F5967F07DDC6
:100940003F48408AB0F5AF7F02DA3EA0FFF760FC77
:1009500050E73B48008A782834DA3948008A002872
:1009600030DD3748408AB0F5BE7F2BDD3448408A01
:10097000B0F5E17F26DA35A0FFF74AFC02F05AFF16
:100980001FE000F0FDFC2E484168002088472C48FD
:10099000007D00F08000A0B12948008AB0F5967F64
:1009A0000FDA2748008AB4280BDD2548408AB0F5C5
:1009B000BE7F06DD2248408AB0F5E17F01DA01F012
:1009C0003FF9DEE71E48008AB0F5967F34DA1C480E
:1009D000008AB42830DD1A48408AB0F5BE7F2BDD8E
:1009E0001748408AB0F5E17F26DA1AA0FFF710FC1D
:1009F00002F06AFF1FE000F0C3FC114841680020CC
:100A000088470F48007D00F08000A0B10C48008AA4
:100A1000B0F5967F0FDA0A48008AB4280BDD084843
:100A2000408AB0F5BE7F06DD0548408AB0F5E17F1B
:100A300001DA01F005F9DEE7084802F0E7FCE3E53A
:100A40001C000020B2DECBF90000000037200D0AA8
:100A50000000000038200D0A00000000400D0300D7
:100A600010B500241548406820F4704013494860D0
:100A70000846406840F40040486004E0601CC4B28E
:100A8000012002F0C3FC0E48006808B1642CF5DBBD
:100A9000642C01DB012010BD002404E0601CC4B202
:100AA000012002F0B3FC0648006808B9642CF5DBAD
:100AB000642C01DB0120EEE70020ECE70020014080
:100AC0002C01244208B50121080201F0DDF84FF4A1
:100AD0000060ADF8000010208DF8030003208DF8B1
:100AE00002006946064800F081F84FF400610448AE
:100AF00000F010F900F006F8FFF7B2FF08BD0000A3
:100B00000020014010B50C48406820F470400A49AC
:100B100048600846406840F440504860002007495B
:100B20000860142002F04CFC01200549C1F8AC011A
:100B30001E2002F06BFC10BD00200140AC012442DD
:100B400000002442704700003EB50446002000F03B
:100B500047FC1F2000901A4802881E2300210846E7
:100B600000F0D4FC1F20009015484388028840887C
:100B7000143881B2002000F0C9FC4FF6FF70114913
:100B800008800120182110A21F23CDE90021029026
:100B90004FF6FF720146002000F05EFA012010219E
:100BA0000EA2CDE90021029005484088123881B29A
:100BB0001F234FF6FF72002000F04EFA3EBD0000EA
:100BC0006C00002014000020D6C7C4DCBCD2BED309
:100BD000BCE0B2E2CFB5CDB300000000D3D0D2E28A
:100BE000BACFD7F7C7EBCBBDC1C400002DE9F041A8
:100BF000024600250026002000230024002791F84B
:100C000003C00CF00F0591F803C00CF0100CBCF100
:100C1000000F03D091F802C04CEA050591F800C01E
:100C2000BCF1000F31D0146800202BE04FF0010C14
:100C30000CFA00F3B1F800C00CEA03069E4220D182
:100C400083004FF00F0C0CFA03F7BC4305FA03FCCA
:100C50004CEA040491F803C0BCF1280F06D14FF010
:100C6000010C0CFA00FCC2F814C00AE091F803C0B1
:100C7000BCF1480F05D14FF0010C0CFA00FCC2F892
:100C800010C0401C0828D1D31460B1F800C0BCF1DA
:100C9000FF0F34DD546800202EE000F1080C4FF007
:100CA000010808FA0CF3B1F800C00CEA03069E42F2
:100CB00021D183004FF00F0C0CFA03F7BC4305FA67
:100CC00003FC4CEA040491F803C0BCF1280F05D1E1
:100CD00000F1080C08FA0CF8C2F8148091F803C06F
:100CE000BCF1480F07D100F1080C4FF0010808FAD9
:100CF0000CF8C2F81080401C0828CED35460BDE820
:100D0000F0810246002093680B400BB1012000E007
:100D100000207047016170472DE9FC5F0546884659
:100D200091469A46DDF830B00095072001900024E6
:100D30005FE004EB0410374911F810009BF8001035
:100D4000884253D104EB0410324901EB4000407853
:100D50009BF80110884249D108F10F0083B205F1D8
:100D60000F0082B24146284600F040FD00263BE0DD
:100D7000002734E00D9890B904EB0410254901EBED
:100D80004000801C805D80213941084018B14846F0
:100D900000F0FEFE21E0504600F0FAFE1DE01E4885
:100DA000A0F8009004EB04101A4901EB4000801CED
:100DB000805D80213941084018B14146284600F045
:100DC00097FB681C85B20098281A102805D1009D51
:100DD00008F101001FFA80F803E0781CC7B2082F61
:100DE000C8DB00BF701CC6B2202EC1DB00BF601C78
:100DF00084B2019884429CDB08484088401E83B23C
:100E000006480088401E82B20021084600F0EEFC31
:100E1000BDE8FC9F224E0008140000206C0000205A
:100E20002DE9FC5F0546884691469A46DDF830B0CC
:100E300000953F200190002467E004EB840000EB64
:100E400044103A4911F810009BF80010884259D11B
:100E500004EB840000EB4410344901EB400040787F
:100E60009BF8011088424DD108F1170083B205F1BB
:100E7000170082B24146284600F0B8FC00263FE049
:100E8000002738E00D98A0B904EB840000EB441073
:100E9000264901EB4000801C805D802139410840DB
:100EA00018B1484600F074FE23E0504600F070FE92
:100EB0001FE01F48A0F8009004EB840000EB4410F2
:100EC0001A4901EB4000801C805D802139410840B7
:100ED00018B14146284600F00BFB681C85B200980B
:100EE000281A182805D1009D08F101001FFA80F882
:100EF00003E0781CC7B2082FC4DB00BF701CC6B269
:100F0000482EBDDB00BF601C84B20198844294DB94
:100F100008484088401E83B206480088401E82B2BE
:100F20000021084600F062FCBDE8FC9F104F00085D
:100F3000140000206C0000202DE9FC5F0546884667
:100F400091469A46DDF830B00095072001900024C4
:100F50005FE004EB8410374911F810009BF8001093
:100F6000884253D104EB8410324901EB40004078B1
:100F70009BF80110884249D108F11F0083B205F1A6
:100F80001F0082B24146284600F030FC00263BE0BC
:100F9000002734E00D9890B904EB8410254901EB4B
:100FA0004000801C805D80213941084018B14846CE
:100FB00000F0EEFD21E0504600F0EAFD1DE01E4885
:100FC000A0F8009004EB84101A4901EB4000801C4B
:100FD000805D80213941084018B14146284600F023
:100FE00087FA681C85B20098281A202805D1009D30
:100FF00008F101001FFA80F803E0781CC7B2082F3F
:10100000C8DB00BF701CC6B2802EC1DB00BF601CF5
:1010100084B2019884429CDB08484088401E83B219
:1010200006480088401E82B20021084600F0DEFB20
:10103000BDE8FC9F46610008140000206C00002001
:1010400070B505460E4614463146284600F0C4FBEE
:10105000204600F09DFD70BD2DE9FE4F0E4617465F
:101060009846DDE90D9A0C9C2046FFF7DDF885B225
:1010700008490988A1EBC50000EBD071C1F34F0B03
:1010800043463A46314658468DE8100600F08EFF3A
:10109000BDE8FE8F6C00002000BFFEE710B5002009
:1010A0000F4908600F48006820F070400D49086043
:1010B0000846006840F04050086000200A49C1F826
:1010C0009C01022002F0A2F90120054908600220DB
:1010D00002F09CF900200449C1F8980110BD0000FD
:1010E00098812142000C01400080214208B5012175
:1010F000082000F0C9FDC020ADF8000010208DF8D8
:10110000030003208DF8020069460448FFF76EFDD6
:10111000C0210248FFF7FEFD08BD0000000C0140A1
:1011200010B500200F4908600F48006820F070409B
:101130000D4908600846006840F0405008600120F2
:101140000A49C1F89C01022002F060F9012005491A
:101150000860022002F05AF900200449C1F8980101
:1011600010BD000098812142000C01400080214206
:1011700070B5054600241748006820F070401549F6
:1011800008600846006840F000400860002616E04D
:10119000002011490860022002F038F901200F49AF
:1011A000C1F898016006040E0B487C38006808B14D
:1011B000601CC4B2012002F029F9701CC6B2082ECE
:1011C000E6DB15B9FFF7ACFF01E0FFF767FF20464C
:1011D00070BD0000000C0140988121420080214236
:1011E00070B504461548006820F070401349086047
:1011F0000846006840F04050086000201049086030
:10120000002517E0E0090E49091D08606006040E7C
:10121000022002F0FBF801200A49C1F898010220DF
:1012200002F0F4F8002006490860022002F0EEF80F
:10123000681CC5B2082DE5DB70BD0000000C014044
:10124000988121420080214210B50F48006820F0AB
:1012500070400D4908600846006840F04050086042
:1012600001200A4908600A49C1F89801042002F0E7
:10127000CDF8002005490860042002F0C7F80020DE
:101280000349C1F8980110BD000C01409C81214226
:101290000080214210B50F48006820F070400D49D1
:1012A00008600846006840F04050086000200A4985
:1012B00008600A49C1F89C01042002F0A7F8012047
:1012C000054908600549C1F89C01042002F09EF818
:1012D00010BD0000000C0140988121420080214295
:1012E00010B500241448006820F0704012490860CE
:1012F0000846006840F00040086001200F4908607F
:1013000002F084F801200E49C1F8980102F07EF83D
:1013100007E0601CC4B2FA2C03DDFFF7BBFF01201D
:1013200010BD0648803800680028F2D10349091F23
:10133000086000BFF4E70000000C01409C812142DE
:101340000080214208B50121442000F09DFC1820B6
:10135000ADF8000048208DF8030069460648FFF705
:1013600045FC0120ADF8000028208DF803006946F7
:101370000248FFF73BFC08BD00180140000801408F
:1013800010B510211448FFF7BCFC50B108211248D9
:10139000FFF7B7FC28B101211048FFF7B2FC012884
:1013A00018D10A2002F00CF810210B48FFF7A9FC15
:1013B00008B9012010BD08210748FFF7A2FC08B9B1
:1013C0000220F7E701210548FFF79BFC012801D126
:1013D0000320EFE70020EDE700180140000801407E
:1013E00070B5064614484088401E83B212480088F3
:1013F000401E82B20021084600F0F8F94FF4006068
:101400000E4908604010091F086000240AE000250A
:1014100003E0304600F0BCFB6D1C07480088A84282
:10142000F7D8641C04484088A042F0D84FF400600C
:101430000249091F086070BD6C000020140C0140B7
:101440002DE9FF4F85B081468A4600200490039025
:101450000798A0EB09050898A0EB0A06CDF80890BC
:10146000CDF804A0002D01DD012705E00DB900270E
:1014700002E04FF0FF376D42002E02DD4FF0010811
:1014800006E016B94FF0000802E04FF0FF38764250
:10149000B54201DD2C4600E034464FF0000B21E060
:1014A000019A91B2029A90B200F022F8049828446E
:1014B00004900398304403900498A04205DD0498FA
:1014C000001B04900298384402900398A04205DD66
:1014D0000398001B03900198404401900BF1010018
:1014E0001FFA80FB601C8345DADD09B0BDE8F08F90
:1014F00070B504460D462946204600F06DF90248B5
:10150000008800F045FB70BD140000202DE9F05F5D
:1015100004460D4616461F46301B401C1FFA80FA33
:10152000781B401C1FFA80FB3B463246294620466A
:1015300000F05CF94FF000080FE04FF0000906E002
:101540000A9800F025FB09F101001FFA80F9D14546
:10155000F6DB08F101001FFA80F8D845EDDB0748FB
:101560004088401E83B205480088401E82B2002198
:10157000084600F03BF9BDE8F09F00006C00002039
:1015800008B50121082000F07FFB4FF4F050ADF8C2
:10159000000003208DF8020010208DF8030069463A
:1015A0000148FFF723FB08BD000C014010B500F017
:1015B000FFFBFFF7E5FF00F0FBF8F02000F07AFA00
:1015C000C32000F05FFAF02000F074FA962000F0DB
:1015D00059FA362000F06EFA682000F053FA3A20EB
:1015E00000F068FA052000F04DFAB02000F062FA31
:1015F000802000F047FAB62000F05CFA002000F0EE
:1016000041FA022000F03EFAB52000F053FA022021
:1016100000F038FA032000F035FA002000F032FA2A
:10162000042000F02FFAB12000F044FA802000F0EE
:1016300029FA102000F026FAB42000F03BFA00202E
:1016400000F020FAB72000F035FAC62000F01AFAB0
:10165000C52000F02FFA242000F014FAE42000F056
:1016600029FA312000F00EFAE82000F023FA402099
:1016700000F008FA8A2000F005FA002000F002FAD3
:10168000002000F0FFF9292000F0FCF9192000F0FB
:10169000F9F9A52000F0F6F9332000F0F3F9C220A3
:1016A00000F008FAA72000F005FAE02000F002FAA6
:1016B000F02000F0E7F9092000F0E4F9132000F031
:1016C000E1F9122000F0DEF9122000F0DBF92B2006
:1016D00000F0D8F93C2000F0D5F9442000F0D2F910
:1016E0004B2000F0CFF91B2000F0CCF9182000F0BF
:1016F000C9F9172000F0C6F91D2000F0C3F9212018
:1017000000F0C0F9E12000F0D5F9F02000F0BAF9BE
:10171000092000F0B7F9132000F0B4F90C2000F014
:10172000B1F90D2000F0AEF9272000F0ABF93B2015
:1017300000F0A8F9442000F0A5F94D2000F0A2F92E
:101740000B2000F09FF9172000F09CF9172000F003
:1017500099F91D2000F096F9212000F093F9362028
:1017600000F0A8F9EC2000F08DF9F02000F0A2F9CB
:10177000C32000F087F9F02000F09CF9692000F008
:1017800081F9132000F096F9112000F093F9292037
:1017900000F090F9002000F0B5F90120034908603D
:1017A0004FF6FF70FFF71CFE10BD0000A481214220
:1017B00010B54FF4805007490860642001F000FE26
:1017C0004FF480500349091F0860322001F0F8FDF2
:1017D00010BD0000140C014070B504460D462B46A8
:1017E00022462946204600F001F870BD2DE9F0415F
:1017F00004460D4616461F461149887A00F05AF9EC
:10180000201200F03FF9E0B200F03CF9301200F095
:1018100039F9F0B200F036F90949087B00F04AF9CD
:10182000281200F02FF9E8B200F02CF9381200F07D
:1018300029F9F8B200F026F900F052F9BDE8F0817C
:101840006C0000202DE9FF4F83B081468A46934605
:10185000DDE91064404800880290A6F12000C6B27D
:1018600004EBD47009EB6000401E82B20AEB040066
:10187000401E83B2514648460194FFF7B7FF1298C5
:1018800050BB002525E00C2C07D106EB4600334960
:1018900001EB800010F8058004E0314800EB0610F1
:1018A00010F8058000270DE008F0010018B1584637
:1018B00000F06EF902E0069800F06AF94FEA680855
:1018C000781CC7B204EBD471B7EB610FECDB681C7A
:1018D000C5B2A542D7DB2DE0002529E00C2C07D1AD
:1018E00006EB46001D4901EB800010F8058004E07E
:1018F0001B4800EB061010F80580002711E0164881
:10190000A0F800B008F0010038B10AEB050291B26E
:1019100009EB070290B2FFF7EBFD4FEA6808781C6D
:10192000C7B204EBD471B7EB610FE8DB681CC5B23A
:10193000A542D3DB0849029808800A484088401E27
:1019400083B208480088401E82B200210846FFF793
:101950004DFF07B0BDE8F08F14000020BE43000823
:10196000324800086C0000202DE9FF4F83B0074685
:1019700091461E46109C4FF0000A002543E0701B64
:10198000401EC1B20A2001F0D2FDB9FBF0F00A21DD
:10199000B0FBF1F201FB1208BAF1000F1BD1701E6F
:1019A000A84218DDB8F1000F13D100202021A34672
:1019B000CDE90014029004EBDB71491001FB0571C5
:1019C00088B213490B8813490A880499FFF73AFF34
:1019D00017E04FF0010A002108F13000C0B2A34621
:1019E000CDE90141009004EBDB71491001FB057169
:1019F00088B207490B8807490A880499FFF722FF34
:101A000000BF681CC5B2B542B9DB07B0BDE8F08FB6
:101A100016000020140000202DE9FE4306460F4664
:101A200015461C46DDF828801DE013480088401E3E
:101A3000B04204DB10484088401EB84201DABDE8DD
:101A4000FE8320788DE821010C4803880C48028829
:101A500039463046FFF7F6FE284605EBD07106EB17
:101A600061018EB2641C20787E2802DC2078202858
:101A7000DBDA00BFE3E700006C0000201600002066
:101A80001400002010B504464FF4006007490860B8
:101A90004010091F08602146054800F001FA4FF484
:101AA00000600249091F086010BD0000140C0140CD
:101AB0000038004010B504464FF400600649086045
:101AC000401008602146054800F0EAF94FF4006034
:101AD0000149091F086010BD140C01400038004086
:101AE00010B50249087AFFF7E5FF10BD6C00002031
:101AF00070B505460C462846FFF7DCFFE0B2FFF75D
:101B0000C1FF70BD10B504462A20204948812B2012
:101B100088812C20088134B1012C10D0022C1AD0DD
:101B2000032C30D123E04FF4A070184908804FF403
:101B3000F070488048213620FFF7DAFF24E04FF4A8
:101B4000F070124908804FF4A07048802821362098
:101B5000FFF7CEFF18E04FF4A0700C4908804FF457
:101B6000F070488088213620FFF7C2FF0CE04FF468
:101B7000F070064908804FF4A0704880E8213620B4
:101B8000FFF7B6FF00E000BF00BF10BD6C000020F3
:101B900010B504464FF40060094908604010091F61
:101BA00008602112074800F07BF9E1B2054800F017
:101BB00077F94FF400600249091F086010BD00006A
:101BC000140C01400038004000BFFEE770470000E1
:101BD00070B5002100230F22C47804B3154C24688B
:101BE00004F4E064C4F5E064210AC1F10403CA40CE
:101BF000447804FA03F184781440214309010E4C1F
:101C00000678A155047804F01F050124AC4005783E
:101C10006D11AD0005F1E025C5F8004109E004783B
:101C200004F01F050124AC40044D0678761145F8F8
:101C3000264070BD0CED00E000E400E080E100E033
:101C40000648006800F4E06005490843001D0349A8
:101C50000860BFF34F8F00BFFEE700000CED00E00F
:101C60000000FA057047000029B1064AD269024314
:101C7000044BDA6104E0034AD2698243014BDA6122
:101C8000704700000010024029B1064A92690243E1
:101C9000044B9A6104E0034A92698243014B9A61C2
:101CA000704700000010024030B5002100220024DF
:101CB00000232D4D6D6805F00C0121B1042905D0DC
:101CC000082923D105E0294D056022E0274D056054
:101CD0001FE0254D6D6805F47012234D6D6805F405
:101CE0008034022505EB92421CB9214D5543056015
:101CF0000BE01D4D6D6805F400351DB11C4D5543BD
:101D0000056002E0194D5543056002E0174D05607E
:101D100000BF00BF144D6D6805F0F0010909154DB5
:101D20006B5C0568DD4045600F4D6D6805F4E06152
:101D3000090A104D6B5C4568DD4085600A4D6D6891
:101D400005F46051C90A0B4D6B5C4568DD40C56008
:101D5000054D6D6805F44041890B074D6B5CC56806
:101D6000B5FBF3F5056130BD0010024000127A00AA
:101D700000093D00560000206600002008B5012142
:101D80000420FFF781FFE020ADF8000010208DF85F
:101D9000030003208DF8020069460448FEF726FF81
:101DA000E0210248FEF7B6FF08BD00000008014030
:101DB00000B587B001210920FFF766FF4FF42040EE
:101DC000ADF8040003208DF8060018208DF80700F8
:101DD00001A91C48FEF70AFF4FF48040ADF804004B
:101DE00048208DF8070003208DF8060001A915484A
:101DF000FEF7FCFE01218803FFF736FF0020ADF857
:101E000008004FF48270ADF80A000020ADF80C0015
:101E1000ADF80E00ADF810004FF40070ADF81200F0
:101E20000020ADF81400ADF816000720ADF818003A
:101E300002A9054800F016F80121034800F006F851
:101E400007B000BD000C01400038004021B10288FD
:101E500042F04002028004E002884FF6BF731A404D
:101E60000280704710B50022028802F441520B88AC
:101E70004C8823438C882343CC8823430C892343F9
:101E80004C8923438C892343CC8923431A43028002
:101E9000838B4FF2FF74234083830B8A038210BD30
:101EA000024600BF108900F002000028FAD091819C
:101EB00000BF108900F001000028FAD09089C0B25C
:101EC0007047704710B500F001F810BD0CB5002048
:101ED000019000903348006840F480303149086038
:101EE00000BF3048006800F4003000900198401CAA
:101EF0000190009818B90198B0F5A06FF1D1294868
:101F0000006800F4003010B10120009001E00020D2
:101F100000900098012843D12348006840F0100049
:101F2000214908600846006820F003000860084660
:101F3000006840F0020008601A484068194948608B
:101F40000846406848600846406840F48060486041
:101F50000846406820F47C1048600846406840F419
:101F6000E81048600846006840F08070086000BFD4
:101F70000C48006800F000700028F9D0094840685B
:101F800020F00300074948600846406840F002001E
:101F9000486000BF0348406800F00C000828F9D1F1
:101FA0000CBD000000100240002002402DE9FF4F50
:101FB00083B0064688469146DDE91147109DB2463A
:101FC0004FF0000B71E0BBF1000F40D104EBD47176
:101FD000384A1288A2EB6101B14204DB35494988D5
:101FE000091B414502DA07B0BDE8F08F2878802848
:101FF00002DD4FF0010B58E028780D2806D108EBE0
:1020000004001FFA80F856466D1C1EE0102C0DDDF2
:10201000102128788DE883004A4641463046069BC9
:10202000FFF710FC06F1080086B20EE028788DE874
:1020300091004A4641463046069BFFF703FC204686
:1020400004EBD07106EB61018EB26D1C2DE01948D6
:102050000088001BB04204DB16484088001B404546
:1020600000DAC0E74FF0000B202C08D1CDE9005773
:102070004A4641463046069BFEF75EFF12E0182CAA
:1020800008D1CDE900574A4641463046069BFEF747
:10209000C7FE07E0CDE900574A4641463046069B59
:1020A000FEF73AFEAD1C301986B2287800288AD196
:1020B00000BF98E76C000020042808D14FF0E02111
:1020C000096941F004014FF0E022116107E04FF08F
:1020D000E021096921F004014FF0E022116170470D
:1020E0007047000010B51348006840F00100114926
:1020F000086008464068104908400E494860084694
:1021000000680E4908400B4908600846006820F442
:10211000802008600846406820F4FE0048604FF4C4
:102120001F008860FFF7CEFE4FF000600449086092
:1021300010BD0000001002400000FFF8FFFFF6FE97
:1021400008ED00E02DE9F84F04460D4617461E46FF
:10215000DDE90CABDDE90A894FF478404A49088093
:1021600001204AA31022A02100902820FFF754FC50
:10217000012047A31022A02100907820FFF74CFCFB
:10218000012044A31022B42100902820FFF744FC32
:10219000012041A31022B42100907820FFF73CFCDD
:1021A00001203EA31022C82100902820FFF734FC14
:1021B00001203BA31022C82100907820FFF72CFCBF
:1021C000012038A31022DC2100902820FFF724FCF6
:1021D000012035A31022DC2100907820FFF71CFCA1
:1021E000012032A31022F02100902820FFF714FCD8
:1021F000102004232246A02100904020FFF7B4FBCA
:10220000102004232A46A02100909020FFF7ACFB69
:10221000102004233A46B42100904020FFF7A4FB8D
:10222000102004233246B42100909020FFF79CFB3D
:10223000102004234246C82100904020FFF794FB61
:10224000102004234A46C82100909020FFF78CFB01
:10225000102004235246DC2100904020FFF784FB2D
:10226000102004235A46DC2100909020FFF77CFBCD
:10227000102000900F480188032360200E9AFFF77A
:1022800073FBBDE8F88F00001400002078313A009D
:1022900079313A0078323A0079323A0078333A00AC
:1022A00079333A0078343A0079343A006661632031
:1022B00069733A006C00002000B595B000201090C2
:1022C0000A9010901F20F94908804FF6FF70F849D6
:1022D0000880FFF785F84FF47840F44908804FF6FE
:1022E000FF70FFF77DF80020F04908800120F1A37E
:1022F0001022282100900A20FFF78EFB0120F5A371
:102300001022382100900A20FFF786FB0120FAA353
:102310001022482100900A20FFF77EFB0120FEA337
:102320001022582100900A20FFF776FB4FF47842E4
:102330001421084600F02EFC0020FE490875886133
:1023400044E2FC4840680990012009998847F9480F
:10235000007D00F0C00040287AD100200A90F548A6
:10236000007D20F04000F34908750846018A11AA53
:10237000109822F82010EF48418A109802EB800054
:1023800041801098401CC0B210901098012806D0CF
:10239000022815D0032829D0042810D141E04FF697
:1023A000FF721421084600F0F5FBE348008814385A
:1023B00080B24FF478421421099000F0EBFBABE3BC
:1023C000DD480088143880B24FF6FF72142109905E
:1023D00000F0E0FBD8484088143880B24FF47842CF
:1023E00001460990142000F0D5FB95E3D2484088BF
:1023F000143880B24FF6FF7201460990142000F0A5
:10240000C9FBCD484088143880B20990CA4800887A
:10241000143880B24FF478420890099900F0BAFB62
:102420007AE3BDF84400BDF84810401A099000282E
:1024300001DB099801E0099840420D90BDF8461073
:1024400011A8C088081A0990002802DB099802E048
:1024500063E3099840420C900D9840430D900C980E
:1024600040430C90DDE90C100844059001F0EFFAB0
:10247000CDE9060101F066F8CDE9080101F0BAFAEC
:1024800080B20F90BDF84C00BDF85010401A099072
:10249000002801DB099801E0099840420D9011A83D
:1024A0004189C089081A0990002801DB099801E0D8
:1024B000099840420C900D9840430D900C98404371
:1024C0000C90DDE90C100844059001F0C0FACDE94C
:1024D000060101F037F8CDE9080101F08BFA80B26E
:1024E0000E900E9801F016FE09900F9801F012FE62
:1024F0000890099901F0F8FC0B900B9801F066FC2C
:102500004FF066328D4BCDE9080101F0B3FA0DD3DF
:102510000B9801F05BFC8A4A8A4BCDE9080101F077
:1025200039FB03D30F9808B10E98E8BB0020109038
:1025300081484088143880B209907F480088143858
:1025400080B24FF6FF720890099900F023FB4FF418
:1025500078421421084600F01DFB7B490B9801F0DE
:10256000EDFD089001F09EFD80B211A90990C98986
:10257000BDF8502011AB5B89CDE90132CDE90310E4
:10258000BDF84C00009011A8C0880890BDF8480024
:102590000790BDF846000690BDF84400059006A9D6
:1025A0000EC9FFF7CFFDF0E2FFE7BDF84400BDF82C
:1025B0004C10401A0990002801DB099801E00998A5
:1025C00040420D90BDF8461011A84089081A0990A4
:1025D000002801DB099801E0099840420C900D9811
:1025E00040430D900C9840430C90DDE90C100844DA
:1025F000059001F02CFACDE9060100F0A3FFCDE92A
:10260000080101F0F7F980B20F90BDF84800BDF85D
:102610005010401A0990002801DB099801E0099840
:1026200040420D9011A8C188C089081A099000285D
:1026300001DB099801E0099840420C900D98404355
:102640000D900C9840430C90DDE90C100844059067
:1026500001F0FDF9CDE9060100F074FFCDE90801B4
:1026600001F0C8F980B20E900E9801F053FD099068
:102670000F9801F04FFD0890099901F035FC0B907F
:102680000B9801F0A3FB4FF066322C4BCDE908010B
:1026900001F0F0F909D30B9801F098FB284A294B77
:1026A000CDE9080101F076FA7ED24FE01400002057
:1026B00016000020506C6561736520757365207489
:1026C0006865207374796C757320636C69636B2023
:1026D0007468650063726F7373206F6E2074686531
:1026E0002073637265656E2E5468652063726F7324
:1026F000732077696C6C0000616C77617973206D71
:102700006F766520756E74696C20746865207363DC
:102710007265656E2000000061646A7573746D6592
:102720006E7420697320636F6D706C657465642EC0
:10273000000000001C0000206C0000206666EE3FD8
:10274000CDCCCCCCCCCCF03F0000C84200201090C7
:10275000F9484088143880B20990F7480088143846
:1027600080B24FF6FF720890099900F013FA4FF407
:1027700078421421084600F00DFAF0490B9801F058
:10278000DDFC089001F08EFC80B20146099011A892
:10279000C289BDF8500011AB5B89CDE90130CDE9AC
:1027A0000321BDF84C0000E011E0009011A8C088A2
:1027B0000890BDF848000790BDF846000690BDF8A7
:1027C0004400059006A90EC9FFF7BCFCDDE1BDF889
:1027D0004800BDF84C10401A0990002801DB099808
:1027E00001E0099840420D9011A8C1884089081A5B
:1027F0000990002801DB099801E0099840420C90FB
:102800000D9840430D900C9840430C90DDE90C105E
:102810000844059001F01BF9CDE9060100F092FE95
:10282000CDE9080101F0E6F880B20F90BDF8440050
:10283000BDF85010401A0990002801DB099801E00A
:10284000099840420D90BDF8461011A8C089081A99
:102850000990002801DB099801E0099840420C909A
:102860000D9840430D900C9840430C90DDE90C10FE
:102870000844059001F0EBF8CDE9060100F062FE96
:10288000CDE9080101F0B6F880B20E900E9801F083
:1028900041FC09900F9801F03DFC0890099901F066
:1028A00023FB0B900B9801F091FA4FF06632A44B8A
:1028B000CDE9080101F0DEF809D30B9801F086FAA2
:1028C000A04AA14BCDE9080101F064F93ED20020F5
:1028D000109099484088143880B209909648008832
:1028E000143880B24FF6FF720890099900F052F93F
:1028F0004FF478421421084600F04CF98F490B98A8
:1029000001F01CFC089001F0CDFB80B2024609905A
:1029100011A8C089BDF8501011AB5B89CDE9013118
:10292000CDE90302BDF84C00009011A8C0880890C2
:10293000BDF848000790BDF846000690BDF8440079
:10294000059006A90EC9FFF7FDFB1EE1BDF8480082
:10295000BDF84410401A079001F0C4FB0990764876
:1029600000882838079001F0BDFB0890099901F014
:10297000BBFA76498861BDF84800BDF844100844A8
:10298000049001F0AFFB0590704880690146049007
:10299000059801F0D3FB079067480088059001F087
:1029A000B9FB0690079901F095FC4FF08041089023
:1029B00001F09AFA099001F059FB00B263490884CA
:1029C00011A84089BDF84610401A079001F08AFB13
:1029D0000990594840882838079001F083FB0890F7
:1029E000099901F081FA5949C86111A84089BDF8D7
:1029F00046100844049001F075FB05905348C069E7
:102A000001460490059801F099FB07904A484088D8
:102A1000059001F07FFB0690079901F05BFC4FF0F9
:102A20008041089001F060FA099001F01FFB00B2AC
:102A30004649488408468069079001F017FB0890D2
:102A4000002801DB089801E00898404202280DDCCC
:102A50003E48C069079001F009FB0990002801DB9E
:102A6000099801E00998404202283ADD00201090C0
:102A700031484088143880B209902F4800881438B3
:102A800080B24FF6FF720890099900F083F84FF476
:102A900078421421084600F07DF801202CA3102272
:102AA0001A2100902820FEF7B7FF284890F824004C
:102AB00008B9012000E00020244981F824000846DC
:102AC00090F8240030B1902026490870D020264983
:102AD000087005E0D0202349087090202249087032
:102AE00053E01F20214908804FF6FF70FEF778FC65
:102AF00001201FA310226E2100902320FEF78CFFDF
:102B00004FF47A7000F05CFC00F006FA4FF6FF70AC
:102B1000FEF766FC15B000BD00BF0A2000F050FCB7
:102B20000A98401C80B20A900A98B0F57A7F2BDD93
:102B300000F06CF82BE000006C0000200000C842A0
:102B40006666EE3FCDCCCCCCCCCCF03F1C00002058
:102B50005450204E65656420726561646A757374B3
:102B60002100000044000020450000201400002047
:102B7000546F7563682053637265656E2041646AA3
:102B8000757374204F4B210000BFFFF7DABB00BF05
:102B900000BFBFE7F8B504460D4616461A48068042
:102BA00004F10D018AB2193988B22B462946FEF785
:102BB00047FC05F10D0083B2193881B22246204648
:102BC000FEF73EFC6A1C91B2621C90B2FEF790FCCC
:102BD0006A1C91B2621E90B2FEF78AFC6A1E91B224
:102BE000621C90B2FEF784FC6A1E91B2621E90B223
:102BF000FEF77EFC00200623009003480288294649
:102C0000204600F037FCF8BD1400002070B53520D8
:102C1000FDF7CAFB04460A2C42D104212820FDF707
:102C2000ADFB0446204601F05DFA05461D4901F062
:102C30005BF91D49886104212C20FDF79FFB0446A8
:102C4000204601F04FFA0546164901F04DF91649A4
:102C5000C86102213020FDF791FB00B212490884BF
:102C600002213220FDF78AFB00B20F49488434204C
:102C7000FDF79AFB0C4981F82400084690F82400DF
:102C800030B1902009490870D0200949087005E04A
:102C9000D02006490870902005490870012070BDB9
:102CA0000020FCE720BCBE4C1C000020440000209B
:102CB0004500002008B501211120FEF7E5FF42F292
:102CC0000900ADF8000010208DF8030003208DF8F6
:102CD000020069461248FDF789FF40F20440ADF852
:102CE000000048208DF8030069460D48FDF77EFF7F
:102CF0000C49881E00F098F8FDF73CFBFFF786FFB3
:102D000008B1002008BD4FF6FF70FEF769FBFFF722
:102D1000D3FA00F001F9FFF779FF0120F2E7000094
:102D2000001001402E00002070B50646002500244A
:102D300000201D4908601D49C1F88C011A49343131
:102D40000860304600F0A2F9062000F05FFB00208A
:102D50001649C1F88001012000F058FB01201249FA
:102D6000086000201149C1F8800100BF12E04FF651
:102D7000FF7000EA440400200B49086001200B4961
:102D8000C1F8800108487838006808B1601C84B236
:102D9000681CC5B2102DEADB241101200249343130
:102DA0000860204670BD00008001224200002242DF
:102DB0002DE9FE4380460027002406E04046FFF749
:102DC000B3FF2DF81400601C84B2052CF6DB002440
:102DD00016E0601C85B20FE03DF814003DF81510B8
:102DE000884207DD3DF814603DF815002DF8140009
:102DF0002DF81560681C85B2052DEDDB601C84B2D2
:102E0000042CE6DB0027012405E03DF814003844DB
:102E100087B2601C84B2042CF7DB032097FBF0F030
:102E200086B23046BDE8FE832DE9F04104460D46EA
:102E300007480078FFF7BCFF064606480078FFF712
:102E4000B7FF074626802F800120BDE8F0810000F3
:102E500044000020450000207FB504460D4602A92D
:102E600003A8FFF7E1FF064616B9002004B070BDC5
:102E7000694601A8FFF7D8FF06460EB90020F5E71E
:102E8000BDF80400BDF80C10884206DCBDF80C103B
:102E9000BDF80400323081420CDBBDF80C00BDF8F7
:102EA0000410884236DCBDF80410BDF80C00323046
:102EB00081422FDABDF80000BDF80810884206DC18
:102EC000BDF80810BDF80000323081420CDBBDF8BF
:102ED0000800BDF8001088421CDCBDF80010BDF8E9
:102EE00008003230814215DABDF80C10BDF804201C
:102EF000881800EBD071C1F34F012180BDF8081094
:102F0000BDF80020881800EBD071C1F34F01298073
:102F10000120ABE70020A9E770B51B4988691B4970
:102F200001F00CF9054601F0A1F8044604222146FF
:102F30002820FDF765FA1449C869144901F0FEF824
:102F4000054601F093F80446042221462C20FDF7A3
:102F500057FA0D48B0F9201002223020FDF750FA40
:102F60000948B0F9221002223220FDF749FA06483A
:102F700090F824103420FDF758FA0A242146352011
:102F8000FDF753FA70BD00001C00002020BCBE4CB1
:102F90002DE9F04104463B480068002853D124B194
:102FA0003949881EFFF758FF3CE03749881EFFF774
:102FB00053FFB8B334491239B1F9200001F092F847
:102FC000074631491239088A01F0A4F880462E4894
:102FD00012388169404601F0B1F80646394600F0E2
:102FE00021FF054601F05EF8274912390882B1F940
:102FF000220001F077F8074623491239488A01F088
:1030000089F8804620481238C169404601F096F898
:103010000646394600F006FF054601F043F81A4916
:103020001239488218481238007D00F0800010BB29
:10303000C0201549123908750846008A888108465B
:10304000408AC88117E010481238007D00F08000E7
:1030500040B10D481238007D20F080000A49123935
:10306000087508E00020084912398881C8814FF6A8
:10307000FF700882488204481238007D00F080000A
:10308000BDE8F081280122422E000020002100BF6F
:1030900015E000F080021AB101220A4B1A6002E02A
:1030A0000022084B1A604206100E0022054B0C3B12
:1030B0001A600122044BC3F880214A1CD1B20829AE
:1030C000E7DB70478C0122420000224210B540F23B
:1030D00025511D4800F04AF810B31B4800F002F9D2
:1030E000C4B21A48008800F40040C8B917480088E4
:1030F00000F4804060B10A2C03D0002013490880FE
:1031000020E01248008840F400401049088019E08F
:103110000D2C06D10D48008840F480400B490880F2
:1031200010E00A480088C0F30D0009490C54074814
:103130000088401C0549088008460088C72801DD32
:103140000020088010BD000000380140540000201D
:103150007A00002021B1828942F40052828104E089
:1031600082894DF6FF731A408281704770B502461E
:10317000002400230025002040F66A16B14200D149
:1031800000BFC1F3421501F01F03012606FA03F345
:10319000012D02D19689334006E0022D02D1168A14
:1031A000334001E0968A33400C12012606FA04F4FB
:1031B0001688344013B10CB1012000E0002070BD2E
:1031C000F0B50346002400260025002040F66A17CB
:1031D000B94200D100BF1846C1F3421401F01F06E6
:1031E000012707FA06F5012C01D10C3004E0022C6E
:1031F00001D1103000E014301AB107682F43076086
:1032000002E00768AF430760F0BD00002DE9F0471A
:1032100086B005460E460024A24600BFA146002700
:10322000B08900B100BF2F462C8A4CF6FF700440D5
:10323000F08804432C82AC894EF6F3100440B08829
:1032400031890843718908430443AC81AC8A4FF645
:10325000FF400440B0890443AC8201A8FEF724FD7E
:103260001F48874202D1DDF810A001E0DDF80CA074
:10327000A88900F4004040B10AEBCA0000EB0A1034
:1032800031684900B0FBF1F807E00AEBCA0000EB37
:103290000A1031688900B0FBF1F86420B8FBF0F047
:1032A00004012009642101FB1089A88900F4004071
:1032B00040B1322000EBC900B0FBF1F000F0070094
:1032C000044308E0322000EB09106421B0FBF1F068
:1032D00000F00F0004432C8106B0BDE8F087000029
:1032E0000038014001468888C0F30800704700BFDD
:1032F000FEE72DE9F04104460D4616461F46DDF86F
:103300001880EA1991B2A21990B24246FDF798FED0
:10331000EA1991B2A21B90B24246FDF791FEEA1B58
:1033200091B2A21990B24246FDF78AFEEA1B91B211
:10333000A21B90B24246FDF783FEAA1991B2E21990
:1033400090B24246FDF77CFEAA1991B2E21B90B200
:103350004246FDF775FEAA1B91B2E21990B24246B1
:10336000FDF76EFEAA1B91B2E21B90B24246FDF73A
:1033700067FEBDE8F08100BF7047000010B56FF038
:103380000400FEF799FE0A4800680A49B0FBF1F014
:10339000094908700846007800EB4001C1EBC010F5
:1033A0004FF6FF7101EAC0000449088010BD00001B
:1033B0000000002000127A004C0000204E00002087
:1033C0000146114A12884A434FF0E0235A61002215
:1033D0009A611A46126942F001021A6100BF4FF069
:1033E000E022106900F001021AB100F48032002AD4
:1033F000F5D04FF0E022126922F001024FF0E023F5
:103400001A6100229A6170474E0000200146114A5D
:1034100012784A434FF0E0235A6100229A611A461B
:10342000126942F001021A6100BF4FF0E0221069F8
:1034300000F001021AB100F48032002AF5D04FF0FA
:10344000E022126922F001024FF0E0231A6100220B
:103450009A6170474C00002000BF054A128802F0B4
:103460004002002AF9D0C2B2014B1B1D1A807047DE
:10347000003801402DE9FF4F81B08246174698463B
:10348000DDF838B0002445464FEA4800C0F1030695
:10349000BBF1000F1FD01BE0A14608E04B462246BF
:1034A000009750460299FFF724FF09F10109A94549
:1034B000F4DD002E04DA042000FB0460861D06E023
:1034C000601B042101FB006000F10A066D1E641CF4
:1034D000AC42E1DD18E015E02B462246009750464D
:1034E0000299FFF706FF002E04DA042000FB0460B7
:1034F000861D06E0601B042101FB006000F10A0646
:103500006D1E641CAC42E7DD05B0BDE8F08FFEF730
:10351000E9FD4FF4E13000F011FAFFF72FFFFEF75D
:1035200045F8FDF7CFFA01E0FCF7AAFFFCE710B57C
:103530000246012000E050430B1EA1F10104E1B25C
:10354000F9D110BD2DE9F04106460F4600F058FBB9
:10355000041E0D4618BF0120284320F00040C0F192
:103560007F6000F1E040C00F0ED0301C18BF01207A
:10357000384320F00040C0F17F6000F1E040C00F10
:1035800004BF0120FCF778FE20462946BDE8F08103
:103590000EB515A0FDF7D8FA0120182113A21F239C
:1035A000CDE9002102904FF6FF7264213220FEF730
:1035B000FDFC1F204FF4E1734FF496724FF4BE717F
:1035C0000090F020FDF7A2FF012018210DA21F237B
:1035D000CDE9002102904FF6FF724FF4C871FA2036
:1035E000FEF7E4FC0EBD000000000000B1BECFB548
:1035F000CDB3D3C3D3DAD6C7C4DCBCD2BED3BCE010
:10360000B2E20000B7B5BBD8000000000EB51BA0A9
:10361000FDF79AFA0120182119A21F23CDE90021F4
:1036200002904FF6FF7264215020FEF7BFFC01208C
:10363000182118A21F23CDE9002102904FF6FF7236
:1036400082213220FEF7B2FC1F204FF4E1734FF4C9
:1036500096724FF4BE710090F020FDF757FF0120E5
:1036600018210FA21F23CDE9002102904FF6FF720F
:103670004FF4C871FA20FEF799FC0EBD000000005F
:10368000CAD2C4DABBB7BEB3CAFDBEDDB9FDB8DF6E
:10369000A3AC0000D7D4B6AFB1A8BEAF0000000005
:1036A000B7B5BBD8000000000EB522A0FDF74CFA5C
:1036B0000120182120A21F23CDE9002102904FF6FE
:1036C000FF7246215A20FEF771FC012018211DA22D
:1036D0001F23CDE9002102904FF6FF72822128209E
:1036E000FEF764FC0120182118A21F23CDE9002158
:1036F00002904FF6FF72A0212820FEF757FC1F20F2
:103700004FF4E1734FF496724FF4BE710090F020C5
:10371000FDF7FCFE012018210EA21F23CDE9002198
:1037200002904FF6FF724FF4C871FA20FEF73EFC8C
:103730000EBD000000000000CAB5CAB1BCE0B2E294
:1037400000000000CEC2B6C8A3BA0000CAAAB6C81C
:10375000A3BA0000B7B5BBD8000000000EB529A081
:10376000FDF7F2F90120182127A21F23CDE900213E
:1037700002904FF6FF7232216420FEF717FC002002
:10378000202124A21F23CDE9002102904FF6FF72D1
:1037900082216420FEF70AFC002020211FA21F23A3
:1037A000CDE9002102904FF6FF72C8216420FEF798
:1037B000FDFB002020211BA21F23CDE90021029048
:1037C0004FF6FF724FF487716420FEF7EFFB1F2066
:1037D0004FF4E1734FF496724FF4BE710090F020F5
:1037E000FDF794FE0120182110A21F23CDE900212E
:1037F00002904FF6FF724FF4C871FA20FEF7D6FB25
:103800000EBD000000000000B5C6B9E2BFD8D6C6A4
:1038100000000000BFCDCCFCB5C60000CED4CAD29B
:10382000B5C60000B2DECBF9B5C60000B7B5BBD84F
:10383000000000000EB51BA0FDF786F9012018213D
:1038400019A21F23CDE9002102904FF6FF726421D7
:103850005020FEF7ABFB0120182116A21F23CDE953
:10386000002102904FF6FF7296215020FEF79EFB3A
:103870001F204FF4E1734FF496724FF4BE71009025
:10388000F020FDF743FE012018210DA21F23CDE9F2
:10389000002102904FF6FF724FF4C871FA20FEF734
:1038A00085FB0EBD00000000D0E9C4E2B5D8D6B754
:1038B00000000000B1B1BEA9BBB6D3ADC4E30000A7
:1038C000B7B5BBD8000000000EB515A0FDF73CF958
:1038D0000120182113A21F23CDE9002102904FF6E9
:1038E000FF7264215020FEF761FB1F204FF4E1734B
:1038F0004FF496724FF4BE710090F020FDF706FE73
:10390000012018210BA21F23CDE9002102904FF6C0
:10391000FF724FF4C871FA20FEF748FB0EBD00009D
:1039200000000000BBB6D3ADC6C0C2DBCBBDD0C566
:1039300000000000B7B5BBD80000000010B586B08D
:103940000446012144F20400FEF79EF94FF4007092
:10395000ADF8140003208DF8160018208DF817001C
:1039600005A91C48FDF742F94FF48060ADF814003A
:1039700004208DF8170005A91648FDF737F9252012
:103980008DF8000003208DF801008DF80200012061
:103990008DF803006846FEF71BF901940020ADF88E
:1039A0000800ADF80A00ADF80C00ADF810000C20CE
:1039B000ADF80E0001A90848FFF728FC012240F2EB
:1039C00025510548FFF7FCFB01210348FFF7C2FB27
:1039D00006B010BD0008014000380140491058BF32
:1039E000C1F140415B1058BFC3F140438B42EFF33C
:1039F000008070474FEA1153A3F58063D3F11E0393
:103A0000A8BFD3F1200C08DB4FF0004242EAC122EC
:103A100052EA505232FA03F0704709420BD4102B8D
:103A2000C4BF0020704703F5787CBCF1FF3F05D090
:103A30004FF0FF3070474FF00000704770B500F056
:103A400055F800BF4992248000207047F0E7B0FA93
:103A500080F310FA03F10AD0C3F11D0303F580636C
:103A60004FEA41504FEA035202EBD12170474FF029
:103A70000000704751EA030C17D41CF5801F58BF93
:103A8000BCF5801F00F10680994218BF704708BF3F
:103A90009042704707D711F5801F58BF13F5801F5C
:103AA00019D499427047894270471CF5801F08D588
:103AB000BCF5801FF7D58B4218BF704708BF824204
:103AC00070474FF4001C1CEB410F38BF1CEB430F39
:103AD00001D28B42704770B500F008F8922449007B
:103AE0004FF000514FF08053FFF778BF0EF1020EF8
:103AF0002EF0030E5EF8046B364205D4012A43EB28
:103B0000030515F5001F12D8012841EB010C1CF527
:103B1000001F0CD80ED14FEAD17C15F5001F0CEB1D
:103B20004C0C0CF1020C08BF4CEBD37C04E04FF0C2
:103B3000080C01E04FEAD37C0CEB4C0526FA05F6A5
:103B400006F00706B6F1040C06D20EEB860CBDE8B3
:103B500070404CF0010C6047DFE80CF0090B0202EA
:103B60004FF000414FF00000A1F5002170BD194653
:103B70001046012851EB010418BFD4F5001484BF8E
:103B8000002001F0004170BD0808A0F500114FEAC7
:103B90003101704753EA010C17D41CF5801F58BF40
:103BA000BCF5801F00F106808B4218BF704708BF2C
:103BB0008242704707D713F5801F58BF11F5801F49
:103BC00019D48B4270479B4270471CF5801F08D563
:103BD000BCF5801FF7D5994218BF704708BF9042C7
:103BE00070474FF4001C1CEB430F38BF1CEB410F18
:103BF00001D2994270470FB40CBC03BCFFF76BBFF6
:103C00002DE9F04101F5801CBCF5001FC0F2C38016
:103C10004FEA115C21EA0C510CF1FD0C41F48011CA
:103C20005FEA5C0C0CF5C07C01D3400049413DA427
:103C3000890241EA905187028E0E0A0CA45D04FBB2
:103C400004F602FB06F6C6F14046A4FB0662F60D3A
:103C500046EA422606FB06F4A4FB01235242C3F1C6
:103C6000404338BF5B1EA6FB02420024E6FB032450
:103C7000D20B42EA4446A6FB0623A1FB02E2A3FBC9
:103C800007E4A4184FF0000252F10002E3FB0142E6
:103C90006442C2F1404E38BFAEF1010EA6FB0423D0
:103CA0004FF00002E6FB0E32A2FB03464FF0000489
:103CB000B61954F10004E2FB0264A1FB06E6A4FB82
:103CC00007E816EB08064FF0000858F10008E4FB7F
:103CD00001687642C8F1405838BFA8F10108A2FB3C
:103CE00006E4A3FB08E52D194FF0000454F100048D
:103CF000E2FB0854A1FB05E6A7FB04E818EB060865
:103D00004FF0000656F10006E1FB048618F120058D
:103D100056F10006A809A8F11B08B10908F03F08F0
:103D2000B8F10A0F40EA86601CD901EB0C51BDE8DE
:103D3000F08100BFFCF5EEE8E2DDD8D3CFCBC7C3FE
:103D4000C0BDB9B6B4B1AEACA9A7A5A3A19F9D9BB8
:103D50009A9896959392908F8D8C8B89888786857B
:103D600084838281A0FB006800FB01F208EB42081B
:103D7000B8EB872807D5341858EB0104D5D5401C7B
:103D800051F10001D1E7341A78EB0104CDD4401E83
:103D900071F10001C9E75FEA4C0C5FEA9C5C0DD150
:103DA00005D34FF0000001F00041BDE8F081BDE80F
:103DB000F04170B5FFF79AFE6DDBFFBEBDE8F04144
:103DC0004FF00000004970470000F87F43004FEAC1
:103DD000D30C4FEA3C0C43401FBF40070CF160512D
:103DE00013F0FE4F70471CF0006F03D100200CF061
:103DF000004170470CF0004343EA507010B540EAB0
:103E0000CC0000F01CFA00BF000000924FEA000155
:103E1000FFF7BABE4FF000414FF00000A1F50021BE
:103E20007047000090EA010F48BF81F0004100F1A7
:103E30005882421A3CBF801A89184FEAD0524FF07C
:103E40007F4C1CEA410FA2EBD15318BF9CEA026FD2
:103E500000F03B804FF0004C4CEA00204CEA01217E
:103E600021FA03FC10EB0C0C1ED202F1FF325FEAC8
:103E70001C2040EBC25038BF70471CF07F0F4FEA48
:103E8000400C18BFBCF17F4F38BF7047C3F120030F
:103E9000994008BF20F00100BCF17F4F38BF704748
:103EA000A0F1C04000F011BA4FEA3C00000A40EB1C
:103EB000C25028BF1CF0FF0F4FEA400CE6D018BFDD
:103EC000BCF17F4F38BF7047EAE79CEA026F05D02C
:103ED00010EA5C0F08BF00F00040704710B500F01A
:103EE000AEF900BF64FBBE3E4FF47F0C1CEAD0125B
:103EF0001EBF1CEAD11392EA0C0F93EA0C0F00F0DC
:103F0000858090EA010F48BF42F4807240F4000CB3
:103F100041F400002CF07F4120F07F4000B5814249
:103F2000A2EB03020FF2081CACEB504EC0F10000F4
:103F30009EF800E04FEA4E0E00FB0EFC38BF490031
:103F40004FEA2C1C02F5FA020CFB0EF34FEACE1ED0
:103F50004FEA112C4FEAC1210EEB635E42EB224285
:103F60000EFB0CFC4FEA1C5300FB03114FEA112C13
:103F70004FEA01310EFB0CFC4FEADC4C00FB0C114C
:103F8000C14228BF09184CEB03335DF804EB10EB7A
:103F9000410143EBC250B2F57C0F38BF704729D5C1
:103FA00012F0F00F1CBF00F1C04000F0004070475D
:103FB000008182838485868788898B8C8D8E8F9102
:103FC0009293959697999A9C9D9FA0A2A3A5A7A826
:103FD000AAACAEB0B2B3B5B7B9BCBEC0C2C5C7C952
:103FE000CCCED1D4D7D9DCDFE2E6E9ECF0F3F7FAB6
:103FF000FE0000004FEA400C0CF1807CBCF17E4FCB
:1040000028BF7047B0F1C04000F05FB990EA010FDF
:104010000CEAD11348BF42F48072624538BF634551
:1040200007D213F47F0F16D080EA010000F00040A1
:10403000704710B500F003F9097EFC3E00F005B8AA
:1040400080EA010000F00040704780EA010000F0C3
:10405000004000F03AB912F47F0F04BF02487047E5
:1040600080EA010000F031B90000C07F41000B0E72
:10407000D3F19E0208D950F400034FEA032323FA38
:1040800002F048BF4042704710B500F0D8F800BFBA
:1040900049922480002070476FF0004282EA20009D
:1040A00070470000C10DD1F19E0206DB4FEA0023EC
:1040B00043F0004323FA02F07047004207D54FEA6D
:1040C0004001B1F1FE4F02D24FF00000704710B531
:1040D00000F0B5F849922480002070476FEA200074
:1040E0007047000010F0004148BF4042B0FA80F332
:1040F00010FA03F2C3F19D030BD051EAC35101EB57
:104100001220530638BF704700F1010008BF20F0AD
:1041100001007047B0FA80F310FA03F2C3F19D0377
:104120000AD0D90501EB1220530638BF704700F1C1
:10413000010008BF20F00100704700004FF47F0C21
:104140001CEAD0121EBF1CEAD11392EA0C0F93EAAC
:104150000C0F00F0478090EA010F48BF42F48072D4
:104160004FF0004C4CEA00204CEA012102EB030224
:10417000A0FB0113A2F50002002918BF43F00103C0
:104180005B0028BF4FEA330342EB22425FEA132C65
:104190004CEBC2502EBFBCEB436FB2F57C0F7047A7
:1041A0004FEA036CBCF1004F08BF20F00100B2F5EC
:1041B0007C0F38BF70470BD582F0FF0212F5803FAD
:1041C000C8BF704700F1C040D8BF00F00040704742
:1041D00000F5000C5FEA4C0C48BF7047B0F1C040DE
:1041E00000F073B890EA010F0CEAD11348BF42F413
:1041F0008072624538BF634504D280EA010000F056
:104200000040704710B500F01AF800BF8900013E69
:1042100000F007B800F009B85FEA410C5FEA1C6CD7
:1042200008D080EA010000F050B85FEA400C5FEA75
:104230001C6CF6D14FF00040A0F5800070470EF1E5
:10424000020E2EF0030E5EF8044B244204D44FEA13
:104250004102B2F17F4F11D84FEA4003B3F17F4FD3
:104260000CD80ED14FEAD07CB2F17F4F0CEB4C0C46
:104270000CF1020C08BF4CEBD17C04E04FF0080CB1
:1042800001E04FEAD17C0CEB4C0324FA03F404F078
:104290000704B4F1040C06D20EEB840CBDE8104008
:1042A0004CF0010C6047DFE80CF0070802024FF009
:1042B0000040A0F5800010BD0846420018BFD2F1B2
:1042C000807288BF00F0004010BDFF2141EAD0504D
:1042D000C005704790EA010F48BF81F000413FF5EB
:1042E000A8AD421A04D882F00042A0EB02001144AB
:1042F0004FEAD0524FF07F4C1CEA410FA2EBD15352
:1043000018BF9CEA026F4AD04FF0004C4CEA0020E4
:104310004CEA012121FA03FCB0EB0C0C0FD412F093
:10432000FE0F36D05FEA4C001DD5001240EBC250A4
:1043300038BF70471CF03F0F18BF70470BE0A2F169
:1043400001025FEA1C2040EBC25038BF70471CF0EE
:104350007F0F18BF7047C3F12003994014BF401E60
:1043600020F00100704780084FEA122308BF704711
:10437000B0FA80FCA2EB0C02CCF1280C60FA0CF035
:1043800093EA122F04BF00EBC25070474FEAC3708C
:104390007047130A5FEADC1008BF7047F6E79CEA33
:1043A000026F04D010EA5C0F08BF0020704710B500
:1043B000FFF745FF40DFF63E81F000407047000008
:1043C00000000000000000000000000004040404DD
:1043D00004040004000000140A0A000000000000A9
:1043E0000000000014143F140A3F0A0A00000004F1
:1043F0001E1505060C14150F0400000012150D0AF9
:10440000142C2A1200000000040A0A1E1515093691
:104410000000000202010000000000000000002077
:1044200010080808080808102000000204080808FE
:1044300008080804020000000004150E0E15040010
:10444000000000000404041F040404000000000035
:104450000000000000000002020100000000001F38
:10446000000000000000000000000000000000024A
:104470000000001008080804040202020100000005
:104480000E1111111111110E000000000406040498
:104490000404040E000000000E1111080402011FA4
:1044A000000000000E11100C1010110E0000000092
:1044B000080C0A0A091E0818000000001F01010F5D
:1044C0001010110E000000000E09010F1111110E45
:1044D000000000001F090804040404040000000098
:1044E0000E11110E1111110E000000000E1111110C
:1044F0001E10120E00000000000004000000000466
:10450000000000000000000400000004040000207F
:1045100010080402040810200000000000001F0022
:10452000001F000000000002040810201008040210
:10453000000000000E111108040400040000000037
:104540000E111915151D011E0000000004040C0AAF
:104550000A1E1233000000000F12120E1212120F68
:10456000000000001E1101010101110E00000000F9
:104570000F1212121212120F000000001F120A0E68
:104580000A02121F000000001F120A0E0A02020790
:10459000000000001C1201013911120C0000000083
:1045A0003312121E12121233000000001F04040402
:1045B0000404041F000000003E0808080808080959
:1045C0000700000037120A060A0A1237000000002E
:1045D000070202020202223F000000001B1B1B1BFD
:1045E00015151515000000003B1216161A1A1217A1
:1045F000000000000E1111111111110E0000000039
:104600000F12120E02020207000000000E1111111B
:104610001117190E180000000F12120E0A1212378D
:10462000000000001E1101060810110F000000001C
:104630001F1504040404040E0000000033121212BB
:104640001212120C000000003312120A0A0C0404A9
:10465000000000001515150E0A0A0A0A00000000E5
:104660001B0A0A04040A0A1B000000001B0A0A04B1
:104670000404040E000000001F0908040402121FB5
:104680000000001C04040404040404041C000002D0
:1046900002020404080808100000000E08080808B8
:1046A000080808080E0000040A00000000000000CE
:1046B000000000000000000000000000003F0004B7
:1046C0000000000000000000000000000000000CDE
:1046D000121C123C000000000302020E1212120E05
:1046E000000000000000001C1202021C000000007C
:1046F0001810101C1212123C000000000000000CE8
:10470000121E021C000000003804041E0404041ED3
:10471000000000000000003C120C021E221C0000E1
:104720000302020E121212370000000004000006FD
:104730000404040E000000000800000C080808082B
:10474000080700000302023A0A0E123700000000B8
:10475000070404040404041F000000000000000F0C
:1047600015151515000000000000000F1212123779
:10477000000000000000000C1212120C00000000EB
:104780000000000F1212120E020700000000001CB1
:104790001212121C103800000000001B0602020753
:1047A000000000000000001E020C101E00000000AF
:1047B0000004040E04040418000000000000001BA4
:1047C0001212123C0000000000000037120A0C0414
:1047D0000000000000000015150E0A0A000000008D
:1047E0000000001B0A040A1B000000000000003744
:1047F000120A0C04040300000000001E0804041E3A
:10480000000000180808080408080808180008082C
:10481000080808080808080808080006040404082E
:104820000404040406000225180000000000000033
:104830000000000000000000000000000000000078
:104840000000000000080808080808080000181800
:10485000000000486C24120000000000000000006E
:1048600000000000002424247F1212127F12121272
:1048700000000000081C2A2A0A0C1828282A2A1CD2
:10488000080800000022251515152A5854545422F2
:1048900000000000000C1212120A76252911916EF8
:1048A00000000006060403000000000000000000F5
:1048B0000000004020101008080808080810102008
:1048C000400000020408081010101010100808041E
:1048D00002000000000008086B1C1C6B08080000A8
:1048E000000000000000080808087F080808080009
:1048F00000000000000000000000000000000606AC
:1049000004030000000000000000FE0000000000A2
:10491000000000000000000000000000000006068B
:10492000000000008040402020101008080404020D
:10493000020000000018244242424242424224182F
:104940000000000000080E08080808080808083ED3
:1049500000000000003C4242422020100804427E39
:1049600000000000003C4242201820404042221C2F
:104970000000000000203028242422227E202078FD
:1049800000000000007E0202021A26404042221C63
:104990000000000000382402021A26424242241875
:1049A00000000000007E22221010080808080808F5
:1049B00000000000003C4242422418244242423C93
:1049C0000000000000182442424264584040241C69
:1049D0000000000000000000181800000000181877
:1049E00000000000000000000008000000000008B7
:1049F00008040000004020100804020408102040B1
:104A000000000000000000007F0000007F000000A8
:104A100000000000000204081020402010080402DA
:104A200000000000003C42424640201010001818D0
:104A300000000000001C225A555555552D42221CDD
:104A400000000000000808181414243C224242E729
:104A500000000000001F2222221E22424242221F8A
:104A600000000000007C4242010101010142221CC1
:104A700000000000001F2242424242424242221FE6
:104A800000000000003F4212121E12120242423F7A
:104A900000000000003F4212121E12120202020722
:104AA00000000000003C2222010101712122221C91
:104AB0000000000000E7424242427E42424242E79A
:104AC00000000000003E0808080808080808083E22
:104AD00000000000007C10101010101010101010BA
:104AE000110F0000007722120A0E0A1212222277FA
:104AF0000000000000070202020202020202427FDE
:104B0000000000000077363636362A2A2A2A2A6B19
:104B10000000000000E346464A4A52525262624791
:104B200000000000001C2241414141414141221C42
:104B300000000000003F424242423E0202020207E1
:104B400000000000001C2241414141414D53321CF4
:104B500060000000003F4242423E1212222242C741
:104B600000000000007C4242020418204042423E05
:104B700000000000007F4908080808080808081C11
:104B80000000000000E74242424242424242423CB0
:104B90000000000000E742422224241414180808F0
:104BA00000000000006B4949494955553622222230
:104BB0000000000000E7422424181818242442E7CB
:104BC0000000000000772222141408080808081CBE
:104BD00000000000007E2120101008040442423F23
:104BE00000000078080808080808080808080808ED
:104BF0007800000002020404080808101020202099
:104C00004040001E10101010101010101010101046
:104C10001E000038440000000000000000000000FA
:104C20000000000000000000000000000000000084
:104C300000FF000608000000000000000000000067
:104C40000000000000000000003C4278444242FCAA
:104C50000000000000030202021A26424242261A05
:104C60000000000000000000003844020202443846
:104C7000000000000060404040784442424264D856
:104C80000000000000000000003C427E0202423CA6
:104C90000000000000F08808087E08080808083EA8
:104CA0000000000000000000007C22221C023C42A8
:104CB000423C000000030202023A4642424242E7FE
:104CC00000000000000C0C00000E08080808083E58
:104CD000000000000030300000382020202020207C
:104CE000221E0000000302020272120A161222772C
:104CF00000000000000E0808080808080808083E20
:104D00000000000000000000007F9292929292B793
:104D10000000000000000000003B4642424242E723
:104D20000000000000000000003C42424242423CC1
:104D30000000000000000000001B26424242221E2C
:104D4000020700000000000000784442424244781C
:104D500040E000000000000000774C040404041F41
:104D60000000000000000000007C42023C40423E87
:104D70000000000000000008083E0808080808308D
:104D8000000000000000000000634242424262DC7A
:104D9000000000000000000000E74224241408087E
:104DA000000000000000000000EB49495555222298
:104DB0000000000000000000007624181818246E7F
:104DC000000000000000000000E74224241418083E
:104DD0000807000000000000007E22100808447E42
:104DE000000000C020202020201020202020202093
:104DF000C000101010101010101010101010101013
:104E00001010000608080808081008080808080814
:104E100006000C32C200000000000000000000008C
:104E20000000D3D002000200FFFE040004000FF0D7
:104E3000081018102FF0481088100FF008100810F4
:104E400008500820D2E201003FF808200440FFFE8D
:104E500000001FF010101FF010101FF0020051048E
:104E6000511290120FF0BACF0100010002800440ED
:104E700008203018CFE6000000001FF010101010BE
:104E8000101010101FF01010D7F7090009000900CA
:104E900011FE12803280348050F890801080108093
:104EA00010FC1080108010801080C7EB0040404044
:104EB00027FC204003F80040E7FE200023F82208EA
:104EC00023F822082BF8320822280210CBBD042038
:104ED0000E20782008200820FF40084018401C4081
:104EE0002A482A84488489FE088208020800C1C42E
:104EF0000000FC804B1E4A527A524A524A527A5261
:104F00004A524AD24F5A7A54C890089009100A104F
:104F1000B7B50000000000000000200803F0043CCA
:104F200000062000042000002000003FF000203098
:104F30007E20200428600464400463C00440C00450
:104F400041600482300484180518080E60001100C6
:104F50000060FFFE201FF8000000BBD8000000002A
:104F600000000000081FFFF81800181800181800AB
:104F70001818001818FF9818811818811818811827
:104F800018811818811818FF181881181880181817
:104F900000181800181800181FFFF818001818003B
:104FA00000000000B1BE000000001000001800006A
:104FB00018000018000018083FFFFC003C00003CEF
:104FC00000007A00005A0000D90000998001988002
:104FD0000318400218600418B80BFFDE30180840B0
:104FE0001800001800001800001800001800D3DA9C
:104FF0000000000000000000200FFFF0001800007B
:1050000018000018000018000018000018087FFFA2
:10501000FC0018000018000018000018000018001C
:105020000018000018000018000018000198000087
:105030007000002000000000D6C70000000400003F
:105040000400000FF3F80882081082081182083F5C
:10505000FE0801020801C2080333F8061A080C1200
:105060000011FFE021004001004001FFC0010040AD
:1050700001004001004001FFE0010060000040002D
:105080000000C4DC00000002000003030006021060
:1050900004423808226030F3803F12000012041FDF
:1050A000E2041863FC1860001FE400186210186224
:1050B000381862601FE380186204186204186204E2
:1050C00018620619E3FC104000000000BCD200008A
:1050D000000030000018000808000FFFFC1800084E
:1050E00030001007FFC00020000060000090600347
:1050F00019800C3B00304500018C80021C800C366E
:105100004030666000863803061C1C0400603C00CA
:10511000001800000000BED30000000000000FFFD8
:10512000F00C00180C00100C00100FFFF00C001019
:105130000C06000C04000C04000FFFFC0C04000C17
:10514000040008042008FFF0088020088020108058
:105150002010802020FFE020802040800000000000
:10516000BCE000000000000000820000C2000886D1
:10517000000887F8088400088D0008888008886087
:1051800008906008A0200080200080200FFFF00819
:1051900046200846200846200846200846200846A3
:1051A000247FFFFC000000000000B2E200000000CD
:1051B000000010000809FE080D860801860801B6E7
:1051C0006841B64833B64813B64813B64805B648E2
:1051D00005B64805B64809A64809A64839A448199D
:1051E000600818580818C4081886081B02380400FC
:1051F00018000000CFB50000000000200007F007F5
:10520000F800001C000030000040400180C006FF94
:10521000000386000018000060400180300EFFD8B7
:10522000070C18008C00008D80018C60030C30048A
:105230000C1818CC0C203808001000000000CDB36A
:10524000000000020200030100060180043FFC0888
:10525000030008C3001084003F0420220818061130
:10526000FC0C3E4C080640378440380440000440A3
:105270000004400384443C0C4430084400104400C3
:10528000607C008000000000CAB500000000100033
:10529000001800000C000008000FFFFC10000C11AB
:1052A000041030C60000640000440006040003043B
:1052B00000010C00010C083FFFFC000800001C006E
:1052C0000013000020E000C030070018380008007C
:1052D0000000CAB100000000004000006000004073
:1052E0003F804021804021804021FFFC21804021DF
:1052F00080403F8040219040218C40218C4021847F
:10530000402180402180403F80402180402100405A
:105310000004400003C0000080000000B1A80000AD
:1053200000000000040000061FF0061020061020F8
:105330000610207FD0200631200610E0061040061F
:10534000DFF80714103E12306612200611600611B5
:10535000400610C006116006123806140E1E180012
:105360000C0000000000BEAF000000044100064138
:10537000007FFD000E43FC0FFB301015201F952011
:105380002890C00FB0C009A13800761C0008083F63
:10539000FFF807FFC000000007FFC000000007FF84
:1053A000C00600C00600C007FFC006008000000065
:1053B000C9E8000000000000081FC00418600618BB
:1053C000400618400010400010400020407E607EE3
:1053D000048020053FF004102004086004086004E5
:1053E00004400444800483800503000606C00618B8
:1053F0007000601C018000000000B1B800000000D7
:10540000400000C00000FFC00180800141800243D5
:10541000000626000C3C00101800003C0000430071
:105420000181E007FFFE3A084802084002084003F5
:10543000FFC002084002084003FFC0020040020013
:1054400040000000BDE9000000001000003800002E
:10545000380000680000640000C200008100010103
:10546000800200E004823C1883182083000083003F
:10547000008300008300008300018300010300011A
:105480000300020300040300180300200300C9DC2A
:10549000000000000000000008063FFC04020808AD
:1054A000020808820810C6081184086F0408320C2C
:1054B00018060870041030083FF81188083E0808E4
:1054C0001008080008080188080E0808380FF800BE
:1054D0001808001000000000CAB900000001020016
:1054E00003030003030002030006FFFC0403000C97
:1054F00003000E3FF81C2318142318242318443FDC
:10550000F8046318042200041200040A00040600D0
:10551000040600040F800418E004607E0580080083
:105520000000D3C30000000000000000100FFFF8CF
:105530000C08100C08100C08100C08100FFFF00CD1
:1055400008100808100808100808100808100FFFB5
:10555000F00808100808101808101008101018108B
:10556000201890201870401020000000CBB50000DB
:1055700000000020081860060C400304400204806C
:10558000003FF80030100430107E3010043010045A
:105590003010043FF0043490040480040480044C70
:1055A0008004888405088406108404208604C0FCD6
:1055B000030000000000C3F7000000000000000727
:1055C000F80004181FC41818441818441818441870
:1055D0001847F81FC4181844181844181844181805
:1055E00047F81FCC18184C18180818000818001095
:1055F0001800201800419800807001002000000071
:10560000CAD20000000030000018000008080FFF98
:10561000F81000181000103000400FFFE0003000BC
:10562000004080018060063FE007C020001020009D
:10563000180000180007FFE000180000180000180C
:10564000087FFFFC000000000000C4DA000000003A
:1056500010000018000018000018000018000FFFCC
:10566000F8081810081010081010081010083C1046
:1056700008261008439008C1900900900A00900C79
:1056800000100800100800100803F008006008006F
:1056900000000000D7B40000000000000302000179
:1056A00002400102300102182102181102081902F9
:1056B0000809FFFC01030001028003068005068043
:1056C000090480310440610C400108600118300178
:1056D000103801201C01400C028000000000BFF6C1
:1056E000000000000000000000207FE010403019A2
:1056F0004020094020024020024020024020047F38
:10570000E0044920080900080900380900181900B8
:1057100010190410110430310430610400C18601F5
:1057200000FC060000000000B5C6000000000000FC
:10573000060000060008063FFC06018006418006C0
:10574000C180270180260180660180460180060114
:10575000800401800401800601800581800CC180E5
:1057600008C1800841801019802007804003000094
:105770000000B9E20000000000000018000018005E
:105780000418400218600118C001988000990000B8
:1057900019087FFFFC00C60000C60000C600008696
:1057A0000000860000860401860401060402060447
:1057B0000402061803FC600000000000BFD80000CF
:1057C00000040000060200040180040100043FFC04
:1057D0007FA00C0464080406C0040C30049818056B
:1057E00020080E4008743FF0640300040300040323
:1057F0000004030004030004030004FFFC3C000059
:10580000080000000000D6C600000001000801806A
:10581000080100080900081910C81FF8881100883D
:105820002100887FFC880100880100881FF888110A
:10583000088811088811088811088811080811784B
:105840000811100801000801007801001000000094
:10585000B9AB00000000000000060000440000C2D8
:105860000000C2000181000101000300800200C0AD
:1058700004106008183010301C2020080060000060
:1058800040000082000101800300C00600400FFFBD
:10589000E0060020000020000000CBBE0000000059
:1058A00000000FFFF00000100000100000100000CA
:1058B000103FFF1000001000001007FC10040C1037
:1058C000040C10040C10040C10040C1007FC100441
:1058D0000C100408100000100001300000F000005F
:1058E00020000000B5D80000000003000C01000CEF
:1058F00001000C21000C31000C31100C31780C31FE
:10590000907FBF100C71100DB1100C31100C3110C4
:105910000C31100C33F00C33340DF3040E300478DA
:105920003004203006001FFC000000000000D6B745
:1059300000000004010004018004018004018004CF
:1059400001800401800481807FD9800411880411C2
:10595000FC04118004118004118004118004118062
:105960000591800611807811802011800011880136
:10597000FFFC000000000000C1AA000000000800B9
:105980000004387FE43010862010864010844810D0
:10599000BFFC1F81801081801081801081841FFFD7
:1059A000FE10818010814010A14011C1401E822054
:1059B00030823000841000881C00900E00E000004F
:1059C0000000B7BD0000000000000020000018002B
:1059D0000018000008047FFFFE00300000200000D7
:1059E0002000002000003FE0006060006060004098
:1059F0004000C0400080400180C00300C00200C0E1
:105A0000041880180780200200000000CABD0000B2
:105A100000000400000640000630000630000618B2
:105A20003FFFFC0006000006000002000002003FED
:105A3000F200010200010300010300010100010165
:105A4000800100840178C40380643C003C30001C69
:105A5000000006000000A3AC0000000000000000F1
:105A60000000000000000000000000000000000036
:105A70000000000000000000000000000000000026
:105A800000000000000C00001C00001C00000C00C6
:105A900000080000080000100000000000000000E6
:105AA000BBB700000000000000000403FFFC3C0145
:105AB000800401000401000403000403003F870088
:105AC000040540040D2004091004111804E10C071A
:105AD000410C1C8104700100200100000100000144
